:100000000C94EC020C9414030C9414030C9414033D
:100010000C9414030C9414030C9414030C94140304
:100020000C9414030C9414030C9414030C941403F4
:100030000C9414030C9414030C9414030C941403E4
:100040000C94D4180C9414030C9444190C941E1999
:100050000C9414030C9414030C9414030C941403C4
:100060000C9476190C94140307634236B79BD8A7F7
:100070001A39685618AEBAAB558C1D3CB7CC5763CD
:10008000BD6DEDFD753EF6177231BF000000803F7B
:1000900008000000BE922449123EABAAAA2ABECD97
:1000A000CCCC4C3E00000080BEABAAAAAA3E000009
:1000B0000000BF000000803F000000000008417801
:1000C000D3BB4387D1133D190E3CC3BD4282AD2B38
:1000D0003E68EC8276BED98FE1A93E4C80EFFFBE30
:1000E00001C4FF7F3F00000000002C20676F7420D8
:1000F00030780067657453657474696E6756616C17
:1001000075653A20435243206661696C3A206578F0
:10011000706563746564203078004669726D77613C
:1001200072652076657273696F6E20307800474F74
:10013000204441544121006D00416C743A2000205C
:1001400042617200507265733A20002025004875A4
:100150006D3A200020430054656D703A20002070F5
:10016000706D00434F323A200052616D3A2000001A
:10017000000000240027002A0000000000250028BD
:10018000002B0000000000230026002900000000D2
:100190000800020100000304070000000000000046
:1001A00000726561644D6561737572656D656E742D
:1001B0003A20656E636F756E746572656420657252
:1001C000726F722072656164696E672053434433B5
:1001D0003020646174612E0020627974657300724E
:1001E0006561644D6561737572656D656E743A2005
:1001F0006E6F205343443330206461746120666F16
:10020000756E642066726F6D204932432C2069320E
:100210006320636C61696D732077652073686F7507
:100220006C64207265636569766520002C20676FB9
:1002300074203078002C20657870656374656420C4
:10024000307800726561644D6561737572656D65C6
:100250006E743A20666F756E642043524320696E57
:1002600020627974652000000000006410B71DC88A
:10027000206E3BAC30D9269041DC76F4516B6B5844
:1002800061B24D3C7105502083B8ED44930FF0E806
:10029000A3D6D68CB361CBB0C2649BD4D2D38678BC
:1002A000E20AA01CF2BDBD04040404040404040218
:1002B0000202020202030303030303010204081003
:1002C00020408001020408102001020408102020B0
:1002D0007F010100000000000000000000005E003F
:1002E000000000000006000006000000247E242418
:1002F0007E240000246B2A2A6B1200004626100878
:1003000064620000344A4A54205000000000000695
:100310000000000000003C42000000000000423CE1
:10032000000000002A1C3E1C2A00000008083E08AD
:100330000800000000403000000000000808080825
:1003400008080000000040000000000040201008E5
:10035000040200003C62524A463C000040447E4099
:100360004000000064525252524C000024424A4A5B
:100370004A340000382422227E2000002E4A4A4AB5
:100380004A3200003C4A4A4A4A30000002026212E5
:100390000A060000344A4A4A4A3400000C525252BB
:1003A000523C000000002400000000000040240037
:1003B00000000000000814220000000014141414AF
:1003C0001414000000002214080000000402520A65
:1003D0000400000018245A5A241800007C1212123B
:1003E000127C00007E4A4A4A4A3400003C424242A3
:1003F000422400007E424242423C00007E4A4A4A79
:10040000424200007E0A0A0A020200003C424252B6
:10041000523400007E080808087E000000427E4238
:100420000000000020404040403E00007E080808D8
:10043000146200007E404040404000007E040808F6
:10044000047E00007E040810207E00003C424242F0
:10045000423C00007E121212120C00003C4252621A
:10046000423C00007E121212324C0000244A4A4ADA
:100470004A30000002027E02020000003E4040407E
:10048000403E00001E204040201E00007E20101034
:10049000207E000042241818244200000204780440
:1004A000020000004262524A46420000007E424280
:1004B000000000000204081020400000000042423A
:1004C0007E00000000000402040000808080808024
:1004D000808080000000020400000000205454547A
:1004E000780000007E48484830000000384444440A
:1004F00028000000304848487E000000385454541A
:100500004800000000087C0A0200000018A4A4A40F
:100510007C0000007E0808087000000000487A4057
:1005200000000000408080887A0000007E101028C3
:100530004400000000427E40000000007C0478047B
:10054000780000007C04040478000000384444442F
:1005500038000000FC44444438000000384444445F
:10056000FC0000007C0804040400000048545454BB
:100570002400000000043E44000000003C404020F5
:100580007C0000001C2040201C0000001C601C603F
:100590001C00000044281028440000001CA0A0A05B
:1005A0007C0000004464544C4400000000083641C4
:1005B000000000000000FF000000000000413608BD
:1005C00000000008040408101008000000000000EB
:1005D00000000000951A6B2711241FBECFEFD8E052
:1005E000DEBFCDBF12E0A0E0B1E0ECEFF0E602C06C
:1005F00005900D92A030B107D9F726E0A0E0B2E057
:1006000001C01D92A33BB207E1F712E0CBEED2E0AE
:1006100004C02197FE010E94922BCA3ED107C9F760
:100620000E94D21C0C9471300C94000080E008955C
:100630000F931F93CF93DF93AAE3B6E04D915D91A3
:100640006D917C911397EC01E881E427EF70D4E081
:10065000ED9FF0011124E959FD4F05911591259168
:100660003491E4E07695679557954795EA95D1F7EB
:1006700040275127622773274D935D936D937C9399
:100680001397EC01E881E295EF70E427EF70D4E076
:10069000ED9FF0011124E959FD4F05911591259128
:1006A0003491F4E07695679557954795FA95D1F78B
:1006B00040275127622773274D935D936D937C9359
:1006C0001397DF91CF911F910F91089591E090932F
:1006D000F1028093F0021092EF021092EE02089560
:1006E000FC019081909528E081E397FF03C0990F6A
:1006F000982701C0990F2150C1F78181892798E07F
:1007000021E387FF03C0880F822701C0880F915023
:10071000C1F708958091A0029091A102891B990BC5
:100720000895089508959B01DC011896ED91FC91C0
:1007300041E067E10994DC011696ED91FC9130E00F
:1007400020E040E069E10994DC011696ED91FC910E
:1007500030E020E040E068E109949A01DC0116965F
:10076000ED91FC91462F67E10994462FDC01169626
:10077000ED91FC9130E020E066E10994462FDC0128
:100780001696ED91FC9130E020E065E10994DC01E2
:100790001896ED91FC9130E020E040E069E1099489
:1007A000DC011896ED91FC9130E020E040E068E13A
:1007B0000994CF93DF931F92CDB7DEB76983BE0153
:1007C0006F5F7F4F0E9493030F90DF91CF91089549
:1007D000EF92FF921F93CF93DF93EC01162F7A01D4
:1007E0000E94D00360E4CE010E94D903E885F98518
:1007F0009701412F67E1CE010995CE01DF91CF919D
:100800001F91FF90EF900C94C703EF92FF921F93FC
:10081000CF93DF93EC01142F7901663181F138F425
:10082000643109F44BC0653179F080E022C0683151
:10083000C9F150F16931C9F780919B02882391F188
:10084000CE010E94C7032EC080919B02882319F01D
:10085000CE010E94C703CE010E94D00360E0CE010A
:100860000E94D903612FCE010E94D90381E08093B9
:100870009B02DF91CF911F91FF90EF900895642F1D
:100880000E94D90381E0F5CF80919B02882319F063
:10089000CE010E94C703A701193138F4612FCE01A0
:1008A0000E94E80310929B02EDCF68E1CE010E9406
:1008B000E803185188E1E80EF11CEDCF8E898F3FD7
:1008C00011F488E78E8BE885F9859701412F64E163
:1008D000CE01DF91CF911F91FF90EF90099483306B
:1008E00081F028F4813099F08230A9F008958730A2
:1008F000A9F08830C9F08430B1F4809180008F7DF8
:1009000003C0809180008F7780938000089584B524
:100910008F7784BD089584B58F7DFBCF8091B00023
:100920008F778093B00008958091B0008F7DF9CFCC
:100930001F93CF93DF93282F30E0F901E357FE4F49
:100940008491F901E554FD4FD491F901E955FD4F2A
:10095000C491CC23A9F0162F81110E946F04EC2FB3
:10096000F0E0EE0FFF1FE758FE4FA591B4918FB74F
:10097000F894EC91111108C0D095DE23DC938FBF61
:10098000DF91CF911F910895DE2BF8CFCF93DF93A6
:1009900090E0FC01E554FD4F249189559D4FFC01E9
:1009A00084918823D1F090E0880F991FFC01E159D0
:1009B000FE4FA591B491FC01E758FE4FC591D4912B
:1009C000623071F49FB7F8943C91822F8095832315
:1009D0008C93E8812E2B28839FBFDF91CF910895C0
:1009E0008FB7F894EC912E2B2C938FBFF6CF3FB797
:1009F000F8948091970290919802A0919902B091F9
:100A00009A0226B5A89B05C02F3F19F00196A11D9B
:100A1000B11D3FBFBA2FA92F982F8827BC01CD0148
:100A2000620F711D811D911D42E0660F771F881FA7
:100A3000991F4A95D1F708958F929F92AF92BF92D6
:100A4000CF92DF92EF92FF926B017C010E94F7043C
:100A50004B015C01C114D104E104F104B9F00E941E
:100A6000F704681979098A099B09683E7340810572
:100A7000910580F321E0C21AD108E108F10888EE5F
:100A8000880E83E0981EA11CB11CE4CFFF90EF906C
:100A9000DF90CF90BF90AF909F908F9008950F936D
:100AA0001F93CF93DF93EC01862F642F8C3208F0D5
:100AB0003AC08A3208F060C0883209F44BC08932EB
:100AC00009F460C0803408F475C0982F9F73FE014C
:100AD000E90FF11D868D8F3F09F44EC0903108F467
:100AE00036C0282F30E0F901E357FE4F8491F90119
:100AF000E554FD4F0491F901E955FD4F149111237F
:100B000079F081110E946F04E12FF0E0EE0FFF1FDA
:100B1000ED57FE4FA591B491EC910E2381E009F4BD
:100B200080E0898F29C08D3299F108F4CBCF94EB06
:100B3000980F923008F0C6CF8F73C80FD11D8E8DDD
:100B4000411134C061E00E94C60460E08E8D0E94B5
:100B5000980412C08E01025E1F4FD0E0F80181910F
:100B60008F018F3F31F061E0D03108F062E00E94E8
:100B7000C604DF5FD63191F781E0DF91CF911F91FD
:100B80000F91089570E090E080E00E941C05F4CF82
:100B900085E090E0433010F082E090E0880F991FEC
:100BA000880F991F05970197F1F7E6CF62E00E9441
:100BB000C604E2CF80E0E1CF2FB7F89460919302B2
:100BC0007091940280919502909196022FBF0895A2
:100BD00008950895EF92FF920F931F93CF93DF93A1
:100BE0008C017B01D0E0C0E0F701EC0FFD1F6491A8
:100BF000662361F0D801ED91FC910190F081E02D28
:100C0000C8010995892B11F02196EECFCE01DF9115
:100C1000CF911F910F91FF90EF900895AF92BF92E7
:100C2000CF92DF92EF92FF920F931F93CF93DF93B8
:100C30006C017B018B01040F151FEB015E01AE18E7
:100C4000BF08C017D10759F06991D601ED91FC9109
:100C50000190F081E02DC6010995892B79F7C50136
:100C6000DF91CF911F910F91FF90EF90DF90CF9088
:100C7000BF90AF900895FC01538D448D252F30E037
:100C8000842F90E0821B930B541710F0CF96089599
:100C900001970895FC01918D828D981761F0A28DC6
:100CA000AE0FBF2FB11D5D968C91928D9F5F9F738C
:100CB000928F90E008958FEF9FEF08958F929F920B
:100CC000AF92BF92CF92DF92EF92FF920F931F935A
:100CD000CF93DF937C018C01060F171FEC016E018F
:100CE000CE18DF080C171D0759F10E94DC05609330
:100CF000FA027093FB028093FC029093FD0282EF54
:100D000092E00E944A0697FF29C00E94DC0580906D
:100D1000FA029090FB02A090FC02B090FD026819CC
:100D200079098A099B098090F6029090F702A090B9
:100D3000F802B090F902681579058A059B05F8F26A
:100D4000C601DF91CF911F910F91FF90EF90DF903F
:100D5000CF90BF90AF909F908F9008958993BFCF11
:100D6000FC01918D828D981731F0828DE80FF11D75
:100D7000858D90E008958FEF9FEF0895FC01918D90
:100D8000228D892F90E0805C9F4F821B91098F7389
:100D900099270895CF92DF92EF92FF920F931F93BE
:100DA000CF9360E0809115040E94980461E08091E7
:100DB00016040E94980464E670E080E090E00E94CF
:100DC0001C054CE050E06BE276E082EF92E00E947E
:100DD0000E060E94DC056B017C010E94DC056C198B
:100DE0007D098E099F090091F6021091F70220916A
:100DF000F8023091F9026017710782079307D0F467
:100E000082EF92E00E94BE06892B39F3C1E064E6CE
:100E100070E080E090E00E941C05CC2391F282EF0C
:100E200092E00E94BE06892B39F082EF92E00E9488
:100E30004A06F5CFC0E0EBCF8091150490911106E2
:100E400061E0911101C060E00E94980460E080912F
:100E500016040E94980464E670E080E090E0CF9170
:100E60001F910F91FF90EF90DF90CF900C941C0595
:100E700082EF92E00E94BE0621E0892B09F420E077
:100E8000822F089580E090E0892B29F00E94380796
:100E900081110C9400000895FC01A48DA80FB92FB6
:100EA000B11DA35ABF4F2C91848D90E001968F7392
:100EB0009927848FA689B7892C93A089B1898C91B1
:100EC000837080648C93938D848D981306C0028800
:100ED000F389E02D80818F7D80830895EF92FF92CA
:100EE0000F931F93CF93DF93EC0181E0888F9B8D4D
:100EF0008C8D98131AC0E889F989808185FF15C007
:100F00009FB7F894EE89FF896083E889F989808129
:100F10008370806480839FBF81E090E0DF91CF91F8
:100F20001F910F91FF90EF900895F62E0B8D10E01A
:100F30000F5F1F4F0F731127E02E8C8D8E110CC089
:100F40000FB607FCFACFE889F989808185FFF5CFD4
:100F5000CE010E944C07F1CFEB8DEC0FFD2FF11D60
:100F6000E35AFF4FF0829FB7F8940B8FEA89FB8911
:100F700080818062CFCFCF93DF93EC01888D88236F
:100F8000B9F0AA89BB89E889F9898C9185FD03C0EC
:100F9000808186FD0DC00FB607FCF7CF8C9185FFD1
:100FA000F2CF808185FFEDCFCE010E944C07E9CFC3
:100FB000DF91CF9108950F931F93E0910906F0916F
:100FC0000A06ED5EFA4F80910B06808382EF92E075
:100FD0000E94BB070E94DC0500910D0610910E06D1
:100FE00020910F0630911006601771078207930752
:100FF00088F34091090650910A0680910B06909162
:101000000C06480F591F64E175E082EF92E00E94E0
:101010000E060E94DC052091090630910A064091D7
:101020000B0650910C06240F351FE8E2E29FA00149
:10103000E39F500D1124640F751F811D911D609356
:101040000D0670930E0680930F06909310061F9165
:101050000F910895CF92DF92EF92FF920F931F931B
:10106000CF93DF936C01EB017B01E40EF51E10E0E2
:1010700000E0CE15DF0561F06991D601ED91FC919C
:101080000190F081E02DC6010995080F191FF1CFDD
:10109000C801DF91CF911F910F91FF90EF90DF90EA
:1010A000CF900895DC011A96ED91FC9130E020E09C
:1010B0000994EF92FF920F931F93CF93DF931F92A8
:1010C000CDB7DEB77C018B01D8016C91673129F176
:1010D00050F46531A0F40F90DF91CF911F910F91E3
:1010E000FF90EF9008956A3118F16E3FA1F7F80173
:1010F0004181498369E2C7010E9452080BC0F8018F
:1011000041814983D7011696ED91FC9130E020E0B2
:10111000C70109950E5F1F4FD7CFF80181818983E1
:10112000AE014F5F5F4F61E0C7010E94AD03F2CF98
:101130000F5F1F4FD7011696ED91FC9130E020E034
:1011400040E0C7010995C0CFEF92FF920F931F9324
:10115000CF93DF93EC01042F79016D3009F446C081
:1011600050F46B30C9F1693009F49FC06A3009F45A
:1011700065C080E046C06E3009F452C06F3099F708
:101180000E94A403F7011381110F110F110F6C8935
:10119000160F60E4CE010E94BE03612F62956F704E
:1011A0006061CE010E94BE03612F6F70CE010E946C
:1011B000B503F7016481606BCE010E94B503F701AE
:1011C000408151816281660F660F660FCE010E94D9
:1011D000AD030150A1F72EC067E271E0442311F086
:1011E00062E271E0CE010E9459080AC0411110C0AC
:1011F0006BE171E00E945908E881F98182898C8B4A
:1012000081E0DF91CF911F910F91FF90EF900895B2
:1012100064E171E00E945908E881F9818389EFCF88
:101220000E94A40361E8CE010E94BE03602FCE019C
:101230000E94B503CE010E949B03E2CFEA85FB85A5
:1012400030E020E040E068E2CE010995EE81FF81C8
:1012500030E020E040E064E1CE01099541E06BE43C
:10126000CE010E945208E881F981448169E2CE01F1
:101270000E94520840E06BE4CE010E945208E881CF
:10128000F981448169E2CE010E94520841E06BE499
:10129000CE010E945208E881F981458169E2CE01C0
:1012A0000E9452086CE271E09DCF81E691E0998343
:1012B00088831C8AA5CFCF92DF92FF920F931F9352
:1012C000CF93DF9300D000D01F92CDB7DEB78C0153
:1012D0001C8281E08B837A836983D801ED91FC9134
:1012E000F1881D82F801A081B181C480D5809E0162
:1012F0002F5F3F4F50964C916FE0C801F601099562
:101300008D818F5F8D838F1568F30F900F900F90F5
:101310000F900F90DF91CF911F910F91FF90DF9071
:10132000CF900895CF93DF93EC01A889B989FD018F
:10133000349131969491319684911396FD01A49144
:101340006317A8F1961798F1631B770B8A9FE02D1E
:101350001124E69FC001E79F900D1124280F392F1B
:10136000311D83E0220F331F8A95E1F7C9010496EE
:10137000DA01245F3F4FE889F989E80FF91FE4910A
:10138000ED93019682179307B1F78D89882361F059
:10139000FA019A01285F3F4F8191DF0111978095F3
:1013A0008C932E173F07C1F7DF91CF910895FA0173
:1013B000CA0108961192E817F907E1F7E6CF2F92D4
:1013C0003F924F925F926F927F928F929F92AF92D5
:1013D000BF92CF92DF92EF92FF920F931F93CF9322
:1013E000DF93CDB7DEB72D970FB6F894DEBF0FBEF3
:1013F000CDBFDC015496ED91FC915597D996DC90C8
:10140000D997CF0103966A3019F5FC018491D80E63
:10141000D996DC92D997D8961C9281E090E02D96CF
:101420000FB6F894DEBF0FBECDBFDF91CF911F91F5
:101430000F91FF90EF90DF90CF90BF90AF909F9073
:101440008F907F906F905F904F903F902F90089576
:1014500032962490D8965C90D8975D0124E0A20E35
:10146000B11CF490FC01E490352C3F0CED0C81E0B4
:10147000850D381610F4FF24F394C62E8D01612CCF
:10148000CE0101964C01462C752C242DA4016C2D07
:10149000C5010E9492097C86DD8691E09B879A8631
:1014A0008986D8011896ED91FC919E01275F3F4FE8
:1014B00041E06FE0C501099543947394731428F3D8
:1014C000D3946F0CDE14F8F2F80180AD820D80AF7A
:1014D000A4CFDC01ED91FC910190F081E02D099405
:1014E00020916502260F3327331F21323105ECF49A
:1014F0002091E802FC0190E080E0243069F082E075
:101500000895A09165022191AC014B5B5D4FA40F42
:10151000B52FB11D2C930196861798F38091650223
:10152000680F6093650280E0089581E0089510924D
:10153000E80281E08093C7021092C20261E082E17A
:101540000E94980461E083E10E949804E9EBF0E0D6
:1015500080818E7F808380818D7F808388E48093EB
:10156000B80085E48093BC0008951092A102109207
:10157000A0021092EF021092EE020E94970A81E9F7
:1015800093E090939F0280939E0282E993E0909370
:101590009D0280939C020895CF93DF9391E09093F6
:1015A00044028823B9F0C091B800D091BA0080916C
:1015B000BC008A7B8093BC0060E082E10E949804BA
:1015C00060E083E10E9498040E94970AD093BA00D9
:1015D000C093B800DF91CF910895CF92DF92EF9240
:1015E000FF920F931F93CF93DF93D82FC62F6132B3
:1015F00008F098C00E94F7046B017C018091E8021A
:1016000081116BC081E08093E8028093C7029FEF55
:101610009093C6021092C5029C0F9093C4028093CF
:10162000C3028091C302DD0FD82BD093C3028091F7
:10163000C202813009F078C01092C2020E94F70401
:101640006B017C018091C3028093BB008091EA0210
:101650009091EB02A091EC02B091ED02892B8A2BC4
:101660008B2BA1F00E94F7040091EA021091EB028B
:101670002091EC023091ED026C197D098E099F09D1
:10168000061717072807390708F448C08091BC00DF
:1016900083FDD8CF85EC8093BC000E94F7046B01DA
:1016A0007C018091E802813009F440C08091C5023C
:1016B0008C1710F4C091C502E2EAF2E0A8ECB2E0A7
:1016C00080E08C1355C08C2FDF91CF911F910F912B
:1016D000FF90EF90DF90CF9008958091EA02909173
:1016E000EB02A091EC02B091ED02892B8A2B8B2B9F
:1016F00009F484CF0E94F7040091EA021091EB02F2
:101700002091EC023091ED026C197D098E099F0940
:10171000061717072807390708F070CF8091E902EC
:101720000E94CC0AC0E0CFCF85EEB5CF8091EA020F
:101730009091EB02A091EC02B091ED02892B8A2BE3
:101740008B2B09F4AECF0E94F7040091EA021091AE
:10175000EB022091EC023091ED026C197D098E09AB
:101760009F09061717072807390708F09ACFD6CF21
:1017700091919D938F5FA5CFE091A1028091A002EE
:10178000E81730F4F0E0E853FD4F808190E00895D1
:101790008FEF9FEF08959091A1028091A0022FEF0B
:1017A0003FEF981748F4E92FF0E0E853FD4F208110
:1017B00030E09F5F9093A102C9010895CF92DF921C
:1017C000EF92FF920F931F93CF93DF937C01CB0196
:1017D0008A012091F102222389F0EB016B01C40EF2
:1017E000D51ECC15DD0569F06991D701ED91FC910D
:1017F0000190F081E02DC7010995F3CF642F0E947D
:10180000700AC801DF91CF911F910F91FF90EF9067
:10181000DF90CF900895CF93DF931F92CDB7DEB7BF
:1018200069832091F1022223F9F02091EE02203207
:1018300058F021E030E0FC013383228390E080E027
:101840000F90DF91CF9108958091EF02E82FF0E0A3
:10185000EC5DFD4F998190838F5F8093EF028093C1
:10186000EE0281E090E0ECCF61E0CE0101960E94B3
:10187000700AF7CFCF92DF92EF92FF920F931F93F0
:10188000CF93DF93D091EE0281E0D13208F09CC07B
:10189000C091F0020E94F7046B017C018091E80284
:1018A00081116CC082E08093E80281E08093C702DE
:1018B0008FEF8093C6021092C502D093C402A4E2B7
:1018C000B2E0E2EAF2E080E0D8138DC01092C302E9
:1018D0008091C302CC0FC82BC093C3028091C20277
:1018E000813009F084C01092C2020E94F7046B019B
:1018F0007C018091C3028093BB008091EA029091A9
:10190000EB02A091EC02B091ED02892B8A2B8B2B7C
:10191000A1F00E94F7040091EA021091EB022091DD
:10192000EC023091ED026C197D098E099F090617B2
:1019300017072807390708F442C08091BC0083FDCF
:10194000D8CF85EC8093BC000E94F7046B017C012A
:101950008091E802823009F44CC08091C6028F3F2A
:1019600009F469C08091C602803209F466C0809192
:10197000C602803309F463C084E026C08091EA0285
:101980009091EB02A091EC02B091ED02892B8A2B91
:101990008B2B09F483CF0E94F7040091EA02109187
:1019A000EB022091EC023091ED026C197D098E0959
:1019B0009F09061717072807390708F06FCF80918E
:1019C000E9020E94CC0A85E01092EF021092EE022A
:1019D0001092F102DF91CF911F910F91FF90EF9044
:1019E000DF90CF9008959D9191938F5F6DCF85EE9D
:1019F000A9CF8091EA029091EB02A091EC02B09104
:101A0000ED02892B8A2B8B2B09F4A2CF0E94F704BD
:101A10000091EA021091EB022091EC023091ED026C
:101A20006C197D098E099F090617170728073907C2
:101A300008F08ECFC4CF80E0C7CF82E0C5CF83E06F
:101A4000C3CFCF93DF93EC01683181F130F464317F
:101A5000A1F0673159F080E006C0693109F43FC058
:101A60006032C9F781E0DF91CF91089550E0B9016C
:101A700083E094E00E94DE0BF5CF8C859D85AE85DA
:101A8000BF85892B8A2B8B2B71F4E881F981A58581
:101A9000B0E020EA36E841E050E00E94E72A6C8797
:101AA0007D878E879F870E94B50ADCCF2C853D8578
:101AB0004E855F8560E074E284EF90E00E94312BF8
:101AC0002051310941095109569547953795279578
:101AD0002093B8008E8986950E946603C3CF83E069
:101AE00094E00E943A0CBECFDF92EF92FF920F93E8
:101AF0001F93CF93DF9300D0CDB7DEB77C018B016E
:101B000019836A83CE0101960E947003D82E81E664
:101B10000E9466036F2D70E080919A0690919B065B
:101B20000E94690AB701772780919A0690919B06D7
:101B30000E94690A612F70E080919A0690919B063D
:101B40000E94690AB801772780919A0690919B06B6
:101B50000E94690A80919A0690919B06DC01ED91A2
:101B6000FC910190F081E02D6D2D099580919A06F0
:101B700090919B060E943A0C91E0811190E0892F90
:101B80000F900F90DF91CF911F910F91FF90EF90E9
:101B9000DF90089590E080E00895682F87E70E9425
:101BA000ED0A1092A1028093A0020895CF93C82F4E
:101BB00087E70E9466036C2F83E094E00E940B0C81
:101BC00083E094E00E943A0C82E090E00E94CD0D08
:101BD0008091A0029091A102891B990B82309105FE
:101BE000ECF383E094E00E94CB0BC82F83E094E0F9
:101BF0000E94CB0B20E03C2FA901482BCA0198275B
:101C000089279827CF9108958F929F92AF92BF9284
:101C1000CF92DF92EF92FF92F82E87E70E94660341
:101C20006F2D83E094E00E940B0C83E094E00E940F
:101C30003A0C83E090E00E94CD0D8091A00290913B
:101C4000A102891B990B83309105ECF383E094E0AA
:101C50000E94CB0B092E000CAA0BBB0B8824982EDC
:101C6000A92EBA2E83E094E00E94CB0B092E000C23
:101C7000AA0BBB0B6C017D01C828D928EA28FB28D8
:101C8000FE2CED2CDC2CCC2483E094E00E94CB0BCA
:101C9000BC01990F880B990B6C297D298E299F29EE
:101CA000FF90EF90DF90CF90BF90AF909F908F907C
:101CB00008952F923F924F925F926F927F928F92F0
:101CC0009F92AF92BF92CF92DF92EF92FF920F93CB
:101CD0001F93CF93DF93CDB7DEB76B970FB6F89412
:101CE000DEBF0FBECDBF8AEF0E94040E20918F038E
:101CF00030919003C72ED82EE92EFF24E7FCFA94EA
:101D0000C21AD30AE108F10817E0959587957795EF
:101D100067951A95D1F7220F331F4B015C01821A88
:101D2000930AA108B108A5019401A0919103B09173
:101D300092030E94F22A4B015C018BE0B594A794B8
:101D4000979487948A95D1F7A7019601C701B601A8
:101D50000E94622B9B01AC019CE0559547953795FD
:101D600027959A95D1F7A0919303B09194030E947F
:101D7000F22A2EE095958795779567952A95D1F764
:101D8000860E971EA81EB91E8092A7039092A803E4
:101D9000A092A903B092AA0387EF0E94040E6E8B53
:101DA0007F8B888F998F8091A7039091A803A09132
:101DB000A903B091AA036C017D01FF0CCC08DC2CB7
:101DC00076019C01AD016C2D7C2D8C2D9C2D345FFA
:101DD00041405109610971098109910929873A87AF
:101DE0004B87652E762E872E982E9B8F5901C42EF9
:101DF000D52EE62EF72E082F192F0E94982B322E63
:101E0000232E488B598B6A8B7B8B8C8B9D8B3091CF
:101E1000980320919703932F990F990B492F592FCE
:101E2000692F792F892F0E94982B0CE00E94902C0B
:101E300029833C874A8F5D876E877F87582E492E7E
:101E400030919A0320919903932F990F990BA32C0A
:101E5000B22CC888D988EA88FB880C891D89492F4B
:101E6000592F692F792F892F0E94982B08E00E9403
:101E7000A92CA980BC84CA8CDD84EE84FF84052D46
:101E8000142D0E94C62C70588F4F9F4FE0919503E0
:101E9000F09196035F01D12CC12CE12CF12C87012C
:101EA000E983BA82CB82DC82ED82FE820F831887BF
:101EB000C12CD12CE12CF12C00E010E00E94982BD9
:101EC00001E20E94A92C2A8F532E49835C876D87DB
:101ED0007E878F87492EA0E00E94D82C09F434C158
:101EE0003091A00320919F03932F990F990BA32C5E
:101EF000B22CC888D988EA88FB880C891D89492FAB
:101F0000592F692F792F892F0E94982B1901488BFF
:101F1000598B6A8B7B8B8C8B9D8B30919E03209190
:101F20009D03932F990F990BA984BA84CB84D62C47
:101F3000E72CF82C092D1B8D492F592F692F792F4C
:101F4000892F0E94982B01E10E94902C5101C88892
:101F5000D988EA88FB880C891D890E94C62C590102
:101F60006A017B01382E192F4E895F89688D798D22
:101F700084E075956795579547958A95D1F780E0E8
:101F800090E0A0E1B0E0841B950BA60BB70B3C01E1
:101F90004D01990C6608762C43019C01AD01662D1C
:101FA000762D862D962D0FE10E94902C722E832E79
:101FB000942E5987B62FA72FF82FE92F30919C0325
:101FC00020919B03932F990F990B492F592F692F1C
:101FD000792F892F03E20E94902C032D0E94C62C9A
:101FE00059016A017B018C01272D382D492D598516
:101FF0006B2F7A2F8F2F9E2F0E94CF2CE5E3AE2ED2
:10200000FCE0BF2EC12CD12CE12CF12C00E010E023
:102010000E94982BAA8CB52CC980DC84ED84FE84A8
:102020000F85142D0E94F22B2F873E8749875A87F0
:102030006B8779838C879D870DE00E94A92C922E57
:10204000832E742E652E562E472E382E292E309133
:10205000A6032091A503932F990F990BA92CB82CB7
:10206000C72CD62CE52CF42C032D122D492F592FDB
:10207000692F792F892F0E94982B0E94982B09E1B4
:102080000E94A92CAF84BE84C984DA84EB84F980D1
:102090000C851D850E94C62C19012A013B014C01AB
:1020A0003091A4032091A303932F990F990B492FEB
:1020B000592F692F792F892F0E94982B03E10E94B5
:1020C000A92C59016A017B018C019101A201B30184
:1020D000C4010E94C62C08E00E94A92C59016A0183
:1020E0007B01E82F192F3091A2032091A103932F98
:1020F000990F990B492F592F692F792F892F04E0B8
:102100000E94902C0E2F0E94C62C49015A0199273B
:102110008B2D7A2D692D6B960FB6F894DEBF0FBE0E
:10212000CDBFDF91CF911F910F91FF90EF90DF9086
:10213000CF90BF90AF909F908F907F906F905F9067
:102140004F903F902F90089560E070E0CB01E3CF77
:10215000CF9381E60E94660362E070E080919A0668
:1021600090919B060E94690A62E070E080919A0655
:1021700090919B060E94690A80919A0690919B0615
:102180000E943A0C882321F090E080E0CF910895DE
:1021900063E070E080E090E00E941C0562E081E670
:1021A0000E94ED0A1092A1028093A00280919A06EB
:1021B00090919B06DC01ED91FC910084F185E02D6E
:1021C0000995892B09F380919A0690919B06DC0171
:1021D000ED91FC910284F385E02D0995C82F809143
:1021E0009A0690919B06DC01ED91FC910284F385A7
:1021F000E02D099520E03C2FA901482BCA01C6CF4C
:102200000E94590E0E94A92920E836EE45EC57E4B9
:102210000E94652D25E534ED42E45EE30E940B2E1D
:102220009B01AC0160E070E080E89FE30E94F82C25
:102230002BE43AE34DEB57E30E94652D0895CF93CD
:10224000DF9320910B0630910C06A901460F571F12
:10225000403F5105B8F4EB01BC0180910906909113
:102260000A06820F931FAE018C5E9A4F0E94523075
:1022700060910B0670910C06C60FD71FD0930C0609
:10228000C0930B06DF91CF9108951616170614F42C
:102290000C941F110895CF93DF9300D0CDB7DEB714
:1022A0009A83898362E070E0CE0101960E94451115
:1022B0000F900F90DF91CF910895AF92BF92CF9280
:1022C000DF92EF92FF920F931F93CF93DF931F92B2
:1022D000CDB7DEB75C01FC018481898361E070E0E9
:1022E000CE0101960E941F11C980D12CC601019612
:1022F0000E94DB277C010097B1F0F5010481158174
:10230000FC010115110571F0C016D10608F4860113
:10231000F50160817181A801C7010E946230F70157
:10232000E00FF11F1082B601C7010E944511E114B0
:10233000F10471F0C7010F90DF91CF911F910F91C0
:10234000FF90EF90DF90CF90BF90AF900C947728E4
:102350000F90DF91CF911F910F91FF90EF90DF9041
:10236000CF90BF90AF9008950F931F93CF93DF93BB
:10237000182F092F10920C0610920B0610920A06C5
:102380001092090683E090E00E94DB27EC010883AD
:1023900019831A8263E070E00E941F11209719F0E0
:1023A000CE010E94772810920C0610920B0684E052
:1023B00090E090930A0680930906DF91CF911F91D8
:1023C0000F910895CF93DF93EC0188819981009755
:1023D00011F00E947728198218821D821C821B82AC
:1023E0001A82DF91CF910895FC018081918100973D
:1023F00011F00C94772808950F931F93CF93DF93D8
:10240000EC0188819981009759F02A813B81261738
:10241000370730F081E0DF91CF911F910F91089540
:102420008B016F5F7F4F0E94952F009759F0998322
:1024300088831B830A832C813D81232B59F7FC0160
:102440001082E8CF80E0E7CFEF92FF920F931F93C7
:10245000CF93DF93EC018617970781F0FB01008192
:1024600011810115110539F0E480F580B7010E9452
:10247000FC1181110BC0CE010E94E211CE01DF914F
:10248000CF911F910F91FF90EF900895FD82EC8204
:10249000B801888199810E945B30F0CF0F931F9320
:1024A000CF93DF9320918C0630918D0640913E06AC
:1024B00050913F06241735070CF056C08B01220FB0
:1024C000331F4091400650914106240F351FF901FA
:1024D0009183808320918C0630918D0646E0429F47
:1024E000C001439F900D1124209142063091430674
:1024F000820F931F0E942412E0914406F09145063A
:1025000080918C0690918D06E80FF91F87E08083FB
:1025100080918C0690918D06019690938D06809304
:102520008C06D0E0C0E0C8018C0F9D1F0E941803EC
:102530002196C630D105B9F7209144063091450661
:1025400080918C0690918D06820F931F0E94180334
:102550008CE896E00E9418038DE896E0DF91CF9119
:102560001F910F910C941803DF91CF911F910F9140
:1025700008950F931F93CF93DF9320918C06309192
:102580008D0640913E0650913F06241735070CF00A
:1025900059C08C01220F331F809140069091410653
:1025A000280F391F88E091E0F90191838083209101
:1025B0008C0630918D0646E0429FC001439F900DEE
:1025C00011242091420630914306B801820F931FD7
:1025D0000E942412E0914406F091450680918C06F9
:1025E00090918D06E80FF91F83E0808380918C061F
:1025F00090918D06019690938D0680938C06D0E085
:10260000C0E0C8018C0F9D1F0E9418032196C630A0
:10261000D105B9F7209144063091450680918C068A
:1026200090918D06820F931F0E9418038CE896E00C
:102630000E9418038DE896E0DF91CF911F910F91D2
:102640000C941803DF91CF911F910F910895EF9291
:10265000FF920F931F93CF93DF93CDB7DEB7A2976F
:102660000FB6F894DEBF0FBECDBF162F009709F04E
:102670003AC080915606909157060E94B41181E0AD
:1026800090E00E944B1190E080E00E944B111AA351
:1026900061E070E0CE0182960E94451180917A0639
:1026A00090917B06A0917C06B0917D068B8F9C8FCC
:1026B000AD8FBE8F64E070E0CE014B960E94451155
:1026C0001A3008F03EC0E12FF0E0E759FC4E0C94C0
:1026D000922B76138F13CD1307142F14A1136114AB
:1026E000A113A113A5140E94B411CDCF809184062B
:1026F00090918506A0918606B09187068F8B988F62
:10270000A98FBA8F64E070E0CE0147960E94451110
:1027100080918206909183060E944B1112C0809195
:102720007E0690917F06A0918006B09181068B8BEA
:102730009C8BAD8BBE8B64E070E0CE0143960E9413
:1027400045110E94DB078091740690917506A09157
:102750007606B09177060196A11DB11D809374068F
:1027600090937506A0937606B09377060E94DC05D9
:1027700060935006709351068093520690935306CF
:10278000A2960FB6F894DEBF0FBECDBFDF91CF91FA
:102790001F910F91FF90EF90089580915A069091AC
:1027A0005B062091600630916106821B930B880FB7
:1027B000991F880F991F2091640630916506820F3A
:1027C000931FFC0180819181A281B3818B879C87BB
:1027D000AD87BE8764E070E0CE010B960E94451184
:1027E00080915A0690915B060E944B11809184065D
:1027F00090918506A0918606B09187068F87988B69
:10280000A98BBA8B64E070E0CE010F9698CF8091CF
:102810005C0690915D062091600630916106821BF6
:10282000930B880F991F880F991F20916406309190
:102830006506820F931FFC0180819181A281B38183
:102840008F839887A987BA8764E070E0CE010796E6
:102850000E94451180915806909159065DCF809154
:102860007E0690917F06A0918006B09181068983B3
:102870009A83AB83BC8364E070E0CE0101960E9432
:10288000451180915E0690915F060E944B1110E009
:1028900000E080915E0690915F060817190708F026
:1028A00050CFC801880F991FE0916206F09163062E
:1028B000E80FF91F808191810E944B110F5F1F4F1C
:1028C000E8CF80918C0690918D0698A38F8F62E05F
:1028D00070E0CE014F960E944511F12CE12C10E0E2
:1028E00000E080918C0690918D06081719070CF076
:1028F00028CFE0914406F0914506E00FF11F80815A
:1029000089A361E070E0CE0181960E94451160913B
:102910004206709143066E0D7F1D1A8219821C8239
:102920001B821E821D82CE0101960E942412CE01BE
:1029300001960E945D11CE0101960E94F4110F5F75
:102940001F4FF6E0EF0EF11CCCCF10E000E08091BD
:102950008C0690918D06081719070CF0F2CEE091C5
:102960004406F0914506E00FF11FE081EE2301F1EE
:10297000A0914006B0914106C801880F991FA80F89
:10298000B91F8D919C91E930B1F41A8219821C8291
:102990001B821E821D82BC01CE0101960E94241260
:1029A000CE0101960E945D11CE0101960E94F411A4
:1029B0000F5F1F4FCCCF70E060E0EA3038F4F0E0FA
:1029C000EE0FFF1FE758FE4F608171810E94451195
:1029D000EFCFEF92FF920F931F93CF93DF93EC0112
:1029E000198218821B821A821D821C826115710550
:1029F00021F18B01FB0101900020E9F731977F0164
:102A0000E61AF70AB7010E94FC11811109C0CE0134
:102A1000DF91CF911F910F91FF90EF900C94E211F5
:102A2000FD82EC82B80188819981DF91CF911F915D
:102A30000F91FF90EF900C945B30DF91CF911F913D
:102A40000F91FF90EF900895AF92BF92CF92DF92D7
:102A5000EF92FF920F931F93CF93DF9300D000D09C
:102A600000D0CDB7DEB77A018C01060F171FF80131
:102A7000C080D12CC6010E94DB275C01F801DC017B
:102A80003196CD018A199B098C159D051CF4808116
:102A90008D93F6CFB501CE0101960E94E914F7019E
:102AA000808191810097A1F169817A816115710519
:102AB00069F1428153812D813E814217530730F1E4
:102AC0000E945B308D819E81F701958384831E82F5
:102AD0001D82CE0101960E94F411A114B10419F0D7
:102AE000C5010E947728C601019626960FB6F89474
:102AF000DEBF0FBECDBFDF91CF911F910F91FF9031
:102B0000EF90DF90CF90BF90AF9008950E9477280C
:102B100089819A81F701918380838B819C81938342
:102B200082838D819E81958384831A8219821C827F
:102B30001B82CDCFFB0101900020E9F73197AF0157
:102B4000461B570BDC01ED91FC910280F381E02DD7
:102B500009948F929F92AF92BF92EF92FF920F9340
:102B60001F93CF93DF93CDB7DEB7A1970FB6F8943D
:102B7000DEBF0FBECDBF7C01FA01CB0119A222300E
:102B800008F42AE08E010F5D1F4F822E912CB12C8C
:102B9000A12CBF01A50194010E94312BF901CA01AA
:102BA0006A300CF5605DD8016E938D01232B242BC8
:102BB000252B79F790E080E0109721F0BD01C70147
:102BC0000E949A15A1960FB6F894DEBF0FBECDBF36
:102BD000DF91CF911F910F91FF90EF90BF90AF9039
:102BE0009F908F900895695CDECF2F923F924F9215
:102BF0005F926F927F928F929F92AF92BF92CF928D
:102C0000DF92EF92FF920F931F93CF93DF93CDB795
:102C1000DEB72E970FB6F894DEBF0FBECDBF0E9471
:102C2000A810019779F519861A861B861C861D82C5
:102C30001E821F82188619821A821B821C8281E6DC
:102C40000E94660380919A0690919B06DC01ED91AB
:102C5000FC910190F081E02D63E0099580919A0646
:102C600090919B06DC01ED91FC910190F081E02DAB
:102C700060E0099580919A0690919B060E943A0C1B
:102C8000882311F080E0A6C063E070E080E090E06F
:102C90000E941C0562E181E60E94ED0A182F109245
:102CA000A1028093A00280919A0690919B06DC017C
:102CB000ED91FC910084F185E02D0995892B09F4B3
:102CC00003C1412C512C3201212C8AE0E82EF12C39
:102CD00099E0C92ED12C24E0A22EB12C33E0832E12
:102CE000912C142D80919A0690919B06DC01ED9118
:102CF000FC910284F385E02D0995382E113108F0FE
:102D000096C0E42DF0E0E957F94E0C94922B9816FA
:102D100098161717981698161717031703171717EB
:102D20000317031717170C170C1717170C170C1787
:102D3000C401133008F0C50184199509E9E0F0E0F9
:102D4000EC0FFD1F8E0F9F1FDC013C92812F63E073
:102D50000E94722BEDE0F0E0EC0FFD1FE90FF11D7A
:102D60003082BFEF4B1A5B0A6B0A7B0AE2E14E1618
:102D700051046104710409F0B4CF2110CCC08985DD
:102D80009A85AB85BC8580939C0690939D06A09305
:102D90009E06B0939F0689819A81AB81BC81809306
:102DA000A0069093A106A093A206B093A3068D81DE
:102DB0009E81AF81B8858093A4069093A506A093C9
:102DC000A606B093A7061092A9061092AA06109222
:102DD000AB0681E02E960FB6F894DEBF0FBECDBFD6
:102DE000DF91CF911F910F91FF90EF90DF90CF90E7
:102DF000BF90AF909F908F907F906F905F904F901B
:102E00003F902F900895C601193008F0C70184192A
:102E10009509E1E0F0E094CF8FE090E01F3010F0F2
:102E200080E190E084199509E5E0F0E089CFCE01DA
:102E30000D960E947003182F381609F492CF209037
:102E4000AE062220F1F163E472E08091AC0690912D
:102E5000AD060E94EA052AE0B301A2018091AC060A
:102E60009091AD060E94A91565E372E08091AC06D1
:102E70009091AD060E94EA05412F50E070E060E0BD
:102E800020E18091AC069091AD060E94A9156CE2FC
:102E900072E08091AC069091AD060E94EA05009127
:102EA000AC061091AD06432D50E070E060E020E1EB
:102EB000C8010E94A9156DEB71E0C8010E949A1526
:102EC00050CF222423944DCF8091AE06882309F45D
:102ED000D9CE6FED71E08091AC069091AD060E9465
:102EE000EA05412F50E070E060E02AE08091AC06F6
:102EF0009091AD060E94A9150091AC061091AD0607
:102F000068ED71E0C8010E94EA056DEB71E0C8014F
:102F10000E949A15B7CE8091AE06882309F4B2CEEE
:102F20000091AC061091AD0661EA71E0EBCF8091A3
:102F3000A906882381F00E94F51581110CC08091AB
:102F4000A806811108C010929C0610929D0610924E
:102F50009E0610929F0681E08093A90660919C06D0
:102F600070919D0680919E0690919F060E94D72D9C
:102F7000CB0108954F925F926F927F928F929F92B2
:102F8000AF92BF92CF92DF92EF92FF920F931F9377
:102F9000CF936B017C01742EAC019B010E945B2ED0
:102FA00060EC71E0811126C046015701E894B7F842
:102FB0002FEF3FEF4FE75FE7C501B4010E945B2EA3
:102FC00081110CC02FEF3FEF4FE75FE7C501B40160
:102FD0000E94A42964EC71E0181664F02FEF3FEF13
:102FE0004FE75FE4C701B6010E94062E1816ACF445
:102FF00068EC71E089EC93E0CF911F910F91FF9005
:10300000EF90DF90CF90BF90AF909F908F907F9088
:103010006F905F904F900C949A152FEF3FEF4FE712
:103020005FECC701B6010E94A42987FDE1CF20E033
:1030300030E0A901C701B6010E94A42910E000E018
:1030400087FF0AC06DE289EC93E00E94DF098C01E2
:10305000F7FAF094F7F8F094C0E060E070E080E0F8
:103060009FE37C1641F020E030E040E251E40E9412
:10307000652DCF5FF6CFA70196010E94F92C2B0199
:103080003C010E94D72D4B015C012AE0BC01A40148
:1030900089EC93E00E94A9157C01E00EF11ECC237F
:1030A000D1F1C501B4010E94A9299B01AC01C30162
:1030B000B2010E94F82C4B015C016EE289EC93E0B6
:1030C0000E94DF09E80EF91EC15028F120E030E02F
:1030D00040E251E4C501B4010E940A2A2B013C01DF
:1030E0000E94D72D4B01B12CA12C2AE0B501A401DF
:1030F00089EC93E00E94A915E80EF91EC501B40100
:103100000E94A9299B01AC01C301B2010E94F82CC5
:103110004B015C01D9CFC701CF911F910F91FF9057
:10312000EF90DF90CF90BF90AF909F908F907F9067
:103130006F905F904F90089585ED8093BC008091D3
:10314000EA029091EB02A091EC02B091ED02079699
:10315000A11DB11D23E0B695A795979587952A9552
:10316000D1F72091BC0024FD03C01092E80208951D
:103170004091EA025091EB026091EC027091ED02F5
:10318000452B462B472B69F30097A105B10541F06C
:1031900025E32A95F1F700000197A109B109E1CFD4
:1031A0008091E9020C94CC0A1F920F920FB60F92F5
:1031B00011242F933F938F939F93AF93BF9380914D
:1031C000930290919402A0919502B0919602309151
:1031D000920223E0230F2D3758F50196A11DB11D52
:1031E000209392028093930290939402A09395026D
:1031F000B09396028091970290919802A0919902C3
:10320000B0919A020196A11DB11D809397029093EF
:103210009802A0939902B0939A02BF91AF919F91A7
:103220008F913F912F910F900FBE0F901F90189587
:1032300026E8230F0296A11DB11DD2CF1F920F9237
:103240000FB60F9211242F933F934F935F936F9379
:103250007F938F939F93AF93BF93EF93FF9382EFEF
:1032600092E00E944C07FF91EF91BF91AF919F9127
:103270008F917F916F915F914F913F912F910F901F
:103280000FBE0F901F9018951F920F920FB60F92BE
:1032900011242F938F939F93EF93FF93E091020359
:1032A000F09103038081E0910803F091090382FD0E
:1032B0001BC0908180910B038F5F8F7320910C0353
:1032C000821741F0E0910B03F0E0EE50FD4F958F37
:1032D00080930B03FF91EF919F918F912F910F900E
:1032E0000FBE0F901F9018958081F4CF1F920F9200
:1032F0000FB60F9211242F933F934F935F936F93C9
:103300007F938F939F93AF93BF93EF93FF9380919E
:10331000B900887F803609F44AC0F0F5883209F494
:10332000A7C018F5803109F49BC0B8F4882309F4CC
:10333000F9C0883009F494C0FF91EF91BF91AF912B
:103340009F918F917F916F915F914F913F912F91BD
:103350000F900FBE0F901F901895883109F488C008
:10336000803251F78093C60214C0803409F49DC0A6
:1033700040F48033B9F38833F9F68093C60285ECC4
:10338000B0C0803509F485C0883509F496C088340A
:1033900099F60E949C18D0CF883909F48CC038F572
:1033A000883729F050F4883611F0803729F683E009
:1033B0008093E8021092870257C0883809F47BC0D6
:1033C000803919F0803809F0B7CF809187028032B8
:1033D00008F071C0E091870281E08E0F8093870230
:1033E0008091BB00F0E0E959FD4F80833DC0803BF8
:1033F00039F0E0F4803A09F479C0883A09F09CCFBA
:1034000084E08093E8021092660210926502E091D7
:103410009E02F0919F0209958091650281110FC073
:1034200081E0809365021092450209C0803C09F456
:10343000A6CF883C09F4A3CF883B09F07DCFE0916B
:10344000660281E08E0F80936602F0E0EB5BFD4F39
:1034500080818093BB00909166028091650229C0B3
:103460008091C3028093BB0085EC8093BC0064CF45
:103470009091C5028091C402981758F5E091C50259
:1034800081E08E0F8093C502F0E0EE55FD4F808104
:10349000E9CFE091C50281E08E0F8093C502809153
:1034A000BB00F0E0EE55FD4F80839091C502809106
:1034B000C4029817C8F285E8D8CFE091C50281E030
:1034C0008E0F8093C5028091BB00F0E0EE55FD4F5A
:1034D00080838091C70281115CCF81E08093C2021A
:1034E00084EA8093BC001092E80226CF85EC80939A
:1034F000BC001092E80280918702803230F4E091A3
:103500008702F0E0E959FD4F10826091870270E078
:10351000E0919C02F0919D0287E692E0099510925D
:1035200087020ACF1092C60234CFCF92DF92EF9279
:10353000FF920F931F93CF93DF931092F502109297
:10354000F40288EE93E0A0E0B0E08093F60290935E
:10355000F702A093F802B093F90281E991E0909309
:10356000F3028093F20285EC90E09093FF02809347
:10357000FE0284EC90E0909301038093000380ECC2
:1035800090E0909303038093020381EC90E090938A
:1035900005038093040382EC90E0909307038093EB
:1035A000060386EC90E09093090380930803109241
:1035B0000B0310920C0310920D0310920E03109245
:1035C000CC031092CB03109201041092020483EA00
:1035D00091E09093CA038093C9031092CE03109296
:1035E000CD031092E2031092E5031092D9031092DA
:1035F000DA031092DB031092DC038FEF8093E30376
:103600008093E703EBEEF3E081E094E0DFEFD1930A
:103610008E179F07E1F784EA98E09093D203809396
:10362000D10385E094E09093D4038093D30381E2A7
:103630009DE09093D6038093D5038FE495E090931B
:10364000D8038093D70330E020E040E069E08DECC0
:1036500093E00E94A408D093F603D093F703D0938D
:10366000F80383E08093BB039BE09093BC03EEEBF5
:10367000F2E0E491E093BD03EAEAF2E0E491E09342
:10368000BE0340E85EE360E070E04093C303509304
:10369000C4036093C5037093C60390E59093B2038F
:1036A0001092B303109206041092050448EE53E002
:1036B00060E070E0409307045093080460930904AD
:1036C00070930A042FEA31E030930404209303043A
:1036D00010929C0610929D0610929E0610929F06D4
:1036E0001092A0061092A1061092A2061092A306B4
:1036F0001092A4061092A5061092A6061092A70694
:103700001092A806C1E0C093A906C093AA06C09370
:10371000AB061092AE0610920B0510920A0510929D
:103720000F0510920E0510920806109207061092CF
:103730000C0610920B0690EC90932B0610922C0620
:1037400099E090932D0610921A0610921906109285
:103750002E0610922F0610921B06109230068093B0
:103760001C0610921D0622E020931E0692E69093FE
:10377000310610921F069091320610922006109288
:1037800021069C7190933206109222061092330605
:1037900010922306109224061092250610922606F7
:1037A00010922706109228061092340610922A06CC
:1037B00010922906109235061092360620931504B1
:1037C0008093160401E010E010930D0500930C05A2
:1037D000CC24CA94DC2C7601C0923A06D0923B06E7
:1037E000E0923C06F0923D066CEC71E080E996E0D8
:1037F0000E94E9141092960610929806109297066D
:10380000C093990610923806109237061092390626
:1038100010926F06D0936E06109278061092790679
:1038200080E197E2A0E0B0E080934C0690934D06D3
:10383000A0934E06B0934F06C0927A06D0927B06B4
:10384000E0927C06F0927D06C0927E06D0927F06C2
:10385000E0928006F0928106C0928406D09285069E
:10386000E0928606F0928706109254061092550652
:1038700010925706109256068EEF9FEF9093830694
:1038800080938206109259061092580610925D0697
:1038900010925C0610925B0610925A0610925F0618
:1038A00010925E0610936106009360061092650602
:1038B00010926406109263061092620610926606D9
:1038C00010926706109268061092690610926A06B6
:1038D00010926B0610926C0610926D0610924106C3
:1038E000109240061092430610924206109245062E
:1038F000109244061092470610924606109249060E
:103900001092480610924B0610924A0690931A069F
:1039100080931906D0932E0680932F0610922206CC
:103920001092330610921B0610923006C0932306A5
:1039300080913406C0932006909132069062909355
:103940003206C0932606C093240610921E0690915C
:103950003106987F90933106109227061092280620
:103960008072806D809334061092700610927106FA
:1039700010927206109273061092740610927506D9
:1039800010927606109277066FEB71E08FE094E06C
:10399000DF91CF911F910F91FF90EF90DF90CF902B
:1039A0000C94E914CF93DF93CDB7DEB729970FB608
:1039B000F894DEBF0FBECDBF789484B5826084BD1D
:1039C00084B5816084BD85B5826085BD85B5816023
:1039D00085BD80916E00816080936E0010928100A1
:1039E000809181008260809381008091810081605C
:1039F000809381008091800081608093800080911D
:103A0000B10084608093B1008091B00081608093A8
:103A1000B00080917A00846080937A0080917A006F
:103A2000826080937A0080917A00816080937A002E
:103A300080917A00806880937A001092C100E091B2
:103A40000203F091030382E08083E091FE02F09193
:103A5000FF021082E0910003F09101038FEC80835C
:103A600010920A03E0910603F091070386E0808339
:103A7000E0910403F0910503808180618083E091EF
:103A80000403F0910503808188608083E091040342
:103A9000F0910503808180688083E0910403F091B8
:103AA000050380818F7D80830E94B50AE091D10358
:103AB000F091D20330E020E040E06AE08DEC93E04A
:103AC00009959E012F5F3F4F190188E0D9011D9292
:103AD0008A95E9F7B9018DEC93E00E945B09E091CA
:103AE000D103F091D20330E020E040E06BE08DECB8
:103AF00093E009950E94B50A87E70E94660360ED8E
:103B000083E094E00E940B0C83E094E00E943A0C66
:103B100081E090E00E94CD0D9091A0028091A102E1
:103B20009817F1F383E094E00E94CB0B883509F0FD
:103B300065C088E80E94D60D9093900380938F0310
:103B40008AE80E94D60D90939203809391038CE8AB
:103B50000E94D60D90939403809393038EE80E9465
:103B6000D60D909396038093950380E90E94D60D1D
:103B7000909398038093970382E90E94D60D9093C7
:103B80009A038093990384E90E94D60D90939C0335
:103B900080939B0386E90E94D60D90939E038093A9
:103BA0009D0388E90E94D60D9093A00380939F0304
:103BB0008AE90E94D60D9093A2038093A1038CE919
:103BC0000E94D60D9093A4038093A3038EE90E94D4
:103BD000D60D9093A6038093A50387E70E94660302
:103BE00064EF83E094E00E940B0C6FE383E094E0C9
:103BF0000E940B0C83E094E00E943A0C83E094E076
:103C000090939B0680939A0681E60E94660361ED7D
:103C100070E080919A0690919B060E94690A70E07C
:103C200060E080919A0690919B060E94690A8091BB
:103C30009A0690919B060E943A0C8111AAC063E0FB
:103C400070E080E090E00E941C0563E081E60E9445
:103C5000ED0A1092A1028093A00280919A069091A1
:103C60009B06DC01ED91FC910084F185E02D099526
:103C7000892B09F48EC080919A0690919B06DC01F5
:103C8000ED91FC910284F385E02D09958983809163
:103C90009A0690919B06DC01ED91FC910284F385DC
:103CA000E02D09958A8380919A0690919B06DC010C
:103CB000ED91FC910284F385E02D0995F82E0981A0
:103CC0001A81102701271027C1010E947003E82ED6
:103CD0008091AE06FE102FC08823C1F06AE171E02A
:103CE0008091AC069091AD060E94EA05E090AC068A
:103CF000F090AD06A80170E060E020E1C7010E94ED
:103D0000A9156DEB71E0C7010E949A1570E060E0A3
:103D100080E190E00E94740D8823D9F162E070E0A8
:103D200080E096E40E94740D70E060E086E093E528
:103D30000E94740D2EC0882361F163EF70E08091C2
:103D4000AC069091AD060E94EA054E2D50E070E061
:103D500060E020E18091AC069091AD060E94A9152B
:103D60006AEE70E08091AC069091AD060E94EA0583
:103D70000091AC061091AD064F2D50E070E060E070
:103D800020E1C8010E94A9156DEB71E0C8010E94F5
:103D90009A1581E08093A806E091D103F091D203B7
:103DA00030E020E041E06DE08DEC93E00995109269
:103DB0008D0610928C0644E0E42EF12CF0923F0622
:103DC000E0923E068AE190E00E94DB27FC01E1924E
:103DD000F1928F017F016C01FAE1CF0ED11C6FEBE4
:103DE00071E0C7010E94E91426E0E20EF11CCE1436
:103DF000DF04A9F7109343060093420684E090E0A5
:103E00000E94DB27909345068093440688E090E06B
:103E10000E94DB27FC0190934106809340061182AB
:103E200010821382128215821482178216821092D7
:103E3000110661E0809115040E94C60461E0809142
:103E400016040E94C60460E0809115040E94980444
:103E500060E0809116040E9498040E94CA066AEDF0
:103E600071E0C1010E94E914B10188E892E00E946A
:103E70004E12C1010E94F41164EE71E0C1010E9472
:103E8000E914C1010E94B912C1010E94F41168EE47
:103E900071E0C1010E94E914B10184E091E00E9447
:103EA0004E12C1010E94F41163EF71E0C1010E9442
:103EB000E914B10180E091E00E944E12C1010E941C
:103EC000F41111E006E00E94DC052B013C01809119
:103ED0003906811102C01093390682EF92E00E94E8
:103EE000BE06892B09F467C0F090230660910C058B
:103EF00070910D0587E194E00E945E0680911704A1
:103F000090E0F11056C090930F0580930E056091DC
:103F10000E0570910F0587E194E00E945E06FF2078
:103F2000A1F080910E0590910F05019790930F05D8
:103F300080930E058B5E9B4FDC0112968C9190E076
:103F40009A9590930B0580930A05A0901704B09062
:103F50001804A114B10409F466C280911904909167
:103F60001A04C0900E05D0900F05009709F41FC2E7
:103F70000E94B411C50101970E944B1184E090E0AA
:103F8000FC01EB5EFB4F7F01C701855194408C150E
:103F90009D0508F015C2D70112968C91898761E0C2
:103FA00070E0CE0109960E944511BFEFEB1AFB0AA3
:103FB000EBCF0196A8CF80916F06833009F4A6C697
:103FC00008F0DBC1813009F470C6823009F492C672
:103FD00080918E0290918F02A0919002B0919102F7
:103FE000A3019201281B390B4A0B5B0BDA01C901B3
:103FF000803D9740A105B10508F443C140928E026F
:1040000050928F02609290027092910288E0D101EA
:104010001D928A95E9F7B1018DEC93E00E945B094E
:104020000E94A810019709F05AC00E9400110E9436
:10403000D72D82E091E50E94740D0E94971790930E
:104040000901809308018091AB06882381F00E94CA
:10405000F51581110CC08091A806811108C010923D
:10406000A0061092A1061092A2061092A306109329
:10407000AB068091A0069091A106A091A206B091F6
:10408000A3068093040190930501A0930601B093C9
:1040900007018091AA06882381F00E94F5158111FD
:1040A0000CC08091A806811108C01092A40610923D
:1040B000A5061092A6061092A7061093AA06809154
:1040C000A4069091A506A091A606B091A70680939C
:1040D000000190930101A0930201B0930301EFEC62
:1040E000F2E0F093DE03E093DD03109201041092FE
:1040F000020469E671E089EC93E00E94EA05809190
:10410000AF069091B006C12C28E0D22EC81AD90A69
:104110000D2C000CEE08FF082AE0B701A601F7FEFF
:104120000DC06DE289EC93E00E94DF09442755271A
:10413000BA014C195D096E097F092AE089EC93E008
:104140000E94A915109201041093020463E671E025
:1041500089EC93E00E94EA05409108015091090121
:1041600070E060E02AE089EC93E00E94A9156EE51A
:1041700071E089EC93E00E94EA051092010482E06C
:104180008093020467E571E089EC93E00E94EA0500
:1041900060910401709105018091060190910701E1
:1041A00042E00E94BA1764E571E089EC93E00E9456
:1041B000EA051092010483E0809302046EE471E04A
:1041C00089EC93E00E94EA05609100017091010181
:1041D000809102019091030142E00E94BA176BE4C2
:1041E00071E089EC93E00E94EA051092010484E0FA
:1041F0008093020464E471E089EC93E00E94EA0594
:104200000E94590E0E94A92920E030E543EC57E4B2
:104210000E94652D42E00E94BA176FE371E089ECBD
:1042200093E00E94EA051092010485E08093020465
:1042300069E371E089EC93E00E94EA050E940011B5
:1042400042E00E94BA1767E371E089EC93E00E94B4
:10425000EA0580918C0290918D02019664E070E0F5
:104260000E947E2B90938D0280938C02E091D1036B
:10427000F091D20330E020E040E060E18DEC93E08B
:10428000099580917806882309F46AC01092010488
:10429000009302046EE271E089EC93E00E94EA056B
:1042A0000E94971790930901809308018091AB06B3
:1042B000882381F00E94F51581110CC08091A80619
:1042C000811108C01092A0061092A1061092A206B9
:1042D0001092A3061093AB068091A0069091A106C0
:1042E000A091A206B091A3068093040190930501CA
:1042F000A0930601B09307018091AA06882381F05C
:104300000E94F51581110CC08091A806811108C08A
:104310001092A4061092A5061092A6061092A70667
:104320001093AA068091A4069091A506A091A606D6
:10433000B091A7068093000190930101A093020120
:10434000B09303010E94590E0E94A929609388022C
:104350007093890280938A0290938B02109379065E
:1043600080E090E0892B09F4AECD0E9438078823C5
:1043700009F4A7CD0E940000A4CD853009F4A3C59F
:1043800008F476C5863009F023CE82EF92E00E94D1
:104390003B06892B09F41CCE80917906882309F409
:1043A00017CE109279061092780669E091C5809137
:1043B0005606909157060E94B41190E080E0E0CD3F
:1043C0000E94DB078091740690917506A091760695
:1043D000B09177060196A11DB11D8093740690934C
:1043E0007506A0937606B09377060E94DC0560936D
:1043F0005006709351068093520690935306809115
:10440000700690917106A0917206B09173060196A4
:10441000A11DB11D8093700690937106A093720642
:10442000B09373065ACDE0911904E0936E06C090E4
:104430001A04D0901B04E0901C04F0901D04EA3094
:10444000F0F6F0E0EA5DFD4D0C94922B30228C22C8
:1044500080238323C52351245524322553257625D3
:104460008091840690918506A0918606B09187067A
:10447000B7FF13C00E94F70461157105810591050E
:1044800011F00E949B290E944C2960937A06709338
:104490007B0680937C0690937D06809184069091A4
:1044A0008506A0918606B0918706B7FD0EC04091A3
:1044B0001E0450911F046091200470912104841700
:1044C0009507A607B70709F49ACF80912204909127
:1044D0002304909357068093560610935406109227
:1044E0005F0610925E0610926606109267061092A2
:1044F00068061092690610926A0610926B06109276
:104500006D06C0927E06D0927F06E0928006F09201
:10451000810610936F0673CF80911E0490911F0443
:10452000A0912004B091210480938806909389067D
:10453000A0938A06B0938B0640917A0650917B0631
:1045400060917C0670917D06481759076A077B07C2
:1045500009F055CF80915E0690915F0680906406C9
:1045600090906506F40130E020E0009709F044C027
:1045700020915806309159063093610620936006C9
:1045800020915806309159062F5F3F4F30935906BE
:104590002093580601968115E0E29E0708F042C07C
:1045A000880F991F880F991F0E94DB27909365063B
:1045B00080936406D40180915E0690915F06A816F0
:1045C000B90698F5CD0188199909E0916406F09132
:1045D0006506E80FF91F4D915D916D917D914083C6
:1045E000518362837383FFEFAF1ABF0AE4CF2F5F5B
:1045F0003F4F8217930721F241915191619171913F
:104600004C155D056E057F0591F7809160069091D0
:104610006106280F391F30935B0620935A061093CA
:104620006906EDCE8FEF9FEFBFCF8114910419F093
:10463000C4010E94772880915E0690915F06880FE2
:10464000991F880F991FE0916406F0916506E80FA5
:10465000F91FC082D182E282F38280915E0690913E
:104660005F06019690935F0680935E06109369063D
:104670008BE090E040917E0650917F06609180062D
:10468000709181064C155D056E057F0509F0B7CE6A
:10469000FC01E95EFB4F408151816281738140934F
:1046A00088065093890660938A0670938B06C090A3
:1046B0007A06D0907B06E0907C06F0907D06C416CA
:1046C000D506E606F70609F09ACEFC01E55EFB4F3B
:1046D000208131813093830620938206835E9B4F35
:1046E000FC0180819181A281B381809384069093A3
:1046F0008506A0938606B09387061093550609CFCA
:1047000087E090E0B7CF80917E0690917F06A091E0
:104710008006B09181068C159D05AE05BF0509F098
:104720006ECE80911E0490911F04A0912004B09140
:1047300021048093880690938906A0938A06B093FB
:104740008B0640917A0650917B0660917C067091B1
:104750007D06481759076A077B0709F050CE8091FC
:1047600022049091230490935906809358069093C5
:104770005D0680935C0690935B0680935A061093C7
:104780006606F2E0F0936F063ACE80911E04909197
:104790001F04A0912004B091210480938806909377
:1047A0008906A0938A06B0938B0640917A065091B1
:1047B0007B0660917C0670917D06481759076A0751
:1047C0007B0709F01CCEE0902204F09023041093A4
:1047D0006B06E114F10409F412CE80915806909111
:1047E00059068E0D9F1D9093590680935806C090D0
:1047F0006206D090630680915E0690915F068E0DF2
:104800009F1D811520E4920710F5880F991F0E94C3
:10481000DB279093630680936206F60190E080E0C8
:1048200020915E0630915F068217930798F461919C
:104830007191AC01440F551F2091620630916306BF
:10484000240F351FD9016D937C930196E9CF8FEF2B
:104850009FEFDDCFC114D10419F0C6010E94772863
:10486000E4E2F4E080915E0690915F068A0D9B1D64
:10487000AE14BF0489F021913191880F991F4091A6
:10488000620650916306840F951FDC012D933C93C3
:10489000BFEFAB1ABB0AE6CF90935F0680935E062C
:1048A000AECDE5E0E0936F06AACD80911E04909115
:1048B0001F04A0912004B091210480938806909356
:1048C0008906A0938A06B0938B068091220490916A
:1048D000230490938F0680938E06181619060CF009
:1048E0008ECD8091460690914706009711F00E9468
:1048F0007728E0904806F0904906E114F104F1F0C1
:10490000F701329720813181F6E0F29FC001F39FD9
:10491000900D1124E80EF91E9701809148069091A0
:10492000490646E0E41AF1088217930721F0C7010F
:104930000E94F411F1CF02970E94772880914A06D5
:1049400090914B06009711F00E947728E0908E0618
:10495000F0908F06C701880F991FE11450E4F50607
:1049600010F08FEF9FEF0E94DB2790934706809314
:10497000460686E5E81685E1F806E0F4A6E0AE9D79
:10498000C001AF9D900D112402960E94DB27FC010F
:10499000E192F1926F015F01F1E0EF1AF108F7FC8B
:1049A0000CC06FEB71E0C5010E94E91426E0A20E75
:1049B000B11CF2CF8FEF9FEFE8CFD0924906C092A3
:1049C000480680918E0690918F060E94DB27909377
:1049D0004B0680934A0690E080E020918E0630914D
:1049E0008F06821793076CF49C01220F331FE0910E
:1049F0004606F0914706E20FF31F118210820196DE
:104A0000ECCFB12CA12CD12CC12C8DE090E02091C9
:104A10008E0630918F06C216D3060CF0F0CCFC0146
:104A2000E95EFB4F2081E0914A06F0914B06EC0DC8
:104A3000FD1D20837C013FEFE31AF30A40914806F5
:104A4000509149064A0D5B1DB70187E194E00E9431
:104A500024158E0D9F1D4FEFC41AD40A56E0A50EE3
:104A6000B11CD5CF80911E0490911F04A091200409
:104A7000B09121048093880690938906A0938A06BA
:104A8000B0938B0640917A0650917B0660917C062C
:104A900070917D06481759076A077B0709F0AFCC6C
:104AA00010936D06ACCC80911E0490911F04A091D0
:104AB0002004B09121048093880690938906A093E6
:104AC0008A06B0938B0640917A0650917B066091DE
:104AD0007C0670917D06481759076A077B0709F025
:104AE0008ECC1093780600936F0689CC80911E04BB
:104AF00090911F04A0912004B09121048093880616
:104B000090938906A0938A06B0938B0680910E0538
:104B100090910F050C970CF472CC912C812CABE08A
:104B2000AA2EB12C80918E0690918F068816990638
:104B30000CF0B8C0C0904606D0904706C401880F5C
:104B4000991FC80ED91EE0914A06F0914B06E80D58
:104B5000F91DE081E15090E080E0E93038F5F0E0C7
:104B6000E954FA4DD601ED90FC900C94922BC0259F
:104B7000DC25EB25EB25032603261F261F263626DC
:104B8000E114F10419F0C7010E94772881E090E058
:104B90000E94DB27F501E95EFB4F20812983FC01A0
:104BA0002083D6018D939C9381E090E0A80EB91EDE
:104BB000FFEF8F1A9F0AB6CFE114F10419F0C70175
:104BC0000E94772881E090E00E94DB27F501E95EF2
:104BD000FB4F2081E4CFE114F10419F0C7010E94DA
:104BE000772882E090E00E94DB27F501E95EFB4F29
:104BF00020813181FC0131832083D6018D939C93E8
:104C000082E090E0D3CFE114F10419F0C7010E94D3
:104C1000772884E090E00E94DB27F501E95EFB4FF6
:104C20004081518162817381FC01408351836283A1
:104C30007383D6018D939C9384E090E0B7CFE11409
:104C4000F10419F0C7010E94772884E090E00E94E7
:104C5000DB27F501E95EFB4F408151816281738161
:104C6000FC014083518362837383E3CFE114F10439
:104C700031F0C7010E94F411C7010E94772886E035
:104C800090E00E94DB277C016FEB71E00E94E91449
:104C9000A701B50187E194E00E942415F601F18295
:104CA000E08284CF10937906AACB809154068823A2
:104CB00051F01092540661E080915606909157068B
:104CC0000E94271314C080915506882381F010920A
:104CD00055068091820690918306809319069093E1
:104CE0001A0690932E0680932F060E94CA061092F1
:104CF0006F066EC980916606882331F010926606B1
:104D000083E080936F0664C964E0D6CF8091670624
:104D1000811108C01093670660E08FEF9FEF0E943B
:104D2000271356C980916906882309F43FC00E9461
:104D3000DC05C0905006D0905106E0905206F090ED
:104D40005306AB01BC014C195D096E097F098091C6
:104D50004C0690914D06A0914E06B0914F06B69527
:104D6000A79597958795481759076A077B0708F411
:104D70002FC910926906E0905A06F0905B06809168
:104D8000580690915906E816F90668F462E08FEF2C
:104D90009FEF0E9427132FEFE21AF20AF0925B06B0
:104DA000E0925A06ECCF1092670612C90E94DC0509
:104DB000C0905006D0905106E0905206F0905306F5
:104DC0006C197D098E099F09C0904C06D0904D0644
:104DD000E0904E06F0904F06C616D706E806F90694
:104DE00008F0F6C81092670680916806811103C02A
:104DF00010936806EDC88091620690916306009753
:104E000011F00E94772880915E0690915F060097CE
:104E100059F1811530E4930710F5880F991F0E940E
:104E2000DB27909363068093620690E080E02091F8
:104E30005E0630915F0682179307A0F420918206E8
:104E400030918306AC01440F551FE0916206F0914A
:104E50006306E40FF51F318320830196E8CF8FEFBF
:104E60009FEFDDCF84E04DCF1092660682E049CF00
:104E700090916A0691111BC020915C0630915D06ED
:104E800040915A0650915B062417350780F4109321
:104E90006A0663E0C9010E94271380915C06909125
:104EA0005D06019690935D0680935C0691C88091A3
:104EB0006B06882329F010926B0610926A0688C848
:104EC0009923A1F285C880916D0666E081110FCF0C
:104ED00090E080E0F5CECF93DF938FE094E00E94E6
:104EE000F4118091400690914106009711F00E94C4
:104EF0007728C0914206D09143062097E1F0FE0149
:104F000032972081318146E0429FC001439F900D3E
:104F10001124C80FD91F9E0180914206909143062B
:104F200026978217930721F0CE010E94F411F3CF48
:104F300002970E9477288091440690914506009739
:104F400011F00E94772880914606909147060097BD
:104F500011F00E947728C0914806D0914906209709
:104F6000E1F0FE0132972081318146E0429FC0018D
:104F7000439F900D1124C80FD91F9E0180914806B0
:104F80009091490626978217930721F0CE010E943F
:104F9000F411F3CF02970E94772880914A069091EE
:104FA0004B06009711F00E94772880E996E0DF9188
:104FB000CF910C94F4110F931F93CF93DF93823012
:104FC000910510F482E090E0E091B106F091B20614
:104FD00030E020E0B0E0A0E0309799F421153105F1
:104FE00009F44AC0281B390B24303105D8F58A81D1
:104FF0009B816115710589F1FB0193838283FE0119
:1050000011C0408151810281138148175907E0F096
:105010004817590799F4109761F012960C9312975C
:1050200013961C933296CF01DF91CF911F910F9170
:1050300008950093B1061093B206F4CF21153105FF
:1050400051F04217530738F0A901DB019A01BD0165
:10505000DF01F801C1CFEF01F9CF9093B206809341
:10506000B106CDCFFE01E20FF31F81939193225041
:10507000310939832883D7CF2091AF063091B0060C
:10508000232B41F420910C0130910D013093B00697
:105090002093AF0620910A0130910B0121153105B3
:1050A00041F42DB73EB740910E0150910F01241BE2
:1050B000350BE091AF06F091B006E217F307A0F4CC
:1050C0002E1B3F0B2817390778F0AC014E5F5F4F5E
:1050D0002417350748F04E0F5F1F5093B0064093DA
:1050E000AF06819391939FCFF0E0E0E09CCFCF9308
:1050F000DF930097E9F0FC01329713821282A091AE
:10510000B106B091B206ED0130E020E01097A1F4B5
:1051100020813181820F931F2091AF063091B0061C
:105120002817390709F061C0F093B006E093AF0685
:10513000DF91CF910895EA01CE17DF07E8F54A81A4
:105140005B819E0141155105B1F7E901FB83EA83BB
:1051500049915991C40FD51FEC17FD0761F4808167
:1051600091810296840F951FE9019983888382813A
:1051700093819B838A83F0E0E0E012968D919C916D
:1051800013970097B9F52D913C911197CD01029697
:10519000820F931F2091AF063091B0062817390770
:1051A00039F6309751F51092B2061092B106B093CD
:1051B000B006A093AF06BCCFD383C2834081518198
:1051C000840F951FC817D90761F44E5F5F4F888120
:1051D0009981480F591F518340838A819B81938312
:1051E00082832115310509F0B0CFF093B206E09328
:1051F000B1069ECFFD01DC01C0CF13821282D7CF52
:105200008F929F92AF92BF92CF92DF92EF92FF92D6
:10521000CF93DF93EC01688179818A819B8161154D
:1052200071058105910521F464E279ED8BE597E044
:105230002DE133EF41E050E00E94C82A49015A01B4
:105240009B01AC01A7EAB1E40E94E72A6B017C0153
:10525000ACEEB4EFA50194010E94F52AC60ED71E4C
:10526000E81EF91EF7FE06C081E0C81AD108E10861
:1052700080E8F80AC882D982EA82FB82C701B601B7
:105280009F77DF91CF91FF90EF90DF90CF90BF900D
:10529000AF909F908F9008958F929F92AF92BF9200
:1052A000CF92DF92EF92FF92609110017091110105
:1052B000809112019091130161157105810591058D
:1052C00021F464E279ED8BE597E02DE133EF41E0E5
:1052D00050E00E94C82A49015A019B01AC01A7EA8B
:1052E000B1E40E94E72A6B017C01ACEEB4EFA501AA
:1052F00094010E94F52AC60ED71EE81EF91EF7FE7D
:1053000006C081E0C81AD108E10880E8F80AC09216
:105310001001D0921101E0921201F0921301C70125
:10532000B6019F77FF90EF90DF90CF90BF90AF9046
:105330009F908F9008956093100170931101809356
:1053400012019093130108950E94E62908F481E068
:105350000895E89409C097FB3EF490958095709568
:1053600061957F4F8F4F9F4F9923A9F0F92F96E9B1
:10537000BB279395F695879577956795B795F11126
:10538000F8CFFAF4BB0F11F460FF1BC06F5F7F4FC3
:105390008F4F9F4F16C0882311F096E911C07723D5
:1053A00021F09EE8872F762F05C0662371F096E8DE
:1053B000862F70E060E02AF09A95660F771F881FAD
:1053C000DAF7880F9695879597F90895990F000851
:1053D000550FAA0BE0E8FEEF16161706E807F907C7
:1053E000C0F012161306E407F50798F0621B730B62
:1053F000840B950B39F40A2661F0232B242B252BE3
:1054000021F408950A2609F4A140A6958FEF811D85
:10541000811D08950E941D2A0C948E2A0E94802AC4
:1054200038F00E94872A20F0952311F00C94772AF7
:105430000C947D2A11240C94C22A0E949F2A70F396
:10544000959FC1F3950F50E0551F629FF001729F29
:10545000BB27F00DB11D639FAA27F00DB11DAA1F38
:10546000649F6627B00DA11D661F829F2227B00D85
:10547000A11D621F739FB00DA11D621F839FA00D10
:10548000611D221F749F3327A00D611D231F849F60
:10549000600D211D822F762F6A2F11249F575040B7
:1054A0009AF0F1F088234AF0EE0FFF1FBB1F661F32
:1054B000771F881F91505040A9F79E3F510580F0FB
:1054C0000C94772A0C94C22A5F3FE4F3983ED4F3FD
:1054D000869577956795B795F795E7959F5FC1F79F
:1054E000FE2B880F911D9695879597F9089597F94A
:1054F0009F6780E870E060E008959FEF80EC08957A
:1055000000240A94161617061806090608950024A2
:105510000A9412161306140605060895092E03941C
:10552000000C11F4882352F0BB0F40F4BF2B11F490
:1055300060FF04C06F5F7F4F8F4F9F4F089557FDEF
:105540009058440F551F59F05F3F71F04795880FF1
:1055500097FB991F61F09F3F79F087950895121688
:1055600013061406551FF2CF4695F1DF08C0161634
:1055700017061806991FF1CF8695710561050894E5
:105580000895E894BB2766277727CB0197F90895FC
:10559000052E97FB1EF400940E94DF2A57FD07D0CA
:1055A0000E94312B07FC03D04EF40C94DF2A509557
:1055B0004095309521953F4F4F4F5F4F08959095FF
:1055C0008095709561957F4F8F4F9F4F08950E94F2
:1055D000532BA59F900DB49F900DA49F800D911DFE
:1055E00011240895B7FF0C94E72A0E94E72A821B32
:1055F000930B08952F923F924F925F926F927F92FA
:105600008F929F92AF92BF92CF92DF92EF92FF92D2
:105610000F931F93CF93DF93CDB7DEB7CA1BDB0B7E
:105620000FB6F894DEBF0FBECDBF09942A88398823
:1056300048885F846E847D848C849B84AA84B9842A
:10564000C884DF80EE80FD800C811B81AA81B98136
:10565000CE0FD11D0FB6F894DEBF0FBECDBFED014A
:105660000895A1E21A2EAA1BBB1BFD010DC0AA1FA3
:10567000BB1FEE1FFF1FA217B307E407F50720F0BB
:10568000A21BB30BE40BF50B661F771F881F991F36
:105690001A9469F760957095809590959B01AC017F
:1056A000BD01CF010895A29FB001B39FC001A39F88
:1056B000700D811D1124911DB29F700D811D11244B
:1056C000911D0895DB018F939F930E94E72ABF915C
:1056D000AF91A29F800D911DA39F900DB29F900D41
:1056E00011240895991B79E004C0991F961708F0BA
:1056F000961B881F7A95C9F78095089597FB072E0A
:1057000016F4009407D077FD09D00E94E42C07FC22
:1057100005D03EF4909581959F4F089570956195C1
:105720007F4F0895EE0FFF1F0590F491E02D09942F
:10573000DF93CF931F930F939A9DF02D219FF00D30
:105740008B9DF00D8A9DE02DF10D039FF00D029FC2
:10575000E00DF11D4E9DE00DF11D5E9DF00D4F9D84
:10576000F00D7F936F93BF92AF925F934F93D501EC
:105770000E94532B8B01AC01D7010E94532BEB01EC
:10578000E80FF91FD6010E94E72B2F913F91D60118
:105790000E94532BC60FD71FE81FF91FAF91BF916F
:1057A0000E94E72B2F913F910E94532BC60FD71FCA
:1057B000E81FF91FD6010E94532BE60FF71F98012F
:1057C000BE01CF010F911F91CF91DF9108950E94EB
:1057D000532B460F571FC81FD91F08F43196089541
:1057E000689401C0E894F92FF12B12F00C94242C4A
:1057F000A0E0B0E0EEEFFBE20C94002B092E059444
:1058000022F40E94802C112392F4F0E80F26FFEF7F
:10581000E094F09400951095B094C094D094A19425
:10582000BF0ACF0ADF0AEF0AFF0A0F0B1F0B0E9405
:105830002F2C07FC0E94802CCDB7DEB7ECE00C9437
:105840001C2B689401C0E8948F929F92CF93DF93B2
:105850000E942F2CDF91CF919F908F9008958824E4
:105860009924F401E401B0E49F93AA279A158B04CC
:105870009C04ED05FE05CF05D007A10798F4AD2FD8
:10588000DC2FCF2FFE2FE92D982C892E982F872FD4
:10589000762F652F542F432F322F2227B85031F700
:1058A000BF9127C01B2EBF91BB27220F331F441F60
:1058B000551F661F771F881F991F881C991CEE1F94
:1058C000FF1FCC1FDD1FAA1FBB1F8A149B04EC0502
:1058D000FD05CE05DF05A007B10748F08A189B0833
:1058E000EC09FD09CE09DF09A00BB10B21601A9468
:1058F000E1F62EF49401AF01BE01CD01000C089534
:10590000609570958095909530954095509521952E
:105910003F4F4F4F5F4F6F4F7F4F8F4F9F4F0895B8
:10592000002E083090F0982F872F762F652F542F58
:10593000432F322F22270850F4CF220F331F441F4A
:10594000551F661F771F881F991F0A95B2F7002DF4
:10595000089597FD1094002E083098F00850232FDA
:10596000342F452F562F672F782F892F912DF4CF65
:10597000159497958795779567955795479537959A
:1059800027950A95AAF71124002D08952A0D3B1D8D
:105990004C1D5D1D6E1D7F1D801F911F08952A19CE
:1059A0003B094C095D096E097F09800B910B089535
:1059B0000024A7FD00942A17300540055005600516
:1059C0007005800590050895AA1BBB1B51E107C017
:1059D000AA1FBB1FA617B70710F0A61BB70B881F7F
:1059E000991F5A95A9F780959095BC01CD0108950E
:1059F0005058BB27AA270E94102D0C948E2A0E9473
:105A0000802A38F00E94872A20F039F49F3F19F449
:105A100026F40C947D2A0EF4E095E7FB0C94772A8B
:105A2000E92F0E949F2A58F3BA1762077307840769
:105A3000950720F079F4A6F50C94C12A0EF4E095B0
:105A40000B2EBA2FA02D0B01B90190010C01CA0138
:105A5000A0011124FF27591B99F0593F50F4503EE3
:105A600068F11A16F040A22F232F342F4427585FD5
:105A7000F3CF469537952795A795F0405395C9F7ED
:105A80007EF41F16BA0B620B730B840BBAF09150A5
:105A9000A1F0FF0FBB1F661F771F881FC2F70EC044
:105AA000BA0F621F731F841F48F487957795679517
:105AB000B795F7959E3F08F0B0CF9395880F08F003
:105AC0009927EE0F9795879508950E94792D0C944C
:105AD0008E2A0E94872A58F00E94802A40F029F4DA
