:100000000C94CC020C94F4020C94F4020C94F402C0
:100010000C94F4020C94F4020C94F4020C94F40288
:100020000C94F4020C94F4020C94F4020C94F40278
:100030000C94F4020C94F4020C94F4020C94F40268
:100040000C940C180C94F4020C947C180C94561814
:100050000C94F4020C94F4020C94F4020C94F40248
:100060000C94AE180C94F40207634236B79BD8A7E1
:100070001A39685618AEBAAB558C1D3CB7CC5763CD
:10008000BD6DEDFD753EF6177231BF000000803F7B
:1000900008000000BE922449123EABAAAA2ABECD97
:1000A000CCCC4C3E00000080BEABAAAAAA3E000009
:1000B0000000BF000000803F000000000008417801
:1000C000D3BB4387D1133D190E3CC3BD4282AD2B38
:1000D0003E68EC8276BED98FE1A93E4C80EFFFBE30
:1000E00001C4FF7F3F00000000002C20676F7420D8
:1000F00030780067657453657474696E6756616C17
:1001000075653A20435243206661696C3A206578F0
:10011000706563746564203078004669726D77613C
:1001200072652076657273696F6E20307800474F74
:10013000204441544121006D00416C743A2000205C
:1001400042617200507265733A20002025004875A4
:100150006D3A200020430054656D703A20002070F5
:10016000706D00434F323A200052616D3A2000001A
:10017000000000240027002A0000000000250028BD
:10018000002B0000000000230026002900000000D2
:100190000800020100000304070000000000000046
:1001A00000726561644D6561737572656D656E742D
:1001B0003A20656E636F756E746572656420657252
:1001C000726F722072656164696E672053434433B5
:1001D0003020646174612E0020627974657300724E
:1001E0006561644D6561737572656D656E743A2005
:1001F0006E6F205343443330206461746120666F16
:10020000756E642066726F6D204932432C2069320E
:100210006320636C61696D732077652073686F7507
:100220006C64207265636569766520002C20676FB9
:1002300074203078002C20657870656374656420C4
:10024000307800726561644D6561737572656D65C6
:100250006E743A20666F756E642043524320696E57
:100260002062797465200004040404040404040278
:100270000202020202030303030303010204081043
:1002800020408001020408102001020408102020F0
:100290007F010100000000000000000000005E007F
:1002A000000000000006000006000000247E242458
:1002B0007E240000246B2A2A6B12000046261008B8
:1002C00064620000344A4A542050000000000006D6
:1002D0000000000000003C42000000000000423C22
:1002E000000000002A1C3E1C2A00000008083E08EE
:1002F0000800000000403000000000000808080866
:100300000808000000004000000000004020100825
:10031000040200003C62524A463C000040447E40D9
:100320004000000064525252524C000024424A4A9B
:100330004A340000382422227E2000002E4A4A4AF5
:100340004A3200003C4A4A4A4A3000000202621225
:100350000A060000344A4A4A4A3400000C525252FB
:10036000523C000000002400000000000040240077
:1003700000000000000814220000000014141414EF
:100380001414000000002214080000000402520AA5
:100390000400000018245A5A241800007C1212127B
:1003A000127C00007E4A4A4A4A3400003C424242E3
:1003B000422400007E424242423C00007E4A4A4AB9
:1003C000424200007E0A0A0A020200003C424252F7
:1003D000523400007E080808087E000000427E4279
:1003E0000000000020404040403E00007E08080819
:1003F000146200007E404040404000007E04080837
:10040000047E00007E040810207E00003C42424230
:10041000423C00007E121212120C00003C4252625A
:10042000423C00007E121212324C0000244A4A4A1A
:100430004A30000002027E02020000003E404040BE
:10044000403E00001E204040201E00007E20101074
:10045000207E000042241818244200000204780480
:10046000020000004262524A46420000007E4242C0
:10047000000000000204081020400000000042427A
:100480007E00000000000402040000808080808064
:1004900080808000000002040000000020545454BA
:1004A000780000007E48484830000000384444444A
:1004B00028000000304848487E000000385454545A
:1004C0004800000000087C0A0200000018A4A4A450
:1004D0007C0000007E0808087000000000487A4098
:1004E00000000000408080887A0000007E10102804
:1004F0004400000000427E40000000007C047804BC
:10050000780000007C04040478000000384444446F
:1005100038000000FC44444438000000384444449F
:10052000FC0000007C0804040400000048545454FB
:100530002400000000043E44000000003C40402035
:100540007C0000001C2040201C0000001C601C607F
:100550001C00000044281028440000001CA0A0A09B
:100560007C0000004464544C440000000008364104
:10057000000000000000FF000000000000413608FD
:10058000000000080404081010080000000000002B
:1005900000000000CD197C2611241FBECFEFD8E04B
:1005A000DEBFCDBF12E0A0E0B1E0EEE1FFE502C0AA
:1005B00005900D92A030B107D9F726E0A0E0B2E097
:1005C00001C01D92AC3AB207E1F712E0CBECD2E0E9
:1005D00004C02197FE010E94A32ACA3CD107C9F793
:1005E0000E94F31B0C94822F0C94000080E008956D
:1005F00091E09093F1028093F0021092EF0210923A
:10060000EE020895FC019081909528E081E397FF28
:1006100003C0990F982701C0990F2150C1F781811C
:10062000892798E021E387FF03C0880F822701C054
:10063000880F9150C1F708958091A0029091A10276
:10064000891B990B0895089508959B01DC01189664
:10065000ED91FC9141E067E10994DC011696ED9182
:10066000FC9130E020E040E069E10994DC0116965D
:10067000ED91FC9130E020E040E068E109949A01BE
:10068000DC011696ED91FC91462F67E10994462F07
:10069000DC011696ED91FC9130E020E066E10994D2
:1006A000462FDC011696ED91FC9130E020E065E1EB
:1006B0000994DC011896ED91FC9130E020E040E0D7
:1006C00069E10994DC011896ED91FC9130E020E09D
:1006D00040E068E10994CF93DF931F92CDB7DEB776
:1006E0006983BE016F5F7F4F0E9425030F90DF91EA
:1006F000CF910895EF92FF921F93CF93DF93EC0178
:10070000162F7A010E94620360E4CE010E946B03FF
:10071000E885F9859701412F67E1CE010995CE0162
:10072000DF91CF911F91FF90EF900C945903EF92BE
:10073000FF921F93CF93DF93EC01142F7901663161
:1007400081F138F4643109F44BC0653179F080E00F
:1007500022C06831C9F150F16931C9F780919B021B
:10076000882391F1CE010E9459032EC080919B02F3
:10077000882319F0CE010E945903CE010E94620322
:1007800060E0CE010E946B03612FCE010E946B03DB
:1007900081E080939B02DF91CF911F91FF90EF90BA
:1007A0000895642F0E946B0381E0F5CF80919B0236
:1007B000882319F0CE010E945903A701193138F49A
:1007C000612FCE010E947A0310929B02EDCF68E167
:1007D000CE010E947A03185188E1E80EF11CEDCF9A
:1007E0008E898F3F11F488E78E8BE885F985970114
:1007F000412F64E1CE01DF91CF911F91FF90EF90E7
:100800000994833081F028F4813099F08230A9F086
:1008100008958730A9F08830C9F08430B1F4809110
:1008200080008F7D03C0809180008F77809380004F
:10083000089584B58F7784BD089584B58F7DFBCFEF
:100840008091B0008F778093B00008958091B000C0
:100850008F7DF9CF1F93CF93DF93282F30E0F901DD
:10086000E357FE4F8491F901E558FD4FD491F9010A
:10087000E959FD4FC491CC23A9F0162F81110E9494
:100880000104EC2FF0E0EE0FFF1FE758FE4FA5919B
:10089000B4918FB7F894EC91111108C0D095DE2374
:1008A000DC938FBFDF91CF911F910895DE2BF8CF9E
:1008B000CF93DF9390E0FC01E558FD4F24918959D7
:1008C0009D4FFC0184918823D1F090E0880F991FFF
:1008D000FC01E159FE4FA591B491FC01E758FE4F90
:1008E000C591D491623071F49FB7F8943C91822FF6
:1008F000809583238C93E8812E2B28839FBFDF91E3
:10090000CF9108958FB7F894EC912E2B2C938FBF35
:10091000F6CF3FB7F8948091970290919802A091FA
:100920009902B0919A0226B5A89B05C02F3F19F0F5
:100930000196A11DB11D3FBFBA2FA92F982F88275F
:10094000BC01CD01620F711D811D911D42E0660F3A
:10095000771F881F991F4A95D1F708958F929F920C
:10096000AF92BF92CF92DF92EF92FF926B017C0128
:100970000E9489044B015C01C114D104E104F1041B
:10098000B9F00E948904681979098A099B09683EAF
:1009900073408105910580F321E0C21AD108E10876
:1009A000F10888EE880E83E0981EA11CB11CE4CFEC
:1009B000FF90EF90DF90CF90BF90AF909F908F907F
:1009C00008950F931F93CF93DF93EC01862F642F2D
:1009D0008C3208F03AC08A3208F060C0883209F4DC
:1009E0004BC0893209F460C0803408F475C0982F78
:1009F0009F73FE01E90FF11D868D8F3F09F44EC0F4
:100A0000903108F436C0282F30E0F901E357FE4F4B
:100A10008491F901E558FD4F0491F901E959FD4F21
:100A20001491112379F081110E940104E12FF0E06B
:100A3000EE0FFF1FED57FE4FA591B491EC910E23E1
:100A400081E009F480E0898F29C08D3299F108F4A2
:100A5000CBCF94EB980F923008F0C6CF8F73C80FAE
:100A6000D11D8E8D411134C061E00E94580460E0B8
:100A70008E8D0E942A0412C08E01025E1F4FD0E0AC
:100A8000F80181918F018F3F31F061E0D03108F0A2
:100A900062E00E945804DF5FD63191F781E0DF9178
:100AA000CF911F910F91089570E090E080E00E9437
:100AB000AE04F4CF85E090E0433010F082E090E0A7
:100AC000880F991F880F991F05970197F1F7E6CFB7
:100AD00062E00E945804E2CF80E0E1CF2FB7F894A3
:100AE0006091930270919402809195029091960288
:100AF0002FBF089508950895EF92FF920F931F93CB
:100B0000CF93DF938C017B01D0E0C0E0F701EC0FC5
:100B1000FD1F6491662361F0D801ED91FC91019075
:100B2000F081E02DC8010995892B11F02196EECFB7
:100B3000CE01DF91CF911F910F91FF90EF9008951B
:100B4000AF92BF92CF92DF92EF92FF920F931F93DB
:100B5000CF93DF936C017B018B01040F151FEB0119
:100B60005E01AE18BF08C017D10759F06991D601D0
:100B7000ED91FC910190F081E02DC6010995892B42
:100B800079F7C501DF91CF911F910F91FF90EF9001
:100B9000DF90CF90BF90AF900895FC01538D448DAE
:100BA000252F30E0842F90E0821B930B541710F018
:100BB000CF96089501970895FC01918D828D981725
:100BC00061F0A28DAE0FBF2FB11D5D968C91928DFD
:100BD0009F5F9F73928F90E008958FEF9FEF08952E
:100BE0008F929F92AF92BF92CF92DF92EF92FF923D
:100BF0000F931F93CF93DF937C018C01060F171F78
:100C0000EC016E01CE18DF080C171D0759F10E9488
:100C10006E056093FA027093FB028093FC0290933E
:100C2000FD0282EF92E00E94DC0597FF29C00E943E
:100C30006E058090FA029090FB02A090FC02B090AA
:100C4000FD02681979098A099B098090F602909043
:100C5000F702A090F802B090F902681579058A05AC
:100C60009B05F8F2C601DF91CF911F910F91FF9084
:100C7000EF90DF90CF90BF90AF909F908F900895AE
:100C80008993BFCFFC01918D828D981731F0828DB1
:100C9000E80FF11D858D90E008958FEF9FEF089587
:100CA000FC01918D228D892F90E0805C9F4F821BEB
:100CB00091098F7399270895CF92DF92EF92FF9257
:100CC0000F931F93CF9360E0809115040E942A0434
:100CD00061E0809116040E942A0464E670E080E0DE
:100CE00090E00E94AE044CE050E06BE276E082EFD0
:100CF00092E00E94A0050E946E056B017C010E949B
:100D00006E056C197D098E099F090091F6021091FC
:100D1000F7022091F8023091F902601771078207FB
:100D20009307D0F482EF92E00E945006892B39F3AA
:100D3000C1E064E670E080E090E00E94AE04CC2365
:100D400091F282EF92E00E945006892B39F082EFF7
:100D500092E00E94DC05F5CFC0E0EBCF8091150456
:100D60009091110661E0911101C060E00E942A0497
:100D700060E0809116040E942A0464E670E080E03E
:100D800090E0CF911F910F91FF90EF90DF90CF9067
:100D90000C94AE0482EF92E00E94500621E0892B71
:100DA00009F420E0822F089580E090E0892B29F05B
:100DB0000E94CA0681110C9400000895FC01A48DC4
:100DC000A80FB92FB11DA35ABF4F2C91848D90E06D
:100DD00001968F739927848FA689B7892C93A08950
:100DE000B1898C91837080648C93938D848D9813DA
:100DF00006C00288F389E02D80818F7D808308956D
:100E0000EF92FF920F931F93CF93DF93EC0181E05A
:100E1000888F9B8D8C8D98131AC0E889F989808101
:100E200085FF15C09FB7F894EE89FF896083E88934
:100E3000F98980818370806480839FBF81E090E026
:100E4000DF91CF911F910F91FF90EF900895F62EB3
:100E50000B8D10E00F5F1F4F0F731127E02E8C8D4D
:100E60008E110CC00FB607FCFACFE889F989808192
:100E700085FFF5CFCE010E94DE06F1CFEB8DEC0FA2
:100E8000FD2FF11DE35AFF4FF0829FB7F8940B8FAF
:100E9000EA89FB8980818062CFCFCF93DF93EC0119
:100EA000888D8823B9F0AA89BB89E889F9898C9152
:100EB00085FD03C0808186FD0DC00FB607FCF7CF0E
:100EC0008C9185FFF2CF808185FFEDCFCE010E940E
:100ED000DE06E9CFDF91CF9108950F931F93E09144
:100EE0000906F0910A06ED5EFA4F80910B068083A9
:100EF00082EF92E00E944D070E946E0500910D0660
:100F000010910E0620910F063091100660177107A0
:100F10008207930788F34091090650910A06809151
:100F20000B0690910C06480F591F64E175E082EFA3
:100F300092E00E94A0050E946E0520910906309162
:100F40000A0640910B0650910C06240F351FE8E26B
:100F5000E29FA001E39F500D1124640F751F811DB6
:100F6000911D60930D0670930E0680930F0690936B
:100F700010061F910F910895CF92DF92EF92FF928A
:100F80000F931F93CF93DF936C01EB017B01E40E72
:100F9000F51E10E000E0CE15DF0561F06991D60185
:100FA000ED91FC910190F081E02DC6010995080FAB
:100FB000191FF1CFC801DF91CF911F910F91FF90C1
:100FC000EF90DF90CF900895DC011A96ED91FC919F
:100FD00030E020E00994EF92FF920F931F93CF939C
:100FE000DF931F92CDB7DEB77C018B01D8016C91E6
:100FF000673129F150F46531A0F40F90DF91CF9162
:101000001F910F91FF90EF9008956A3118F16E3F94
:10101000A1F7F8014181498369E2C7010E94E40711
:101020000BC0F80141814983D7011696ED91FC91DF
:1010300030E020E0C70109950E5F1F4FD7CFF801C0
:1010400081818983AE014F5F5F4F61E0C7010E94DC
:101050003F03F2CF0F5F1F4FD7011696ED91FC9122
:1010600030E020E040E0C7010995C0CFEF92FF9249
:101070000F931F93CF93DF93EC01042F79016D3011
:1010800009F446C050F46B30C9F1693009F49FC0CF
:101090006A3009F465C080E046C06E3009F452C081
:1010A0006F3099F70E943603F7011381110F110F6A
:1010B000110F6C89160F60E4CE010E945003612F5E
:1010C00062956F706061CE010E945003612F6F7056
:1010D000CE010E944703F7016481606BCE010E943C
:1010E0004703F701408151816281660F660F660FE9
:1010F000CE010E943F030150A1F72EC067E271E0CC
:10110000442311F062E271E0CE010E94EB070AC0B5
:10111000411110C06BE171E00E94EB07E881F98199
:1011200082898C8B81E0DF91CF911F910F91FF908D
:10113000EF90089564E171E00E94EB07E881F98186
:101140008389EFCF0E94360361E8CE010E945003ED
:10115000602FCE010E944703CE010E942D03E2CFF3
:10116000EA85FB8530E020E040E068E2CE010995A9
:10117000EE81FF8130E020E040E064E1CE0109959E
:1011800041E06BE4CE010E94E407E881F9814481EB
:1011900069E2CE010E94E40740E06BE4CE010E94C8
:1011A000E407E881F981448169E2CE010E94E40705
:1011B00041E06BE4CE010E94E407E881F9814581BA
:1011C00069E2CE010E94E4076CE271E09DCF81E606
:1011D00091E0998388831C8AA5CFCF92DF92FF92FA
:1011E0000F931F93CF93DF9300D000D01F92CDB702
:1011F000DEB78C011C8281E08B837A836983D801FE
:10120000ED91FC91F1881D82F801A081B181C4802B
:10121000D5809E012F5F3F4F50964C916FE0C801E3
:10122000F60109958D818F5F8D838F1568F30F907F
:101230000F900F900F900F90DF91CF911F910F9112
:10124000FF90DF90CF900895CF93DF93EC01A889B2
:10125000B989FD0134913196949131968491139618
:10126000FD01A4916317A8F1961798F1631B770B02
:101270008A9FE02D1124E69FC001E79F900D112465
:10128000280F392F311D83E0220F331F8A95E1F794
:10129000C9010496DA01245F3F4FE889F989E80F14
:1012A000F91FE491ED93019682179307B1F78D89A9
:1012B000882361F0FA019A01285F3F4F8191DF0195
:1012C000119780958C932E173F07C1F7DF91CF912F
:1012D0000895FA01CA0108961192E817F907E1F793
:1012E000E6CF2F923F924F925F926F927F928F92B2
:1012F0009F92AF92BF92CF92DF92EF92FF920F93A5
:101300001F93CF93DF93CDB7DEB72D970FB6F89429
:10131000DEBF0FBECDBFDC015496ED91FC91559719
:10132000D996DC90D997CF0103966A3019F5FC0164
:101330008491D80ED996DC92D997D8961C9281E0E8
:1013400090E02D960FB6F894DEBF0FBECDBFDF91B3
:10135000CF911F910F91FF90EF90DF90CF90BF90B2
:10136000AF909F908F907F906F905F904F903F9045
:101370002F90089532962490D8965C90D8975D016E
:1013800024E0A20EB11CF490FC01E490352C3F0C3B
:10139000ED0C81E0850D381610F4FF24F394C62E71
:1013A0008D01612CCE0101964C01462C752C242D0B
:1013B000A4016C2DC5010E9424097C86DD8691E084
:1013C0009B879A868986D8011896ED91FC919E019B
:1013D000275F3F4F41E06FE0C50109954394739447
:1013E000731428F3D3946F0CDE14F8F2F80180AD77
:1013F000820D80AFA4CFDC01ED91FC910190F081D2
:10140000E02D099420916502260F3327331F2132E6
:101410003105ECF42091E802FC0190E080E02430FA
:1014200069F082E00895A09165022191AC014B5BC7
:101430005D4FA40FB52FB11D2C930196861798F31D
:1014400080916502680F6093650280E0089581E0F5
:1014500008951092E80281E08093C7021092C202C0
:1014600061E082E10E942A0461E083E10E942A0493
:10147000E9EBF0E080818E7F808380818D7F8083A7
:1014800088E48093B80085E48093BC0008951092AE
:10149000A1021092A0021092EF021092EE020E949E
:1014A000290A83E293E090939F0280939E0284E254
:1014B00093E090939D0280939C020895CF93DF93D5
:1014C00091E0909344028823B9F0C091B800D09184
:1014D000BA008091BC008A7B8093BC0060E082E10E
:1014E0000E942A0460E083E10E942A040E94290AE3
:1014F000D093BA00C093B800DF91CF910895CF92F6
:10150000DF92EF92FF920F931F93CF93DF93D82F29
:10151000C62F613208F098C00E9489046B017C01DB
:101520008091E80281116BC081E08093E802809392
:10153000C7029FEF9093C6021092C5029C0F909332
:10154000C4028093C3028091C302DD0FD82BD093D5
:10155000C3028091C202813009F078C01092C202A9
:101560000E9489046B017C018091C3028093BB00BF
:101570008091EA029091EB02A091EC02B091ED0211
:10158000892B8A2B8B2BA1F00E9489040091EA02FF
:101590001091EB022091EC023091ED026C197D0963
:1015A0008E099F09061717072807390708F448C04E
:1015B0008091BC0083FDD8CF85EC8093BC000E9455
:1015C00089046B017C018091E802813009F440C0FC
:1015D0008091C5028C1710F4C091C502E2EAF2E0D6
:1015E000A8ECB2E080E08C1355C08C2FDF91CF9136
:1015F0001F910F91FF90EF90DF90CF900895809111
:10160000EA029091EB02A091EC02B091ED02892BDD
:101610008A2B8B2B09F484CF0E9489040091EA0263
:101620001091EB022091EC023091ED026C197D09D2
:101630008E099F09061717072807390708F070CF8A
:101640008091E9020E945E0AC0E0CFCF85EEB5CF5F
:101650008091EA029091EB02A091EC02B091ED0230
:10166000892B8A2B8B2B09F4AECF0E948904009121
:10167000EA021091EB022091EC023091ED026C191C
:101680007D098E099F09061717072807390708F0F3
:101690009ACFD6CF91919D938F5FA5CFE091A10274
:1016A0008091A002E81730F4F0E0E853FD4F80810C
:1016B00090E008958FEF9FEF08959091A10280919F
:1016C000A0022FEF3FEF981748F4E92FF0E0E8531E
:1016D000FD4F208130E09F5F9093A102C9010895E2
:1016E000CF92DF92EF92FF920F931F93CF93DF93EE
:1016F0007C01CB018A012091F102222389F0EB01C8
:101700006B01C40ED51ECC15DD0569F06991D701BA
:10171000ED91FC910190F081E02DC7010995F3CF87
:10172000642F0E94020AC801DF91CF911F910F918F
:10173000FF90EF90DF90CF900895CF93DF931F92AB
:10174000CDB7DEB769832091F1022223F9F0209111
:10175000EE02203258F021E030E0FC013383228396
:1017600090E080E00F90DF91CF9108958091EF029B
:10177000E82FF0E0EC5DFD4F998190838F5F8093BF
:10178000EF028093EE0281E090E0ECCF61E0CE01C9
:1017900001960E94020AF7CFCF92DF92EF92FF925A
:1017A0000F931F93CF93DF93D091EE0281E0D1325C
:1017B00008F09CC0C091F0020E9489046B017C017A
:1017C0008091E80281116CC082E08093E80281E0A0
:1017D0008093C7028FEF8093C6021092C502D09308
:1017E000C402A4E2B2E0E2EAF2E080E0D8138DC0E5
:1017F0001092C3028091C302CC0FC82BC093C302C6
:101800008091C202813009F084C01092C2020E940D
:1018100089046B017C018091C3028093BB0080919D
:10182000EA029091EB02A091EC02B091ED02892BBB
:101830008A2B8B2BA1F00E9489040091EA0210915F
:10184000EB022091EC023091ED026C197D098E09BA
:101850009F09061717072807390708F442C0809127
:10186000BC0083FDD8CF85EC8093BC000E94890426
:101870006B017C018091E802823009F44CC08091B8
:10188000C6028F3F09F469C08091C602803209F414
:1018900066C08091C602803309F463C084E026C02C
:1018A0008091EA029091EB02A091EC02B091ED02DE
:1018B000892B8A2B8B2B09F483CF0E9489040091FA
:1018C000EA021091EB022091EC023091ED026C19CA
:1018D0007D098E099F09061717072807390708F0A1
:1018E0006FCF8091E9020E945E0A85E01092EF02BC
:1018F0001092EE021092F102DF91CF911F910F91A1
:10190000FF90EF90DF90CF9008959D9191938F5F1E
:101910006DCF85EEA9CF8091EA029091EB02A09164
:10192000EC02B091ED02892B8A2B8B2B09F4A2CF0C
:101930000E9489040091EA021091EB022091EC02CE
:101940003091ED026C197D098E099F090617170762
:101950002807390708F08ECFC4CF80E0C7CF82E0D8
:10196000C5CF83E0C3CFCF93DF93EC01683181F122
:1019700030F46431A1F0673159F080E006C069317C
:1019800009F43FC06032C9F781E0DF91CF9108953B
:1019900050E0B90183E094E00E94700BF5CF8C8594
:1019A0009D85AE85BF85892B8A2B8B2B71F4E881B1
:1019B000F981A585B0E020EA36E841E050E00E94D8
:1019C000F8296C877D878E879F870E94470ADCCF26
:1019D0002C853D854E855F8560E074E284EF90E064
:1019E0000E94422A205131094109510956954795D3
:1019F000379527952093B8008E8986950E94F80226
:101A0000C3CF83E094E00E94CC0BBECFDF92EF9275
:101A1000FF920F931F93CF93DF9300D0CDB7DEB724
:101A20007C018B0119836A83CE0101960E94020317
:101A3000D82E81E60E94F8026F2D70E08091930607
:101A4000909194060E94FB09B70177278091930635
:101A5000909194060E94FB09612F70E0809193069B
:101A6000909194060E94FB09B80177278091930614
:101A7000909194060E94FB098091930690919406A0
:101A8000DC01ED91FC910190F081E02D6D2D099527
:101A900080919306909194060E94CC0B91E0811165
:101AA00090E0892F0F900F90DF91CF911F910F91B0
:101AB000FF90EF90DF90089590E080E00895682F08
:101AC00087E70E947F0A1092A1028093A0020895E6
:101AD000CF93C82F87E70E94F8026C2F83E094E031
:101AE0000E949D0B83E094E00E94CC0B82E090E08A
:101AF0000E945F0D8091A0029091A102891B990B19
:101B000082309105ECF383E094E00E945D0BC82FD6
:101B100083E094E00E945D0B20E03C2FA901482B5C
:101B2000CA01982789279827CF9108958F929F926D
:101B3000AF92BF92CF92DF92EF92FF92F82E87E79B
:101B40000E94F8026F2D83E094E00E949D0B83E0D9
:101B500094E00E94CC0B83E090E00E945F0D8091A6
:101B6000A0029091A102891B990B83309105ECF39F
:101B700083E094E00E945D0B092E000CAA0BBB0BC6
:101B80008824982EA92EBA2E83E094E00E945D0B43
:101B9000092E000CAA0BBB0B6C017D01C828D928AB
:101BA000EA28FB28FE2CED2CDC2CCC2483E094E0EE
:101BB0000E945D0BBC01990F880B990B6C297D2944
:101BC0008E299F29FF90EF90DF90CF90BF90AF902C
:101BD0009F908F9008952F923F924F925F926F92B5
:101BE0007F928F929F92AF92BF92CF92DF92EF92AD
:101BF000FF920F931F93CF93DF93CDB7DEB76B9711
:101C00000FB6F894DEBF0FBECDBF8AEF0E94960DCF
:101C100020918F0330919003C72ED82EE92EFF24F8
:101C2000E7FCFA94C21AD30AE108F10817E0959587
:101C30008795779567951A95D1F7220F331F4B013A
:101C40005C01821A930AA108B108A5019401A09130
:101C50009103B09192030E94032A4B015C018BE037
:101C6000B594A794979487948A95D1F7A701960184
:101C7000C701B6010E94732A9B01AC019CE05595F7
:101C80004795379527959A95D1F7A0919303B091F1
:101C900094030E94032A2EE0959587957795679582
:101CA0002A95D1F7860E971EA81EB91E8092A7030B
:101CB0009092A803A092A903B092AA0387EF0E9472
:101CC000960D6E8B7F8B888F998F8091A703909153
:101CD000A803A091A903B091AA036C017D01FF0C98
:101CE000CC08DC2C76019C01AD016C2D7C2D8C2D5B
:101CF0009C2D345F414051096109710981099109A5
:101D000029873A874B87652E762E872E982E9B8FB4
:101D10005901C42ED52EE62EF72E082F192F0E941A
:101D2000A92A322E232E488B598B6A8B7B8B8C8B66
:101D30009D8B3091980320919703932F990F990BC6
:101D4000492F592F692F792F892F0E94A92A0CE03A
:101D50000E94A12B29833C874A8F5D876E877F87EE
:101D6000582E492E30919A0320919903932F990F61
:101D7000990BA32CB22CC888D988EA88FB880C89D7
:101D80001D89492F592F692F792F892F0E94A92A40
:101D900008E00E94BA2BA980BC84CA8CDD84EE8442
:101DA000FF84052D142D0E94D72B70588F4F9F4F05
:101DB000E0919503F09196035F01D12CC12CE12CA9
:101DC000F12C8701E983BA82CB82DC82ED82FE822C
:101DD0000F831887C12CD12CE12CF12C00E010E0EE
:101DE0000E94A92A01E20E94BA2B2A8F532E49830E
:101DF0005C876D877E878F87492EA0E00E94E92B44
:101E000009F434C13091A00320919F03932F990FBF
:101E1000990BA32CB22CC888D988EA88FB880C8936
:101E20001D89492F592F692F792F892F0E94A92A9F
:101E30001901488B598B6A8B7B8B8C8B9D8B3091D6
:101E40009E0320919D03932F990F990BA984BA8427
:101E5000CB84D62CE72CF82C092D1B8D492F592F1C
:101E6000692F792F892F0E94A92A01E10E94A12BB5
:101E70005101C888D988EA88FB880C891D890E948D
:101E8000D72B59016A017B01382E192F4E895F89A2
:101E9000688D798D84E075956795579547958A95F6
:101EA000D1F780E090E0A0E1B0E0841B950BA60B99
:101EB000B70B3C014D01990C6608762C43019C013F
:101EC000AD01662D762D862D962D0FE10E94A12B5A
:101ED000722E832E942E5987B62FA72FF82FE92F15
:101EE00030919C0320919B03932F990F990B492FBD
:101EF000592F692F792F892F03E20E94A12B032DDF
:101F00000E94D72B59016A017B018C01272D382DA6
:101F1000492D59856B2F7A2F8F2F9E2F0E94E02BF2
:101F2000E5E3AE2EFCE0BF2EC12CD12CE12CF12C30
:101F300000E010E00E94A92AAA8CB52CC980DC849C
:101F4000ED84FE840F85142D0E94032B2F873E877E
:101F500049875A876B8779838C879D870DE00E941C
:101F6000BA2B922E832E742E652E562E472E382E87
:101F7000292E3091A6032091A503932F990F990B39
:101F8000A92CB82CC72CD62CE52CF42C032D122D03
:101F9000492F592F692F792F892F0E94A92A0E9432
:101FA000A92A09E10E94BA2BAF84BE84C984DA84CD
:101FB000EB84F9800C851D850E94D72B19012A011D
:101FC0003B014C013091A4032091A303932F990F5F
:101FD000990B492F592F692F792F892F0E94A92AF0
:101FE00003E10E94BA2B59016A017B018C01910126
:101FF000A201B301C4010E94D72B08E00E94BA2BB2
:1020000059016A017B01E82F192F3091A203209119
:10201000A103932F990F990B492F592F692F792FCE
:10202000892F04E00E94A12B0E2F0E94D72B49017B
:102030005A0199278B2D7A2D692D6B960FB6F8943E
:10204000DEBF0FBECDBFDF91CF911F910F91FF90EB
:10205000EF90DF90CF90BF90AF909F908F907F9048
:102060006F905F904F903F902F90089560E070E0E8
:10207000CB01E3CFCF9381E60E94F80262E070E0EB
:1020800080919306909194060E94FB0962E070E0B3
:1020900080919306909194060E94FB09809193068B
:1020A000909194060E94CC0B882321F090E080E070
:1020B000CF91089563E070E080E090E00E94AE046C
:1020C00062E081E60E947F0A1092A1028093A00242
:1020D0008091930690919406DC01ED91FC9100842F
:1020E000F185E02D0995892B09F380919306909154
:1020F0009406DC01ED91FC910284F385E02D0995B5
:10210000C82F8091930690919406DC01ED91FC918B
:102110000284F385E02D099520E03C2FA901482B8E
:10212000CA01C6CF0E94EB0D0E94BA2820E836EE05
:1021300045EC57E40E94762C25E534ED42E45EE35D
:102140000E941C2D9B01AC0160E070E080E89FE3E1
:102150000E94092C2BE43AE34DEB57E30E94762CC6
:102160000895CF93DF9320910B0630910C06A901BF
:10217000460F571F403F5105B8F4EB01BC01809159
:10218000090690910A06820F931FAE018C5E9A4F4A
:102190000E94632F60910B0670910C06C60FD71F2B
:1021A000D0930C06C0930B06DF91CF9108951616BD
:1021B000170614F40C94B1100895CF93DF9300D058
:1021C000CDB7DEB79A83898362E070E0CE010196D5
:1021D0000E94D7100F900F90DF91CF910895AF928A
:1021E000BF92CF92DF92EF92FF920F931F93CF9304
:1021F000DF931F92CDB7DEB75C01FC018481898338
:1022000061E070E0CE0101960E94B110C980D12C2E
:10221000C60101960E94EC267C010097B1F0F50101
:1022200004811581FC010115110571F0C016D1065C
:1022300008F48601F50160817181A801C7010E943F
:10224000732FF701E00FF11F1082B601C7010E9442
:10225000D710E114F10471F0C7010F90DF91CF9115
:102260001F910F91FF90EF90DF90CF90BF90AF90B4
:102270000C9488270F90DF91CF911F910F91FF90C1
:10228000EF90DF90CF90BF90AF9008950F931F9382
:10229000CF93DF93182F092F10920C0610920B0684
:1022A00010920A061092090683E090E00E94EC2644
:1022B000EC01088319831A8263E070E00E94B11078
:1022C000209719F0CE010E94882710920C061092D8
:1022D0000B0684E090E090930A0680930906DF9154
:1022E000CF911F910F910895CF93DF93EC018881D7
:1022F0009981009711F00E948827198218821D8207
:102300001C821B821A82DF91CF910895FC0180818B
:102310009181009711F00C94882708950F931F93D3
:10232000CF93DF93EC0188819981009759F02A813E
:102330003B812617370730F081E0DF91CF911F9165
:102340000F9108958B016F5F7F4F0E94A62E00971B
:1023500059F0998388831B830A832C813D81232B29
:1023600059F7FC011082E8CF80E0E7CFEF92FF92AF
:102370000F931F93CF93DF93EC018617970781F09C
:10238000FB01008111810115110539F0E480F58010
:10239000B7010E948E1181110BC0CE010E947411F1
:1023A000CE01DF91CF911F910F91FF90EF90089593
:1023B000FD82EC82B801888199810E946C2FF0CF58
:1023C0002091850630918606409137065091380657
:1023D0002417350794F5220F331F40913906509189
:1023E0003A06240F351FF9019183808320918506D9
:1023F0003091860646E0429FC001439F900D112414
:1024000020913B0630913C06820F931F0E94B6112B
:10241000E0913D06F0913E068091850690918606FA
:10242000E80FF91F87E080838091850690918606EA
:1024300001969093860680938506089520918506DF
:10244000309186064091370650913806241735079B
:10245000ACF5BC01220F331F8091390690913A06EA
:10246000280F391F88E091E0F90191838083209142
:1024700085063091860646E0429FC001439F900D3D
:10248000112420913B0630913C06820F931F0E943D
:10249000B611E0913D06F0913E068091850690913F
:1024A0008606E80FF91F83E080838091850690916E
:1024B0008606019690938606809385060895EF928E
:1024C000FF920F931F93CF93DF93CDB7DEB7A29701
:1024D0000FB6F894DEBF0FBECDBF162F009709F0E0
:1024E0003AC080914F06909150060E94461181E0BB
:1024F00090E00E94DD1090E080E00E94DD101AA3C1
:1025000061E070E0CE0182960E94D7108091730640
:1025100090917406A0917506B09176068B8F9C8F72
:10252000AD8FBE8F64E070E0CE014B960E94D71055
:102530001A3008F03EC0E12FF0E0EF55FD4E0C944C
:10254000A32AAE12C71205133F136713D9129913AA
:10255000D912D912DD130E944611CDCF80917D068C
:1025600090917E06A0917F06B09180068F8B988F08
:10257000A98FBA8F64E070E0CE0147960E94D71011
:1025800080917B0690917C060E94DD1012C08091A4
:10259000770690917806A0917906B0917A068B8B98
:1025A0009C8BAD8BBE8B64E070E0CE0143960E94A5
:1025B000D7100E946D0780916D0690916E06A091D4
:1025C0006F06B09170060196A11DB11D80936D0636
:1025D00090936E06A0936F06B09370060E946E05EE
:1025E0006093490670934A0680934B0690934C067D
:1025F000A2960FB6F894DEBF0FBECDBFDF91CF918C
:102600001F910F91FF90EF90089580915306909144
:1026100054062091590630915A06821B930B880F5D
:10262000991F880F991F20915D0630915E06820FD9
:10263000931FFC0180819181A281B3818B879C874C
:10264000AD87BE8764E070E0CE010B960E94D71084
:1026500080915306909154060E94DD1080917D0672
:1026600090917E06A0917F06B09180068F87988B0F
:10267000A98BBA8B64E070E0CE010F9698CF809161
:102680005506909156062091590630915A06821BA4
:10269000930B880F991F880F991F20915D06309129
:1026A0005E06820F931FFC0180819181A281B3811C
:1026B0008F839887A987BA8764E070E0CE01079678
:1026C0000E94D71080915106909152065DCF809163
:1026D000770690917806A0917906B0917A06898361
:1026E0009A83AB83BC8364E070E0CE0101960E94C4
:1026F000D71080915706909158060E94DD1010E087
:1027000000E080915706909158060817190708F0C5
:1027100050CFC801880F991FE0915B06F0915C06CD
:10272000E80FF91F808191810E94DD100F5F1F4F1C
:10273000E8CF809185069091860698A38F8F62E0FE
:1027400070E0CE014F960E94D710F12CE12C10E0E2
:1027500000E08091850690918606081719070CF015
:1027600028CFE0913D06F0913E06E00FF11F8081F9
:1027700089A361E070E0CE0181960E94D71060913C
:102780003B0670913C066E0D7F1D1A8219821C82D9
:102790001B821E821D82CE0101960E94B611CE01BF
:1027A00001960E94EF10CE0101960E9486110F5FE4
:1027B0001F4FF6E0EF0EF11CCCCF10E000E080914F
:1027C000850690918606081719070CF0F2CEE09165
:1027D0003D06F0913E06E00FF11FE081EE2301F18E
:1027E000A0913906B0913A06C801880F991FA80F29
:1027F000B91F8D919C91E930B1F41A8219821C8223
:102800001B821E821D82BC01CE0101960E94B61160
:10281000CE0101960E94EF10CE0101960E94861112
:102820000F5F1F4FCCCF70E060E0EA3038F4F0E08B
:10283000EE0FFF1FE758FE4F608171810E94D71095
:10284000EFCFEF92FF920F931F93CF93DF93EC01A3
:10285000198218821B821A821D821C8261157105E1
:1028600021F18B01FB0101900020E9F731977F01F5
:10287000E61AF70AB7010E948E11811109C0CE0134
:10288000DF91CF911F910F91FF90EF900C947411F5
:10289000FD82EC82B80188819981DF91CF911F91EF
:1028A0000F91FF90EF900C946C2FDF91CF911F91BF
:1028B0000F91FF90EF900895AF92BF92CF92DF9269
:1028C000EF92FF920F931F93CF93DF9300D000D02E
:1028D00000D0CDB7DEB77A018C01060F171FF801C3
:1028E000C080D12CC6010E94EC265C01F801DC01FD
:1028F0003196CD018A199B098C159D051CF48081A8
:102900008D93F6CFB501CE0101960E942114F701F7
:10291000808191810097A1F169817A8161157105AA
:1029200069F1428153812D813E814217530730F175
:102930000E946C2F8D819E81F701958384831E8276
:102940001D82CE0101960E948611A114B10419F0D6
:10295000C5010E948827C601019626960FB6F894F5
:10296000DEBF0FBECDBFDF91CF911F910F91FF90C2
:10297000EF90DF90CF90BF90AF9008950E9488278E
:1029800089819A81F701918380838B819C819383D4
:1029900082838D819E81958384831A8219821C8211
:1029A0001B82CDCFFB0101900020E9F73197AF01E9
:1029B000461B570BDC01ED91FC910280F381E02D69
:1029C00009948F929F92AF92BF92EF92FF920F93D2
:1029D0001F93CF93DF93CDB7DEB7A1970FB6F894CF
:1029E000DEBF0FBECDBF7C01FA01CB0119A22230A0
:1029F00008F42AE08E010F5D1F4F822E912CB12C1E
:102A0000A12CBF01A50194010E94422AF901CA012B
:102A10006A300CF5605DD8016E938D01232B242B59
:102A2000252B79F790E080E0109721F0BD01C701D8
:102A30000E94D214A1960FB6F894DEBF0FBECDBF90
:102A4000DF91CF911F910F91FF90EF90BF90AF90CA
:102A50009F908F900895695CDECF2F923F924F92A6
:102A60005F926F927F928F929F92AF92BF92CF921E
:102A7000DF92EF92FF920F931F93CF93DF93CDB727
:102A8000DEB72E970FB6F894DEBF0FBECDBF0E9403
:102A90003A10019779F519861A861B861C861D82C5
:102AA0001E821F82188619821A821B821C8281E66E
:102AB0000E94F8028091930690919406DC01ED91BA
:102AC000FC910190F081E02D63E0099580919306DF
:102AD00090919406DC01ED91FC910190F081E02D44
:102AE00060E0099580919306909194060E94CC0B2A
:102AF000882311F080E0A6C063E070E080E090E001
:102B00000E94AE0462E181E60E947F0A182F1092B3
:102B1000A1028093A0028091930690919406DC011B
:102B2000ED91FC910084F185E02D0995892B09F444
:102B300003C1412C512C3201212C8AE0E82EF12CCA
:102B400099E0C92ED12C24E0A22EB12C33E0832EA3
:102B5000912C142D8091930690919406DC01ED91B7
:102B6000FC910284F385E02D0995382E113108F08F
:102B700096C0E42DF0E0E154FA4E0C94A32AD0154F
:102B8000D0154F16D015D0154F163B163B164F16C5
:102B90003B163B164F16441644164F164416441661
:102BA000C401133008F0C50184199509E9E0F0E08B
:102BB000EC0FFD1F8E0F9F1FDC013C92812F63E005
:102BC0000E94832AEDE0F0E0EC0FFD1FE90FF11DFC
:102BD0003082BFEF4B1A5B0A6B0A7B0AE2E14E16AA
:102BE00051046104710409F0B4CF2110CCC089856F
:102BF0009A85AB85BC858093950690939606A093A5
:102C00009706B093980689819A81AB81BC818093A5
:102C1000990690939A06A0939B06B0939C068D818B
:102C20009E81AF81B88580939D0690939E06A09368
:102C30009F06B093A0061092A2061092A3061092CF
:102C4000A40681E02E960FB6F894DEBF0FBECDBF6E
:102C5000DF91CF911F910F91FF90EF90DF90CF9078
:102C6000BF90AF909F908F907F906F905F904F90AC
:102C70003F902F900895C601193008F0C7018419BC
:102C80009509E1E0F0E094CF8FE090E01F3010F084
:102C900080E190E084199509E5E0F0E089CFCE016C
:102CA0000D960E940203182F381609F492CF209037
:102CB000A7062220F1F163E472E08091A5069091CD
:102CC000A6060E947C052AE0B301A2018091A50618
:102CD0009091A6060E94E11465E372E08091A5063A
:102CE0009091A6060E947C05412F50E070E060E0C4
:102CF00020E18091A5069091A6060E94E1146CE265
:102D000072E08091A5069091A6060E947C05009134
:102D1000A5061091A606432D50E070E060E020E18A
:102D2000C8010E94E1146DEB71E0C8010E94D21449
:102D300050CF222423944DCF8091A706882309F4F5
:102D4000D9CE6FED71E08091A5069091A6060E9404
:102D50007C05412F50E070E060E02AE08091A506FC
:102D60009091A6060E94E1140091A5061091A60676
:102D700068ED71E0C8010E947C056DEB71E0C8014F
:102D80000E94D214B7CE8091A706882309F4B2CE50
:102D90000091A5061091A60661EA71E0EBCF809143
:102DA000A206882381F00E942D1581110CC080910C
:102DB000A106811108C010929506109296061092F5
:102DC00097061092980681E08093A206609195067E
:102DD0007091960680919706909198060E94E82C33
:102DE000CB0108954F925F926F927F928F929F9244
:102DF000AF92BF92CF92DF92EF92FF920F931F9309
:102E0000CF936B017C01742EAC019B010E946C2D51
:102E100060EC71E0811126C046015701E894B7F8D3
:102E20002FEF3FEF4FE75FE7C501B4010E946C2D24
:102E300081110CC02FEF3FEF4FE75FE7C501B401F1
:102E40000E94B52864EC71E0181664F02FEF3FEF94
:102E50004FE75FE4C701B6010E94172D1816ACF4C6
:102E600068EC71E089EC93E0CF911F910F91FF9096
:102E7000EF90DF90CF90BF90AF909F908F907F901A
:102E80006F905F904F900C94D2142FEF3FEF4FE76D
:102E90005FECC701B6010E94B52887FDE1CF20E0B5
:102EA00030E0A901C701B6010E94B52810E000E09A
:102EB00087FF0AC06DE289EC93E00E9471098C01E2
:102EC000F7FAF094F7F8F094C0E060E070E080E08A
:102ED0009FE37C1641F020E030E040E251E40E94A4
:102EE000762CCF5FF6CFA70196010E940A2C2B010A
:102EF0003C010E94E82C4B015C012AE0BC01A401CA
:102F000089EC93E00E94E1147C01E00EF11ECC23D9
:102F1000D1F1C501B4010E94BA289B01AC01C301E3
:102F2000B2010E94092C4B015C016EE289EC93E036
:102F30000E947109E80EF91EC15028F120E030E02E
:102F400040E251E4C501B4010E941B292B013C0160
:102F50000E94E82C4B01B12CA12C2AE0B501A40160
:102F600089EC93E00E94E114E80EF91EC501B4015A
:102F70000E94BA289B01AC01C301B2010E94092C36
:102F80004B015C01D9CFC701CF911F910F91FF90E9
:102F9000EF90DF90CF90BF90AF909F908F907F90F9
:102FA0006F905F904F90089585ED8093BC00809165
:102FB000EA029091EB02A091EC02B091ED0207962B
:102FC000A11DB11D23E0B695A795979587952A95E4
:102FD000D1F72091BC0024FD03C01092E8020895AF
:102FE0004091EA025091EB026091EC027091ED0287
:102FF000452B462B472B69F30097A105B10541F0FE
:1030000025E32A95F1F700000197A109B109E1CF65
:103010008091E9020C945E0A1F920F920FB60F92F4
:1030200011242F933F938F939F93AF93BF938091DE
:10303000930290919402A0919502B09196023091E2
:10304000920223E0230F2D3758F50196A11DB11DE3
:10305000209392028093930290939402A0939502FE
:10306000B09396028091970290919802A091990254
:10307000B0919A020196A11DB11D80939702909381
:103080009802A0939902B0939A02BF91AF919F9139
:103090008F913F912F910F900FBE0F901F90189519
:1030A00026E8230F0296A11DB11DD2CF1F920F92C9
:1030B0000FB60F9211242F933F934F935F936F930B
:1030C0007F938F939F93AF93BF93EF93FF9382EF81
:1030D00092E00E94DE06FF91EF91BF91AF919F9128
:1030E0008F917F916F915F914F913F912F910F90B1
:1030F0000FBE0F901F9018951F920F920FB60F9250
:1031000011242F938F939F93EF93FF93E0910203EA
:10311000F09103038081E0910803F091090382FD9F
:103120001BC0908180910B038F5F8F7320910C03E4
:10313000821741F0E0910B03F0E0EE50FD4F958FC8
:1031400080930B03FF91EF919F918F912F910F909F
:103150000FBE0F901F9018958081F4CF1F920F9291
:103160000FB60F9211242F933F934F935F936F935A
:103170007F938F939F93AF93BF93EF93FF93809130
:10318000B900887F803609F44AC0F0F5883209F426
:10319000A7C018F5803109F49BC0B8F4882309F45E
:1031A000F9C0883009F494C0FF91EF91BF91AF91BD
:1031B0009F918F917F916F915F914F913F912F914F
:1031C0000F900FBE0F901F901895883109F488C09A
:1031D000803251F78093C60214C0803409F49DC038
:1031E00040F48033B9F38833F9F68093C60285EC56
:1031F000B0C0803509F485C0883509F496C088349C
:1032000099F60E94D417D0CF883909F48CC038F5CC
:10321000883729F050F4883611F0803729F683E09A
:103220008093E8021092870257C0883809F47BC067
:10323000803919F0803809F0B7CF80918702803249
:1032400008F071C0E091870281E08E0F80938702C1
:103250008091BB00F0E0E959FD4F80833DC0803B89
:1032600039F0E0F4803A09F479C0883A09F09CCF4B
:1032700084E08093E8021092660210926502E09169
:103280009E02F0919F0209958091650281110FC005
:1032900081E0809365021092450209C0803C09F4E8
:1032A000A6CF883C09F4A3CF883B09F07DCFE091FD
:1032B000660281E08E0F80936602F0E0EB5BFD4FCB
:1032C00080818093BB00909166028091650229C045
:1032D0008091C3028093BB0085EC8093BC0064CFD7
:1032E0009091C5028091C402981758F5E091C502EB
:1032F00081E08E0F8093C502F0E0EE55FD4F808196
:10330000E9CFE091C50281E08E0F8093C5028091E4
:10331000BB00F0E0EE55FD4F80839091C502809197
:10332000C4029817C8F285E8D8CFE091C50281E0C1
:103330008E0F8093C5028091BB00F0E0EE55FD4FEB
:1033400080838091C70281115CCF81E08093C202AB
:1033500084EA8093BC001092E80226CF85EC80932B
:10336000BC001092E80280918702803230F4E09134
:103370008702F0E0E959FD4F10826091870270E00A
:10338000E0919C02F0919D0287E692E009951092EF
:1033900087020ACF1092C60234CF0F931F93CF93A8
:1033A000DF931092F5021092F40288EE93E0A0E011
:1033B000B0E08093F6029093F702A093F802B093E6
:1033C000F90281E991E09093F3028093F20285EC97
:1033D00090E09093FF028093FE0284EC90E0909343
:1033E00001038093000380EC90E0909303038093AB
:1033F000020381EC90E0909305038093040382EC38
:1034000090E0909307038093060386EC90E09093FE
:1034100009038093080310920B0310920C0310927F
:103420000D0310920E031092CC031092CB03109256
:1034300001041092020483EA91E09093CA038093FE
:10344000C9031092CE031092CD031092E2031092A2
:10345000E5031092D9031092DA031092DB03109265
:10346000DC038FEF8093E3038093E703EBEEF3E05D
:1034700081E094E0DFEFD1938E179F07E1F786E3B9
:1034800098E09093D2038093D10387E993E09093DF
:10349000D4038093D30383EB9CE09093D603809373
:1034A000D50381EE94E09093D8038093D70330E066
:1034B00020E040E069E08DEC93E00E943608D09374
:1034C000F603D093F703D093F80383E08093BB0314
:1034D0009BE09093BC03EEE7F2E0E491E093BD0340
:1034E000EAE6F2E0E491E093BE0340E85EE360E0E8
:1034F00070E04093C3035093C4036093C50370937B
:10350000C60390E59093B2031092B30310920604A1
:103510001092050448EE53E060E070E04093070429
:10352000509308046093090470930A042FEA31E071
:10353000309304042093030410929506109296068B
:1035400010929706109298061092990610929A0679
:1035500010929B0610929C0610929D0610929E0659
:1035600010929F061092A0061092A106C1E0C0938F
:10357000A206C093A306C093A4061092A7061092B9
:103580000B0510920A0510920F0510920E0510926D
:1035900008061092070610920C0610920B0690EC8B
:1035A00090932B0610922C0699E090932D06109282
:1035B0001A061092190610922E0610922F061092DB
:1035C0001B061092300680931C0610921D0622E006
:1035D00020931E0692E69093310610921F0690915A
:1035E000320610922006109221069C7190933206AA
:1035F000109222061092330610922306109224068F
:103600001092250610922606109227061092280680
:103610001092340610922A0610922906109235064E
:1036200010923606209315048093160401E010E0F2
:1036300010930D0500930C056CEC71E089E896E0A1
:103640000E94211410928F061092910610929006FB
:10365000C093920610926806D09367061092710686
:103660001092720680E197E2A0E0B0E080934506F8
:1036700090934606A0934706B09348068FEF9FEFBE
:10368000DC018093730690937406A0937506B09343
:1036900076068093770690937806A0937906B09388
:1036A0007A0680937D0690937E06A0937F06B09362
:1036B000800610924D0610924E06109250061092FF
:1036C0004F068EEF9FEF90937C0680937B061092BF
:1036D00052061092510610925606109255061092FC
:1036E00054061092530610925806109257061093E3
:1036F0005A060093590610925E0610925D061092CB
:103700005C0610925B0610925F06109260061092A3
:10371000610610926206109263061092640610927F
:1037200065061092660610923A06109239061092BB
:103730003C0610923B0610923E0610923D061092F7
:10374000400610923F0610924206109241061092D7
:1037500044061092430690931A0680931906D0935C
:103760002E0680932F061092220610923306109296
:103770001B0610923006C093230680913406C09336
:10378000200690913206906290933206C0932606EE
:10379000C093240610921E0690913106987F909354
:1037A000310610922706109228068072806D809351
:1037B00034061092690610926A0610926B061092F7
:1037C0006C0610926D0610926E0610926F061092A3
:1037D00070066FEB71E08FE094E0DF91CF911F9165
:1037E0000F910C942114CF93DF93CDB7DEB72997B7
:1037F0000FB6F894DEBF0FBECDBF789484B582605B
:1038000084BD84B5816084BD85B5826085BD85B584
:10381000816085BD80916E00816080936E00109202
:10382000810080918100826080938100809181007D
:10383000816080938100809180008160809380000E
:103840008091B10084608093B1008091B00081606C
:103850008093B00080917A00846080937A00809198
:103860007A00826080937A0080917A0081608093F0
:103870007A0080917A00806880937A001092C1006B
:10388000E0910203F091030382E08083E091FE0265
:10389000F091FF021082E0910003F09101038FECA0
:1038A000808310920A03E0910603F091070386E0FB
:1038B0008083E0910403F09105038081806180831F
:1038C000E0910403F0910503808188608083E0919A
:1038D0000403F0910503808180688083E0910403F4
:1038E000F091050380818F7D80830E94470AE091DB
:1038F000D103F091D20330E020E040E06AE08DECAB
:1039000093E009959E012F5F3F4F790188E0D9012F
:103910001D928A95E9F7B9018DEC93E00E94ED08BC
:10392000E091D103F091D20330E020E040E06BE081
:103930008DEC93E009950E94470A87E70E94F80200
:1039400060ED83E094E00E949D0B83E094E00E9490
:10395000CC0B81E090E00E945F0D9091A0028091DD
:10396000A1029817F1F383E094E00E945D0B883583
:1039700009F065C088E80E94680D909390038093D9
:103980008F038AE80E94680D9093920380939103BD
:103990008CE80E94680D90939403809393038EE8C3
:1039A0000E94680D909396038093950380E90E948E
:1039B000680D909398038093970382E90E94680DA5
:1039C00090939A038093990384E90E94680D9093E1
:1039D0009C0380939B0386E90E94680D90939E034D
:1039E00080939D0388E90E94680D9093A0038093C3
:1039F0009F038AE90E94680D9093A2038093A1031C
:103A00008CE90E94680D9093A4038093A3038EE930
:103A10000E94680D9093A6038093A50387E70E94F8
:103A2000F80264EF83E094E00E949D0B6FE383E073
:103A300094E00E949D0B83E094E00E94CC0B83E015
:103A400094E0909394068093930681E60E94F80296
:103A500061ED70E080919306909194060E94FB09BD
:103A600070E060E080919306909194060E94FB09BB
:103A700080919306909194060E94CC0B8111AAC06C
:103A800063E070E080E090E00E94AE0463E081E6D5
:103A90000E947F0A1092A1028093A0028091930657
:103AA00090919406DC01ED91FC910084F185E02D6C
:103AB0000995892B09F48EC0809193069091940604
:103AC000DC01ED91FC910284F385E02D0995898359
:103AD0008091930690919406DC01ED91FC91028413
:103AE000F385E02D09958A83809193069091940641
:103AF000DC01ED91FC910284F385E02D0995D82E2F
:103B000009811A81102701271027C7010E9402038B
:103B1000C82E8091A706DC102FC08823C1F06AE16F
:103B200071E08091A5069091A6060E947C05C09048
:103B3000A506D090A606A80170E060E020E1C601CD
:103B40000E94E1146DEB71E0C6010E94D21470E096
:103B500060E080E190E00E94060D8823D9F162E0E8
:103B600070E080E096E40E94060D70E060E086E080
:103B700093E50E94060D2EC0882361F163EF70E08B
:103B80008091A5069091A6060E947C054C2D50E0E0
:103B900070E060E020E18091A5069091A6060E9469
:103BA000E1146AEE70E08091A5069091A6060E944D
:103BB0007C050091A5061091A6064D2D50E070E001
:103BC00060E020E1C8010E94E1146DEB71E0C801E2
:103BD0000E94D21481E08093A106E091D103F0917C
:103BE000D20330E020E041E06DE08DEC93E00995F8
:103BF000109286061092850644E0C42ED12CD092F5
:103C00003806C09237068AE190E00E94EC26FC015B
:103C1000C192D1928F016F015C01FAE1AF0EB11C2C
:103C20006FEB71E0C6010E94211426E0C20ED11C88
:103C3000AC14BD04A9F710933C0600933B0684E046
:103C400090E00E94EC2690933E0680933D0688E02B
:103C500090E00E94EC26FC0190933A06809339068E
:103C600011821082138212821582148217821682A8
:103C70001092110661E0809115040E94580461E0E1
:103C8000809116040E94580460E0809115040E94FF
:103C90002A0460E0809116040E942A040E945C06B7
:103CA0006AED71E0C7010E942114B70188E892E033
:103CB0000E94E011C7010E94861164EE71E0C70105
:103CC0000E942114C7010E941E12C7010E94861182
:103CD00068EE71E0C7010E942114B70184E091E011
:103CE0000E94E011C7010E94861163EF71E0C701D5
:103CF0000E942114B70180E091E00E94E011C70109
:103D00000E948611772473940E946E054B015C011A
:103D100036E0632E82EF92E00E945006892B09F470
:103D200063C01091230660910C0570910D0587E129
:103D300094E00E94F0058091170490E0111152C0A8
:103D400090930F0580930E0560910E0570910F05FD
:103D500087E194E00E94F0051123A1F080910E0507
:103D600090910F05019790930F0580930E058B5E40
:103D70009B4FDC0112968C9190E09A9590930B05E5
:103D800080930A050091170410911804011511057C
:103D900009F463C28091190490911A04C0900E0531
:103DA000D0900F05009709F41CC20E944611C8016B
:103DB00001970E94DD1004E010E00B5E1B4FC8016C
:103DC000855194408C159D0508F014C2F80182813C
:103DD000898761E070E0CE0109960E94D7100F5FDD
:103DE0001F4FEDCF0196ACCF80916806833009F468
:103DF000A0C608F0DCC1813009F46AC6823009F43B
:103E00008CC680918E0290918F02A0919002B09109
:103E10009102A5019401281B390B4A0B5B0BDA01B7
:103E2000C901803D9740A105B10508F443C18092C6
:103E30008E0290928F02A0929002B092910288E03E
:103E4000D7011D928A95E9F7B7018DEC93E00E94A6
:103E5000ED080E943A10019709F05AC00E94921092
:103E60000E94E82C82E091E50E94060D0E94CF1688
:103E700090930901809308018091A406882381F022
:103E80000E942D1581110CC08091A106811108C0DE
:103E90001092990610929A0610929B0610929C0618
:103EA0007092A4068091990690919A06A0919B0623
:103EB000B0919C068093040190930501A0930601A4
:103EC000B09307018091A306882381F00E942D15ED
:103ED00081110CC08091A106811108C010929D062D
:103EE00010929E0610929F061092A0067092A30652
:103EF00080919D0690919E06A0919F06B091A0068C
:103F00008093000190930101A0930201B0930301FB
:103F1000EFE8F2E0F093DE03E093DD03109201049A
:103F20001092020469E671E089EC93E00E947C053E
:103F30008091A8069091A906812C28E0922E881ADB
:103F4000990A092C000CAA08BB082AE0B501A401B3
:103F5000B7FE0DC06DE289EC93E00E947109442721
:103F60005527BA01481959096A097B092AE089ECE1
:103F700093E00E94E114109201047092020463E63F
:103F800071E089EC93E00E947C054091080150911A
:103F9000090170E060E02AE089EC93E00E94E114FE
:103FA0006EE571E089EC93E00E947C0510920104BB
:103FB00082E08093020467E571E089EC93E00E945F
:103FC0007C0560910401709105018091060190913A
:103FD000070142E00E94F21664E571E089EC93E08B
:103FE0000E947C051092010483E0809302046EE439
:103FF00071E089EC93E00E947C0560910001709172
:104000000101809102019091030142E00E94F216A9
:104010006BE471E089EC93E00E947C05109201044E
:1040200084E08093020464E471E089EC93E00E94F0
:104030007C050E94EB0D0E94BA2820E030E543EC9D
:1040400057E40E94762C42E00E94F2166FE371E082
:1040500089EC93E00E947C051092010485E0809336
:10406000020469E371E089EC93E00E947C050E9400
:10407000921042E00E94F21667E371E089EC93E04F
:104080000E947C0580918C0290918D02019664E0E3
:1040900070E00E948F2A90938D0280938C02E091B1
:1040A000D103F091D20330E020E040E060E18DECFC
:1040B00093E0099580917106882309F46BC01092F2
:1040C000010486E0809302046EE271E089EC93E0E3
:1040D0000E947C050E94CF169093090180930801ED
:1040E0008091A406882381F00E942D1581110CC0B7
:1040F0008091A106811108C01092990610929A062B
:1041000010929B0610929C067092A40680919906CC
:1041100090919A06A0919B06B0919C068093040111
:1041200090930501A0930601B09307018091A30627
:10413000882381F00E942D1581110CC08091A10669
:10414000811108C010929D0610929E0610929F0643
:104150001092A0067092A30680919D0690919E06F3
:10416000A0919F06B091A006809300019093010159
:10417000A0930201B09303010E94EB0D0E94BA28A4
:10418000609388027093890280938A0290938B02D5
:104190007092720680E090E0892B09F4B5CD0E9400
:1041A000CA06882309F4AECD0E940000ABCD85304D
:1041B00009F49AC508F46DC5863009F022CE82EF65
:1041C00092E00E94CD05892B09F41BCE80917206E6
:1041D000882309F416CE109272061092710669E0D7
:1041E00088C580914F06909150060E94461110E0BC
:1041F00000E0E3CD0E946D0780916D0690916E0600
:10420000A0916F06B09170060196A11DB11D80931B
:104210006D0690936E06A0936F06B09370060E9491
:104220006E056093490670934A0680934B069093FF
:104230004C068091690690916A06A0916B06B09138
:104240006C060196A11DB11D8093690690936A06C4
:10425000A0936B06B0936C065DCDE0911904E093DA
:10426000670620901A0430901B0440901C04509064
:104270001D04EA30F0F6F0E0E05CFE4D0C94A32A59
:104280004A21A62199229C22DE2269236D234524FE
:104290006624892480917D0690917E06A0917F06F8
:1042A000B0918006B7FF13C00E94890461157105A3
:1042B0008105910511F00E94AC280E945D28609351
:1042C00073067093740680937506909376068091BA
:1042D0007D0690917E06A0917F06B0918006B7FD85
:1042E0000EC040911E0450911F04609120047091F3
:1042F000210484179507A607B70709F49ACF809180
:104300002204909123049093500680934F0670925C
:104310004D06109258061092570610925F061092A2
:104320006006109261061092620610926306109267
:1043300064061092660620927706309278064092C4
:10434000790650927A067092680673CF80911E04A7
:1043500090911F04A0912004B091210480938106C4
:1043600090938206A0938306B093840640917306CF
:10437000509174066091750670917606481759073A
:104380006A077B0709F055CF809157069091580630
:10439000C0905D06D0905E06F60130E020E0009708
:1043A00009F043C0209151063091520630935A06CD
:1043B0002093590620915106309152062F5F3F4FAE
:1043C000309352062093510601968115F0E29F0723
:1043D00008F041C0880F991F880F991F0E94EC2692
:1043E00090935E0680935D06D6018091570690916A
:1043F00058060817190790F5CD018C199D09E09111
:104400005D06F0915E06E80FF91F4D915D916D918B
:104410007D9140835183628373830F5F1F4FE5CF8C
:104420002F5F3F4F8217930729F24191519161917C
:104430007191421553056405750591F780915906F0
:1044400090915A06280F391F309354062093530633
:1044500070926206EECE8FEF9FEFC0CFC114D104F1
:1044600019F0C6010E94882780915706909158063E
:10447000880F991F880F991FE0915D06F0915E06E5
:10448000E80FF91F208231824282538280915706C1
:104490009091580601969093580680935706709213
:1044A00062068BE090E0409177065091780660912B
:1044B000790670917A06421553056405750509F071
:1044C000B8CEFC01E95EFB4F40815181628173816E
:1044D000409381065093820660938306709384060E
:1044E000009173061091740620917506309176063E
:1044F000041715072607370709F09BCEFC01E55E78
:10450000FB4F2081318130937C0620937B06835EB4
:104510009B4FFC0180819181A281B38180937D06B4
:1045200090937E06A0937F06B093800670924E060D
:104530000ACF87E090E0B7CF809177069091780618
:10454000A0917906B0917A0682159305A405B50568
:1045500009F06FCE80911E0490911F04A091200459
:10456000B09121048093810690938206A0938306E4
:10457000B09384064091730650917406609175065D
:1045800070917606481759076A077B0709F051CEE4
:1045900080912204909123049093520680935106B7
:1045A0009093560680935506909354068093530635
:1045B00070925F06F2E0F09368063BCE80911E0495
:1045C00090911F04A0912004B09121048093810652
:1045D00090938206A0938306B0938406409173065D
:1045E00050917406609175067091760648175907C8
:1045F0006A077B0709F01DCE4090220450902304E7
:10460000709264064114510409F413CE809151064E
:1046100090915206840D951D9093520680935106F9
:10462000C0905B06D0905C0680915706909158062A
:10463000840D951D811520E4920710F5880F991FB0
:104640000E94EC2690935C0680935B06F60190E056
:1046500080E020915706309158068217930798F40E
:1046600061917191AC01440F551F20915B0630910F
:104670005C06240F351FD9016D937C930196E9CF19
:104680008FEF9FEFDDCFC114D10419F0C6010E9456
:104690008827E4E2F4E08091570690915806800F55
:1046A000911F0415150581F021913191880F991FF3
:1046B00040915B0650915C06840F951FDC012D93A1
:1046C0003C930F5F1F4FE7CF909358068093570698
:1046D000B0CDB5E0B0936806ACCD80911E0490914A
:1046E0001F04A0912004B09121048093810690932F
:1046F0008206A0938306B093840680912204909151
:1047000023049093880680938706181619060CF0E8
:1047100090CD80913F0690914006009711F00E9445
:104720008827009141061091420601151105E1F01C
:10473000F801329720813181629EC001639E900D05
:104740001124080F191F980180914106909142068B
:10475000065011098217930721F0C8010E948611A3
:10476000F2CF02970E9488278091430690914406D9
:10477000009711F00E948827409087065090880685
:10478000C201880F991F4114E0E45E0610F08FEF1C
:104790009FEF0E94EC269093400680933F068FEF98
:1047A0009FEFF6E54F16F5E15F0630F4649CC0011B
:1047B000659C900D112402960E94EC26DC014D921E
:1047C0005D928D016D01B1E04B1A510857FC09C093
:1047D0006FEB71E0C6010E942114E6E0CE0ED11C01
:1047E000F2CF109342060093410680918706909184
:1047F00088060E94EC26909344068093430690E03E
:1048000080E02091870630918806821793076CF428
:104810009C01220F331FE0913F06F0914006E20F0A
:10482000F31F118210820196ECCFD12CC12C10E025
:1048300000E08DE090E02091870630918806021715
:1048400013070CF0F6CCFC01E95EFB4F2081E091F0
:104850004306F0914406E00FF11F20832C01FFEF87
:104860004F1A5F0A40914106509142064C0D5D1D62
:10487000B20187E194E00E945C14840D951D0F5FE6
:104880001F4F26E0C20ED11CD6CF80911E049091FE
:104890001F04A0912004B09121048093810690937D
:1048A0008206A0938306B0938406409173065091CC
:1048B00074066091750670917606481759076A0765
:1048C0007B0709F0B6CC70926606B3CC80911E04CB
:1048D00090911F04A0912004B0912104809381063F
:1048E00090938206A0938306B0938406409173064A
:1048F00050917406609175067091760648175907B5
:104900006A077B0709F095CC709271066092680681
:1049100090CC80911E0490911F04A0912004B0912E
:1049200021048093810690938206A0938306B0931E
:10493000840680910E0590910F050C970CF479CCAC
:10494000312C212CABE0CA2ED12C8091870690917E
:104950008806281639060CF0B8C080913F06909161
:1049600040062101440C551C480E591EE091430697
:10497000F0914406E20DF31DE081E15090E080E00B
:10498000E93038F5F0E0E653FB4DD2010D911C9172
:104990000C94A32AD324EF24FE24FE2416251625E6
:1049A0003225322549250115110519F0C8010E944B
:1049B000882781E090E00E94EC26F601E95EFB4F3B
:1049C00020812983FC012083D2018D939C9381E077
:1049D00090E0C80ED91EFFEF2F1A3F0AB6CF01157F
:1049E000110519F0C8010E94882781E090E00E941B
:1049F000EC26F601E95EFB4F2081E4CF011511059D
:104A000019F0C8010E94882782E090E00E94EC26FD
:104A1000F601E95EFB4F20813181FC013183208367
:104A2000D2018D939C9382E090E0D3CF01151105C4
:104A300019F0C8010E94882784E090E00E94EC26CB
:104A4000F601E95EFB4F4081518162817381FC0177
:104A50004083518362837383D2018D939C9384E05E
:104A600090E0B7CF0115110519F0C8010E94882701
:104A700084E090E00E94EC26F601E95EFB4F408165
:104A8000518162817381FC0140835183628373830E
:104A9000E3CF0115110531F0C8010E948611C8014C
:104AA0000E94882786E090E00E94EC268C016FEB44
:104AB00071E00E942114A801B60187E194E00E94F0
:104AC0005C14F2011183008384CF70927206B1CB23
:104AD00080914D06882351F010924D0661E080913F
:104AE0004F06909150060E945F1214C080914E06AE
:104AF000882381F010924E0680917B0690917C066F
:104B00008093190690931A0690932E0680932F0691
:104B10000E945C061092680674C980915F06882323
:104B200031F010925F0683E0809368066AC964E002
:104B3000D6CF80916006811108C07092600660E057
:104B40008FEF9FEF0E945F125CC9809162068823FD
:104B5000F1F10E946E050091490610914A062091DC
:104B60004B0630914C06AB01BC01401B510B620B54
:104B7000730B8091450690914606A0914706B0912F
:104B80004806B695A79597958795481759076A07D8
:104B90007B0708F436C91092620600915306109103
:104BA000540680915106909152060817190760F437
:104BB00062E08FEF9FEF0E945F120F5F1F4F109315
:104BC000540600935306EDCF109260061AC90E9456
:104BD0006E050091490610914A0620914B063091CE
:104BE0004C06601B710B820B930B009145061091D4
:104BF00046062091470630914806061717072807F2
:104C0000390708F0FEC81092600680916106811194
:104C100003C070926106F5C880915B0690915C06B6
:104C2000009711F00E9488278091570690915806AE
:104C3000009759F1811520E4920710F5880F991F0C
:104C40000E94EC2690935C0680935B0690E080E0E7
:104C5000209157063091580682179307A0F42091AF
:104C60007B0630917C06AC01440F551FE0915B063A
:104C7000F0915C06E40FF51F318320830196E8CFA5
:104C80008FEF9FEFDDCF84E04FCF10925F0682E081
:104C90004BCF9091630691111BC020915506309126
:104CA000560640915306509154062417350780F458
:104CB0007092630663E0C9010E945F1280915506FD
:104CC000909156060196909356068093550699C882
:104CD00080916406882329F010926406109263067E
:104CE00090C89923A1F28DC88091660666E0811173
:104CF00011CF90E080E0F7CECF93DF938FE094E088
:104D00000E9486118091390690913A06009711F021
:104D10000E948827C0913B06D0913C062097E1F085
:104D2000FE0132972081318146E0429FC001439FBE
:104D3000900D1124C80FD91F9E0180913B069091C0
:104D40003C0626978217930721F0CE010E94861118
:104D5000F3CF02970E94882780913D0690913E06EE
:104D6000009711F00E94882780913F06909140069D
:104D7000009711F00E948827C0914106D091420609
:104D80002097E1F0FE0132972081318146E0429F79
:104D9000C001439F900D1124C80FD91F9E0180911F
:104DA00041069091420626978217930721F0CE0183
:104DB0000E948611F3CF02970E94882780914306B4
:104DC00090914406009711F00E94882789E896E0A8
:104DD000DF91CF910C9486110F931F93CF93DF93A4
:104DE0008230910510F482E090E0E091AA06F09103
:104DF000AB0630E020E0B0E0A0E0309799F4211558
:104E0000310509F44AC0281B390B24303105D8F587
:104E10008A819B816115710589F1FB0193838283EE
:104E2000FE0111C040815181028113814817590749
:104E3000E0F04817590799F4109761F012960C9317
:104E4000129713961C933296CF01DF91CF911F9149
:104E50000F9108950093AA061093AB06F4CF211585
:104E6000310551F04217530738F0A901DB019A01CF
:104E7000BD01DF01F801C1CFEF01F9CF9093AB067F
:104E80008093AA06CDCFFE01E20FF31F8193919389
:104E90002250310939832883D7CF2091A806309139
:104EA000A906232B41F420910C0130910D01309380
:104EB000A9062093A80620910A0130910B01211523
:104EC000310541F42DB73EB740910E0150910F01CD
:104ED000241B350BE091A806F091A906E217F30711
:104EE000A0F42E1B3F0B2817390778F0AC014E5F5A
:104EF0005F4F2417350748F04E0F5F1F5093A906E8
:104F00004093A806819391939FCFF0E0E0E09CCF7F
:104F1000CF93DF930097E9F0FC013297138212825E
:104F2000A091AA06B091AB06ED0130E020E0109709
:104F3000A1F420813181820F931F2091A806309126
:104F4000A9062817390709F061C0F093A906E09374
:104F5000A806DF91CF910895EA01CE17DF07E8F5A3
:104F60004A815B819E0141155105B1F7E901FB833F
:104F7000EA8349915991C40FD51FEC17FD0761F4DD
:104F8000808191810296840F951FE901998388831E
:104F9000828193819B838A83F0E0E0E012968D9179
:104FA0009C9113970097B9F52D913C911197CD01E4
:104FB0000296820F931F2091A8063091A906281708
:104FC000390739F6309751F51092AB061092AA06C0
:104FD000B093A906A093A806BCCFD383C283408117
:104FE0005181840F951FC817D90761F44E5F5F4F39
:104FF00088819981480F591F518340838A819B8101
:10500000938382832115310509F0B0CFF093AB066D
:10501000E093AA069ECFFD01DC01C0CF138212826D
:10502000D7CF8F929F92AF92BF92CF92DF92EF92A3
:10503000FF92CF93DF93EC01688179818A819B8114
:10504000611571058105910521F464E279ED8BE527
:1050500097E02DE133EF41E050E00E94D92949016A
:105060005A019B01AC01A7EAB1E40E94F8296B0147
:105070007C01ACEEB4EFA50194010E94062AC60E95
:10508000D71EE81EF91EF7FE06C081E0C81AD10837
:10509000E10880E8F80AC882D982EA82FB82C70167
:1050A000B6019F77DF91CF91FF90EF90DF90CF9087
:1050B000BF90AF909F908F9008958F929F92AF92E4
:1050C000BF92CF92DF92EF92FF92609110017091A8
:1050D00011018091120190911301611571058105F3
:1050E000910521F464E279ED8BE597E02DE133EF52
:1050F00041E050E00E94D92949015A019B01AC01CD
:10510000A7EAB1E40E94F8296B017C01ACEEB4EF90
:10511000A50194010E94062AC60ED71EE81EF91E9C
:10512000F7FE06C081E0C81AD108E10880E8F80A55
:10513000C0921001D0921101E0921201F09213017D
:10514000C701B6019F77FF90EF90DF90CF90BF909F
:10515000AF909F908F90089560931001709311010C
:10516000809312019093130108950E94F72808F488
:1051700081E00895E89409C097FB3EF490958095EE
:10518000709561957F4F8F4F9F4F9923A9F0F92F0D
:1051900096E9BB279395F695879577956795B7958B
:1051A000F111F8CFFAF4BB0F11F460FF1BC06F5F71
:1051B0007F4F8F4F9F4F16C0882311F096E911C083
:1051C000772321F09EE8872F762F05C0662371F0A4
:1051D00096E8862F70E060E02AF09A95660F771FB8
:1051E000881FDAF7880F9695879597F90895990F94
:1051F0000008550FAA0BE0E8FEEF16161706E807A1
:10520000F907C0F012161306E407F50798F0621BC1
:10521000730B840B950B39F40A2661F0232B242B96
:10522000252B21F408950A2609F4A140A6958FEFB5
:10523000811D811D08950E942E290C949F290E9492
:10524000912938F00E94982920F0952311F00C94B0
:1052500088290C948E2911240C94D3290E94B029FA
:1052600070F3959FC1F3950F50E0551F629FF001B9
:10527000729FBB27F00DB11D639FAA27F00DB11DD2
:10528000AA1F649F6627B00DA11D661F829F22275B
:10529000B00DA11D621F739FB00DA11D621F839FE2
:1052A000A00D611D221F749F3327A00D611D231FB8
:1052B000849F600D211D822F762F6A2F11249F5706
:1052C00050409AF0F1F088234AF0EE0FFF1FBB1F09
:1052D000661F771F881F91505040A9F79E3F5105C8
:1052E00080F00C9488290C94D3295F3FE4F3983E16
:1052F000D4F3869577956795B795F795E7959F5F72
:10530000C1F7FE2B880F911D9695879597F9089503
:1053100097F99F6780E870E060E008959FEF80EC68
:10532000089500240A94161617061806090608950B
:1053300000240A9412161306140605060895092E71
:105340000394000C11F4882352F0BB0F40F4BF2BE0
:1053500011F460FF04C06F5F7F4F8F4F9F4F089520
:1053600057FD9058440F551F59F05F3F71F0479516
:10537000880F97FB991F61F09F3F79F087950895FB
:10538000121613061406551FF2CF4695F1DF08C01A
:10539000161617061806991FF1CF86957105610537
:1053A00008940895E894BB2766277727CB0197F9DF
:1053B0000895052E97FB1EF400940E94F02957FDD6
:1053C00007D00E94422A07FC03D04EF40C94F02927
:1053D00050954095309521953F4F4F4F5F4F089521
:1053E00090958095709561957F4F8F4F9F4F089551
:1053F0000E94642AA59F900DB49F900DA49F800DDC
:10540000911D11240895B7FF0C94F8290E94F829E2
:10541000821B930B08952F923F924F925F926F924F
:105420007F928F929F92AF92BF92CF92DF92EF9234
:10543000FF920F931F93CF93DF93CDB7DEB7CA1BB5
:10544000DB0B0FB6F894DEBF0FBECDBF09942A88E0
:10545000398848885F846E847D848C849B84AA8488
:10546000B984C884DF80EE80FD800C811B81AA8115
:10547000B981CE0FD11D0FB6F894DEBF0FBECDBFE0
:10548000ED010895A1E21A2EAA1BBB1BFD010DC060
:10549000AA1FBB1FEE1FFF1FA217B307E407F507E4
:1054A00020F0A21BB30BE40BF50B661F771F881FC0
:1054B000991F1A9469F760957095809590959B0156
:1054C000AC01BD01CF010895A29FB001B39FC001FF
:1054D000A39F700D811D1124911DB29F700D811D20
:1054E0001124911D0895DB018F939F930E94F82949
:1054F000BF91AF91A29F800D911DA39F900DB29F70
:10550000900D11240895991B79E004C0991F9617F6
:1055100008F0961B881F7A95C9F78095089597FB28
:10552000072E16F4009407D077FD09D00E94F52BC2
:1055300007FC05D03EF4909581959F4F0895709596
:1055400061957F4F0895EE0FFF1F0590F491E02DB8
:105550000994DF93CF931F930F939A9DF02D219F72
:10556000F00D8B9DF00D8A9DE02DF10D039FF00D48
:10557000029FE00DF11D4E9DE00DF11D5E9DF00DB1
:105580004F9DF00D7F936F93BF92AF925F934F93B8
:10559000D5010E94642A8B01AC01D7010E94642AC4
:1055A000EB01E80FF91FD6010E94F82A2F913F91D5
:1055B000D6010E94642AC60FD71FE81FF91FAF91BA
:1055C000BF910E94F82A2F913F910E94642AC60F32
:1055D000D71FE81FF91FD6010E94642AE60FF71FA4
:1055E0009801BE01CF010F911F91CF91DF910895D6
:1055F0000E94642A460F571FC81FD91F08F431960E
:105600000895689401C0E894F92FF12B12F00C94DE
:10561000352BA0E0B0E0EFE0FBE20C94112A092E5C
:10562000059422F40E94912B112392F4F0E80F26A6
:10563000FFEFE094F09400951095B094C094D0944E
:10564000A194BF0ACF0ADF0AEF0AFF0A0F0B1F0B54
:105650000E94402B07FC0E94912BCDB7DEB7ECE0F7
:105660000C942D2A689401C0E8948F929F92CF9356
:10567000DF930E94402BDF91CF919F908F900895F0
:1056800088249924F401E401B0E49F93AA279A1591
:105690008B049C04ED05FE05CF05D007A10798F407
:1056A000AD2FDC2FCF2FFE2FE92D982C892E982F90
:1056B000872F762F652F542F432F322F2227B85054
:1056C00031F7BF9127C01B2EBF91BB27220F331F7D
:1056D000441F551F661F771F881F991F881C991C20
:1056E000EE1FFF1FCC1FDD1FAA1FBB1F8A149B04C8
:1056F000EC05FD05CE05DF05A007B10748F08A18C7
:105700009B08EC09FD09CE09DF09A00BB10B216054
:105710001A94E1F62EF49401AF01BE01CD01000C04
:105720000895609570958095909530954095509529
:1057300021953F4F4F4F5F4F6F4F7F4F8F4F9F4F81
:105740000895002E083090F0982F872F762F652F20
:10575000542F432F322F22270850F4CF220F331F0C
:10576000441F551F661F771F881F991F0A95B2F7A0
:10577000002D089597FD1094002E083098F00850E1
:10578000232F342F452F562F672F782F892F912DB8
:10579000F4CF159497958795779567955795479585
:1057A000379527950A95AAF71124002D08952A0DFB
:1057B0003B1D4C1D5D1D6E1D7F1D801F911F08959B
:1057C0002A193B094C095D096E097F09800B910B71
:1057D00008950024A7FD00942A17300540055005C0
:1057E00060057005800590050895AA1BBB1B51E15B
:1057F00007C0AA1FBB1FA617B70710F0A61BB70B41
:10580000881F991F5A95A9F780959095BC01CD01E5
:1058100008955058BB27AA270E94212C0C949F2939
:105820000E94912938F00E94982920F039F49F3F76
:1058300019F426F40C948E290EF4E095E7FB0C94F1
:105840008829E92F0E94B02958F3BA176207730715
:105850008407950720F079F4A6F50C94D2290EF46C
:10586000E0950B2EBA2FA02D0B01B90190010C0170
:10587000CA01A0011124FF27591B99F0593F50F488
:10588000503E68F11A16F040A22F232F342F4427E0
:10589000585FF3CF469537952795A795F0405395D8
:1058A000C9F77EF41F16BA0B620B730B840BBAF0A8
:1058B0009150A1F0FF0FBB1F661F771F881FC2F713
:1058C0000EC0BA0F621F731F841F48F48795779527
:1058D0006795B795F7959E3F08F0B0CF9395880FE1
:1058E00008F09927EE0F9795879508950E948A2CC6
:1058F0000C949F290E94982958F00E94912940F009
:1059000029F45F3F29F00C94882951110C94D32974
:105910000C948E290E94B02968F39923B1F3552382
:1059200091F3951B550BBB27AA27621773078407B2
:1059300038F09F5F5F4F220F331F441FAA1FA9F348
:1059400035D00E2E3AF0E0E832D091505040E69536
:10595000001CCAF72BD0FE2F29D0660F771F881F97
:10596000BB1F261737074807AB07B0E809F0BB0B8A
:10597000802DBF01FF2793585F4F3AF09E3F51059E
:1059800078F00C9488290C94D3295F3FE4F3983E77
:10599000D4F3869577956795B795F7959F5FC9F787
:1059A000880F911D9695879597F90895E1E0660F08
:1059B000771F881FBB1F621773078407BA0720F081
:1059C000621B730B840BBA0BEE1F88F7E0950895EA
:1059D0000E94B82988F09F5798F0B92F9927B7519E
:1059E000B0F0E1F0660F771F881F991F1AF0BA9583
:1059F000C9F714C0B13091F00E94D229B1E00895E6
:105A00000C94D229672F782F8827B85F39F0B93FD7
:105A1000CCF3869577956795B395D9F73EF4909535
:105A20008095709561957F4F8F4F9F4F08950E948D
:105A3000F72808F48FEF0895FA01EE0FFF1F309654
:105A400021053105A1F16115710561F48038BFE3CD
:105A50009B0749F168949038810561F08038BFEF69
:105A60009B0741F099234AF5FF3FE10531052105E8
:105A700019F1E8940894E795D901AA2329F4AB2FEA
:105A8000BE2FF85FD0F310C0FF5F70F4A695E0F76B
:105A9000F73950F019F0FF3A38F49F779F930DD003
:105AA0000F9007FC9058089546F00C948E2960E002
:105AB00070E080E89FE308954FE79F775F934F93EF
:105AC0003F932F930E941C2E2F913F914F915F91F6
:105AD0000E941B290C94792D0E94F728880B990BA2
