:100000000C94E5010C940D020C940D020C940D025D
:100010000C940D020C940D020C940D020C940D0224
:100020000C940D020C940D020C940D020C940D0214
:100030000C940D020C940D020C940D020C940D0204
:100040000C94E90B0C940D020C94590C0C94330C89
:100050000C940D020C940D020C940D020C940D02E4
:100060000C94CA0A0C940D02207F010100000000CC
:10007000000000000000005E00000000000006001C
:100080000006000000247E24247E240000246B2A25
:100090002A6B1200004626100864620000344A4AA7
:1000A0005420500000000000060000000000003C4A
:1000B00042000000000000423C000000002A1C3EFC
:1000C0001C2A00000008083E08080000000040301C
:1000D00000000000000808080808080000000040B0
:1000E000000000000040201008040200003C6252A2
:1000F0004A463C000040447E4040000000645252AA
:1001000052524C000024424A4A4A34000038242209
:10011000227E2000002E4A4A4A4A3200003C4A4AC7
:100120004A4A300000020262120A060000344A4ABB
:100130004A4A3400000C525252523C000000002443
:10014000000000000000402400000000000008142F
:1001500022000000001414141414140000000022E3
:1001600014080000000402520A0400000018245A77
:100170005A241800007C121212127C00007E4A4A97
:100180004A4A3400003C424242422400007E42423D
:1001900042423C00007E4A4A4A424200007E0A0A2D
:1001A0000A020200003C424252523400007E08081B
:1001B00008087E000000427E42000000002040400F
:1001C00040403E00007E080808146200007E404067
:1001D00040404000007E040808047E00007E0408C1
:1001E00010207E00003C424242423C00007E12123F
:1001F00012120C00003C425262423C00007E12127D
:1002000012324C0000244A4A4A4A30000002027E60
:1002100002020000003E404040403E00001E2040E0
:1002200040201E00007E201010207E000042241876
:1002300018244200000204780402000000426252C6
:100240004A46420000007E424200000000020408CC
:100250001020400000000042427E00000000000428
:100260000204000080808080808080800000000286
:10027000040000000020545454780000007E4848D8
:10028000483000000038444444280000003048480A
:10029000487E000000385454544800000000087C98
:1002A0000A0200000018A4A4A47C0000007E080834
:1002B000087000000000487A400000000040808084
:1002C000887A0000007E1010284400000000427E62
:1002D00040000000007C047804780000007C0404E6
:1002E00004780000003844444438000000FC4444D2
:1002F000443800000038444444FC0000007C0804FA
:100300000404000000485454542400000000043E3B
:1003100044000000003C4040207C0000001C2040C5
:10032000201C0000001C601C601C00000044281001
:1003300028440000001CA0A0A07C000000446454DD
:100340004C4400000000083641000000000000FF9F
:100350000000000000004136080000000804040806
:100360001010080000000000000000000000000065
:1003700023002600290000000000240027002A0096
:1003800000000000250028002B00000000080002EB
:100390000100000304070000000000000000040446
:1003A000040404040404020202020202030303031D
:1003B00003030102040810204080010204081020F9
:1003C0000102040810208B0C581011241FBECFEF1F
:1003D000D8E0DEBFCDBF11E0A0E0B1E0EEE6F7E28D
:1003E00002C005900D92AA3CB107D9F726E0AAEC0D
:1003F000B1E001C01D92A335B207E1F711E0C4EEF0
:10040000D1E004C02197FE010E94D712C33ED1075C
:10041000C9F70E94960E0C94AA130C94000080E079
:1004200008959B01DC011896ED91FC9141E067E194
:100430000994833081F028F4813099F08230A9F05A
:1004400008958730A9F08830C9F08430B1F48091E4
:1004500080008F7D03C0809180008F778093800023
:10046000089584B58F7784BD089584B58F7DFBCFC3
:100470008091B0008F778093B00008958091B00094
:100480008F7DF9CF1F93CF93DF93282F30E0F901B1
:10049000E657FC4F8491F901EE54FC4FD491F901D9
:1004A000E256FC4FC491CC23A9F0162F81110E9473
:1004B0001902EC2FF0E0EE0FFF1FE058FC4FA59162
:1004C000B4918FB7F894EC91111108C0D095DE2348
:1004D000DC938FBFDF91CF911F910895DE2BF8CF72
:1004E000CF93DF9390E0FC01EE54FC4F24918256B1
:1004F0009C4FFC0184918823D1F090E0880F991FD4
:10050000FC01EA58FC4FA591B491FC01E058FC4F66
:10051000C591D491623071F49FB7F8943C91822FC9
:10052000809583238C93E8812E2B28839FBFDF91B6
:10053000CF9108958FB7F894EC912E2B2C938FBF09
:10054000F6CFDC011696ED91FC9130E020E040E022
:1005500069E10994DC011696ED91FC9130E020E010
:1005600040E068E109949A01DC011696ED91FC9156
:10057000462F67E10994462FDC011696ED91FC9118
:1005800030E020E066E10994462FDC011696ED91FB
:10059000FC9130E020E065E10994DC011896ED91D2
:1005A000FC9130E020E040E069E10994DC0118961C
:1005B000ED91FC9130E020E040E068E10994CF93B8
:1005C000DF931F92CDB7DEB76983BE016F5F7F4FA8
:1005D0000E9411020F90DF91CF910895EF92FF9248
:1005E0001F93CF93DF93EC01162F7A010E94D6025E
:1005F00060E4CE010E94DF02E885F9859701412F72
:1006000067E1CE010995CE01DF91CF911F91FF9057
:10061000EF900C94CD02EF92FF921F93CF93DF9354
:10062000EC01142F7901663181F138F4643109F459
:100630004BC0653179F080E022C06831C9F150F1DA
:100640006931C9F78091B702882391F1CE010E94E8
:10065000CD022EC08091B702882319F0CE010E94EE
:10066000CD02CE010E94D60260E0CE010E94DF02E0
:10067000612FCE010E94DF0281E08093B702DF91FB
:10068000CF911F91FF90EF900895642F0E94DF0299
:1006900081E0F5CF8091B702882319F0CE010E9446
:1006A000CD02A701193138F4612FCE010E94EE026C
:1006B0001092B702EDCF68E1CE010E94EE02185110
:1006C00088E1E80EF11CEDCF8E898F3F11F488E7A9
:1006D0008E8BE885F9859701412F64E1CE01DF918A
:1006E000CF911F91FF90EF90099408950895209164
:1006F0003E02260F3327331F21323105ECF42091BF
:100700008D02FC0190E080E0243069F082E00895E1
:10071000A0913E022191AC01425E5D4FA40FB52F26
:10072000B11D2C930196861798F380913E02680FB5
:1007300060933E0280E0089581E0089510928D025A
:1007400081E080938C021092670261E082E10E9456
:10075000420261E083E10E944202E9EBF0E0808125
:100760008E7F808380818D7F808388E48093B80032
:1007700085E48093BC000895CF93DF9391E090933C
:100780001D028823B9F0C091B800D091BA008091C1
:10079000BC008A7B8093BC0060E082E10E94420240
:1007A00060E083E10E9442020E949E03D093BA005F
:1007B000C093B800DF91CF9108950895E09166024B
:1007C00080916502E81730F4F0E0E350FE4F80813D
:1007D00090E008958FEF9FEF0895909166028091C9
:1007E00065022FEF3FEF981748F4E92FF0E0E35050
:1007F000FE4F208130E09F5F90936602C90108950B
:100800008091650290916602891B990B0895CF92A1
:10081000DF92EF92FF920F931F93CF93DF937C01B0
:10082000CB018A0120919302222389F0EB016B0115
:10083000C40ED51ECC15DD0569F06991D701ED9187
:10084000FC910190F081E02DC7010995F3CF642F51
:100850000E947703C801DF91CF911F910F91FF9004
:10086000EF90DF90CF900895CF93DF931F92CDB795
:10087000DEB76983209193022223F9F02091B6021A
:10088000203258F021E030E0FC013383228390E0F5
:1008900080E00F90DF91CF91089580919402E82F2E
:1008A000F0E0EB56FD4F998190838F5F8093940227
:1008B0008093B60281E090E0ECCF61E0CE0101963A
:1008C0000E947703F7CF3FB7F8948091F901909198
:1008D000FA01A091FB01B091FC0126B5A89B05C0CF
:1008E0002F3F19F00196A11DB11D3FBFBA2FA92FAF
:1008F000982F8827BC01CD01620F711D811D911DAC
:1009000042E0660F771F881F991F4A95D1F7089517
:10091000CF92DF92EF92FF920F931F93CF93DF93CB
:10092000EC01962F683109F44BC0B901993130F4CC
:100930009431C9F0973189F080E006C0993109F40B
:1009400061C09032C9F781E0DF91CF911F910F9183
:10095000FF90EF90DF90CF90089550E088EB92E009
:100960000E940704F0CF8C859D85AE85BF85892BBD
:100970008A2B8B2B71F4E881F981A585B0E020EA00
:1009800036E841E050E00E943C126C877D878E87FC
:100990009F87109266021092650210929402109244
:1009A000B6020E949E0385E793E0909364028093D1
:1009B000630286E793E09093620280936102C3CF63
:1009C0002C853D854E855F8560E074E284EF90E084
:1009D0000E947E12205131094109510956954795CF
:1009E000379527952093B8008E8990E09595879547
:1009F00091E0909393028093B5021092940210922A
:100A0000B602A1CFD091B602D13208F093C0C09106
:100A1000B5020E9463046B017C0180918D028111FB
:100A200064C082E080938D0281E080938C028FEF1E
:100A300080938B0210928A02D0938902A5E9B2E0DA
:100A4000E9E6F2E080E0D8137CC010926802809161
:100A50006802CC0FC82BC093680280916702813076
:100A600009F073C0109267020E9463046B017C015D
:100A7000809168028093BB0080918F0290919002D8
:100A8000A0919102B0919202892B8A2B8B2B99F025
:100A90000E94630400918F021091900220919102B4
:100AA000309192026C197D098E099F09061717076C
:100AB00028073907D8F18091BC0083FDD9CF85EC98
:100AC0008093BC000E9463046B017C0180918D02C5
:100AD0008230E9F180918B028F3F61F180918B022E
:100AE000803241F180918B0225C080918F029091DC
:100AF0009002A0919102B0919202892B8A2B8B2BAC
:100B000009F48BCF0E94630400918F021091900230
:100B100020919102309192026C197D098E099F09F2
:100B2000061717072807390708F077CF80918E023C
:100B30000E94BC03109294021092B602109293028B
:100B400002CF9D9191938F5F7ECF85EEB9CF80913B
:100B50008F0290919002A0919102B0919202892B04
:100B60008A2B8B2B09F4B2CF0E94630400918F0271
:100B70001091900220919102309192026C197D099E
:100B80008E099F09061717072807390708F09ECF17
:100B9000CDCF8F929F92AF92BF92CF92DF92EF9282
:100BA000FF921F93CF93DF93EC016C32B0F46A3263
:100BB000E8F5683241F1693209F445C080E06034FB
:100BC000B0F16F73FE01E60FF11D868D8F3F71F15D
:100BD000603108F06EC0642F13C06D3209F457C045
:100BE00068F384EB860F823048F76F73C60FD11D10
:100BF0008E8D41115AC061E00E94700260E08E8DBE
:100C00000E94420213C07C012EE1E20EF11CD0E0F2
:100C1000F70181917F018F3F31F061E0D03108F021
:100C200062E00E947002DF5FD63191F781E0DF91D0
:100C3000CF911F91FF90EF90DF90CF90BF90AF903A
:100C40009F908F900895C42ED12CF12CE12C0E94FE
:100C500063044B015C01C114D104E104F10431F3DC
:100C60000E946304681979098A099B09683E7340E8
:100C70008105910580F3F1E0CF1AD108E108F10870
:100C800028EE820E23E0921EA11CB11CE4CF85E069
:100C900090E0433010F082E090E0880F991F880FB9
:100CA000991F05970197F1F7C1CF62E00E9470028A
:100CB000BDCF282F30E0F901E657FC4F8491F901B0
:100CC000EE54FC4FF490F901E256FC4F14911123BD
:100CD00079F081110E941902E12FF0E0EE0FFF1F61
:100CE000E459FC4FA591B491EC91FE2281E009F406
:100CF00080E0898F9BCFAF92BF92CF92DF92EF922D
:100D0000FF920F931F93CF93DF936C017B018B01B5
:100D1000040F151FEB015E01AE18BF08C017D10705
:100D200059F06991D601ED91FC910190F081E02D8F
:100D3000C6010995892B79F7C501DF91CF911F91E4
:100D40000F91FF90EF90DF90CF90BF90AF900895FC
:100D5000FC01538D448D252F30E0842F90E0821BC1
:100D6000930B541710F0CF96089501970895FC0146
:100D7000918D828D981761F0A28DAE0FBF2FB11D9E
:100D80005D968C91928D9F5F9F73928F90E00895F6
:100D90008FEF9FEF0895FC01918D828D981731F0B0
:100DA000828DE80FF11D858D90E008958FEF9FEF04
:100DB0000895FC01918D228D892F90E0805C9F4FDA
:100DC000821B91098F739927089584EC92E00E9409
:100DD000D90621E0892B09F420E0822F089580E0D4
:100DE00090E0892B29F00E94E50681110C94000007
:100DF0000895FC01A48DA80FB92FB11DA35ABF4FB0
:100E00002C91848D90E001968F739927848FA68909
:100E1000B7892C93A089B1898C91837080648C935D
:100E2000938D848D981306C00288F389E02D80810C
:100E30008F7D80830895EF92FF920F931F93CF933E
:100E4000DF93EC0181E0888F9B8D8C8D98131AC005
:100E5000E889F989808185FF15C09FB7F894EE89EC
:100E6000FF896083E889F989808183708064808349
:100E70009FBF81E090E0DF91CF911F910F91FF9094
:100E8000EF900895F62E0B8D10E00F5F1F4F0F733C
:100E90001127E02E8C8D8E110CC00FB607FCFACFF7
:100EA000E889F989808185FFF5CFCE010E94F90696
:100EB000F1CFEB8DEC0FFD2FF11DE35AFF4FF082C8
:100EC0009FB7F8940B8FEA89FB8980818062CFCF2E
:100ED000CF93DF93EC01888D8823B9F0AA89BB8971
:100EE000E889F9898C9185FD03C0808186FD0DC05C
:100EF0000FB607FCF7CF8C9185FFF2CF808185FF7D
:100F0000EDCFCE010E94F906E9CFDF91CF91089590
:100F1000CF92DF92EF92FF920F931F93CF93DF93C5
:100F20006C01EB017B01E40EF51E10E000E0CE1534
:100F3000DF0561F06991D601ED91FC910190F0819E
:100F4000E02DC6010995080F191FF1CFC801DF91E7
:100F5000CF911F910F91FF90EF90DF90CF90089568
:100F6000089590E080E00895DC011A96ED91FC91DF
:100F700030E020E00994EF92FF920F931F93CF93FC
:100F8000DF931F92CDB7DEB77C018B01D8016C9146
:100F9000673129F150F46531A0F40F90DF91CF91C2
:100FA0001F910F91FF90EF9008956A3118F16E3FF5
:100FB000A1F7F8014181498369E2C7010E94B407A2
:100FC0000BC0F80141814983D7011696ED91FC9140
:100FD00030E020E0C70109950E5F1F4FD7CFF80121
:100FE00081818983AE014F5F5F4F61E0C7010E943D
:100FF000B302F2CF0F5F1F4FD7011696ED91FC9110
:1010000030E020E040E0C7010995C0CFEF92FF92A9
:101010000F931F93CF93DF93EC01042F79016D3071
:1010200009F446C050F46B30C9F1693009F49FC02F
:101030006A3009F465C080E046C06E3009F452C0E1
:101040006F3099F70E94AA02F7011381110F110F57
:10105000110F6C89160F60E4CE010E94C402612F4B
:1010600062956F706061CE010E94C402612F6F7043
:10107000CE010E94BB02F7016481606BCE010E9429
:10108000BB02F701408151816281660F660F660FD6
:10109000CE010E94B3020150A1F72EC069E171E0B8
:1010A000442311F064E171E0CE010E94BB070AC045
:1010B000411110C06DE071E00E94BB07E881F98129
:1010C00082898C8B81E0DF91CF911F910F91FF90EE
:1010D000EF90089566E071E00E94BB07E881F98116
:1010E0008389EFCF0E94AA0261E8CE010E94C40268
:1010F000602FCE010E94BB02CE010E94A102E2CF6E
:10110000EA85FB8530E020E040E068E2CE01099509
:10111000EE81FF8130E020E040E064E1CE010995FE
:1011200041E06BE4CE010E94B407E881F98144817B
:1011300069E2CE010E94B40740E06BE4CE010E9458
:10114000B407E881F981448169E2CE010E94B407C5
:1011500041E06BE4CE010E94B407E881F98145814A
:1011600069E2CE010E94B4076EE171E09DCF83E594
:1011700091E0998388831C8AA5CFCF92DF92FF925A
:101180000F931F93CF93DF9300D000D01F92CDB762
:10119000DEB78C011C8281E08B837A836983D8015E
:1011A000ED91FC91F1881D82F801A081B181C4808C
:1011B000D5809E012F5F3F4F50964C916FE0C80144
:1011C000F60109958D818F5F8D838F1568F30F90E0
:1011D0000F900F900F900F90DF91CF911F910F9173
:1011E000FF90DF90CF900895CF93DF93EC01A88913
:1011F000B989FD0134913196949131968491139679
:10120000FD01A4916317A8F1961798F1631B770B62
:101210008A9FE02D1124E69FC001E79F900D1124C5
:10122000280F392F311D83E0220F331F8A95E1F7F4
:10123000C9010496DA01245F3F4FE889F989E80F74
:10124000F91FE491ED93019682179307B1F78D8909
:10125000882361F0FA019A01285F3F4F8191DF01F5
:10126000119780958C932E173F07C1F7DF91CF918F
:101270000895FA01CA0108961192E817F907E1F7F3
:10128000E6CF2F923F924F925F926F927F928F9212
:101290009F92AF92BF92CF92DF92EF92FF920F9305
:1012A0001F93CF93DF93CDB7DEB72D970FB6F8948A
:1012B000DEBF0FBECDBFDC015496ED91FC9155977A
:1012C000D996DC90D997CF0103966A3019F5FC01C5
:1012D0008491D80ED996DC92D997D8961C9281E049
:1012E00090E02D960FB6F894DEBF0FBECDBFDF9114
:1012F000CF911F910F91FF90EF90DF90CF90BF9013
:10130000AF909F908F907F906F905F904F903F90A5
:101310002F90089532962490D8965C90D8975D01CE
:1013200024E0A20EB11CF490FC01E490352C3F0C9B
:10133000ED0C81E0850D381610F4FF24F394C62ED1
:101340008D01612CCE0101964C01462C752C242D6B
:10135000A4016C2DC5010E94F4087C86DD8691E015
:101360009B879A868986D8011896ED91FC919E01FB
:10137000275F3F4F41E06FE0C501099543947394A7
:10138000731428F3D3946F0CDE14F8F2F80180ADD7
:10139000820D80AFA4CF8F929F92AF92BF920F9396
:1013A0001F93CF93DF93CDB7DEB7A1970FB6F89415
:1013B000DEBF0FBECDBF19A2423008F44AE08E0155
:1013C0000F5D1F4F842E912CB12CA12CA5019401EF
:1013D0000E947E12E62FB901CA01EA3044F5E05DB1
:1013E000D801EE938D01232B242B252B79F790E048
:1013F00080E0109769F0FD0101900020E9F7319736
:10140000AF014A1B5B0BBD018FE793E00E94880789
:10141000A1960FB6F894DEBF0FBECDBFDF91CF917E
:101420001F910F91BF90AF909F908F900895E95CAE
:10143000D7CFFC0101900020E9F73197AF01481B9D
:10144000590BBC018FE793E00C94880785ED8093DE
:10145000BC0080918F0290919002A0919102B09176
:1014600092020796A11DB11D23E0B695A795979509
:1014700087952A95D1F72091BC0024FD03C01092D6
:101480008D02089540918F025091900260919102D7
:1014900070919202452B462B472B69F30097A105CB
:1014A000B10541F025E32A95F1F700000197A10964
:1014B000B109E1CF80918E020C94BC03FC018081C4
:1014C0009181009711F00C947E1108950F931F9352
:1014D000CF93DF93EC0188819981009759F02A819D
:1014E0003B812617370730F081E0DF91CF911F91C4
:1014F0000F9108958B016F5F7F4F0E94DD1200975F
:1015000059F0998388831B830A832C813D81232B87
:1015100059F7FC011082E8CF80E0E7CFEF92FF920D
:101520000F931F93CF93DF93EC017B0119821882F5
:101530001B821A821D821C82FB0101900020E9F7A8
:1015400031978F01061B170BB8010E94660A28818C
:101550003981811113C02115310519F0C9010E948B
:101560007E11198218821D821C821B821A82DF91D1
:10157000CF911F910F91FF90EF9008951D830C83E1
:10158000B701C901DF91CF911F910F91FF90EF90AB
:101590000C94A3131F920F920FB60F9211242F9346
:1015A0003F934F935F936F937F938F939F93AF93EB
:1015B000BF93EF93FF938091B900887F803609F441
:1015C0004AC0F0F5883209F4A7C018F5803109F453
:1015D0009BC0B8F4882309F4F9C0883009F494C09A
:1015E000FF91EF91BF91AF919F918F917F916F91FB
:1015F0005F914F913F912F910F900FBE0F901F90D1
:101600001895883109F488C0803251F780938B0295
:1016100014C0803409F49DC040F48033B9F388339A
:10162000F9F680938B0285ECB0C0803509F485C053
:10163000883509F496C0883499F60E94260AD0CFDE
:10164000883909F48CC038F5883729F050F4883689
:1016500011F0803729F683E080938D0210926002AA
:1016600057C0883809F47BC0803919F0803809F0F8
:10167000B7CF80916002803208F071C0E0916002C3
:1016800081E08E0F809360028091BB00F0E0E05C0F
:10169000FD4F80833DC0803B39F0E0F4803A09F48F
:1016A00079C0883A09F09CCF84E080938D02109233
:1016B0003F0210923E02E0916302F09164020995AC
:1016C00080913E0281110FC081E080933E02109212
:1016D0001E0209C0803C09F4A6CF883C09F4A3CFC0
:1016E000883B09F07DCFE0913F0281E08E0F80932F
:1016F0003F02F0E0E25EFD4F80818093BB0090915D
:101700003F0280913E0229C0809168028093BB0015
:1017100085EC8093BC0064CF90918A02809189020D
:10172000981758F5E0918A0281E08E0F80938A0223
:10173000F0E0E759FD4F8081E9CFE0918A0281E036
:101740008E0F80938A028091BB00F0E0E759FD4F35
:10175000808390918A02809189029817C8F285E867
:10176000D8CFE0918A0281E08E0F80938A02809127
:10177000BB00F0E0E759FD4F808380918C0281111E
:101780005CCF81E08093670284EA8093BC00109272
:101790008D0226CF85EC8093BC0010928D02809143
:1017A0006002803230F4E0916002F0E0E05CFD4FD6
:1017B00010826091600270E0E0916102F09162023B
:1017C00080E492E00995109260020ACF10928B0299
:1017D00034CF1F920F920FB60F9211242F933F9385
:1017E0008F939F93AF93BF938091F5019091F601F2
:1017F000A091F701B091F8013091F40123E0230F9B
:101800002D3758F50196A11DB11D2093F401809349
:10181000F5019093F601A093F701B093F801809140
:10182000F9019091FA01A091FB01B091FC010196A0
:10183000A11DB11D8093F9019093FA01A093FB01C2
:10184000B093FC01BF91AF919F918F913F912F91E8
:101850000F900FBE0F901F90189526E8230F029649
:10186000A11DB11DD2CF1F920F920FB60F9211245E
:101870002F933F934F935F936F937F938F939F9398
:10188000AF93BF93EF93FF9384EC92E00E94F9062D
:10189000FF91EF91BF91AF919F918F917F916F9148
:1018A0005F914F913F912F910F900FBE0F901F901E
:1018B00018951F920F920FB60F9211242F938F93AA
:1018C0009F93EF93FF93E091D402F091D502808132
:1018D000E091DA02F091DB0282FD1BC090818091E1
:1018E000DD028F5F8F732091DE02821741F0E0915D
:1018F000DD02F0E0EC53FD4F958F8093DD02FF9108
:10190000EF919F918F912F910F900FBE0F901F908D
:1019100018958081F4CF0F931F93CF931092BB0241
:101920001092BA0288EE93E0A0E0B0E08093BC028F
:101930009093BD02A093BE02B093BF022FE631E0A8
:101940003093B9022093B8021092C7021092C602D7
:101950008093C8029093C902A093CA02B093CB02AD
:1019600081E891E09093C5028093C40285EC90E0F9
:101970009093D1028093D00284EC90E09093D302B4
:101980008093D20280EC90E09093D5028093D402B1
:1019900081EC90E09093D7028093D60282EC90E0A5
:1019A0009093D9028093D80286EC90E09093DB026A
:1019B0008093DA021092DD021092DE021092DF02B2
:1019C0001092E00210928203109281031092B703EA
:1019D0001092B80383E991E09093800380937F0392
:1019E00010928403109283031092980310929B0329
:1019F00010928F0310929003109291031092920311
:101A00008FEF8093990380939D03E1EAF3E087EBE6
:101A100093E0CFEFC1938E179F07E1F786E098E040
:101A200090938803809387038BE093E090938A03DD
:101A30008093890388E894E090938C0380938B03D0
:101A400089EC95E090938E0380938D0330E020E045
:101A500040E069E083E893E00E940608C093AC038D
:101A6000C093AD03C093AE0383E0809371039BE00A
:101A700090937203E5EBF3E0E491E0937303E1EA02
:101A8000F3E0E491E093740340E85EE360E070E02B
:101A90004093790350937A0360937B0370937C03A4
:101AA00090E590936803109269031092C704109216
:101AB000C6041092CB041092CA041092C40510926E
:101AC000C3051092C8051092C70590EC9093E705E6
:101AD0001092E80599E09093E9051092D6051092CE
:101AE000D5051092EA051092EB051092D7051092D9
:101AF000EC058093D8051092D90522E02093DA05F1
:101B000092E69093ED051092DB059091EE05109210
:101B1000DC051092DD059C719093EE051092DE05B8
:101B20001092EF051092DF051092E0051092E1058A
:101B30001092E2051092E3051092E4051092F00570
:101B40001092E6051092E5051092F1051092F2054B
:101B50002093D1038093D20301E010E01093C904D5
:101B60000093C8046BE971E085E496E00E948E0A58
:101B700010924B0610924D0610924C0691E09093F5
:101B80004E0610922406C093230610922D06109242
:101B90002E0640E157E260E070E04093010650936A
:101BA000020660930306709304064FEF5FEFBA01DD
:101BB00040932F065093300660933106709332069F
:101BC000409333065093340660933506709336067F
:101BD0004093390650933A0660933B0670933C0657
:101BE0001092090610920A0610920C0610920B062B
:101BF0002EEF3FEF309338062093370610920E06F3
:101C000010920D06109212061092110610921006F4
:101C100010920F06109214061092130610931606D7
:101C20000093150610921A061092190610921806C3
:101C30001092170610921B0610921C0610921D0699
:101C400010921E0610921F06109220061092210676
:101C5000109222061092F6051092F5051092F805E2
:101C60001092F7051092FA051092F9051092FC05F2
:101C70001092FB051092FE051092FD0510920006D1
:101C80001092FF053093D6052093D505C093EA0541
:101C90008EEF8093EB051092DE051092EF05109207
:101CA000D7051092EC059093DF058091F005909395
:101CB000DC052091EE0520622093EE059093E2056D
:101CC0009093E0051092DA059091ED05987F90933E
:101CD000ED051092E3051092E4058072806D80930B
:101CE000F0051092250610922606109227061092F3
:101CF00028061092290610922A0610922B0610929E
:101D00002C061092CC031092CB031092CE031092AB
:101D1000CD031092D0031092CF036BEB71E089EBEF
:101D200093E0CF911F910F910C948E0ACF93DF9384
:101D3000CDB7DEB768970FB6F894DEBF0FBECDBF44
:101D4000789484B5826084BD84B5816084BD85B596
:101D5000826085BD85B5816085BD80916E008160A2
:101D600080936E0010928100809181008260809348
:101D7000810080918100816080938100809180004A
:101D80008160809380008091B10084608093B10075
:101D90008091B00081608093B00080917A0084606F
:101DA00080937A0080917A00826080937A0080919B
:101DB0007A00816080937A0080917A0080688093B5
:101DC0007A001092C100E091D402F091D50282E035
:101DD0008083E091D002F091D1021082E091D20292
:101DE000F091D3028FEC80831092DC02E091D80254
:101DF000F091D90286E08083E091D602F091D7027B
:101E0000808180618083E091D602F091D702808149
:101E100088608083E091D602F091D702808180684B
:101E20008083E091D602F091D70280818F7D8083FC
:101E3000E0918703F091880330E020E040E06AE021
:101E400083E893E009958E010F5F1F4F88E0F8014A
:101E500011928A95E9F7B80183E893E00E94BD08E2
:101E6000E0918703F091880330E020E040E06BE0F0
:101E700083E893E00995E0918703F091880330E0CF
:101E800020E041E06DE083E893E00995612C38E0C3
:101E9000732E43E0A42EB12C50E0452E50E0552E79
:101EA00068E6862E60E0962E96E0292E27E0322EF8
:101EB0002FB7F8948091F5019091F601A091F70168
:101EC000B091F8012FBF4091F0015091F101609164
:101ED000F2017091F3016C017D01C41AD50AE60A82
:101EE000F70AB701A601483853416105710508F4A6
:101EF000BFC08093F0019093F101A093F201B093E1
:101F0000F301F80188E0C82E1192CA94E9F7B801EC
:101F100083E893E00E94BD0890929403809293031B
:101F20001092B7031092B80380914F06909150061B
:101F30001C8A1B8A1E8A1D8A188E1F8A4AE0B801D5
:101F40007301E81AF90AC7010E940712F80101900B
:101F50000020E9F731977F01E01AF10AB701CE01BD
:101F600043960E94660A2B893C8981118DC02115F8
:101F7000310519F0C9010E947E111C8A1B8A188E36
:101F80001F8A1E8A1D8A69EA71E0C8010E948E0AB2
:101F9000CB88DC88C114D10409F47DC0EF88F88CAB
:101FA000E114F104B1F08D819E81E80EF91EB701B4
:101FB000C8010E94660A882309F46DC029813A810C
:101FC0008D819E81B601820F931F0E94A313FE8212
:101FD000ED824D815E8169817A818FE793E00E9475
:101FE0008807C8010E945E0ACE0143960E945E0ADD
:101FF0001092B703FF24F394F092B8038FEA91E0B4
:102000000E94190A1092B70323E02093B80384EBCF
:1020100091E00E94190A1092B7032092B8038CEB4A
:1020200091E00E94190A4AE060E070E0CB010E9452
:10203000CB091092B7033092B80383EC91E00E9471
:10204000190A8091EE019091EF010196B5010E946D
:10205000AF129093EF018093EE01E0918703F0912E
:10206000880330E020E040E060E183E893E00995F8
:102070004114510409F41CCF0E94E506882309F499
:1020800013CF0E94000010CFF88EEF8AB801C9016B
:102090000E94A31378CF89819A81009711F00E9442
:1020A0007E111A8219821E821D821C821B8291CF90
:1020B000CF93DF9389EB93E00E945E0A8091CD037A
:1020C0009091CE03009739F0DC01ED91FC910280F4
:1020D000F381E02D09958091CF039091D003009773
:1020E00039F0DC01ED91FC910280F381E02D09953E
:1020F0008091F5059091F605009711F00E947E11F0
:10210000C091F705D091F8052097E1F0FE013297D4
:102110002081318146E0429FC001439F900D1124F0
:10212000C80FD91F9E018091F7059091F805269759
:102130008217930721F0CE010E945E0AF3CF029727
:102140000E947E118091F9059091FA05009711F097
:102150000E947E118091FB059091FC05009711F083
:102160000E947E11C091FD05D091FE052097E1F0FF
:10217000FE0132972081318146E0429FC001439F9A
:10218000900D1124C80FD91F9E018091FD059091DB
:10219000FE0526978217930721F0CE010E945E0A62
:1021A000F3CF02970E947E118091FF059091000667
:1021B000009711F00E947E1185E496E0DF91CF91A7
:1021C0000C945E0A0F931F93CF93DF938230910597
:1021D00010F482E090E0E0915106F091520630E078
:1021E00020E0B0E0A0E0309799F42115310509F422
:1021F0004AC0281B390B24303105D8F58A819B81D0
:102200006115710589F1FB0193838283FE0111C081
:10221000408151810281138148175907E0F0481726
:10222000590799F4109761F012960C931297139630
:102230001C933296CF01DF91CF911F910F9108959A
:102240000093510610935206F4CF2115310551F039
:102250004217530738F0A901DB019A01BD01DF01E4
:10226000F801C1CFEF01F9CF909352068093510648
:10227000CDCFFE01E20FF31F8193919322503109DC
:1022800039832883D7CF20914F0630915006232BD6
:1022900041F42091020130910301309350062093C4
:1022A0004F0620910001309101012115310541F4C3
:1022B0002DB73EB74091040150910501241B350B09
:1022C000E0914F06F0915006E217F307A0F42E1BA1
:1022D0003F0B2817390778F0AC014E5F5F4F24178A
:1022E000350748F04E0F5F1F5093500640934F063E
:1022F000819391939FCFF0E0E0E09CCFCF93DF9369
:102300000097E9F0FC01329713821282A0915106E6
:10231000B0915206ED0130E020E01097A1F4208149
:102320003181820F931F20914F063091500628175C
:10233000390709F061C0F0935006E0934F06DF9132
:10234000CF910895EA01CE17DF07E8F54A815B8156
:102350009E0141155105B1F7E901FB83EA834991DB
:102360005991C40FD51FEC17FD0761F4808191814D
:102370000296840F951FE901998388838281938156
:102380009B838A83F0E0E0E012968D919C911397F5
:102390000097B9F52D913C911197CD010296820FCE
:1023A000931F20914F06309150062817390739F6B0
:1023B000309751F51092520610925106B093500684
:1023C000A0934F06BCCFD383C28340815181840F39
:1023D000951FC817D90761F44E5F5F4F88819981B7
:1023E000480F591F518340838A819B819383828345
:1023F0002115310509F0B0CFF0935206E093510654
:102400009ECFFD01DC01C0CF13821282D7CFBB2744
:102410004A3031F4992322F4BDE2909581959F4F83
:102420000C941312BB27FB015527AA27880F991F6D
:10243000AA1FA41710F0A41B83955051B9F7A05DF3
:10244000AA3308F0A95DA193009779F7B111B19370
:102450001192CB010C942C12DC01FC01672F7191BD
:102460007723E1F7329704C07C916D93708362917A
:10247000AE17BF07C8F308950E94A012A59F900D44
:10248000B49F900DA49F800D911D112408952F924B
:102490003F924F925F926F927F928F929F92AF92F4
:1024A000BF92CF92DF92EF92FF920F931F93CF9341
:1024B000DF93CDB7DEB7CA1BDB0B0FB6F894DEBFD8
:1024C0000FBECDBF09942A88398848885F846E84FE
:1024D0007D848C849B84AA84B984C884DF80EE8048
:1024E000FD800C811B81AA81B981CE0FD11D0FB651
:1024F000F894DEBF0FBECDBFED010895A1E21A2E04
:10250000AA1BBB1BFD010DC0AA1FBB1FEE1FFF1F97
:10251000A217B307E407F50720F0A21BB30BE40BE7
:10252000F50B661F771F881F991F1A9469F760952E
:102530007095809590959B01AC01BD01CF010895E8
:10254000A29FB001B39FC001A39F700D811D1124F4
:10255000911DB29F700D811D1124911D089597FB4F
:10256000072E16F4009407D077FD09D00E94C312FD
:1025700007FC05D03EF4909581959F4F0895709586
:1025800061957F4F0895AA1BBB1B51E107C0AA1F8D
:10259000BB1FA617B70710F0A61BB70B881F991F04
:1025A0005A95A9F780959095BC01CD010895EE0F3D
:1025B000FF1F0590F491E02D0994B0E0A0E0E3EE58
:1025C000F2E10C9449128C01009751F4CB010E9466
:1025D000E2108C01C801CDB7DEB7E0E10C946512C2
:1025E000FC01E60FF71F9C0122503109E217F307A7
:1025F00008F49DC0D901CD91DC911197C617D7077A
:1026000098F0C530D10530F3CE01049786179707AF
:1026100008F3C61BD70B2297C193D1936D937C937C
:10262000CF010E947E11D6CF5B01AC1ABD0A4C01CE
:102630008C0E9D1EA0915106B0915206512C412C3A
:10264000F12CE12C109731F580914F0690915006B6
:102650008815990509F05CC04616570608F058C061
:102660008091000190910101009741F48DB79EB7D0
:102670004091040150910501841B950BE817F9075F
:1026800008F055C0F0935006E0934F06F9017183AE
:102690006083A0CF8D919C91119712966C901297A8
:1026A00013967C901397A815B90559F56C0142E073
:1026B000C40ED11CCA14DB0420F1AC014A195B0919
:1026C000DA011296159780F06282738251834083FB
:1026D000D9016D937C93E114F10471F0D701139645
:1026E000FC93EE93129776CF22968C0F9D1FF901E3
:1026F00091838083F301EFCFF0935206E09351066C
:1027000069CF4816590608F42C017D01D3019ACFF0
:10271000CB010E94E2107C01009749F0AE01B801A4
:102720000E949A13C8010E947E11870153CF10E0C6
:1027300000E050CFFB01DC0102C001900D9241503E
:102740005040D8F70895FB01DC0101900D92002064
:10275000E1F7089511E0C4EED1E004C0FE010E944B
:0E276000D7122196C53ED107C9F7F894FFCFD6
:10276E000000530680001815A015C019FF1815A1FA
:10277E0015C819FF1815AE19FF1815AF19FF181542
:10278E00AE15D5168015A8163F15D3160015401593
:10279E008D16141520160015A115C815DA1612156A
:1027AE008116CF15D916F115DB1640152E15A41569
:1027BE00A619FF0001140A6464323200127A000076
:1027CE00042896100800008000400000000000342D
:1027DE00040704B107DD030004ED03DE030000006F
:1027EE00001B077B06A8066807D906B706CB0600AE
:1027FE0000000041098807B107B007556E696E6980
:10280E007469616C697A65640052616D3A20007278
:10281E006563200053746174653A2000456E756DD2
:0A282E003A200053697A653A200051
:00000001FF
