:100000000C9487020C94AF020C94AF020C94AF02D4
:100010000C94AF020C94AF020C94AF020C94AF029C
:100020000C94AF020C94AF020C94AF020C94AF028C
:100030000C94AF020C94AF020C94AF020C94AF027C
:100040000C94A9170C94AF020C9419180C94F31784
:100050000C94AF020C94AF020C94AF020C94AF025C
:100060000C944B180C94AF022C20676F74203078DE
:100070000067657453657474696E6756616C756565
:100080003A20435243206661696C3A206578706576
:1000900063746564203078004669726D77617265BB
:1000A0002076657273696F6E20307800474F204468
:1000B00041544121002042617200507265733A2020
:1000C0000020250048756D3A200020430054656DDE
:1000D000703A20002070706D00434F323A20005279
:1000E000616D3A200000000000240027002A000073
:1000F000000000250028002B00000000002300263F
:1001000000290000000008000201000003040700AD
:1001100000000000000000726561644D6561737548
:1001200072656D656E743A20656E636F756E746589
:10013000726564206572726F722072656164696EA7
:100140006720534344333020646174612E00206281
:100150007974657300726561644D6561737572656C
:100160006D656E743A206E6F2053434433302064C3
:1001700061746120666F756E642066726F6D2049D0
:1001800032432C2069326320636C61696D73207780
:10019000652073686F756C64207265636569766548
:1001A00020002C20676F74203078002C2065787038
:1001B000656374656420307800726561644D6561C3
:1001C000737572656D656E743A20666F756E642026
:1001D00043524320696E2062797465200004040450
:1001E00004040404040202020202020303030303E0
:1001F00003010204081020408001020408102001BD
:100200000204081020207F0101000000000000000F
:10021000000000005E000000000000060000060074
:100220000000247E24247E240000246B2A2A6B12E2
:1002300000004626100864620000344A4A542050E8
:100240000000000000060000000000003C4200002A
:1002500000000000423C000000002A1C3E1C2A0056
:10026000000008083E0808000000004030000000C0
:10027000000008080808080800000000400000000E
:10028000000040201008040200003C62524A463C34
:10029000000040447E404000000064525252524CE4
:1002A000000024424A4A4A340000382422227E2098
:1002B00000002E4A4A4A4A3200003C4A4A4A4A3022
:1002C0000000020262120A060000344A4A4A4A3416
:1002D00000000C525252523C00000000240000006A
:1002E000000000402400000000000008142200006C
:1002F0000000141414141414000000002214080048
:1003000000000402520A0400000018245A5A24185B
:1003100000007C121212127C00007E4A4A4A4A34C3
:1003200000003C424242422400007E424242423CA3
:1003300000007E4A4A4A424200007E0A0A0A02023D
:1003400000003C424252523400007E080808087EF9
:10035000000000427E420000000020404040403E3D
:1003600000007E080808146200007E4040404040C3
:1003700000007E040808047E00007E040810207E31
:1003800000003C424242423C00007E121212120C1B
:1003900000003C425262423C00007E121212324C7B
:1003A0000000244A4A4A4A30000002027E0202004B
:1003B00000003E404040403E00001E204040201EC5
:1003C00000007E201010207E0000422418182442D5
:1003D000000002047804020000004262524A4642D1
:1003E0000000007E4242000000000204081020408D
:1003F0000000000042427E000000000004020400F1
:1004000000808080808080808000000002040000E6
:10041000000020545454780000007E4848483000C2
:1004200000003844444428000000304848487E001A
:100430000000385454544800000000087C0A0200B0
:10044000000018A4A4A47C0000007E080808700026
:10045000000000487A4000000000408080887A0058
:1004600000007E1010284400000000427E40000082
:1004700000007C047804780000007C040404780008
:1004800000003844444438000000FC444444380030
:10049000000038444444FC0000007C0804040400CC
:1004A0000000485454542400000000043E4400005E
:1004B00000003C4040207C0000001C2040201C002C
:1004C00000001C601C601C00000044281028440030
:1004D00000001CA0A0A07C0000004464544C440018
:1004E000000000083641000000000000FF0000008E
:1004F000000000413608000000080404081010083D
:10050000000000000000000000006A1945261124C8
:100510001FBECFEFD8E0DEBFCDBF12E0A0E0B1E05C
:10052000E6EAFBE502C005900D92A030B107D9F7CD
:1005300026E0A0E0B2E001C01D92AC3AB207E1F7BC
:1005400012E0C6E8D2E004C02197FE010E946C2AA6
:10055000C538D107C9F70E94901B0C94C62D0C9486
:10056000000080E0089591E09093F1028093F00202
:100570001092EF021092EE020895FC019081909586
:1005800028E081E397FF03C0990F982701C0990FD6
:100590002150C1F78181892798E021E387FF03C0BB
:1005A000880F822701C0880F9150C1F7089580916C
:1005B000A0029091A102891B990B089508950895B6
:1005C0009B01DC011896ED91FC9141E067E10994F3
:1005D000DC011696ED91FC9130E020E040E069E10D
:1005E0000994DC011696ED91FC9130E020E040E0AA
:1005F00068E109949A01DC011696ED91FC91462F71
:1006000067E10994462FDC011696ED91FC9130E0EC
:1006100020E066E10994462FDC011696ED91FC91ED
:1006200030E020E065E10994DC011896ED91FC9141
:1006300030E020E040E069E10994DC011896ED919A
:10064000FC9130E020E040E068E10994CF93DF9333
:100650001F92CDB7DEB76983BE016F5F7F4F0E94E7
:10066000E0020F90DF91CF910895EF92FF921F93D8
:10067000CF93DF93EC01162F7A010E941D0360E4F3
:10068000CE010E942603E885F9859701412F67E195
:10069000CE010995CE01DF91CF911F91FF90EF9090
:1006A0000C941403EF92FF921F93CF93DF93EC010E
:1006B000142F7901663181F138F4643109F44BC0AB
:1006C000653179F080E022C06831C9F150F16931BB
:1006D000C9F780919B02882391F1CE010E941403F7
:1006E0002EC080919B02882319F0CE010E94140332
:1006F000CE010E941D0360E0CE010E942603612FFF
:10070000CE010E94260381E080939B02DF91CF916E
:100710001F91FF90EF900895642F0E94260381E0BF
:10072000F5CF80919B02882319F0CE010E9414031B
:10073000A701193138F4612FCE010E9435031092C0
:100740009B02EDCF68E1CE010E943503185188E18C
:10075000E80EF11CEDCF8E898F3F11F488E78E8B68
:10076000E885F9859701412F64E1CE01DF91CF91B2
:100770001F91FF90EF900994833081F028F481302D
:1007800099F08230A9F008958730A9F08830C9F037
:100790008430B1F4809180008F7D03C0809180000F
:1007A0008F7780938000089584B58F7784BD0895F6
:1007B00084B58F7DFBCF8091B0008F778093B000A0
:1007C00008958091B0008F7DF9CF1F93CF93DF9371
:1007D000282F30E0F901ED5FFE4F8491F901EF50D1
:1007E000FE4FD491F901E352FE4FC491CC23A9F0FE
:1007F000162F81110E94BC03EC2FF0E0EE0FFF1FBB
:10080000E151FF4FA591B4918FB7F894EC9111117C
:1008100008C0D095DE23DC938FBFDF91CF911F916D
:100820000895DE2BF8CFCF93DF9390E0FC01EF50DB
:10083000FE4F249183529E4FFC0184918823D1F076
:1008400090E0880F991FFC01EB51FF4FA591B491E7
:10085000FC01E151FF4FC591D491623071F49FB713
:10086000F8943C91822F809583238C93E8812E2BE2
:1008700028839FBFDF91CF9108958FB7F894EC91B3
:100880002E2B2C938FBFF6CF3FB7F8948091970211
:1008900090919802A0919902B0919A0226B5A89BD6
:1008A00005C02F3F19F00196A11DB11D3FBFBA2F02
:1008B000A92F982F8827BC01CD01620F711D811DC2
:1008C000911D42E0660F771F881F991F4A95D1F747
:1008D00008958F929F92AF92BF92CF92DF92EF9244
:1008E000FF926B017C010E9444044B015C01C11426
:1008F000D104E104F104B9F00E94440468197909B3
:100900008A099B09683E73408105910580F321E0C7
:10091000C21AD108E108F10888EE880E83E0981E1B
:10092000A11CB11CE4CFFF90EF90DF90CF90BF905F
:10093000AF909F908F9008950F931F93CF93DF9365
:10094000EC01862F642F8C3208F03AC08A3208F00E
:1009500060C0883209F44BC0893209F460C0803429
:1009600008F475C0982F9F73FE01E90FF11D868D65
:100970008F3F09F44EC0903108F436C0282F30E084
:10098000F901ED5FFE4F8491F901EF50FE4F0491A4
:10099000F901E352FE4F1491112379F081110E9465
:1009A000BC03E12FF0E0EE0FFF1FE750FF4FA591D2
:1009B000B491EC910E2381E009F480E0898F29C085
:1009C0008D3299F108F4CBCF94EB980F923008F068
:1009D000C6CF8F73C80FD11D8E8D411134C061E019
:1009E0000E94130460E08E8D0E94E50312C08E0108
:1009F000025E1F4FD0E0F80181918F018F3F31F0EF
:100A000061E0D03108F062E00E941304DF5FD6316C
:100A100091F781E0DF91CF911F910F91089570E0E0
:100A200090E080E00E946904F4CF85E090E04330DC
:100A300010F082E090E0880F991F880F991F0597AA
:100A40000197F1F7E6CF62E00E941304E2CF80E065
:100A5000E1CF2FB7F8946091930270919402809146
:100A60009502909196022FBF089508950895EF92F0
:100A7000FF920F931F93CF93DF938C017B01D0E004
:100A8000C0E0F701EC0FFD1F6491662361F0D8010F
:100A9000ED91FC910190F081E02DC8010995892B21
:100AA00011F02196EECFCE01DF91CF911F910F91E2
:100AB000FF90EF900895AF92BF92CF92DF92EF92A6
:100AC000FF920F931F93CF93DF936C017B018B01F8
:100AD000040F151FEB015E01AE18BF08C017D10748
:100AE00059F06991D601ED91FC910190F081E02DD2
:100AF000C6010995892B79F7C501DF91CF911F9127
:100B00000F91FF90EF90DF90CF90BF90AF9008953E
:100B1000FC01538D448D252F30E0842F90E0821B03
:100B2000930B541710F0CF96089501970895FC0188
:100B3000918D828D981761F0A28DAE0FBF2FB11DE0
:100B40005D968C91928D9F5F9F73928F90E0089538
:100B50008FEF9FEF08958F929F92AF92BF92CF92A7
:100B6000DF92EF92FF920F931F93CF93DF937C015D
:100B70008C01060F171FEC016E01CE18DF080C1751
:100B80001D0759F10E9429056093FA027093FB0238
:100B90008093FC029093FD0282EF92E00E94970501
:100BA00097FF29C00E9429058090FA029090FB02CD
:100BB000A090FC02B090FD02681979098A099B098E
:100BC0008090F6029090F702A090F802B090F9029F
:100BD000681579058A059B05F8F2C601DF91CF916A
:100BE0001F910F91FF90EF90DF90CF90BF90AF904B
:100BF0009F908F9008958993BFCFFC01918D828D36
:100C0000981731F0828DE80FF11D858D90E00895E1
:100C10008FEF9FEF0895FC01918D228D892F90E039
:100C2000805C9F4F821B91098F7399270895CF9203
:100C3000DF92EF92FF920F931F93CF9360E080912A
:100C400015040E94E50361E0809116040E94E5030B
:100C500064E670E080E090E00E9469044CE050E0BF
:100C60006BE276E082EF92E00E945B050E9429052C
:100C70006B017C010E9429056C197D098E099F0971
:100C80000091F6021091F7022091F8023091F902DA
:100C90006017710782079307D0F482EF92E00E94F9
:100CA0000B06892B39F3C1E064E670E080E090E048
:100CB0000E946904CC2391F282EF92E00E940B061D
:100CC000892B39F082EF92E00E949705F5CFC0E0C2
:100CD000EBCF809115049091110661E0911101C054
:100CE00060E00E94E50360E0809116040E94E50345
:100CF00064E670E080E090E0CF911F910F91FF904B
:100D0000EF90DF90CF900C94690482EF92E00E9404
:100D10000B0621E0892B09F420E0822F089580E062
:100D200090E0892B29F00E94850681110C94000027
:100D30000895FC01A48DA80FB92FB11DA35ABF4F70
:100D40002C91848D90E001968F739927848FA689CA
:100D5000B7892C93A089B1898C91837080648C931E
:100D6000938D848D981306C00288F389E02D8081CD
:100D70008F7D80830895EF92FF920F931F93CF93FF
:100D8000DF93EC0181E0888F9B8D8C8D98131AC0C6
:100D9000E889F989808185FF15C09FB7F894EE89AD
:100DA000FF896083E889F98980818370806480830A
:100DB0009FBF81E090E0DF91CF911F910F91FF9055
:100DC000EF900895F62E0B8D10E00F5F1F4F0F73FD
:100DD0001127E02E8C8D8E110CC00FB607FCFACFB8
:100DE000E889F989808185FFF5CFCE010E949906B7
:100DF000F1CFEB8DEC0FFD2FF11DE35AFF4FF08289
:100E00009FB7F8940B8FEA89FB8980818062CFCFEE
:100E1000CF93DF93EC01888D8823B9F0AA89BB8931
:100E2000E889F9898C9185FD03C0808186FD0DC01C
:100E30000FB607FCF7CF8C9185FFF2CF808185FF3D
:100E4000EDCFCE010E949906E9CFDF91CF910895B1
:100E50000F931F93E0910906F0910A06ED5EFA4F99
:100E600080910B06808382EF92E00E9408070E9427
:100E7000290500910D0610910E0620910F06309164
:100E80001006601771078207930788F340910906DF
:100E900050910A0680910B0690910C06480F591F3D
:100EA00064E175E082EF92E00E945B050E942905F3
:100EB0002091090630910A0640910B0650910C06CC
:100EC000240F351FE8E2E29FA001E39F500D11249B
:100ED000640F751F811D911D60930D0670930E06A2
:100EE00080930F06909310061F910F910895CF9253
:100EF000DF92EF92FF920F931F93CF93DF936C01DA
:100F0000EB017B01E40EF51E10E000E0CE15DF05DD
:100F100061F06991D601ED91FC910190F081E02D95
:100F2000C6010995080F191FF1CFC801DF91CF91B4
:100F30001F910F91FF90EF90DF90CF900895DC010B
:100F40001A96ED91FC9130E020E00994EF92FF9227
:100F50000F931F93CF93DF931F92CDB7DEB77C0122
:100F60008B01D8016C91673129F150F46531A0F4FF
:100F70000F90DF91CF911F910F91FF90EF90089507
:100F80006A3118F16E3FA1F7F8014181498369E2A6
:100F9000C7010E949F070BC0F80141814983D70117
:100FA0001696ED91FC9130E020E0C70109950E5FA7
:100FB0001F4FD7CFF80181818983AE014F5F5F4F0B
:100FC00061E0C7010E94FA02F2CF0F5F1F4FD70105
:100FD0001696ED91FC9130E020E040E0C7010995C4
:100FE000C0CFEF92FF920F931F93CF93DF93EC014B
:100FF000042F79016D3009F446C050F46B30C9F10B
:10100000693009F49FC06A3009F465C080E046C0C9
:101010006E3009F452C06F3099F70E94F102F70167
:101020001381110F110F110F6C89160F60E4CE019F
:101030000E940B03612F62956F706061CE010E9468
:101040000B03612F6F70CE010E940203F7016481D0
:10105000606BCE010E940203F701408151816281E1
:10106000660F660F660FCE010E94FA020150A1F7CB
:101070002EC067E271E0442311F062E271E0CE011C
:101080000E94A6070AC0411110C06BE171E00E94E6
:10109000A607E881F98182898C8B81E0DF91CF916D
:1010A0001F910F91FF90EF90089564E171E00E940D
:1010B000A607E881F9818389EFCF0E94F10261E8F8
:1010C000CE010E940B03602FCE010E940203CE01CD
:1010D0000E94E802E2CFEA85FB8530E020E040E0B4
:1010E00068E2CE010995EE81FF8130E020E040E02A
:1010F00064E1CE01099541E06BE4CE010E949F07B7
:10110000E881F981448169E2CE010E949F0740E0B5
:101110006BE4CE010E949F07E881F981448169E276
:10112000CE010E949F0741E06BE4CE010E949F0721
:10113000E881F981458169E2CE010E949F076CE256
:1011400071E09DCF81E691E0998388831C8AA5CFC9
:10115000CF92DF92FF920F931F93CF93DF9300D034
:1011600000D01F92CDB7DEB78C011C8281E08B834B
:101170007A836983D801ED91FC91F1881D82F80191
:10118000A081B181C480D5809E012F5F3F4F5096D2
:101190004C916FE0C801F60109958D818F5F8D83B9
:1011A0008F1568F30F900F900F900F900F90DF91B5
:1011B000CF911F910F91FF90DF90CF900895CF9323
:1011C000DF93EC01A889B989FD013491319694919E
:1011D000319684911396FD01A4916317A8F1961797
:1011E00098F1631B770B8A9FE02D1124E69FC001C5
:1011F000E79F900D1124280F392F311D83E0220F16
:10120000331F8A95E1F7C9010496DA01245F3F4F45
:10121000E889F989E80FF91FE491ED9301968217A7
:101220009307B1F78D89882361F0FA019A01285F4D
:101230003F4F8191DF01119780958C932E173F07C7
:10124000C1F7DF91CF910895FA01CA010896119272
:10125000E817F907E1F7E6CF2F923F924F925F929E
:101260006F927F928F929F92AF92BF92CF92DF92B6
:10127000EF92FF920F931F93CF93DF93CDB7DEB71B
:101280002D970FB6F894DEBF0FBECDBFDC0154968C
:10129000ED91FC915597D996DC90D997CF010396A3
:1012A0006A3019F5FC018491D80ED996DC92D99751
:1012B000D8961C9281E090E02D960FB6F894DEBF90
:1012C0000FBECDBFDF91CF911F910F91FF90EF9097
:1012D000DF90CF90BF90AF909F908F907F906F9056
:1012E0005F904F903F902F90089532962490D8961B
:1012F0005C90D8975D0124E0A20EB11CF490FC0133
:10130000E490352C3F0CED0C81E0850D381610F47F
:10131000FF24F394C62E8D01612CCE0101964C0161
:10132000462C752C242DA4016C2DC5010E94DF08CC
:101330007C86DD8691E09B879A868986D8011896FF
:10134000ED91FC919E01275F3F4F41E06FE0C501A9
:10135000099543947394731428F3D3946F0CDE149B
:10136000F8F2F80180AD820D80AFA4CFDC01ED91E1
:10137000FC910190F081E02D099420916402260FE8
:101380003327331F21323105ECF42091E802FC01B0
:1013900090E080E0243069F082E00895A09164023A
:1013A0002191AC014C5B5D4FA40FB52FB11D2C9367
:1013B0000196861798F380916402680F6093640227
:1013C00080E0089581E008951092E80281E0809322
:1013D000C7021092C20261E082E10E94E50361E06F
:1013E00083E10E94E503E9EBF0E080818E7F80835A
:1013F00080818D7F808388E48093B80085E480932A
:10140000BC0008951092A1021092A0021092EF0267
:101410001092EE020E94E4098EED92E090939F02FA
:1014200080939E028FED92E090939D0280939C02A8
:101430000895CF93DF9391E0909387028823B9F0CA
:10144000C091B800D091BA008091BC008A7B809393
:10145000BC0060E082E10E94E50360E083E10E945D
:10146000E5030E94E409D093BA00C093B800DF916D
:10147000CF910895CF92DF92EF92FF920F931F9337
:10148000CF93DF93D82FC62F613208F098C00E9407
:1014900044046B017C018091E80281116BC081E002
:1014A0008093E8028093C7029FEF9093C602109248
:1014B000C5029C0F9093C4028093C3028091C30223
:1014C000DD0FD82BD093C3028091C202813009F086
:1014D00078C01092C2020E9444046B017C0180918A
:1014E000C3028093BB008091EA029091EB02A0912D
:1014F000EC02B091ED02892B8A2B8B2BA1F00E947C
:1015000044040091EA021091EB022091EC02309128
:10151000ED026C197D098E099F0906171707280728
:10152000390708F448C08091BC0083FDD8CF85EC12
:101530008093BC000E9444046B017C018091E8020E
:10154000813009F440C08091C5028C1710F4C0911D
:10155000C502E2EAF2E0A8ECB2E080E08C1355C0EC
:101560008C2FDF91CF911F910F91FF90EF90DF9023
:10157000CF9008958091EA029091EB02A091EC0245
:10158000B091ED02892B8A2B8B2B09F484CF0E941A
:1015900044040091EA021091EB022091EC02309198
:1015A000ED026C197D098E099F0906171707280798
:1015B000390708F070CF8091E9020E94190AC0E053
:1015C000CFCF85EEB5CF8091EA029091EB02A0914A
:1015D000EC02B091ED02892B8A2B8B2B09F4AECF54
:1015E0000E9444040091EA021091EB022091EC0267
:1015F0003091ED026C197D098E099F0906171707B6
:101600002807390708F09ACFD6CF91919D938F5F25
:10161000A5CFE091A1028091A002E81730F4F0E09C
:10162000E853FD4F808190E008958FEF9FEF08957C
:101630009091A1028091A0022FEF3FEF981748F4FC
:10164000E92FF0E0E853FD4F208130E09F5F909359
:10165000A102C9010895CF92DF92EF92FF920F93FA
:101660001F93CF93DF937C01CB018A012091F1027C
:10167000222389F0EB016B01C40ED51ECC15DD05CC
:1016800069F06991D701ED91FC910190F081E02D15
:10169000C7010995F3CF642F0E94BD09C801DF91EE
:1016A000CF911F910F91FF90EF90DF90CF90089511
:1016B000CF93DF931F92CDB7DEB769832091F102FC
:1016C0002223F9F02091EE02203258F021E030E0A0
:1016D000FC013383228390E080E00F90DF91CF9173
:1016E00008958091EF02E82FF0E0EC5DFD4F9981C5
:1016F00090838F5F8093EF028093EE0281E090E011
:10170000ECCF61E0CE0101960E94BD09F7CFCF92E8
:10171000DF92EF92FF920F931F93CF93DF93D091BD
:10172000EE0281E0D13208F09CC0C091F0020E942C
:1017300044046B017C018091E80281116CC082E05D
:101740008093E80281E08093C7028FEF8093C60206
:101750001092C502D093C402A4E2B2E0E2EAF2E041
:1017600080E0D8138DC01092C3028091C302CC0FC9
:10177000C82BC093C3028091C202813009F084C09B
:101780001092C2020E9444046B017C018091C3024A
:101790008093BB008091EA029091EB02A091EC0251
:1017A000B091ED02892B8A2B8B2BA1F00E9444046F
:1017B0000091EA021091EB022091EC023091ED02CF
:1017C0006C197D098E099F09061717072807390725
:1017D00008F442C08091BC0083FDD8CF85EC809393
:1017E000BC000E9444046B017C018091E8028230BD
:1017F00009F44CC08091C6028F3F09F469C0809102
:10180000C602803209F466C08091C602803309F4B2
:1018100063C084E026C08091EA029091EB02A0911F
:10182000EC02B091ED02892B8A2B8B2B09F483CF2C
:101830000E9444040091EA021091EB022091EC0214
:101840003091ED026C197D098E099F090617170763
:101850002807390708F06FCF8091E9020E94190A22
:1018600085E01092EF021092EE021092F102DF91E9
:10187000CF911F910F91FF90EF90DF90CF9008953F
:101880009D9191938F5F6DCF85EEA9CF8091EA02F4
:101890009091EB02A091EC02B091ED02892B8A2B82
:1018A0008B2B09F4A2CF0E9444040091EA0210910C
:1018B000EB022091EC023091ED026C197D098E094A
:1018C0009F09061717072807390708F08ECFC4CFDE
:1018D00080E0C7CF82E0C5CF83E0C3CFCF93DF9353
:1018E000EC01683181F130F46431A1F0673159F0D5
:1018F00080E006C0693109F43FC06032C9F781E079
:10190000DF91CF91089550E0B90183E094E00E9407
:101910002B0BF5CF8C859D85AE85BF85892B8A2BBA
:101920008B2B71F4E881F981A585B0E020EA36E8D7
:1019300041E050E00E94C1296C877D878E879F8798
:101940000E94020ADCCF2C853D854E855F8560E0D4
:1019500074E284EF90E00E940B2A20513109410982
:10196000510956954795379527952093B8008E894C
:1019700086950E94B302C3CF83E094E00E94870B58
:10198000BECFDF92EF92FF920F931F93CF93DF931F
:1019900000D0CDB7DEB78C01F62ED72E19826A8320
:1019A000CE0101960E94BD02E82E81E60E94B3029C
:1019B000612F70E080919306909194060E94B60981
:1019C000B801772780919306909194060E94B609FA
:1019D00070E060E080919306909194060E94B609B1
:1019E0006F2D7D2D80919306909194060E94B609EB
:1019F0008091930690919406DC01ED91FC91019009
:101A0000F081E02D6E2D09958091930690919406BA
:101A10000E94870B91E0811190E0892F0F900F9029
:101A2000DF91CF911F910F91FF90EF90DF9008957C
:101A300090E080E00895682F87E70E943A0A1092AC
:101A4000A1028093A0020895CF93C82F87E70E9438
:101A5000B3026C2F83E094E00E94580B83E094E083
:101A60000E94870B82E090E00E941B0D8091A002F3
:101A70009091A102891B990B82309105ECF383E0D0
:101A800094E00E94180BC82F83E094E00E94180B8A
:101A900020E03C2FA901482BCA01982789279827C5
:101AA000CF9108958F929F92AF92BF92CF92DF9283
:101AB000EF92FF92F82E87E70E94B3026F2D83E02A
:101AC00094E00E94580B83E094E00E94870B83E02F
:101AD00090E00E941B0D8091A0029091A102891BB1
:101AE000990B83309105ECF383E094E00E94180B8E
:101AF000092E000CAA0BBB0B8824982EA92EBA2EF7
:101B000083E094E00E94180B092E000CAA0BBB0B7B
:101B10006C017D01C828D928EA28FB28FE2CED2C71
:101B2000DC2CCC2483E094E00E94180BBC01990FBC
:101B3000880B990B6C297D298E299F29FF90EF90A6
:101B4000DF90CF90BF90AF909F908F9008952F928D
:101B50003F924F925F926F927F928F929F92AF923D
:101B6000BF92CF92DF92EF92FF920F931F93CF938A
:101B7000DF93CDB7DEB76B970FB6F894DEBF0FBE1D
:101B8000CDBF8AEF0E94520D20918F0330919003B8
:101B9000C72ED82EE92EFF24E7FCFA94C21AD30AE6
:101BA000E108F10817E095958795779567951A955F
:101BB000D1F7220F331F4B015C01821A930AA1084F
:101BC000B108A5019401A0919103B09192030E94E4
:101BD000CC294B015C018BE0B594A7949794879432
:101BE0008A95D1F7A7019601C701B6010E943C2A48
:101BF0009B01AC019CE055954795379527959A95A3
:101C0000D1F7A0919303B09194030E94CC292EE0C8
:101C100095958795779567952A95D1F7860E971EA6
:101C2000A81EB91E8092A7039092A803A092A903B0
:101C3000B092AA0387EF0E94520D6E8B7F8B888F24
:101C4000998F8091A7039091A803A091A903B091C7
:101C5000AA036C017D01FF0CCC08DC2C76019C01F1
:101C6000AD016C2D7C2D8C2D9C2D345F4140510994
:101C7000610971098109910929873A874B87652E86
:101C8000762E872E982E9B8F5901C42ED52EE62EA8
:101C9000F72E082F192F0E94722A322E232E488BDE
:101CA000598B6A8B7B8B8C8B9D8B30919803209109
:101CB0009703932F990F990B492F592F692F792F3C
:101CC000892F0E94722A0CE00E946A2B29833C878C
:101CD0004A8F5D876E877F87582E492E30919A03F1
:101CE00020919903932F990F990BA32CB22CC8889C
:101CF000D988EA88FB880C891D89492F592F692FBB
:101D0000792F892F0E94722A08E00E94832BA980D4
:101D1000BC84CA8CDD84EE84FF84052D142D0E94C2
:101D2000A02B70588F4F9F4FE0919503F091960331
:101D30005F01D12CC12CE12CF12C8701E983BA82FF
:101D4000CB82DC82ED82FE820F831887C12CD12CDE
:101D5000E12CF12C00E010E00E94722A01E20E94C6
:101D6000832B2A8F532E49835C876D877E878F87CD
:101D7000492EA0E00E94B22B09F434C13091A00397
:101D800020919F03932F990F990BA32CB22CC888F5
:101D9000D988EA88FB880C891D89492F592F692F1A
:101DA000792F892F0E94722A1901488B598B6A8BCF
:101DB0007B8B8C8B9D8B30919E0320919D03932F69
:101DC000990F990BA984BA84CB84D62CE72CF82CD4
:101DD000092D1B8D492F592F692F792F892F0E948B
:101DE000722A01E10E946A2B5101C888D988EA88C9
:101DF000FB880C891D890E94A02B59016A017B0177
:101E0000382E192F4E895F89688D798D84E07595FC
:101E10006795579547958A95D1F780E090E0A0E1C6
:101E2000B0E0841B950BA60BB70B3C014D01990C40
:101E30006608762C43019C01AD01662D762D862D1A
:101E4000962D0FE10E946A2B722E832E942E5987B5
:101E5000B62FA72FF82FE92F30919C0320919B03D9
:101E6000932F990F990B492F592F692F792F892F6C
:101E700003E20E946A2B032D0E94A02B59016A01E4
:101E80007B018C01272D382D492D59856B2F7A2FF9
:101E90008F2F9E2F0E94A92BE5E3AE2EFCE0BF2ED4
:101EA000C12CD12CE12CF12C00E010E00E94722A10
:101EB000AA8CB52CC980DC84ED84FE840F85142D9A
:101EC0000E94CC2A2F873E8749875A876B87798360
:101ED0008C879D870DE00E94832B922E832E742E7B
:101EE000652E562E472E382E292E3091A60320918E
:101EF000A503932F990F990BA92CB82CC72CD62C7E
:101F0000E52CF42C032D122D492F592F692F792FF1
:101F1000892F0E94722A0E94722A09E10E94832B53
:101F2000AF84BE84C984DA84EB84F9800C851D8576
:101F30000E94A02B19012A013B014C013091A403FE
:101F40002091A303932F990F990B492F592F692F94
:101F5000792F892F0E94722A03E10E94832B590155
:101F60006A017B018C019101A201B301C4010E94AD
:101F7000A02B08E00E94832B59016A017B01E82F06
:101F8000192F3091A2032091A103932F990F990B40
:101F9000492F592F692F792F892F04E00E946A2B2E
:101FA0000E2F0E94A02B49015A0199278B2D7A2DC3
:101FB000692D6B960FB6F894DEBF0FBECDBFDF91D3
:101FC000CF911F910F91FF90EF90DF90CF90BF9036
:101FD000AF909F908F907F906F905F904F903F90C9
:101FE0002F90089560E070E0CB01E3CFCF9381E6BE
:101FF0000E94B30262E070E0809193069091940693
:102000000E94B60962E070E0809193069091940678
:102010000E94B60980919306909194060E94870BC6
:10202000882321F090E080E0CF91089563E070E094
:1020300080E090E00E94690462E081E60E943A0A32
:102040001092A1028093A002809193069091940631
:10205000DC01ED91FC910084F185E02D0995892B3F
:1020600009F38091930690919406DC01ED91FC9127
:102070000284F385E02D0995C82F809193069091F5
:102080009406DC01ED91FC910284F385E02D099525
:1020900020E03C2FA901482BCA01C6CFCF93DF9384
:1020A00020910B0630910C06A901460F571F403FA7
:1020B0005105B8F4EB01BC018091090690910A0624
:1020C000820F931FAE018C5E9A4F0E94A72D6091E4
:1020D0000B0670910C06C60FD71FD0930C06C09349
:1020E0000B06DF91CF9108951616170614F40C9481
:1020F0004E100895CF93DF9300D0CDB7DEB79A830B
:10210000898362E070E0CE0101960E9474100F9006
:102110000F90DF91CF910895AF92BF92CF92DF924F
:10212000EF92FF920F931F93CF93DF931F92CDB740
:10213000DEB75C01FC018481898361E070E0CE013F
:1021400001960E944E10C980D12CC60101960E94B2
:10215000B5267C010097B1F0F50104811581FC01E1
:102160000115110571F0C016D10608F48601F501BC
:1021700060817181A801C7010E94B72DF701E00FAE
:10218000F11F1082B601C7010E947410E114F1041E
:1021900071F0C7010F90DF91CF911F910F91FF90C8
:1021A000EF90DF90CF90BF90AF900C9451270F909D
:1021B000DF91CF911F910F91FF90EF90DF90CF9023
:1021C000BF90AF9008950F931F93CF93DF93182F75
:1021D000092F10920C0610920B0610920A0610920C
:1021E000090683E090E00E94B526EC01088319837C
:1021F0001A8263E070E00E944E10209719F0CE0121
:102200000E94512710920C0610920B0684E090E079
:1022100090930A0680930906DF91CF911F910F9149
:102220000895CF93DF93EC0188819981009711F095
:102230000E945127198218821D821C821B821A82D9
:10224000DF91CF910895FC0180819181009711F079
:102250000C94512708950F931F93CF93DF93EC01B4
:1022600088819981009759F02A813B812617370789
:1022700030F081E0DF91CF911F910F9108958B0194
:102280006F5F7F4F0E94EA2C009759F099838883F3
:102290001B830A832C813D81232B59F7FC0110827B
:1022A000E8CF80E0E7CFEF92FF920F931F93CF9399
:1022B000DF93EC018617970781F0FB010081118104
:1022C0000115110539F0E480F580B7010E942B114A
:1022D00081110BC0CE010E941111CE01DF91CF916F
:1022E0001F910F91FF90EF900895FD82EC82B8014D
:1022F000888199810E94B02DF0CF20918506309180
:10230000860640913706509138062417350794F514
:10231000220F331F4091390650913A06240F351F82
:10232000F90191838083209185063091860646E0ED
:10233000429FC001439F900D112420913B06309194
:102340003C06820F931F0E945311E0913D06F091CD
:102350003E068091850690918606E80FF91F87E07A
:1023600080838091850690918606019690938606DB
:1023700080938506089520918506309186064091C8
:1023800037065091380624173507ACF5BC01220FEB
:10239000331F8091390690913A06280F391F88E043
:1023A00091E0F90191838083209185063091860622
:1023B00046E0429FC001439F900D112420913B06AF
:1023C00030913C06820F931F0E945311E0913D060D
:1023D000F0913E068091850690918606E80FF91FE0
:1023E00083E0808380918506909186060196909384
:1023F0008606809385060895EF92FF920F931F93B0
:10240000CF93DF93CDB7DEB7A2970FB6F894DEBFB8
:102410000FBECDBF162F009709F03AC080914F062E
:10242000909150060E94E31081E090E00E947A10A3
:1024300090E080E00E947A101AA361E070E0CE0183
:1024400082960E9474108091730690917406A091F8
:102450007506B09176068B8F9C8FAD8FBE8F64E032
:1024600070E0CE014B960E9474101A3008F03EC006
:10247000E12FF0E0E25CFD4E0C946C2A4B126412EA
:10248000A212DC12041376123613761276127A1325
:102490000E94E310CDCF80917D0690917E06A091A1
:1024A0007F06B09180068F8B988FA98FBA8F64E0DA
:1024B00070E0CE0147960E94741080917B06909147
:1024C0007C060E947A1012C080917706909178065F
:1024D000A0917906B0917A068B8B9C8BAD8BBE8BCD
:1024E00064E070E0CE0143960E9474100E942807B9
:1024F00080916D0690916E06A0916F06B091700666
:102500000196A11DB11D80936D0690936E06A09358
:102510006F06B09370060E94290560934906709378
:102520004A0680934B0690934C06A2960FB6F894F9
:10253000DEBF0FBECDBFDF91CF911F910F91FF90F6
:10254000EF9008958091530690915406209159067A
:1025500030915A06821B930B880F991F880F991F81
:1025600020915D0630915E06820F931FFC018081F1
:102570009181A281B3818B879C87AD87BE8764E000
:1025800070E0CE010B960E947410809153069091DA
:1025900054060E947A1080917D0690917E06A0914B
:1025A0007F06B09180068F87988BA98BBA8B64E0E9
:1025B00070E0CE010F9698CF809155069091560607
:1025C0002091590630915A06821B930B880F991F50
:1025D000880F991F20915D0630915E06820F931F30
:1025E000FC0180819181A281B3818F839887A98723
:1025F000BA8764E070E0CE0107960E947410809163
:102600005106909152065DCF8091770690917806A1
:10261000A0917906B0917A0689839A83AB83BC83B3
:1026200064E070E0CE0101960E947410809157061C
:10263000909158060E947A1010E000E080915706B1
:10264000909158060817190708F050CFC801880F55
:10265000991FE0915B06F0915C06E80FF91F8081FD
:1026600091810E947A100F5F1F4FE8CF80918506FD
:102670009091860698A38F8F62E070E0CE014F960E
:102680000E947410F12CE12C10E000E0809185068E
:1026900090918606081719070CF028CFE0913D06A7
:1026A000F0913E06E00FF11F808189A361E070E0A8
:1026B000CE0181960E94741060913B0670913C0699
:1026C0006E0D7F1D1A8219821C821B821E821D8242
:1026D000CE0101960E945311CE0101960E948C10EA
:1026E000CE0101960E9423110F5F1F4FF6E0EF0EFF
:1026F000F11CCCCF10E000E0809185069091860619
:10270000081719070CF0F2CEE0913D06F0913E0655
:10271000E00FF11FE081EE2301F1A0913906B091A5
:102720003A06C801880F991FA80FB91F8D919C9177
:10273000E930B1F41A8219821C821B821E821D822A
:10274000BC01CE0101960E945311CE0101960E9458
:102750008C10CE0101960E9423110F5F1F4FCCCF2A
:1027600070E060E0EA3038F4F0E0EE0FFF1FE75869
:10277000FE4F608171810E947410EFCFEF92FF9243
:102780000F931F93CF93DF93EC01198218821B8262
:102790001A821D821C826115710521F18B01FB01DA
:1027A00001900020E9F731977F01E61AF70AB70197
:1027B0000E942B11811109C0CE01DF91CF911F9191
:1027C0000F91FF90EF900C941111FD82EC82B801F3
:1027D00088819981DF91CF911F910F91FF90EF90A8
:1027E0000C94B02DDF91CF911F910F91FF90EF903E
:1027F0000895AF92BF92CF92DF92EF92FF920F9324
:102800001F93CF93DF9300D000D000D0CDB7DEB7B9
:102810007A018C01060F171FF801C080D12CC60168
:102820000E94B5265C01F801DC013196CD018A19C0
:102830009B098C159D051CF480818D93F6CFB50105
:10284000CE0101960E94BE13F7018081918100970D
:10285000A1F169817A816115710569F14281538124
:102860002D813E814217530730F10E94B02D8D819A
:102870009E81F701958384831E821D82CE0101967D
:102880000E942311A114B10419F0C5010E9451271F
:10289000C601019626960FB6F894DEBF0FBECDBFD7
:1028A000DF91CF911F910F91FF90EF90DF90CF902C
:1028B000BF90AF9008950E94512789819A81F701B6
:1028C000918380838B819C81938382838D819E8180
:1028D000958384831A8219821C821B82CDCFFB01CF
:1028E00001900020E9F73197AF01461B570BDC013F
:1028F000ED91FC910280F381E02D09948F929F92DB
:10290000AF92BF92EF92FF920F931F93CF93DF93FB
:10291000CDB7DEB7A1970FB6F894DEBF0FBECDBF1F
:102920007C01FA01CB0119A2223008F42AE08E01C1
:102930000F5D1F4F822E912CB12CA12CBF01A50140
:1029400094010E940B2AF901CA016A300CF5605DFE
:10295000D8016E938D01232B242B252B79F790E042
:1029600080E0109721F0BD01C7010E946F14A1966D
:102970000FB6F894DEBF0FBECDBFDF91CF911F9190
:102980000F91FF90EF90BF90AF909F908F90089520
:10299000695CDECF2F923F924F925F926F927F924F
:1029A0008F929F92AF92BF92CF92DF92EF92FF925F
:1029B0000F931F93CF93DF93CDB7DEB72E970FB64C
:1029C000F894DEBF0FBECDBF0E94F60F019779F5D8
:1029D00019861A861B861C861D821E821F821886F7
:1029E00019821A821B821C8281E60E94B3028091A6
:1029F000930690919406DC01ED91FC910190F08199
:102A0000E02D63E009958091930690919406DC0196
:102A1000ED91FC910190F081E02D60E009958091AD
:102A20009306909194060E94870B882311F080E012
:102A3000A6C063E070E080E090E00E94690462E17B
:102A400081E60E943A0A182F1092A1028093A002F8
:102A50008091930690919406DC01ED91FC910084A5
:102A6000F185E02D0995892B09F403C1412C512CE6
:102A70003201212C8AE0E82EF12C99E0C92ED12CCC
:102A800024E0A22EB12C33E0832E912C142D8091C2
:102A9000930690919406DC01ED91FC910284F385FC
:102AA000E02D0995382E113108F096C0E42DF0E0A4
:102AB000E45AFA4E0C946C2A6D156D15EC156D15D3
:102AC0006D15EC15D815D815EC15D815D815EC15CD
:102AD000E115E115EC15E115E115C401133008F01D
:102AE000C50184199509E9E0F0E0EC0FFD1F8E0F98
:102AF0009F1FDC013C92812F63E00E944C2AEDE095
:102B0000F0E0EC0FFD1FE90FF11D3082BFEF4B1A13
:102B10005B0A6B0A7B0AE2E14E1651046104710400
:102B200009F0B4CF2110CCC089859A85AB85BC85CE
:102B30008093950690939606A0939706B093980677
:102B400089819A81AB81BC818093990690939A0682
:102B5000A0939B06B0939C068D819E81AF81B88522
:102B600080939D0690939E06A0939F06B093A00627
:102B70001092A2061092A3061092A40681E02E964F
:102B80000FB6F894DEBF0FBECDBFDF91CF911F917E
:102B90000F91FF90EF90DF90CF90BF90AF909F90FC
:102BA0008F907F906F905F904F903F902F900895FF
:102BB000C601193008F0C70184199509E1E0F0E079
:102BC00094CF8FE090E01F3010F080E190E0841906
:102BD0009509E5E0F0E089CFCE010D960E94BD0297
:102BE000182F381609F492CF2090A7062220F1F171
:102BF00069EB71E08091A5069091A6060E943705C9
:102C00002AE0B301A2018091A5069091A6060E9438
:102C10007E146BEA71E08091A5069091A6060E9451
:102C20003705412F50E070E060E020E18091A5067B
:102C30009091A6060E947E1462EA71E08091A5063A
:102C40009091A6060E9437050091A5061091A60650
:102C5000432D50E070E060E020E1C8010E947E1446
:102C60006DEB71E0C8010E946F1450CF22242394B1
:102C70004DCF8091A706882309F4D9CE65E571E090
:102C80008091A5069091A6060E943705412F50E03D
:102C900070E060E02AE08091A5069091A6060E946F
:102CA0007E140091A5061091A6066EE471E0C8019D
:102CB0000E9437056DEB71E0C8010E946F14B7CE1A
:102CC0008091A706882309F4B2CE0091A506109141
:102CD000A60667E171E0EBCF8091A206882381F020
:102CE0000E94CA1481110CC08091A106811108C0F4
:102CF00010929506109296061092970610929806DA
:102D000081E08093A206609195067091960680916D
:102D10009706909198060E94B12CCB0108954F928E
:102D20005F926F927F928F929F92AF92BF92CF925B
:102D3000DF92EF92FF920F931F93CF936B017C0171
:102D4000742EAC019B010E94E52C60EC71E08111B6
:102D500026C046015701E894B7F82FEF3FEF4FE741
:102D60005FE7C501B4010E94E52C81110CC02FEF73
:102D70003FEF4FE75FE7C501B4010E947E2864EC96
:102D800071E0181664F02FEF3FEF4FE75FE4C701E3
:102D9000B6010E94E02C1816ACF468EC71E089ECE6
:102DA00093E0CF911F910F91FF90EF90DF90CF9024
:102DB000BF90AF909F908F907F906F905F904F905B
:102DC0000C946F142FEF3FEF4FE75FECC701B60194
:102DD0000E947E2887FDE1CF20E030E0A901C701F5
:102DE000B6010E947E2810E000E087FF0AC06DE275
:102DF00089EC93E00E942C098C01F7FAF094F7F823
:102E0000F094C0E060E070E080E09FE37C1641F069
:102E100020E030E040E251E40E943F2CCF5FF6CF4B
:102E2000A70196010E94D32B2B013C010E94B12CDB
:102E30004B015C012AE0BC01A40189EC93E00E94F3
:102E40007E147C01E00EF11ECC23D1F1C501B4014A
:102E50000E9483289B01AC01C301B2010E94D22BC6
:102E60004B015C016EE289EC93E00E942C09E80EB4
:102E7000F91EC15028F120E030E040E251E4C501E4
:102E8000B4010E94E4282B013C010E94B12C4B01AB
:102E9000B12CA12C2AE0B501A40189EC93E00E9499
:102EA0007E14E80EF91EC501B4010E9483289B011F
:102EB000AC01C301B2010E94D22B4B015C01D9CFFE
:102EC000C701CF911F910F91FF90EF90DF90CF90AE
:102ED000BF90AF909F908F907F906F905F904F903A
:102EE000089585ED8093BC008091EA029091EB02F9
:102EF000A091EC02B091ED020796A11DB11D23E057
:102F0000B695A795979587952A95D1F72091BC00FE
:102F100024FD03C01092E80208954091EA02509106
:102F2000EB026091EC027091ED02452B462B472B92
:102F300069F30097A105B10541F025E32A95F1F762
:102F400000000197A109B109E1CF8091E9020C9439
:102F5000190A1F920F920FB60F9211242F933F93CD
:102F60008F939F93AF93BF9380919302909194021C
:102F7000A0919502B09196023091920223E0230F26
:102F80002D3758F50196A11DB11D20939202809313
:102F9000930290939402A0939502B093960280912D
:102FA000970290919802A0919902B0919A0201968D
:102FB000A11DB11D8093970290939802A09399024E
:102FC000B0939A02BF91AF919F918F913F912F91B2
:102FD0000F900FBE0F901F90189526E8230F0296B2
:102FE000A11DB11DD2CF1F920F920FB60F921124C7
:102FF0002F933F934F935F936F937F938F939F9301
:10300000AF93BF93EF93FF9382EF92E00E949906F4
:10301000FF91EF91BF91AF919F918F917F916F91B0
:103020005F914F913F912F910F900FBE0F901F9086
:1030300018951F920F920FB60F9211242F938F9312
:103040009F93EF93FF93E0910203F091030380813C
:10305000E0910803F091090382FD1BC090818091EB
:103060000B038F5F8F7320910C03821741F0E09167
:103070000B03F0E0EE50FD4F958F80930B03FF9113
:10308000EF919F918F912F910F900FBE0F901F90F6
:1030900018958081F4CF1F920F920FB60F921124D2
:1030A0002F933F934F935F936F937F938F939F9350
:1030B000AF93BF93EF93FF938091B900887F8036E1
:1030C00009F44AC0F0F5883209F4A7C018F5803138
:1030D00009F49BC0B8F4882309F4F9C0883009F4D6
:1030E00094C0FF91EF91BF91AF919F918F917F918C
:1030F0006F915F914F913F912F910F900FBE0F9065
:103100001F901895883109F488C0803251F7809358
:10311000C60214C0803409F49DC040F48033B9F372
:103120008833F9F68093C60285ECB0C0803509F487
:1031300085C0883509F496C0883499F60E947117C5
:10314000D0CF883909F48CC038F5883729F050F48D
:10315000883611F0803729F683E08093E8021092D8
:10316000860257C0883809F47BC0803919F080384E
:1031700009F0B7CF80918602803208F071C0E091EB
:10318000860281E08E0F809386028091BB00F0E082
:10319000EA59FD4F80833DC0803B39F0E0F4803A2E
:1031A00009F479C0883A09F09CCF84E08093E80262
:1031B0001092650210926402E0919E02F0919F02CB
:1031C00009958091640281110FC081E080936402AF
:1031D0001092440209C0803C09F4A6CF883C09F44F
:1031E000A3CF883B09F07DCFE091650281E08E0F8F
:1031F00080936502F0E0EC5BFD4F80818093BB0023
:10320000909165028091640229C08091C3028093ED
:10321000BB0085EC8093BC0064CF9091C502809187
:10322000C402981758F5E091C50281E08E0F809393
:10323000C502F0E0EE55FD4F8081E9CFE091C50277
:1032400081E08E0F8093C5028091BB00F0E0EE55C7
:10325000FD4F80839091C5028091C4029817C8F2F7
:1032600085E8D8CFE091C50281E08E0F8093C5023A
:103270008091BB00F0E0EE55FD4F80838091C70246
:1032800081115CCF81E08093C20284EA8093BC000C
:103290001092E80226CF85EC8093BC001092E802E1
:1032A00080918602803230F4E0918602F0E0EA59A3
:1032B000FD4F10826091860270E0E0919C02F091D7
:1032C0009D0286E692E00995109286020ACF10923E
:1032D000C60234CF0F931F93CF93DF931092F50262
:1032E0001092F40288EE93E0A0E0B0E08093F60242
:1032F0009093F702A093F802B093F90281E991E06C
:103300009093F3028093F20285EC90E09093FF0299
:103310008093FE0284EC90E090930103809300037D
:1033200080EC90E0909303038093020381EC90E0A3
:10333000909305038093040382EC90E0909307033D
:103340008093060386EC90E0909309038093080332
:1033500010920B0310920C0310920D0310920E03A7
:103360001092CC031092CB0310920104109202042D
:1033700083EA91E09093CA038093C9031092CE032D
:103380001092CD031092E2031092E5031092D9033C
:103390001092DA031092DB031092DC038FEF80931C
:1033A000E3038093E703EBEEF3E081E094E0DFEFEB
:1033B000D1938E179F07E1F781EF97E09093D203A7
:1033C0008093D10382E593E09093D4038093D30359
:1033D0008EE69CE09093D6038093D5038CE994E02D
:1033E0009093D8038093D70330E020E040E069E079
:1033F0008DEC93E00E94F107D093F603D093F7038E
:10340000D093F80383E08093BB039BE09093BC03CD
:10341000E4EFF1E0E491E093BD03E0EEF1E0E4914C
:10342000E093BE0340E85EE360E070E04093C303D6
:103430005093C4036093C5037093C60390E59093C3
:10344000B2031092B303109206041092050448EEE2
:1034500053E060E070E040930704509308046093E9
:10346000090470930A042FEA31E030930404209396
:1034700003041092950610929606109297061092E9
:1034800098061092990610929A0610929B06109236
:103490009C0610929D0610929E0610929F06109216
:1034A000A0061092A106C1E0C093A206C093A30695
:1034B000C093A4061092A70610920B0510920A055D
:1034C00010920F0510920E05109208061092070632
:1034D00010920C0610920B0690EC90932B06109213
:1034E0002C0699E090932D0610921A061092190658
:1034F00010922E0610922F0610921B061092300684
:1035000080931C0610921D0622E020931E0692E670
:103510009093310610921F06909132061092200669
:10352000109221069C7190933206109222061092FE
:10353000330610922306109224061092250610924C
:103540002606109227061092280610923406109232
:103550002A061092290610923506109236062093FC
:1035600015048093160401E010E010930D050093FC
:103570000C056CEC71E089E896E00E94BE13109295
:103580008F061092910610929006C09392061092A8
:103590006806D0936706109271061092720680E159
:1035A00097E2A0E0B0E08093450690934606A09392
:1035B0004706B09348068FEF9FEFDC0180937306B8
:1035C00090937406A0937506B09376068093770661
:1035D00090937806A0937906B0937A0680937D063F
:1035E00090937E06A0937F06B093800610924D06BE
:1035F00010924E061092500610924F068EEF9FEFDB
:1036000090937C0680937B0610925206109251068E
:1036100010925606109255061092540610925306B8
:10362000109258061092570610935A0600935906A6
:1036300010925E0610925D0610925C0610925B0678
:1036400010925F0610926006109261061092620658
:103650001092630610926406109265061092660638
:1036600010923A061092390610923C0610923B06D0
:1036700010923E0610923D061092400610923F06B0
:103680001092420610924106109244061092430690
:1036900090931A0680931906D0932E0680932F06D6
:1036A000109222061092330610921B0610923006DA
:1036B000C093230680913406C09320069091320671
:1036C000906290933206C0932606C093240610920F
:1036D0001E0690913106987F90933106109227062E
:1036E000109228068072806D8093340610926906CD
:1036F00010926A0610926B0610926C0610926D067C
:1037000010926E0610926F06109270066FEB71E0C9
:103710008FE094E0DF91CF911F910F910C94BE1335
:10372000CF93DF93CDB7DEB729970FB6F894DEBFFE
:103730000FBECDBF789484B5826084BD84B58160AE
:1037400084BD85B5826085BD85B5816085BD80916C
:103750006E00816080936E001092810080918100E4
:1037600082608093810080918100816080938100DC
:10377000809180008160809380008091B10084609E
:103780008093B1008091B00081608093B0008091FF
:103790007A00846080937A0080917A0082608093BE
:1037A0007A0080917A00816080937A0080917A001B
:1037B000806880937A001092C100E0910203F0913A
:1037C000030382E08083E091FE02F091FF02108209
:1037D000E0910003F09101038FEC808310920A03C3
:1037E000E0910603F091070386E08083E0910403F3
:1037F000F0910503808180618083E0910403F09162
:103800000503808188608083E0910403F0910503C3
:10381000808180688083E0910403F09105038081BA
:103820008F7D80830E94020A1092870288EA91E6C7
:10383000A0E0B0E08093EA029093EB02A093EC0248
:10384000B093ED0281E08093E902E091D103F09121
:10385000D20330E020E040E06AE08DEC93E009958F
:103860009E012F5F3F4F790188E0D9011D928A9513
:10387000E9F7B9018DEC93E00E94A808E091D1032B
:10388000F091D20330E020E040E06BE08DEC93E07B
:103890000995E091D103F091D20330E020E041E0BE
:1038A0006DE08DEC93E009950E94020A87E70E9483
:1038B000B30260ED83E094E00E94580B83E094E053
:1038C0000E94870B81E090E00E941B0D9091A00266
:1038D0008091A1029817F1F383E094E00E94180B05
:1038E000883509F065C088E80E94240D9093900304
:1038F00080938F038AE80E94240D90939203809313
:1039000091038CE80E94240D909394038093930379
:103910008EE80E94240D909396038093950380E98E
:103920000E94240D909398038093970382E90E944C
:10393000240D90939A038093990384E90E94240DA7
:1039400090939C0380939B0386E90E94240D90939F
:103950009E0380939D0388E90E94240D9093A00309
:1039600080939F038AE90E94240D9093A203809381
:10397000A1038CE90E94240D9093A4038093A303D8
:103980008EE90E94240D9093A6038093A50387E7F8
:103990000E94B30264EF83E094E00E94580B6FE34F
:1039A00083E094E00E94580B83E094E00E94870B30
:1039B00083E094E0909394068093930681E60E94BE
:1039C000B30261ED70E080919306909194060E949D
:1039D000B60970E060E080919306909194060E9491
:1039E000B60980919306909194060E94870B8111ED
:1039F000AAC063E070E080E090E00E94690463E0A8
:103A000081E60E943A0A1092A1028093A00280915E
:103A1000930690919406DC01ED91FC910084F18570
:103A2000E02D0995892B09F48EC080919306909121
:103A30009406DC01ED91FC910284F385E02D09955B
:103A400089838091930690919406DC01ED91FC911D
:103A50000284F385E02D09958A83809193069091E5
:103A60009406DC01ED91FC910284F385E02D09952B
:103A7000D82E09811A81102701271027C7010E941B
:103A8000BD02C82E8091A706DC102FC08823C1F08C
:103A900068E970E08091A5069091A6060E9437051E
:103AA000C090A506D090A606A80170E060E020E1D5
:103AB000C6010E947E146DEB71E0C6010E946F1476
:103AC00070E060E080E190E00E94C10C8823D9F1B1
:103AD00062E070E080E096E40E94C10C70E060E07B
:103AE00086E093E50E94C10C2EC0882361F161E756
:103AF00070E08091A5069091A6060E9437054C2D96
:103B000050E070E060E020E18091A5069091A6066B
:103B10000E947E1468E670E08091A5069091A6064A
:103B20000E9437050091A5061091A6064D2D50E084
:103B300070E060E020E1C8010E947E146DEB71E04E
:103B4000C8010E946F1481E08093A106109286063E
:103B50001092850644E0C42ED12CD0923806C09233
:103B600037068AE190E00E94B526FC01C192D1920D
:103B70008F015F016C01FAE1CF0ED11C6FEB71E098
:103B8000C5010E94BE1326E0A20EB11CAC14BD04F8
:103B9000A9F710933C0600933B0684E090E00E9456
:103BA000B52690933E0680933D0688E090E00E9403
:103BB000B526FC0190933A06809339061182108253
:103BC00013821282158214821782168210921106B5
:103BD00061E0809115040E94130461E08091160455
:103BE0000E94130460E0809115040E94E50360E0E8
:103BF000809116040E94E5030E9417066AED71E0A9
:103C0000C7010E94BE13B7018AE892E00E947D11AD
:103C1000C7010E94231164EE71E0C7010E94BE1328
:103C2000C7010E94BB11C7010E94231168EE71E019
:103C3000C7010E94BE13B70184E091E00E947D118C
:103C4000C7010E94231163EF71E0C7010E94BE13F8
:103C5000B70180E091E00E947D11C7010E9423110D
:103C6000772473940E9429054B015C0136E0632E92
:103C700082EF92E00E940B06892B09F463C0109139
:103C8000230660910C0570910D0587E194E00E9478
:103C9000AB058091170490E0111152C090930F056D
:103CA00080930E0560910E0570910F0587E194E0F9
:103CB0000E94AB051123A1F080910E0590910F0594
:103CC000019790930F0580930E058B5E9B4FDC014F
:103CD00012968C9190E09A9590930B0580930A052B
:103CE00000911704109118040115110509F47EC202
:103CF0008091190490911A04C0900E05D0900F0580
:103D0000009709F437C20E94E310C80101970E948E
:103D10007A1004E010E00B5E1B4FC80185519440FF
:103D20008C159D0508F02FC2F8018281898761E01A
:103D300070E0CE0109960E9474100F5F1F4FEDCF07
:103D40000196ACCF80916806833009F4BBC608F0B9
:103D5000F7C1813009F485C6823009F4A7C6809185
:103D60008E0290918F02A0919002B0919102A501D4
:103D70009401281B390B4A0B5B0BDA01C901803D0A
:103D80009740A105B10508F44CC180928E02909233
:103D90008F02A0929002B09291020E94F60F0197BA
:103DA00009F05EC068EC70E082E091E50E94C10C11
:103DB0000E946C1690930901809308018091A406DB
:103DC000882381F00E94CA1481110CC08091A10641
:103DD000811108C01092990610929A0610929B06C3
:103DE00010929C067092A4068091990690919A0672
:103DF000A0919B06B0919C068093040190930501CD
:103E0000A0930601B09307018091A306882381F057
:103E10000E94CA1481110CC08091A106811108C0B2
:103E200010929D0610929E0610929F061092A00678
:103E30007092A30680919D0690919E06A0919F0688
:103E4000B091A0068093000190930101A09302011C
:103E5000B09303016EE170E080E090E00E9469049D
:103E60000E94A70D0E94832860938A0270938B02A0
:103E700080938C0290938D026EE170E080E090E080
:103E80000E94690488E0D7011D928A95E9F7B7017D
:103E90008DEC93E00E94A808E5E0F2E0F093DE03E9
:103EA000E093DD0310920104109202046FED70E0C4
:103EB00089EC93E00E9437058091A8069091A906AD
:103EC000812C28E0922E881A990A092C000CAA0845
:103ED000BB082AE0B501A401B7FE0DC06DE289EC74
:103EE00093E00E942C0944275527BA014819590923
:103EF0006A097B092AE089EC93E00E947E14109203
:103F000001047092020469ED70E089EC93E00E9474
:103F10003705409108015091090170E060E02AE006
:103F200089EC93E00E947E1464ED70E089EC93E0EC
:103F30000E9437051092010482E0809302046DEC28
:103F400070E089EC93E00E94370560910401709164
:103F50000501809106019091070142E00E948F16B1
:103F60006AEC70E089EC93E00E943705109201043E
:103F700083E08093020464EC70E089EC93E00E949B
:103F800037056091000170910101809102019091CB
:103F9000030142E00E948F1661EC70E089EC93E02F
:103FA0000E9437051092010484E0809302046AEBBA
:103FB00070E089EC93E00E94370520E030E543ECA7
:103FC00057E460918A0270918B0280918C029091EB
:103FD0008D020E943F2C42E00E948F1665EB70E03C
:103FE00089EC93E00E9437051092010485E08093EC
:103FF00002048091880290918902019664E070E049
:104000000E94582A9093890280938802E091D103FC
:10401000F091D20330E020E040E060E18DEC93E0ED
:10402000099580917106882309F47DC010920104DE
:1040300086E0809302046CEA70E089EC93E00E94D1
:1040400037056EE170E080E090E00E9469040E9414
:104050006C1690930901809308018091A40688232F
:1040600081F00E94CA1481110CC08091A1068111B7
:1040700008C01092990610929A0610929B06109210
:104080009C067092A4068091990690919A06A09140
:104090009B06B0919C068093040190930501A09328
:1040A0000601B09307018091A306882381F00E9446
:1040B000CA1481110CC08091A106811108C0109210
:1040C0009D0610929E0610929F061092A006709276
:1040D000A30680919D0690919E06A0919F06B091A7
:1040E000A0068093000190930101A0930201B09378
:1040F00003016EE170E080E090E00E9469040E949C
:10410000A70D0E94832860938A0270938B0280938C
:104110008C0290938D026EE170E080E090E00E944E
:1041200069047092720680E090E0892B09F49ACDC0
:104130000E948506882309F493CD0E94000090CD4B
:10414000853009F49AC508F46DC5863009F007CEAC
:1041500082EF92E00E948805892B09F400CE8091BD
:104160007206882309F4FBCD109272061092710634
:1041700069E088C580914F06909150060E94E31037
:1041800010E000E0C8CD0E94280780916D06909154
:104190006E06A0916F06B09170060196A11DB11D2B
:1041A00080936D0690936E06A0936F06B093700691
:1041B0000E9429056093490670934A0680934B0636
:1041C00090934C068091690690916A06A0916B06C7
:1041D000B0916C060196A11DB11D80936906909364
:1041E0006A06A0936B06B0936C0642CDE091190469
:1041F000E093670620901A0430901B0440901C0442
:1042000050901D04EA30F0F6F0E0E75FFE4D0C94AC
:104210006C2A13216F2162226522A72232233623C2
:104220000E242F24522480917D0690917E06A09129
:104230007F06B0918006B7FF13C00E944404611549
:1042400071058105910511F00E9475280E942628AC
:104250006093730670937406809375069093760648
:1042600080917D0690917E06A0917F06B091800698
:10427000B7FD0EC040911E0450911F0460912004B0
:104280007091210484179507A607B70709F49ACF00
:1042900080912204909123049093500680934F06BE
:1042A00070924D06109258061092570610925F06B3
:1042B00010926006109261061092620610926306D8
:1042C0001092640610926606209277063092780665
:1042D0004092790650927A067092680673CF809168
:1042E0001E0490911F04A0912004B091210480939A
:1042F000810690938206A0938306B0938406409132
:104300007306509174066091750670917606481791
:1043100059076A077B0709F055CF8091570690919E
:104320005806C0905D06D0905E06F60130E020E0B1
:10433000009709F043C02091510630915206309306
:104340005A062093590620915106309152062F5F4C
:104350003F4F309352062093510601968115F0E2AB
:104360009F0708F041C0880F991F880F991F0E946E
:10437000B52690935E0680935D06D6018091570620
:10438000909158060817190790F5CD018C199D09D1
:10439000E0915D06F0915E06E80FF91F4D915D9189
:1043A0006D917D9140835183628373830F5F1F4FB3
:1043B000E5CF2F5F3F4F8217930729F2419151912B
:1043C00061917191421553056405750591F78091CE
:1043D000590690915A06280F391F3093540620939E
:1043E000530670926206EECE8FEF9FEFC0CFC114DE
:1043F000D10419F0C6010E9451278091570690916F
:104400005806880F991F880F991FE0915D06F0915B
:104410005E06E80FF91F208231824282538280912A
:104420005706909158060196909358068093570628
:10443000709262068BE090E040917706509178068A
:104440006091790670917A064215530564057505E9
:1044500009F0B8CEFC01E95EFB4F408151816281D9
:104460007381409381065093820660938306709314
:1044700084060091730610917406209175063091A0
:104480007606041715072607370709F09BCEFC01AF
:10449000E55EFB4F2081318130937C0620937B06C3
:1044A000835E9B4FFC0180819181A281B3818093C7
:1044B0007D0690937E06A0937F06B093800670924F
:1044C0004E060ACF87E090E0B7CF809177069091B3
:1044D0007806A0917906B0917A0682159305A40515
:1044E000B50509F06FCE80911E0490911F04A09134
:1044F0002004B09121048093810690938206A093BA
:104500008306B093840640917306509174066091BF
:10451000750670917606481759076A077B0709F0F8
:1045200051CE80912204909123049093520680935F
:1045300051069093560680935506909354068093A7
:10454000530670925F06F2E0F09368063BCE8091CE
:104550001E0490911F04A0912004B0912104809327
:10456000810690938206A0938306B09384064091BF
:10457000730650917406609175067091760648171F
:1045800059076A077B0709F01DCE4090220450901E
:104590002304709264064114510409F413CE8091EF
:1045A000510690915206840D951D9093520680936A
:1045B0005106C0905B06D0905C06809157069091A2
:1045C0005806840D951D811520E4920710F5880F7B
:1045D000991F0E94B52690935C0680935B06F601B6
:1045E00090E080E02091570630915806821793079B
:1045F00098F461917191AC01440F551F20915B06B5
:1046000030915C06240F351FD9016D937C93019680
:10461000E9CF8FEF9FEFDDCFC114D10419F0C601B0
:104620000E945127E4E2F4E08091570690915806E9
:10463000800F911F0415150581F021913191880F8C
:10464000991F40915B0650915C06840F951FDC0119
:104650002D933C930F5F1F4FE7CF909358068093A5
:104660005706B0CDB5E0B0936806ACCD80911E047E
:1046700090911F04A0912004B091210480938106A1
:1046800090938206A0938306B093840680912204BF
:104690009091230490938806809387061816190634
:1046A0000CF090CD80913F0690914006009711F05C
:1046B0000E945127009141061091420601151105F3
:1046C000E1F0F801329720813181629EC001639E42
:1046D000900D1124080F191F9801809141069091A7
:1046E0004206065011098217930721F0C8010E9463
:1046F0002311F2CF02970E94512780914306909197
:104700004406009711F00E94512740908706509070
:104710008806C201880F991F4114E0E45E0610F07C
:104720008FEF9FEF0E94B5269093400680933F063F
:104730008FEF9FEFF6E54F16F5E15F0630F4649CCE
:10474000C001659C900D112402960E94B526DC01E3
:104750004D925D928D016D01B1E04B1A510857FCED
:1047600009C06FEB71E0C6010E94BE13E6E0CE0EF9
:10477000D11CF2CF10934206009341068091870628
:10478000909188060E94B526909344068093430634
:1047900090E080E020918706309188068217930789
:1047A0006CF49C01220F331FE0913F06F09140060C
:1047B000E20FF31F118210820196ECCFD12CC12C95
:1047C00010E000E08DE090E02091870630918806AF
:1047D000021713070CF0F6CCFC01E95EFB4F2081B9
:1047E000E0914306F0914406E00FF11F20832C0175
:1047F000FFEF4F1A5F0A40914106509142064C0D5F
:104800005D1DB20187E194E00E94F913840D951DAE
:104810000F5F1F4F26E0C20ED11CD6CF80911E0421
:1048200090911F04A0912004B091210480938106EF
:1048300090938206A0938306B093840640917306FA
:104840005091740660917506709176064817590765
:104850006A077B0709F0B6CC70926606B3CC8091EC
:104860001E0490911F04A0912004B0912104809314
:10487000810690938206A0938306B09384064091AC
:10488000730650917406609175067091760648170C
:1048900059076A077B0709F095CC70927106609200
:1048A000680690CC80911E0490911F04A091200472
:1048B000B09121048093810690938206A093830691
:1048C000B093840680910E0590910F050C970CF41F
:1048D00079CC312C212CABE0CA2ED12C80918706CB
:1048E00090918806281639060CF0B8C080913F06D2
:1048F000909140062101440C551C480E591EE09130
:104900004306F0914406E20DF31DE081E15090E092
:1049100080E0E93038F5F0E0ED56FB4DD2010D9125
:104920001C910C946C2A9C24B824C724C724DF242F
:10493000DF24FB24FB2412250115110519F0C80101
:104940000E94512781E090E00E94B526F601E95EC1
:10495000FB4F20812983FC012083D2018D939C93FE
:1049600081E090E0C80ED91EFFEF2F1A3F0AB6CFA4
:104970000115110519F0C8010E94512781E090E04E
:104980000E94B526F601E95EFB4F2081E4CF0115B8
:10499000110519F0C8010E94512782E090E00E94A1
:1049A000B526F601E95EFB4F20813181FC013183A0
:1049B0002083D2018D939C9382E090E0D3CF0115A8
:1049C000110519F0C8010E94512784E090E00E946F
:1049D000B526F601E95EFB4F40815181628173810A
:1049E000FC014083518362837383D2018D939C9336
:1049F00084E090E0B7CF0115110519F0C8010E94BD
:104A0000512784E090E00E94B526F601E95EFB4F55
:104A10004081518162817381FC01408351836283B3
:104A20007383E3CF0115110531F0C8010E942311F2
:104A3000C8010E94512786E090E00E94B5268C01B3
:104A40006FEB71E00E94BE13A801B60187E194E00C
:104A50000E94F913F2011183008384CF70927206D1
:104A6000B1CB80914D06882351F010924D0661E044
:104A700080914F06909150060E94FC1114C08091C5
:104A80004E06882381F010924E0680917B0690910D
:104A90007C068093190690931A0690932E068093B5
:104AA0002F060E9417061092680659C980915F066A
:104AB000882331F010925F0683E0809368064FC927
:104AC00064E0D6CF80916006811108C070926006C4
:104AD00060E08FEF9FEF0E94FC1141C98091620658
:104AE0008823F1F10E9429050091490610914A0698
:104AF00020914B0630914C06AB01BC01401B510B81
:104B0000620B730B8091450690914606A091470673
:104B1000B0914806B695A795979587954817590778
:104B20006A077B0708F41BC91092620600915306BE
:104B3000109154068091510690915206081719075A
:104B400060F462E08FEF9FEF0E94FC110F5F1F4F38
:104B50001093540600935306EDCF10926006FFC8E1
:104B60000E9429050091490610914A0620914B06A2
:104B700030914C06601B710B820B930B0091450624
:104B800010914606209147063091480606171707F0
:104B90002807390708F0E3C8109260068091610683
:104BA000811103C070926106DAC880915B06909112
:104BB0005C06009711F00E94512780915706909152
:104BC0005806009759F1811520E4920710F5880FD7
:104BD000991F0E94B52690935C0680935B0690E037
:104BE00080E0209157063091580682179307A0F471
:104BF00020917B0630917C06AC01440F551FE0915B
:104C00005B06F0915C06E40FF51F3183208301966B
:104C1000E8CF8FEF9FEFDDCF84E04FCF10925F069C
:104C200082E04BCF9091630691111BC020915506F5
:104C3000309156064091530650915406241735077B
:104C400080F47092630663E0C9010E94FC118091B8
:104C500055069091560601969093560680935506F8
:104C60007EC880916406882329F010926406109211
:104C7000630675C89923A1F272C88091660666E042
:104C8000811111CF90E080E0F7CECF93DF938FE0DA
:104C900094E00E9423118091390690913A06009782
:104CA00011F00E945127C0913B06D0913C062097FD
:104CB000E1F0FE0132972081318146E0429FC00140
:104CC000439F900D1124C80FD91F9E0180913B0670
:104CD00090913C0626978217930721F0CE010E94FF
:104CE0002311F3CF02970E94512780913D069091A6
:104CF0003E06009711F00E94512780913F06909147
:104D00004006009711F00E945127C0914106D091B2
:104D100042062097E1F0FE0132972081318146E082
:104D2000429FC001439F900D1124C80FD91F9E01BF
:104D3000809141069091420626978217930721F0B1
:104D4000CE010E942311F3CF02970E945127809138
:104D5000430690914406009711F00E94512789E87C
:104D600096E0DF91CF910C9423110F931F93CF9373
:104D7000DF938230910510F482E090E0E091AA0682
:104D8000F091AB0630E020E0B0E0A0E0309799F47D
:104D90002115310509F44AC0281B390B243031058F
:104DA000D8F58A819B816115710589F1FB01938397
:104DB0008283FE0111C04081518102811381481715
:104DC0005907E0F04817590799F4109761F01296C7
:104DD0000C93129713961C933296CF01DF91CF91CB
:104DE0001F910F9108950093AA061093AB06F4CF7C
:104DF0002115310551F04217530738F0A901DB01A5
:104E00009A01BD01DF01F801C1CFEF01F9CF909305
:104E1000AB068093AA06CDCFFE01E20FF31F81936C
:104E200091932250310939832883D7CF2091A80646
:104E30003091A906232B41F420910C0130910D01F2
:104E40003093A9062093A80620910A0130910B0106
:104E50002115310541F42DB73EB740910E01509117
:104E60000F01241B350BE091A806F091A906E2176B
:104E7000F307A0F42E1B3F0B2817390778F0AC017D
:104E80004E5F5F4F2417350748F04E0F5F1F50935A
:104E9000A9064093A806819391939FCFF0E0E0E0AC
:104EA0009CCFCF93DF930097E9F0FC0132971382F8
:104EB0001282A091AA06B091AB06ED0130E020E08D
:104EC0001097A1F420813181820F931F2091A806B1
:104ED0003091A9062817390709F061C0F093A90697
:104EE000E093A806DF91CF910895EA01CE17DF077E
:104EF000E8F54A815B819E0141155105B1F7E90151
:104F0000FB83EA8349915991C40FD51FEC17FD0724
:104F100061F4808191810296840F951FE901998344
:104F20008883828193819B838A83F0E0E0E01296FC
:104F30008D919C9113970097B9F52D913C91119704
:104F4000CD010296820F931F2091A8063091A906E9
:104F50002817390739F6309751F51092AB061092A1
:104F6000AA06B093A906A093A806BCCFD383C28398
:104F700040815181840F951FC817D90761F44E5F96
:104F80005F4F88819981480F591F518340838A81DF
:104F90009B81938382832115310509F0B0CFF09373
:104FA000AB06E093AA069ECFFD01DC01C0CF1382C1
:104FB0001282D7CF8F929F92AF92BF92CF92DF9201
:104FC000EF92FF92CF93DF93EC01688179818A8120
:104FD0009B81611571058105910521F464E279EDEC
:104FE0008BE597E02DE133EF41E050E00E94A229EC
:104FF00049015A019B01AC01A7EAB1E40E94C12911
:105000006B017C01ACEEB4EFA50194010E94CF29A5
:10501000C60ED71EE81EF91EF7FE06C081E0C81AAC
:10502000D108E10880E8F80AC882D982EA82FB82C6
:10503000C701B6019F77DF91CF91FF90EF90DF908E
:10504000CF90BF90AF909F908F9008958F929F9236
:10505000AF92BF92CF92DF92EF92FF9260911001D8
:1050600070911101809112019091130161157105E8
:105070008105910521F464E279ED8BE597E02DE15E
:1050800033EF41E050E00E94A22949015A019B01FF
:10509000AC01A7EAB1E40E94C1296B017C01ACEE2E
:1050A000B4EFA50194010E94CF29C60ED71EE81EB9
:1050B000F91EF7FE06C081E0C81AD108E10880E8B1
:1050C000F80AC0921001D0921101E0921201F09200
:1050D0001301C701B6019F77FF90EF90DF90CF904B
:1050E000BF90AF909F908F90089560931001709340
:1050F0001101809312019093130108950E94C0281A
:1051000008F481E00895E89409C097FB3EF4909577
:105110008095709561957F4F8F4F9F4F9923A9F090
:10512000F92F96E9BB279395F6958795779567951F
:10513000B795F111F8CFFAF4BB0F11F460FF1BC063
:105140006F5F7F4F8F4F9F4F16C0882311F096E9F6
:1051500011C0772321F09EE8872F762F05C06623A4
:1051600071F096E8862F70E060E02AF09A95660F5D
:10517000771F881FDAF7880F9695879597F9089516
:10518000990F0008550FAA0BE0E8FEEF1616170658
:10519000E807F907C0F012161306E407F50798F0C0
:1051A000621B730B840B950B39F40A2661F0232BD9
:1051B000242B252B21F408950A2609F4A140A69555
:1051C0008FEF811D811D08950E94F7280C94682996
:1051D0000E945A2938F00E94612920F0952311F08D
:1051E0000C9451290C94572911240C949C290E9449
:1051F000792970F3959FC1F3950F50E0551F629F79
:10520000F001729FBB27F00DB11D639FAA27F00D1F
:10521000B11DAA1F649F6627B00DA11D661F829F46
:105220002227B00DA11D621F739FB00DA11D621F2B
:10523000839FA00D611D221F749F3327A00D611D48
:10524000231F849F600D211D822F762F6A2F11242A
:105250009F5750409AF0F1F088234AF0EE0FFF1F5D
:10526000BB1F661F771F881F91505040A9F79E3FB4
:10527000510580F00C9451290C949C295F3FE4F374
:10528000983ED4F3869577956795B795F795E7950A
:105290009F5FC1F7FE2B880F911D9695879597F913
:1052A000089597F99F6780E870E060E008959FEFA8
:1052B00080EC089500240A941616170618060906AD
:1052C000089500240A94121613061406050608957C
:1052D000092E0394000C11F4882352F0BB0F40F404
:1052E000BF2B11F460FF04C06F5F7F4F8F4F9F4F44
:1052F000089557FD9058440F551F59F05F3F71F0C6
:105300004795880F97FB991F61F09F3F79F087952C
:105310000895121613061406551FF2CF4695F1DFB5
:1053200008C0161617061806991FF1CF8695710545
:10533000610508940895E894BB2766277727CB0179
:1053400097F90895052E97FB1EF400940E94B92941
:1053500057FD07D00E940B2A07FC03D04EF40C9493
:10536000B92950954095309521953F4F4F4F5F4F4C
:10537000089590958095709561957F4F8F4F9F4FC1
:1053800008950E942D2AA59F900DB49F900DA49F73
:10539000800D911D11240895B7FF0C94C1290E941E
:1053A000C129821B930B08952F923F924F925F92D7
:1053B0006F927F928F929F92AF92BF92CF92DF9225
:1053C000EF92FF920F931F93CF93DF93CDB7DEB78A
:1053D000CA1BDB0B0FB6F894DEBF0FBECDBF09941E
:1053E0002A88398848885F846E847D848C849B8475
:1053F000AA84B984C884DF80EE80FD800C811B8183
:10540000AA81B981CE0FD11D0FB6F894DEBF0FBEB1
:10541000CDBFED010895A1E21A2EAA1BBB1BFD0111
:105420000DC0AA1FBB1FEE1FFF1FA217B307E40783
:10543000F50720F0A21BB30BE40BF50B661F771FDB
:10544000881F991F1A9469F76095709580959095BB
:105450009B01AC01BD01CF010895A29FB001B39F94
:10546000C001A39F700D811D1124911DB29F700D6D
:10547000811D1124911D0895DB018F939F930E943C
:10548000C129BF91AF91A29F800D911DA39F900D47
:10549000B29F900D11240895991B79E004C0991FC3
:1054A000961708F0961B881F7A95C9F7809508957E
:1054B00097FB072E16F4009407D077FD09D00E94C1
:1054C000BE2B07FC05D03EF4909581959F4F089523
:1054D000709561957F4F0895EE0FFF1F0590F49131
:1054E000E02D0994DF93CF931F930F939A9DF02D96
:1054F000219FF00D8B9DF00D8A9DE02DF10D039FF6
:10550000F00D029FE00DF11D4E9DE00DF11D5E9D21
:10551000F00D4F9DF00D7F936F93BF92AF925F930D
:105520004F93D5010E942D2A8B01AC01D7010E9417
:105530002D2AEB01E80FF91FD6010E94C12A2F91F5
:105540003F91D6010E942D2AC60FD71FE81FF91FD1
:10555000AF91BF910E94C12A2F913F910E942D2AA5
:10556000C60FD71FE81FF91FD6010E942D2AE60F8C
:10557000F71F9801BE01CF010F911F91CF91DF91CD
:1055800008950E942D2A460F571FC81FD91F08F4DF
:1055900031960895689401C0E894F92FF12B12F028
:1055A0000C94FE2AA0E0B0E0E8EDFAE20C94DA29CF
:1055B000092E059422F40E945A2B112392F4F0E84C
:1055C0000F26FFEFE094F09400951095B094C094EE
:1055D000D094A194BF0ACF0ADF0AEF0AFF0A0F0B8B
:1055E0001F0B0E94092B07FC0E945A2BCDB7DEB778
:1055F000ECE00C94F629689401C0E8948F929F9295
:10560000CF93DF930E94092BDF91CF919F908F90D2
:10561000089588249924F401E401B0E49F93AA2713
:105620009A158B049C04ED05FE05CF05D007A10754
:1056300098F4AD2FDC2FCF2FFE2FE92D982C892E3B
:10564000982F872F762F652F542F432F322F222705
:10565000B85031F7BF9127C01B2EBF91BB27220F37
:10566000331F441F551F661F771F881F991F881CF3
:10567000991CEE1FFF1FCC1FDD1FAA1FBB1F8A1422
:105680009B04EC05FD05CE05DF05A007B10748F03A
:105690008A189B08EC09FD09CE09DF09A00BB10BA4
:1056A00021601A94E1F62EF49401AF01BE01CD0100
:1056B000000C089560957095809590953095409573
:1056C000509521953F4F4F4F5F4F6F4F7F4F8F4FFB
:1056D0009F4F0895002E083090F0982F872F762F37
:1056E000652F542F432F322F22270850F4CF220F3B
:1056F000331F441F551F661F771F881F991F0A9568
:10570000B2F7002D089597FD1094002E083098F000
:105710000850232F342F452F562F672F782F892F8E
:10572000912DF4CF15949795879577956795579513
:105730004795379527950A95AAF71124002D0895C6
:105740002A0D3B1D4C1D5D1D6E1D7F1D801F911F71
:1057500008952A193B094C095D096E097F09800BE0
:10576000910B08950024A7FD00942A1730054005E9
:10577000500560057005800590050895AA1BBB1BA8
:1057800051E107C0AA1FBB1FA617B70710F0A61B41
:10579000B70B881F991F5A95A9F780959095BC0162
:1057A000CD0108955058BB27AA270E94EA2B0C94DC
:1057B00068290E945A2938F00E94612920F039F4A2
:1057C0009F3F19F426F40C9457290EF4E095E7FB5B
:1057D0000C945129E92F0E94792958F3BA176207CE
:1057E00073078407950720F079F4A6F50C949B299C
:1057F0000EF4E0950B2EBA2FA02D0B01B9019001EC
:105800000C01CA01A0011124FF27591B99F0593F2F
:1058100050F4503E68F11A16F040A22F232F342F77
:105820004427585FF3CF469537952795A795F040C5
:105830005395C9F77EF41F16BA0B620B730B840BDA
:10584000BAF09150A1F0FF0FBB1F661F771F881F92
:10585000C2F70EC0BA0F621F731F841F48F48795EA
:1058600077956795B795F7959E3F08F0B0CF9395DC
:10587000880F08F09927EE0F9795879508950E9455
:10588000532C0C9468290E94612958F00E945A29CF
:1058900040F029F45F3F29F00C94512951110C94E8
:1058A0009C290C9457290E94792968F39923B1F314
:1058B000552391F3951B550BBB27AA276217730736
:1058C000840738F09F5F5F4F220F331F441FAA1FCA
:1058D000A9F335D00E2E3AF0E0E832D09150504086
:1058E000E695001CCAF72BD0FE2F29D0660F771F34
:1058F000881FBB1F261737074807AB07B0E809F01A
:10590000BB0B802DBF01FF2793585F4F3AF09E3F9E
:10591000510578F00C9451290C949C295F3FE4F3D5
:10592000983ED4F3869577956795B795F7959F5FE1
:10593000C9F7880F911D9695879597F90895E1E02D
:10594000660F771F881FBB1F621773078407BA078C
:1059500020F0621B730B840BBA0BEE1F88F7E095E7
:1059600008950E94812988F09F5798F0B92F9927B0
:10597000B751B0F0E1F0660F771F881F991F1AF03A
:10598000BA95C9F714C0B13091F00E949B29B1E0DB
:1059900008950C949B29672F782F8827B85F39F0DA
:1059A000B93FCCF3869577956795B395D9F73EF4D3
:1059B00090958095709561957F4F8F4F9F4F08957B
:1059C0000E94C02808F48FEF08950E94C028880B19
:1059D000990B0895B0E0A0E0E0EFFCE20C94D6292A
:1059E0008C01009751F4CB010E94B5268C01C801AF
:1059F000CDB7DEB7E0E10C94F229FC01E60FF71F0A
:105A00009C0122503109E217F30708F49DC0D90127
:105A1000CD91DC911197C617D70798F0C530D10505
:105A200030F3CE0104978617970708F3C61BD70BF0
:105A30002297C193D1936D937C93CF010E945127FC
:105A4000D6CF5B01AC1ABD0A4C018C0E9D1EA091F5
:105A5000AA06B091AB06512C412CF12CE12C1097E9
:105A600031F58091A8069091A9068815990509F04D
:105A70005CC04616570608F058C080910A01909104
:105A80000B01009741F48DB79EB740910E015091E4
:105A90000F01841B950BE817F90708F055C0F09328
:105AA000A906E093A806F90171836083A0CF8D91C8
:105AB0009C91119712966C90129713967C90139765
:105AC000A815B90559F56C0142E0C40ED11CCA14E1
:105AD000DB0420F1AC014A195B09DA011296159733
