:100000000C9428030C9450030C9450030C9450034C
:100010000C9450030C9450030C9450030C94500314
:100020000C9450030C9450030C9450030C94500304
:100030000C9450030C9450030C9450030C945003F4
:100040000C94A9170C9450030C9419180C94F317E2
:100050000C9450030C9450030C9450030C945003D4
:100060000C944B180C94500307634236B79BD8A7E7
:100070001A39685618AEBAAB558C1D3CB7CC5763CD
:10008000BD6DEDFD753EF6177231BF000000803F7B
:1000900008000000BE922449123EABAAAA2ABECD97
:1000A000CCCC4C3E00000080BEABAAAAAA3E000009
:1000B0000000BF000000803F000000000008417801
:1000C000D3BB4387D1133D190E3CC3BD4282AD2B38
:1000D0003E68EC8276BED98FE1A93E4C80EFFFBE30
:1000E00001C4FF7F3F000000000000407A10F35A77
:1000F00000A0724E18090010A5D4E80000E8764868
:10010000170000E40B54020000CA9A3B000000E113
:10011000F505000080969800000040420F000000A6
:10012000A08601000000102700000000E803000086
:1001300000006400000000000A0000000000010050
:10014000000000002C76D888DC674F0823DFC1DF71
:10015000AE59E1B1B796E5E3E453C63AE651997674
:1001600096E8E6C28426EB898C9B62ED407C6FFCAE
:10017000EFBC9C9F40F2BAA56FA5F490055A2AF7F0
:100180005C936B6CF9676DC11BFCE0E40D47FEF5F9
:1001900020E6B500D0ED902E030094357705008061
:1001A000841E080000204E0A000000C80C333333C0
:1001B000330F986E12831141EF8D2114893BE65560
:1001C00016CFFEE6DB18D1844B381BF77C1D901D43
:1001D000A4BBE424203284725E228100C9F124ECA5
:1001E000A1E53D272C20676F742030780067657487
:1001F00053657474696E6756616C75653A20435235
:1002000043206661696C3A20657870656374656443
:10021000203078004669726D77617265207665726C
:1002200073696F6E20307800000000002400270002
:100230002A0000000000250028002B00000000001C
:10024000230026002900000000080002010000032E
:1002500004070000000000000000726561644D6545
:1002600061737572656D656E743A20656E636F7546
:100270006E7465726564206572726F72207265615A
:1002800064696E6720534344333020646174612E87
:100290000020627974657300726561644D656173F5
:1002A0007572656D656E743A206E6F2053434433EA
:1002B00030206461746120666F756E642066726FB1
:1002C0006D204932432C2069326320636C61696D73
:1002D000732077652073686F756C64207265636541
:1002E00069766520002C20676F74203078002C2000
:1002F0006578706563746564203078007265616448
:100300004D6561737572656D656E743A20666F75C3
:100310006E642043524320696E2062797465200028
:10032000040404040404040402020202020203039B
:1003300003030303010204081020408001020408A3
:100340001020010204081020207F0101000000009D
:10035000000000000000005E000000000000060039
:100360000006000000247E24247E240000246B2A42
:100370002A6B1200004626100864620000344A4AC4
:100380005420500000000000060000000000003C67
:1003900042000000000000423C000000002A1C3E19
:1003A0001C2A00000008083E080800000000403039
:1003B00000000000000808080808080000000040CD
:1003C000000000000040201008040200003C6252BF
:1003D0004A463C000040447E4040000000645252C7
:1003E00052524C000024424A4A4A34000038242227
:1003F000227E2000002E4A4A4A4A3200003C4A4AE5
:100400004A4A300000020262120A060000344A4AD8
:100410004A4A3400000C525252523C000000002460
:10042000000000000000402400000000000008144C
:100430002200000000141414141414000000002200
:1004400014080000000402520A0400000018245A94
:100450005A241800007C121212127C00007E4A4AB4
:100460004A4A3400003C424242422400007E42425A
:1004700042423C00007E4A4A4A424200007E0A0A4A
:100480000A020200003C424252523400007E080838
:1004900008087E000000427E42000000002040402C
:1004A00040403E00007E080808146200007E404084
:1004B00040404000007E040808047E00007E0408DE
:1004C00010207E00003C424242423C00007E12125C
:1004D00012120C00003C425262423C00007E12129A
:1004E00012324C0000244A4A4A4A30000002027E7E
:1004F00002020000003E404040403E00001E2040FE
:1005000040201E00007E201010207E000042241893
:1005100018244200000204780402000000426252E3
:100520004A46420000007E424200000000020408E9
:100530001020400000000042427E00000000000445
:1005400002040000808080808080808000000002A3
:10055000040000000020545454780000007E4848F5
:100560004830000000384444442800000030484827
:10057000487E000000385454544800000000087CB5
:100580000A0200000018A4A4A47C0000007E080851
:10059000087000000000487A4000000000408080A1
:1005A000887A0000007E1010284400000000427E7F
:1005B00040000000007C047804780000007C040403
:1005C00004780000003844444438000000FC4444EF
:1005D000443800000038444444FC0000007C080417
:1005E0000404000000485454542400000000043E59
:1005F00044000000003C4040207C0000001C2040E3
:10060000201C0000001C601C601C0000004428101E
:1006100028440000001CA0A0A07C000000446454FA
:100620004C4400000000083641000000000000FFBC
:100630000000000000004136080000000804040823
:100640001010080000000000000000006A19F125E9
:1006500011241FBECFEFD8E0DEBFCDBF12E0A0E077
:10066000B1E0E6EBF2E602C005900D92A631B107CB
:10067000D9F726E0A6E1B2E001C01D92A23CB20784
:10068000E1F713E0C7E2D3E004C02197FE010E9426
:10069000792CC632D107C9F70E94901B0C944E31B9
:1006A0000C94000080E0089591E0909307038093FC
:1006B000060310920503109204030895FC01908133
:1006C000909528E081E397FF03C0990F982701C018
:1006D000990F2150C1F78181892798E021E387FF95
:1006E00003C0880F822701C0880F9150C1F7089579
:1006F0008091B6029091B702891B990B08959B01D6
:10070000DC011896ED91FC9141E067E10994DC0170
:100710001696ED91FC9130E020E040E069E109940B
:10072000DC011696ED91FC9130E020E040E068E1BC
:1007300009949A01DC011696ED91FC91462F67E130
:100740000994462FDC011696ED91FC9130E020E0F3
:1007500066E10994462FDC011696ED91FC9130E09C
:1007600020E065E10994DC011896ED91FC9130E000
:1007700020E040E069E10994DC011896ED91FC91DC
:1007800030E020E040E068E10994CF93DF931F92CE
:10079000CDB7DEB76983BE016F5F7F4F0E947F03D5
:1007A0000F90DF91CF910895EF92FF921F93CF9317
:1007B000DF93EC01162F7A010E94BC0360E4CE01A6
:1007C0000E94C503E885F9859701412F67E1CE01B5
:1007D0000995CE01DF91CF911F91FF90EF900C947E
:1007E000B303EF92FF921F93CF93DF93EC01142F8B
:1007F0007901663181F138F4643109F44BC0653117
:1008000079F080E022C06831C9F150F16931C9F74F
:100810008091B502882391F1CE010E94B3032EC0CE
:100820008091B502882319F0CE010E94B303CE0156
:100830000E94BC0360E0CE010E94C503612FCE017F
:100840000E94C50381E08093B502DF91CF911F9193
:10085000FF90EF900895642F0E94C50381E0F5CFCB
:100860008091B502882319F0CE010E94B303A7013D
:10087000193138F4612FCE010E94D4031092B502D1
:10088000EDCF68E1CE010E94D403185188E1E80E53
:10089000F11CEDCF8E898F3F11F488E78E8BE885B0
:1008A000F9859701412F64E1CE01DF91CF911F912E
:1008B000FF90EF90099408950895833081F028F413
:1008C000813099F08230A9F008958730A9F08830FE
:1008D000C9F08430B1F4809180008F7D03C0809195
:1008E00080008F7780938000089584B58F7784BDD2
:1008F000089584B58F7DFBCF8091B0008F77809372
:10090000B00008958091B0008F7DF9CF1F93CF93F1
:10091000DF93282F30E0F901EA5BFD4F8491F90164
:10092000EC5CFC4FD491F901E05EFC4FC491CC2308
:10093000A9F0162F81110E945D04EC2FF0E0EE0F5C
:10094000FF1FEE5CFD4FA591B4918FB7F894EC9129
:10095000111108C0D095DE23DC938FBFDF91CF91BA
:100960001F910895DE2BF8CFCF93DF9390E0FC0129
:10097000EC5CFC4F2491805E9C4FFC0184918823A9
:10098000D1F090E0880F991FFC01E85DFD4FA59123
:10099000B491FC01EE5CFD4FC591D491623071F4CD
:1009A0009FB7F8943C91822F809583238C93E881A4
:1009B0002E2B28839FBFDF91CF9108958FB7F89496
:1009C000EC912E2B2C938FBFF6CF3FB7F8948091EC
:1009D000AD029091AE02A091AF02B091B00226B5E7
:1009E000A89B05C02F3F19F00196A11DB11D3FBF67
:1009F000BA2FA92F982F8827BC01CD01620F711D36
:100A0000811D911D42E0660F771F881F991F4A952F
:100A1000D1F708958F929F92AF92BF92CF92DF92BB
:100A2000EF92FF926B017C010E94E5044B015C0197
:100A3000C114D104E104F104B9F00E94E50468197D
:100A400079098A099B09683E73408105910580F305
:100A500021E0C21AD108E108F10888EE880E83E08F
:100A6000981EA11CB11CE4CFFF90EF90DF90CF90B7
:100A7000BF90AF909F908F9008950F931F93CF9347
:100A8000DF93EC01862F642F8C3208F03AC08A3253
:100A900008F060C0883209F44BC0893209F460C0A4
:100AA000803408F475C0982F9F73FE01E90FF11D83
:100AB000868D8F3F09F44EC0903108F436C0282F40
:100AC00030E0F901EA5BFD4F8491F901EC5CFC4FE9
:100AD0000491F901E05EFC4F1491112379F081112A
:100AE0000E945D04E12FF0E0EE0FFF1FE45CFD4F7C
:100AF000A591B491EC910E2381E009F480E0898FF7
:100B000029C08D3299F108F4CBCF94EB980F923035
:100B100008F0C6CF8F73C80FD11D8E8D411134C020
:100B200061E00E94B40460E08E8D0E94860412C0D1
:100B30008E01025E1F4FD0E0F80181918F018F3F3F
:100B400031F061E0D03108F062E00E94B404DF5F70
:100B5000D63191F781E0DF91CF911F910F910895E8
:100B600070E090E080E00E940A05F4CF85E090E01C
:100B7000433010F082E090E0880F991F880F991F92
:100B800005970197F1F7E6CF62E00E94B404E2CF47
:100B900080E0E1CF2FB7F8946091A9027091AA028A
:100BA0008091AB029091AC022FBF089508950895F3
:100BB000EF92FF920F931F93CF93DF938C017B01F2
:100BC000D0E0C0E0F701EC0FFD1F6491662361F0F7
:100BD000D801ED91FC910190F081E02DC8010995BB
:100BE000892B11F02196EECFCE01DF91CF911F918D
:100BF0000F91FF90EF900895AF92BF92CF92DF9246
:100C0000EF92FF920F931F93CF93DF936C017B01C1
:100C10008B01040F151FEB015E01AE18BF08C01752
:100C2000D10759F06991D601ED91FC910190F081C5
:100C3000E02DC6010995892B79F7C501DF91CF9188
:100C40001F910F91FF90EF90DF90CF90BF90AF90EA
:100C50000895FC01538D448D252F30E0842F90E0C2
:100C6000821B930B541710F0CF96089501970895A7
:100C7000FC01918D828D981761F0A28DAE0FBF2F70
:100C8000B11D5D968C91928D9F5F9F73928F90E0C6
:100C900008958FEF9FEF08958F929F92AF92BF922A
:100CA000CF92DF92EF92FF920F931F93CF93DF9338
:100CB0007C018C01060F171FEC016E01CE18DF08B6
:100CC0000C171D0759F10E94CA0560931003709319
:100CD0001103809312039093130388E093E00E9422
:100CE000380697FF29C00E94CA0580901003909093
:100CF0001103A0901203B0901303681979098A09AF
:100D00009B0980900C0390900D03A0900E03B0906F
:100D10000F03681579058A059B05F8F2C601DF9176
:100D2000CF911F910F91FF90EF90DF90CF90BF90E8
:100D3000AF909F908F9008958993BFCFFC01918DC4
:100D4000828D981731F0828DE80FF11D858D90E02E
:100D500008958FEF9FEF0895FC01918D228D892FCB
:100D600090E0805C9F4F821B91098F7399270895B3
:100D7000CF92DF92EF92FF920F931F93CF9360E099
:100D800080912B040E94860461E080912C040E94D3
:100D9000860464E670E080E090E00E940A054CE082
:100DA00050E061E476E088E093E00E94FC050E9458
:100DB000CA056B017C010E94CA056C197D098E0968
:100DC0009F0900910C0310910D0320910E033091A7
:100DD0000F036017710782079307D0F488E093E050
:100DE0000E94AC06892B39F3C1E064E670E080E034
:100DF00090E00E940A05CC2391F288E093E00E94E3
:100E0000AC06892B39F088E093E00E943806F5CFD4
:100E1000C0E0EBCF80912B049091270661E0911107
:100E200001C060E00E94860460E080912C040E9472
:100E3000860464E670E080E090E0CF911F910F910E
:100E4000FF90EF90DF90CF900C940A0588E093E03C
:100E50000E94AC0621E0892B09F420E0822F08953E
:100E600080E090E0892B29F00E94260781110C94E4
:100E700000000895FC01A48DA80FB92FB11DA35A3D
:100E8000BF4F2C91848D90E001968F739927848FAA
:100E9000A689B7892C93A089B1898C9183708064CD
:100EA0008C93938D848D981306C00288F389E02D6E
:100EB00080818F7D80830895EF92FF920F931F931F
:100EC000CF93DF93EC0181E0888F9B8D8C8D9813FD
:100ED0001AC0E889F989808185FF15C09FB7F89409
:100EE000EE89FF896083E889F98980818370806455
:100EF00080839FBF81E090E0DF91CF911F910F91A0
:100F0000FF90EF900895F62E0B8D10E00F5F1F4FAE
:100F10000F731127E02E8C8D8E110CC00FB607FCBD
:100F2000FACFE889F989808185FFF5CFCE010E944B
:100F30003A07F1CFEB8DEC0FFD2FF11DE35AFF4F78
:100F4000F0829FB7F8940B8FEA89FB8980818062D9
:100F5000CFCFCF93DF93EC01888D8823B9F0AA8996
:100F6000BB89E889F9898C9185FD03C0808186FD64
:100F70000DC00FB607FCF7CF8C9185FFF2CF8081B3
:100F800085FFEDCFCE010E943A07E9CFDF91CF91E7
:100F900008950F931F93E0911F06F0912006E75DDF
:100FA000FA4F80912106808388E093E00E94A90790
:100FB0000E94CA050091230610912406209125065F
:100FC00030912606601771078207930788F34091D6
:100FD0001F06509120068091210690912206480F0D
:100FE000591F6AE275E088E093E00E94FC050E94C8
:100FF000CA0520911F06309120064091210650918C
:101000002206240F351FE8E2E29FA001E39F500D66
:101010001124640F751F811D911D60932306709329
:10102000240680932506909326061F910F9108951C
:10103000CF92DF92EF92FF920F931F93CF93DF93A4
:101040006C01EB017B01E40EF51E10E000E0CE1513
:10105000DF0561F06991D601ED91FC910190F0817D
:10106000E02DC6010995080F191FF1CFC801DF91C6
:10107000CF911F910F91FF90EF90DF90CF90089547
:10108000FC0144815581608171818FED93E00C9466
:101090001808DC011A96ED91FC9130E020E00994EB
:1010A000EF92FF920F931F93CF93DF931F92CDB7D1
:1010B000DEB77C018B01D8016C91673129F150F4C6
:1010C0006531A0F40F90DF91CF911F910F91FF90A8
:1010D000EF9008956A3118F16E3FA1F7F801418150
:1010E000498369E2C7010E9449080BC0F8014181A8
:1010F0004983D7011696ED91FC9130E020E0C701BD
:1011000009950E5F1F4FD7CFF80181818983AE010A
:101110004F5F5F4F61E0C7010E949903F2CF0F5FFD
:101120001F4FD7011696ED91FC9130E020E040E092
:10113000C7010995C0CFEF92FF920F931F93CF93F2
:10114000DF93EC01042F79016D3009F446C050F4AF
:101150006B30C9F1693009F49FC06A3009F465C089
:1011600080E046C06E3009F452C06F3099F70E949B
:101170009003F7011381110F110F110F6C89160FD6
:1011800060E4CE010E94AA03612F62956F706061D6
:10119000CE010E94AA03612F6F70CE010E94A103AD
:1011A000F7016481606BCE010E94A103F7014081C9
:1011B00051816281660F660F660FCE010E9499030E
:1011C0000150A1F72EC067E271E0442311F062E202
:1011D00071E0CE010E9450080AC0411110C06BE1BD
:1011E00071E00E945008E881F98182898C8B81E04E
:1011F000DF91CF911F910F91FF90EF90089564E1DF
:1012000071E00E945008E881F9818389EFCF0E9444
:10121000900361E8CE010E94AA03602FCE010E94D4
:10122000A103CE010E948703E2CFEA85FB8530E06F
:1012300020E040E068E2CE010995EE81FF8130E0D8
:1012400020E040E064E1CE01099541E06BE4CE018D
:101250000E944908E881F981448169E2CE010E9437
:10126000490840E06BE4CE010E944908E881F98119
:10127000448169E2CE010E94490841E06BE4CE015D
:101280000E944908E881F981458169E2CE010E9406
:1012900049086CE271E09DCF81E691E099838883F3
:1012A0001C8AA5CFCF92DF92FF920F931F93CF930B
:1012B000DF9300D000D01F92CDB7DEB78C011C8227
:1012C00081E08B837A836983D801ED91FC91F18869
:1012D0001D82F801A081B181C480D5809E012F5F5D
:1012E0003F4F50964C916FE0C801F60109958D81F2
:1012F0008F5F8D838F1568F30F900F900F900F9075
:101300000F90DF91CF911F910F91FF90DF90CF90C1
:101310000895CF93DF93EC01A889B989FD01349139
:1013200031969491319684911396FD01A49163179F
:10133000A8F1961798F1631B770B8A9FE02D112473
:10134000E69FC001E79F900D1124280F392F311D12
:1013500083E0220F331F8A95E1F7C9010496DA0171
:10136000245F3F4FE889F989E80FF91FE491ED9375
:10137000019682179307B1F78D89882361F0FA01EE
:101380009A01285F3F4F8191DF01119780958C93DF
:101390002E173F07C1F7DF91CF910895FA01CA01D7
:1013A00008961192E817F907E1F7E6CF2F923F92DE
:1013B0004F925F926F927F928F929F92AF92BF9265
:1013C000CF92DF92EF92FF920F931F93CF93DF9311
:1013D000CDB7DEB72D970FB6F894DEBF0FBECDBFE9
:1013E000DC015496ED91FC915597D996DC90D997F4
:1013F000CF0103966A3019F5FC018491D80ED99675
:10140000DC92D997D8961C9281E090E02D960FB689
:10141000F894DEBF0FBECDBFDF91CF911F910F912A
:10142000FF90EF90DF90CF90BF90AF909F908F9004
:101430007F906F905F904F903F902F9008953296DD
:101440002490D8965C90D8975D0124E0A20EB11C40
:10145000F490FC01E490352C3F0CED0C81E0850DFF
:10146000381610F4FF24F394C62E8D01612CCE01A2
:1014700001964C01462C752C242DA4016C2DC50120
:101480000E9489097C86DD8691E09B879A86898601
:10149000D8011896ED91FC919E01275F3F4F41E0E6
:1014A0006FE0C501099543947394731428F3D394A2
:1014B0006F0CDE14F8F2F80180AD820D80AFA4CF7E
:1014C000DC01ED91FC910190F081E02D09942091D7
:1014D0007B02260F3327331F21323105ECF4209194
:1014E000FE02FC0190E080E0243069F082E0089583
:1014F000A0917B022191AC01455A5D4FA40FB52FFD
:10150000B11D2C930196861798F380917B02680F8A
:1015100060937B0280E0089581E008951092FE02BE
:1015200081E08093DD021092D80261E082E10E94A6
:10153000860461E083E10E948604E9EBF0E08081AB
:101540008E7F808380818D7F808388E48093B80044
:1015500085E48093BC000895CF93DF9391E090934E
:101560005A028823B9F0C091B800D091BA00809196
:10157000BC008A7B8093BC0060E082E10E9486040C
:1015800060E083E10E9486040E948E0AD093BA0034
:10159000C093B800DF91CF910895CF92DF92EF9280
:1015A000FF920F931F93CF93DF93D82FC62F6132F3
:1015B00008F098C00E94E5046B017C018091FE0256
:1015C00081116BC081E08093FE028093DD029FEF6A
:1015D0009093DC021092DB029C0F9093DA028093CE
:1015E000D9028091D902DD0FD82BD093D9028091F6
:1015F000D802813009F078C01092D8020E94E50428
:101600006B017C018091D9028093BB008091000323
:1016100090910103A0910203B0910303892B8A2BBF
:101620008B2BA1F00E94E5040091000310910103AF
:1016300020910203309103036C197D098E099F09E3
:10164000061717072807390708F448C08091BC001F
:1016500083FDD8CF85EC8093BC000E94E5046B012C
:101660007C018091FE02813009F440C08091DB0250
:101670008C1710F4C091DB02E8EBF2E0AEEDB2E0C3
:1016800080E08C1355C08C2FDF91CF911F910F916B
:10169000FF90EF90DF90CF9008958091000390919C
:1016A0000103A0910203B0910303892B8A2B8B2B9A
:1016B00009F484CF0E94E504009100031091010316
:1016C00020910203309103036C197D098E099F0953
:1016D000061717072807390708F070CF8091FF0217
:1016E0000E94AC0AC0E0CFCF85EEB5CF8091000359
:1016F00090910103A0910203B0910303892B8A2BDF
:101700008B2B09F4AECF0E94E504009100031091E9
:10171000010320910203309103036C197D098E09A6
:101720009F09061717072807390708F09ACFD6CF61
:1017300091919D938F5FA5CFE091B7028091B60202
:10174000E81730F4F0E0E252FD4F808190E0089518
:101750008FEF9FEF08959091B7028091B6022FEF1F
:101760003FEF981748F4E92FF0E0E252FD4F208157
:1017700030E09F5F9093B702C9010895CF92DF9246
:10178000EF92FF920F931F93CF93DF937C01CB01D6
:101790008A0120910703222389F0EB016B01C40E1B
:1017A000D51ECC15DD0569F06991D701ED91FC914D
:1017B0000190F081E02DC7010995F3CF642F0E94BD
:1017C000670AC801DF91CF911F910F91FF90EF90B1
:1017D000DF90CF900895CF93DF931F92CDB7DEB700
:1017E0006983209107032223F9F02091040320321A
:1017F00058F021E030E0FC013383228390E080E068
:101800000F90DF91CF91089580910503E82FF0E0CC
:10181000E65CFD4F998190838F5F809305038093F1
:10182000040381E090E0ECCF61E0CE0101960E94DC
:10183000670AF7CFCF92DF92EF92FF920F931F9339
:10184000CF93DF93D091040381E0D13208F09CC0A4
:10185000C09106030E94E5046B017C018091FE02A9
:1018600081116CC082E08093FE0281E08093DD02F2
:101870008FEF8093DC021092DB02D093DA02AAE3AE
:10188000B2E0E8EBF2E080E0D8138DC01092D9020C
:101890008091D902CC0FC82BC093D9028091D80275
:1018A000813009F084C01092D8020E94E5046B01D7
:1018B0007C018091D9028093BB00809100039091BC
:1018C0000103A0910203B0910303892B8A2B8B2B78
:1018D000A1F00E94E5040091000310910103209102
:1018E0000203309103036C197D098E099F090617C5
:1018F00017072807390708F442C08091BC0083FD10
:10190000D8CF85EC8093BC000E94E5046B017C017C
:101910008091FE02823009F44CC08091DC028F3F3E
:1019200009F469C08091DC02803209F466C08091BC
:10193000DC02803309F463C084E026C08091000398
:1019400090910103A0910203B0910303892B8A2B8C
:101950008B2B09F483CF0E94E504009100031091C2
:10196000010320910203309103036C197D098E0954
:101970009F09061717072807390708F06FCF8091CE
:10198000FF020E94AC0A85E0109205031092040346
:1019900010920703DF91CF911F910F91FF90EF906D
:1019A000DF90CF9008959D9191938F5F6DCF85EEDD
:1019B000A9CF8091000390910103A0910203B091FF
:1019C0000303892B8A2B8B2B09F4A2CF0E94E504F9
:1019D0000091000310910103209102033091030351
:1019E0006C197D098E099F09061717072807390703
:1019F00008F08ECFC4CF80E0C7CF82E0C5CF83E0B0
:101A0000C3CFCF93DF93EC01683109F444C030F4C5
:101A10006431A1F0673159F080E006C0693109F402
:101A200053C06032C9F781E0DF91CF91089550E053
:101A3000B90189E194E00E94BE0BF5CF8C859D85AC
:101A4000AE85BF85892B8A2B8B2B71F4E881F981B8
:101A5000A585B0E020EA36E841E050E00E94CE2BB8
:101A60006C877D878E879F871092B7021092B6028F
:101A700010920503109204030E948E0A8BE594E0F5
:101A80009093B4028093B3028CE594E09093B202F9
:101A90008093B102C8CF2C853D854E855F8560E07F
:101AA00074E284EF90E00E94182C20513109410922
:101AB000510956954795379527952093B8008E89FB
:101AC00086950E945403AFCF89E194E00E941A0CDE
:101AD000AACFDF92EF92FF920F931F93CF93DF93E2
:101AE00000D0CDB7DEB78C01F62ED72E19826A83CF
:101AF000CE0101960E945E03E82E81E60E94540307
:101B0000612F70E08091A9069091AA060E94600A58
:101B1000B80177278091A9069091AA060E94600AD1
:101B200070E060E08091A9069091AA060E94600A88
:101B30006F2D7D2D8091A9069091AA060E94600AC2
:101B40008091A9069091AA06DC01ED91FC9101908B
:101B5000F081E02D6E2D09958091A9069091AA063D
:101B60000E941A0C91E0811190E0892F0F900F9044
:101B7000DF91CF911F910F91FF90EF90DF9008952B
:101B800090E080E00895682F87E70E94CD0A1092C8
:101B9000B7028093B6020895CF93C82F87E70E94BB
:101BA00054036C2F89E194E00E94EB0B89E194E0EF
:101BB0000E941A0C82E090E00E94C30D8091B60250
:101BC0009091B702891B990B82309105ECF389E162
:101BD00094E00E94AB0BC82F89E194E00E94AB0B0C
:101BE00020E03C2FA901482BCA0198278927982774
:101BF000CF9108958F929F92AF92BF92CF92DF9232
:101C0000EF92FF92F82E87E70E9454036F2D89E12F
:101C100094E00E94EB0B89E194E00E941A0C83E0AF
:101C200090E00E94C30D8091B6029091B702891B8B
:101C3000990B83309105ECF389E194E00E94AB0BA2
:101C4000092E000CAA0BBB0B8824982EA92EBA2EA5
:101C500089E194E00E94AB0B092E000CAA0BBB0B90
:101C60006C017D01C828D928EA28FB28FE2CED2C20
:101C7000DC2CCC2489E194E00E94AB0BBC01990FD1
:101C8000880B990B6C297D298E299F29FF90EF9055
:101C9000DF90CF90BF90AF909F908F9008952F923C
:101CA0003F924F925F926F927F928F929F92AF92EC
:101CB000BF92CF92DF92EF92FF920F931F93CF9339
:101CC000DF93CDB7DEB76B970FB6F894DEBF0FBECC
:101CD000CDBF8AEF0E94FA0D2091A5033091A60393
:101CE000C72ED82EE92EFF24E7FCFA94C21AD30A95
:101CF000E108F10817E095958795779567951A950E
:101D0000D1F7220F331F4B015C01821A930AA108FD
:101D1000B108A5019401A091A703B091A8030E9466
:101D2000D92B4B015C018BE0B594A79497948794D1
:101D30008A95D1F7A7019601C701B6010E94492CE7
:101D40009B01AC019CE055954795379527959A9551
:101D5000D1F7A091A903B091AA030E94D92B2EE03C
:101D600095958795779567952A95D1F7860E971E55
:101D7000A81EB91E8092BD039092BE03A092BF031D
:101D8000B092C00387EF0E94FA0D6E8B7F8B888F15
:101D9000998F8091BD039091BE03A091BF03B09134
:101DA000C0036C017D01FF0CCC08DC2C76019C018A
:101DB000AD016C2D7C2D8C2D9C2D345F4140510943
:101DC000610971098109910929873A874B87652E35
:101DD000762E872E982E9B8F5901C42ED52EE62E57
:101DE000F72E082F192F0E947F2C322E232E488B7E
:101DF000598B6A8B7B8B8C8B9D8B3091AE032091A2
:101E0000AD03932F990F990B492F592F692F792FD4
:101E1000892F0E947F2C0CE00E94772D29833C871C
:101E20004A8F5D876E877F87582E492E3091B00389
:101E30002091AF03932F990F990BA32CB22CC88834
:101E4000D988EA88FB880C891D89492F592F692F69
:101E5000792F892F0E947F2C08E00E94902DA98065
:101E6000BC84CA8CDD84EE84FF84052D142D0E9471
:101E7000AD2D70588F4F9F4FE091AB03F091AC03A5
:101E80005F01D12CC12CE12CF12C8701E983BA82AE
:101E9000CB82DC82ED82FE820F831887C12CD12C8D
:101EA000E12CF12C00E010E00E947F2C01E20E9466
:101EB000902D2A8F532E49835C876D877E878F876D
:101EC000492EA0E00E94BF2D09F434C13091B60321
:101ED0002091B503932F990F990BA32CB22CC8888E
:101EE000D988EA88FB880C891D89492F592F692FC9
:101EF000792F892F0E947F2C1901488B598B6A8B6F
:101F00007B8B8C8B9D8B3091B4032091B303932FEB
:101F1000990F990BA984BA84CB84D62CE72CF82C82
:101F2000092D1B8D492F592F692F792F892F0E9439
:101F30007F2C01E10E94772D5101C888D988EA8859
:101F4000FB880C891D890E94AD2D59016A017B0116
:101F5000382E192F4E895F89688D798D84E07595AB
:101F60006795579547958A95D1F780E090E0A0E175
:101F7000B0E0841B950BA60BB70B3C014D01990CEF
:101F80006608762C43019C01AD01662D762D862DC9
:101F9000962D0FE10E94772D722E832E942E598755
:101FA000B62FA72FF82FE92F3091B2032091B1035C
:101FB000932F990F990B492F592F692F792F892F1B
:101FC00003E20E94772D032D0E94AD2D59016A0175
:101FD0007B018C01272D382D492D59856B2F7A2FA8
:101FE0008F2F9E2F0E94B62DE5E3AE2EFCE0BF2E74
:101FF000C12CD12CE12CF12C00E010E00E947F2CB0
:10200000AA8CB52CC980DC84ED84FE840F85142D48
:102010000E94D92C2F873E8749875A876B877983FF
:102020008C879D870DE00E94902D922E832E742E1A
:10203000652E562E472E382E292E3091BC03209126
:10204000BB03932F990F990BA92CB82CC72CD62C16
:10205000E52CF42C032D122D492F592F692F792FA0
:10206000892F0E947F2C0E947F2C09E10E94902DD5
:10207000AF84BE84C984DA84EB84F9800C851D8525
:102080000E94AD2D19012A013B014C013091BA0388
:102090002091B903932F990F990B492F592F692F2D
:1020A000792F892F0E947F2C03E10E94902D5901E6
:1020B0006A017B018C019101A201B301C4010E945C
:1020C000AD2D08E00E94902D59016A017B01E82F97
:1020D000192F3091B8032091B703932F990F990BC3
:1020E000492F592F692F792F892F04E00E94772DCE
:1020F0000E2F0E94AD2D49015A0199278B2D7A2D63
:10210000692D6B960FB6F894DEBF0FBECDBFDF9181
:10211000CF911F910F91FF90EF90DF90CF90BF90E4
:10212000AF909F908F907F906F905F904F903F9077
:102130002F90089560E070E0CB01E3CFFB010190A8
:102140000020E9F73197AF01461B570BDC01ED91F9
:10215000FC910280F381E02D09948F929F92AF92BF
:10216000BF92EF92FF920F931F93CF93DF93CDB760
:10217000DEB7A1970FB6F894DEBF0FBECDBF7C01CE
:10218000FA01CB0119A2223008F42AE08E010F5D7A
:102190001F4F822E912CB12CA12CBF01A5019401BF
:1021A0000E94182CF901CA016A300CF5605DD80153
:1021B0006E938D01232B242B252B79F790E080E063
:1021C000109721F0BD01C7010E949E10A1960FB685
:1021D000F894DEBF0FBECDBFDF91CF911F910F915D
:1021E000FF90EF90BF90AF909F908F900895695CA3
:1021F000DECF2F923F924F925F926F927F928F929B
:102200009F92AF92BF92CF92DF92EF92FF920F9385
:102210001F93CF93DF93CDB7DEB72E970FB6F89409
:10222000DEBF0FBECDBF81E60E94540362E070E0C6
:102230008091A9069091AA060E94600A62E070E06F
:102240008091A9069091AA060E94600A8091A90631
:102250009091AA060E941A0C8823D1F080E02E9655
:102260000FB6F894DEBF0FBECDBFDF91CF911F91A7
:102270000F91FF90EF90DF90CF90BF90AF909F9025
:102280008F907F906F905F904F903F902F90089528
:1022900063E070E080E090E00E940A0562E081E681
:1022A0000E94CD0A1092B7028093B6028091A906CF
:1022B0009091AA06DC01ED91FC910084F185E02D5E
:1022C0000995892B59F28091A9069091AA06DC0103
:1022D000ED91FC910284F385E02D0995182F8091F2
:1022E000A9069091AA06DC01ED91FC910284F38588
:1022F000E02D099520E0312F282B2130310509F000
:10230000ADCF19861A861B861C861D821E821F82EF
:10231000188619821A821B821C8281E60E9454034D
:102320008091A9069091AA06DC01ED91FC910190A3
:10233000F081E02D63E009958091A9069091AA06AD
:10234000DC01ED91FC910190F081E02D60E00995B8
:102350008091A9069091AA060E941A0C81117ECF45
:1023600063E070E080E090E00E940A0562E181E6AF
:102370000E94CD0A182F1092B7028093B602809166
:10238000A9069091AA06DC01ED91FC910084F185EB
:10239000E02D0995892B09F4EBC0412C512C320119
:1023A000212C8AE0E82EF12C99E0C92ED12C24E0D2
:1023B000A22EB12C33E0832E912C142D8091A906EE
:1023C0009091AA06DC01ED91FC910284F385E02D49
:1023D0000995382E113108F07EC0E42DF0E0ED5063
:1023E000FE4E0C94792C041204126B120412041287
:1023F0006B12571257126B12571257126B12601250
:1024000060126B1260126012C401133008F0C50133
:1024100084199509E9E0F0E0EC0FFD1F8E0F9F1F76
:10242000DC013C92812F63E00E94592CEDE0F0E04A
:10243000EC0FFD1FE90FF11D3082BFEF4B1A5B0A55
:102440006B0A7B0AE2E14E1651046104710409F043
:10245000B4CF2110B4C089859A85AB85BC858093A3
:10246000AB069093AC06A093AD06B093AE068981FF
:102470009A81AB81BC818093AF069093B006A09304
:10248000B106B093B2068D819E81AF81B8858093ED
:10249000B3069093B406A093B506B093B606109217
:1024A000B8061092B9061092BA0681E0D8CEC601DD
:1024B000193008F0C70184199509E1E0F0E0ACCFCC
:1024C0008FE090E01F3010F080E190E084199509D2
:1024D000E5E0F0E0A1CFCE010D960E945E03182F3B
:1024E000381609F4AACF2090BD062220F1F16CEF36
:1024F00072E08091BB069091BC060E94D8052AE04C
:10250000B301A2018091BB069091BC060E94AD1060
:102510006EEE72E08091BB069091BC060E94D805D9
:10252000412F50E070E060E020E18091BB06909187
:10253000BC060E94AD1065EE72E08091BB069091E2
:10254000BC060E94D8050091BB061091BC06432D25
:1025500050E070E060E020E1C8010E94AD106DEB3A
:1025600071E0C8010E949E1068CF2224239465CF99
:102570008091BD06882309F471CE68E972E08091EC
:10258000BB069091BC060E94D805412F50E070E038
:1025900060E02AE08091BB069091BC060E94AD10DD
:1025A0000091BB061091BC0661E972E0C8010E946F
:1025B000D8056DEB71E0C8010E949E104FCE80914E
:1025C000BD06882309F44ACE0091BB061091BC06D3
:1025D0006AE572E0EBCFCF93DF9320912106309133
:1025E0002206A901460F571F403F5105B8F4EB01E1
:1025F000BC0180911F0690912006820F931FAE01AF
:10260000865D9A4F0E942F316091210670912206BB
:10261000C60FD71FD0932206C0932106DF91CF911A
:1026200008951616170614F40C94EB120895CF9320
:10263000DF9300D0CDB7DEB79A83898362E070E084
:10264000CE0101960E9411130F900F90DF91CF9150
:102650000895AF92BF92CF92DF92EF92FF920F93C5
:102660001F93CF93DF931F92CDB7DEB75C01FC01C0
:102670008481898361E070E0CE0101960E94EB12B3
:10268000C980D12CC60101960E947F267C0100974B
:10269000B1F0F50104811581FC010115110571F0FE
:1026A000C016D10608F48601F50160817181A80188
:1026B000C7010E943F31F701E00FF11F1082B60100
:1026C000C7010E941113E114F10471F0C7010F90CA
:1026D000DF91CF911F910F91FF90EF90DF90CF90FE
:1026E000BF90AF900C941B270F90DF91CF911F915B
:1026F0000F91FF90EF90DF90CF90BF90AF90089533
:102700000F931F93CF93DF93182F092F1092220658
:10271000109221061092200610921F0683E090E08E
:102720000E947F26EC01088319831A8263E070E01F
:102730000E94EB12209719F0CE010E941B271092E5
:1027400022061092210684E090E090932006809368
:102750001F06DF91CF911F910F910895CF93DF93C3
:10276000EC0188819981009711F00E941B27198242
:1027700018821D821C821B821A82DF91CF910895DC
:10278000FC0180819181009711F00C941B27089522
:102790000F931F93CF93DF93EC018881998100976A
:1027A00059F02A813B812617370730F081E0DF910D
:1027B000CF911F910F9108958B016F5F7F4F0E9402
:1027C0007230009759F0998388831B830A832C8188
:1027D0003D81232B59F7FC011082E8CF80E0E7CF41
:1027E000EF92FF920F931F93CF93DF9361157105C3
:1027F00041F480E0DF91CF911F910F91FF90EF9016
:10280000089541155105B1F07B01EC010C811D814A
:10281000040F151FB8010E94C813882351F32881A3
:1028200039818C819D81B701820F931F0E943831BD
:102830001D830C8381E0DECFCF93DF93EC01FB019E
:1028400044815581608171810E94F013811103C020
:10285000CE010E94AE13CE01DF91CF910895EF9289
:10286000FF920F931F93CF93DF93EC017B018A01BB
:10287000BA010E94C81381110BC0CE010E94AE1391
:10288000CE01DF91CF911F910F91FF90EF900895AE
:102890001D830C83B701888199810E943831F0CF64
:1028A000EF92FF920F931F93CF93DF93CDB7DEB7D5
:1028B000A1970FB6F894DEBF0FBECDBF7C01CB0150
:1028C000BA01F701118210821382128215821482DA
:1028D0008E010F5F1F4F22E044E00E9461260097A7
:1028E000C9F0FC0101900020E9F73197AF01481BC6
:1028F000590BBC01C7010E942F14A1960FB6F89482
:10290000DEBF0FBECDBFDF91CF911F910F91FF9022
:10291000EF900895C7010E94AE13EFCFCF93DF93DE
:10292000EC01FB018617970749F060817181611501
:10293000710541F0448155810E942F14CE01DF9131
:10294000CF9108950E94AE13F9CF20919B0630914C
:102950009C0640914D0650914E062417350794F57C
:10296000220F331F40914F0650915006240F351F00
:10297000F9019183808320919B0630919C0646E06B
:10298000429FC001439F900D112420915106309128
:102990005206820F931F0E948E14E0915306F0910D
:1029A000540680919B0690919C06E80FF91F87E0E2
:1029B000808380919B0690919C06019690939C0643
:1029C00080939B06089520919B0630919C06409130
:1029D0004D0650914E0624173507ACF5BC01220F69
:1029E000331F80914F0690915006280F391F88E0C1
:1029F00091E0F9019183808320919B0630919C06A0
:102A000046E0429FC001439F900D11242091510642
:102A100030915206820F931F0E948E14E09153064C
:102A2000F091540680919B0690919C06E80FF91F47
:102A300083E0808380919B0690919C060196909301
:102A40009C0680939B060895EF92FF920F931F932D
:102A5000CF93DF93CDB7DEB7A2970FB6F894DEBF62
:102A60000FBECDBF162F009709F03AC080916506C2
:102A7000909166060E94801381E090E00E941713F7
:102A800090E080E00E9417131AA361E070E0CE018D
:102A900082960E9411138091890690918A06A091D6
:102AA0008B06B0918C068B8F9C8FAD8FBE8F64E0B0
:102AB00070E0CE014B960E9411131A3008F03EC010
:102AC000E12FF0E0EA59FA4E0C94792C73158C152D
:102AD000CA1504162C169E155E169E159E15A21676
:102AE0000E948013CDCF8091930690919406A0917F
:102AF0009506B09196068F8B988FA98FBA8F64E058
:102B000070E0CE0147960E9411138091910690913A
:102B100092060E94171312C080918D0690918E0626
:102B2000A0918F06B09190068B8B9C8BAD8BBE8B4A
:102B300064E070E0CE0143960E9411130E94C90721
:102B40008091830690918406A0918506B0918606B7
:102B50000196A11DB11D8093830690938406A093D6
:102B60008506B09386060E94CA0560935F0670933F
:102B700060068093610690936206A2960FB6F89461
:102B8000DEBF0FBECDBFDF91CF911F910F91FF90A0
:102B9000EF9008958091690690916A0620916F06E2
:102BA00030917006821B930B880F991F880F991F15
:102BB0002091730630917406820F931FFC0180816F
:102BC0009181A281B3818B879C87AD87BE8764E0AA
:102BD00070E0CE010B960E941113809169069091CE
:102BE0006A060E9417138091930690919406A09113
:102BF0009506B09196068F87988BA98BBA8B64E067
:102C000070E0CE010F9698CF80916B0690916C0684
:102C100020916F0630917006821B930B880F991FCD
:102C2000880F991F2091730630917406820F931FAD
:102C3000FC0180819181A281B3818F839887A987CC
:102C4000BA8764E070E0CE0107960E94111380916C
:102C50006706909168065DCF80918D0690918E06F3
:102C6000A0918F06B091900689839A83AB83BC8331
:102C700064E070E0CE0101960E94111380916D0610
:102C800090916E060E94171310E000E080916D068F
:102C900090916E060817190708F050CFC801880FE9
:102CA000991FE0917106F0917206E80FF91F80817B
:102CB00091810E9417130F5F1F4FE8CF80919B06F1
:102CC00090919C0698A38F8F62E070E0CE014F96A2
:102CD0000E941113F12CE12C10E000E080919B0682
:102CE00090919C06081719070CF028CFE091530625
:102CF000F0915406E00FF11F808189A361E070E03C
:102D0000CE0181960E941113609151067091520676
:102D10006E0D7F1D1A8219821C821B821E821D82EB
:102D2000CE0101960E948E14CE0101960E942913B5
:102D3000CE0101960E94C0130F5F1F4FF6E0EF0E09
:102D4000F11CCCCF10E000E080919B0690919C0696
:102D5000081719070CF0F2CEE0915306F0915406D3
:102D6000E00FF11FE081EE2301F1A0914F06B09139
:102D70005006C801880F991FA80FB91F8D919C910B
:102D8000E930B1F41A8219821C821B821E821D82D4
:102D9000BC01CE0101960E948E14CE0101960E94C4
:102DA0002913CE0101960E94C0130F5F1F4FCCCF95
:102DB00070E060E0EA3038F4F0E0EE0FFF1FE75813
:102DC000FE4F608171810E941113EFCFFC011182CF
:102DD000108213821282158214826115710551F0DE
:102DE000FB0101900020E9F73197AF01461B570B1B
:102DF0000C942F140895AF92BF92CF92DF92EF926E
:102E0000FF920F931F93CF93DF9300D000D000D099
:102E1000CDB7DEB77A018C01060F171FF801C0800D
:102E2000D12CC6010E947F265C01F801DC0131969D
:102E3000CD018A199B098C159D051CF480818D9309
:102E4000F6CFB501CE0101960E94E616F70180810A
:102E500091810097A1F169817A816115710569F10C
:102E6000428153812D813E814217530730F10E94E8
:102E700038318D819E81F701958384831E821D8266
:102E8000CE0101960E94C013A114B10419F0C5012E
:102E90000E941B27C601019626960FB6F894DEBF46
:102EA0000FBECDBFDF91CF911F910F91FF90EF909B
:102EB000DF90CF90BF90AF9008950E941B2789812B
:102EC0009A81F701918380838B819C819383828394
:102ED0008D819E81958384831A8219821C821B8234
:102EE000CDCF85ED8093BC008091000390910103CC
:102EF000A0910203B09103030796A11DB11D23E029
:102F0000B695A795979587952A95D1F72091BC00FE
:102F100024FD03C01092FE020895409100035091D9
:102F200001036091020370910303452B462B472B4D
:102F300069F30097A105B10541F025E32A95F1F762
:102F400000000197A109B109E1CF8091FF020C9423
:102F5000AC0A1F920F920FB60F9211242F933F933A
:102F60008F939F93AF93BF938091A9029091AA02F0
:102F7000A091AB02B091AC023091A80223E0230FE4
:102F80002D3758F50196A11DB11D2093A8028093FD
:102F9000A9029093AA02A093AB02B093AC028091D5
:102FA000AD029091AE02A091AF02B091B002019635
:102FB000A11DB11D8093AD029093AE02A093AF020C
:102FC000B093B002BF91AF919F918F913F912F919C
:102FD0000F900FBE0F901F90189526E8230F0296B2
:102FE000A11DB11DD2CF1F920F920FB60F921124C7
:102FF0002F933F934F935F936F937F938F939F9301
:10300000AF93BF93EF93FF9388E093E00E943A075A
:10301000FF91EF91BF91AF919F918F917F916F91B0
:103020005F914F913F912F910F900FBE0F901F9086
:1030300018951F920F920FB60F9211242F938F9312
:103040009F93EF93FF93E0911803F0911903808110
:10305000E0911E03F0911F0382FD1BC090818091BF
:1030600021038F5F8F7320912203821741F0E0913B
:103070002103F0E0E85FFC4F958F80932103FF91DF
:10308000EF919F918F912F910F900FBE0F901F90F6
:1030900018958081F4CF1F920F920FB60F921124D2
:1030A0002F933F934F935F936F937F938F939F9350
:1030B000AF93BF93EF93FF938091B900887F8036E1
:1030C00009F44AC0F0F5883209F4A7C018F5803138
:1030D00009F49BC0B8F4882309F4F9C0883009F4D6
:1030E00094C0FF91EF91BF91AF919F918F917F918C
:1030F0006F915F914F913F912F910F900FBE0F9065
:103100001F901895883109F488C0803251F7809358
:10311000DC0214C0803409F49DC040F48033B9F35C
:103120008833F9F68093DC0285ECB0C0803509F471
:1031300085C0883509F496C0883499F60E947117C5
:10314000D0CF883909F48CC038F5883729F050F48D
:10315000883611F0803729F683E08093FE021092C2
:103160009D0257C0883809F47BC0803919F0803837
:1031700009F0B7CF80919D02803208F071C0E091D4
:103180009D0281E08E0F80939D028091BB00F0E054
:10319000E358FD4F80833DC0803B39F0E0F4803A36
:1031A00009F479C0883A09F09CCF84E08093FE024C
:1031B00010927C0210927B02E091B302F091B40273
:1031C000099580917B0281110FC081E080937B0281
:1031D00010925B0209C0803C09F4A6CF883C09F438
:1031E000A3CF883B09F07DCFE0917C0281E08E0F78
:1031F00080937C02F0E0E55AFD4F80818093BB0014
:1032000090917C0280917B0229C08091D9028093A9
:10321000BB0085EC8093BC0064CF9091DB02809171
:10322000DA02981758F5E091DB0281E08E0F809367
:10323000DB02F0E0E854FD4F8081E9CFE091DB0252
:1032400081E08E0F8093DB028091BB00F0E0E854B8
:10325000FD4F80839091DB028091DA029817C8F2CB
:1032600085E8D8CFE091DB0281E08E0F8093DB020E
:103270008091BB00F0E0E854FD4F80838091DD0237
:1032800081115CCF81E08093D80284EA8093BC00F6
:103290001092FE0226CF85EC8093BC001092FE02B5
:1032A00080919D02803230F4E0919D02F0E0E3587D
:1032B000FD4F108260919D0270E0E091B102F091AB
:1032C000B2028DE792E0099510929D020ACF10920A
:1032D000DC0234CF0F931F93CF93DF9310920B0335
:1032E00010920A0388EE93E0A0E0B0E080930C0314
:1032F00090930D03A0930E03B0930F0381E991E027
:10330000909309038093080385EC90E09093150354
:103310008093140384EC90E090931703809316033A
:1033200080EC90E0909319038093180381EC90E077
:1033300090931B0380931A0382EC90E090931D03FB
:1033400080931C0386EC90E090931F0380931E03F0
:10335000109221031092220310922303109224034F
:103360001092E2031092E1031092170410921804D5
:1033700083EA91E09093E0038093DF031092E403EB
:103380001092E3031092F8031092FB031092EF03E4
:103390001092F0031092F1031092F2038FEF8093DA
:1033A000F9038093FD03E1E0F4E087E194E0DFEFCF
:1033B000D1938E179F07E1F78BE998E09093E8038C
:1033C0008093E70381EF93E09093EA038093E9030E
:1033D00081E09DE09093EC038093EB038DE395E017
:1033E0009093EE038093ED0330E020E040E069E04D
:1033F00083EE93E00E949B08D0930C04D0930D04BD
:10340000D0930E0483E08093D1039BE09093D2038A
:10341000E7E3F3E0E491E093D303E3E2F3E0E49144
:10342000E093D40340E85EE360E070E04093D903AA
:103430005093DA036093DB037093DC0390E5909381
:10344000C8031092C90310921C0410921B0448EE8A
:1034500053E060E070E040931D0450931E046093BD
:103460001F04709320042FEA31E030931A04209354
:1034700019041092AB061092AC061092AD06109291
:10348000AE061092AF061092B0061092B1061092DE
:10349000B2061092B3061092B4061092B5061092BE
:1034A000B6061092B706C1E0C093B806C093B9063D
:1034B000C093BA061092BD06109221051092200505
:1034C000109225051092240510921E0610921D06DA
:1034D000109222061092210690EC909341061092D1
:1034E000420699E0909343061092300610922F0600
:1034F000109244061092450610923106109246062C
:10350000809332061092330622E02093340692E62E
:103510009093470610923506909148061092360611
:10352000109237069C7190934806109238061092BC
:1035300049061092390610923A0610923B061092F4
:103540003C0610923D0610923E0610924A061092DA
:10355000400610923F0610924B0610924C062093A4
:103560002B0480932C0401E010E0109323050093BA
:10357000220560EC71E08FE996E00E94E616109259
:10358000A5061092A7061092A606C093A806109250
:103590007E06D0937D06109287061092880680E101
:1035A00097E2A0E0B0E080935B0690935C06A09366
:1035B0005D06B0935E068FEF9FEFDC018093890676
:1035C00090938A06A0938B06B0938C0680938D0609
:1035D00090938E06A0938F06B093900680939306E7
:1035E00090939406A0939506B09396061092630666
:1035F0001092640610926606109265068EEF9FEF99
:103600009093920680939106109268061092670636
:1036100010926C0610926B0610926A061092690660
:1036200010926E0610926D061093700600936F064E
:103630001092740610927306109272061092710620
:103640001092750610927606109277061092780600
:103650001092790610927A0610927B0610927C06E0
:103660001092500610924F06109252061092510678
:103670001092540610925306109256061092550658
:10368000109258061092570610925A061092590638
:103690009093300680932F06D0934406809345067E
:1036A0001092380610924906109231061092460682
:1036B000C093390680914A06C09336069091480619
:1036C000906290934806C0933C06C0933A061092CD
:1036D000340690914706987F9093470610923D06D6
:1036E00010923E068072806D80934A0610927F068B
:1036F0001092800610928106109282061092830624
:103700001092840610928506109286066FEB71E087
:1037100085E294E0DF91CF911F910F910C94E61612
:10372000CF93DF93CDB7DEB769970FB6F894DEBFBE
:103730000FBECDBF789484B5826084BD84B58160AE
:1037400084BD85B5826085BD85B5816085BD80916C
:103750006E00816080936E001092810080918100E4
:1037600082608093810080918100816080938100DC
:10377000809180008160809380008091B10084609E
:103780008093B1008091B00081608093B0008091FF
:103790007A00846080937A0080917A0082608093BE
:1037A0007A0080917A00816080937A0080917A001B
:1037B000806880937A001092C100E0911803F09124
:1037C000190382E08083E0911403F09115031082C5
:1037D000E0911603F09117038FEC80831092200381
:1037E000E0911C03F0911D0386E08083E0911A03B1
:1037F000F0911B03808180618083E0911A03F09136
:103800001B03808188608083E0911A03F0911B0381
:10381000808180688083E0911A03F0911B0380818E
:103820008F7D8083E091E703F091E80330E020E0B2
:1038300040E06AE083EE93E009958E010F5F1F4F31
:1038400088E0D8011D928A95E9F7B80183EE93E0EC
:103850000E945209E091E703F091E80330E020E094
:1038600040E06BE083EE93E009951092B70210926E
:10387000B60210920503109204030E948E0A8BE593
:1038800094E09093B4028093B3028CE594E090931B
:10389000B2028093B10287E70E94540360ED89E190
:1038A00094E00E94EB0B89E194E00E941A0C81E005
:1038B00090E00E94C30D9091B6028091B7029817D4
:1038C000F1F389E194E00E94AB0B883509F065C003
:1038D00088E80E94CC0D9093A6038093A5038AE804
:1038E0000E94CC0D9093A8038093A7038CE80E94BC
:1038F000CC0D9093AA038093A9038EE80E94CC0D6F
:103900009093AC038093AB0380E90E94CC0D90931D
:10391000AE038093AD0382E90E94CC0D9093B00377
:103920008093AF0384E90E94CC0D9093B2038093FF
:10393000B10386E90E94CC0D9093B4038093B30346
:1039400088E90E94CC0D9093B6038093B5038AE971
:103950000E94CC0D9093B8038093B7038CE90E942A
:10396000CC0D9093BA038093B9038EE90E94CC0DDD
:103970009093BC038093BB0387E70E94540364EFDA
:1039800089E194E00E94EB0B6FE389E194E00E94EF
:10399000EB0B89E194E00E941A0C89E194E090938A
:1039A000AA068093A90681E60E94540361ED70E0A7
:1039B0008091A9069091AA060E94600A70E060E0DA
:1039C0008091A9069091AA060E94600A8091A9069A
:1039D0009091AA060E941A0C8111AAC063E070E0BF
:1039E00080E090E00E940A0563E081E60E94CD0A33
:1039F0001092B7028093B6028091A9069091AA0610
:103A0000DC01ED91FC910084F185E02D0995892B75
:103A100009F48EC08091A9069091AA06DC01ED916F
:103A2000FC910284F385E02D099589838091A90694
:103A30009091AA06DC01ED91FC910284F385E02DC2
:103A400009958A838091A9069091AA06DC01ED91DF
:103A5000FC910284F385E02D0995D82EE980FA8047
:103A6000FE24EF24FE24C8010E945E03C82E80912C
:103A7000BD06DC102FC08823C1F064E172E08091A4
:103A8000BB069091BC060E94D805C090BB06D090A2
:103A9000BC06A70170E060E020E1C6010E94AD1005
:103AA0006DEB71E0C6010E949E1070E060E080E165
:103AB00090E00E94690D8823D9F162E070E080E017
:103AC00096E40E94690D70E060E086E093E50E9454
:103AD000690D2EC0882361F16DEE71E08091BB0607
:103AE0009091BC060E94D8054C2D50E070E060E03B
:103AF00020E18091BB069091BC060E94AD1064EE5F
:103B000071E08091BB069091BC060E94D805E090C0
:103B1000BB06F090BC064D2D50E070E060E020E167
:103B2000C7010E94AD106DEB71E0C7010E949E10AD
:103B3000E091E703F091E80330E020E041E06DE040
:103B400083EE93E0099510929C0610929B0654E038
:103B5000C52ED12CD0924E06C0924D068AE190E03F
:103B60000E947F26FC01C192D1927F015F016C010E
:103B7000FAE1CF0ED11C6FEB71E0C5010E94E61691
:103B800026E0A20EB11CAC14BD04A9F7F0925206B7
:103B9000E092510684E090E00E947F2690935406C4
:103BA0008093530688E090E00E947F26FC0190936A
:103BB000500680934F061182108213821282158262
:103BC0001482178216821092270661E080912B04DE
:103BD0000E94B40461E080912C040E94B40460E06F
:103BE00080912B040E94860460E080912C040E9446
:103BF00086040E94B8066EEC71E0C8010E94E616C9
:103C0000B8018EE992E00E94A514C8010E94C01379
:103C100068ED71E0C8010E94E616C8010E94E31435
:103C2000C8010E94C0136CED71E0C8010E94E61645
:103C3000B80184E091E00E94A514C8010E94C0135D
:103C400067EE71E0C8010E94E616B80180E091E0DD
:103C50000E94A514C8010E94C013772473940E9487
:103C6000CA054B015C0146E0642E88E093E00E94A7
:103C7000AC06892B09F467C0F090390660912205E3
:103C8000709123058DE294E00E944C0680912D04F2
:103C900090E0F11056C09093250580932405609123
:103CA0002405709125058DE294E00E944C06FF20CA
:103CB000A1F0809124059091250501979093250509
:103CC00080932405855D9B4FDC0112968C9190E0DA
:103CD0009A959093210580932005E0902D04F09013
:103CE0002E04E114F10409F427C280912F0490916D
:103CF0003004C0902405D0902505009709F4E0C158
:103D00000E948013C70101970E94171384E090E07E
:103D1000FC01E55DFB4F7F01C7018B5294408C1580
:103D20009D0508F0D6C1D70112968C91898F61E06C
:103D300070E0CE0149960E941113BFEFEB1AFB0A07
:103D4000EBCF0196A8CF80917E06833009F464C63C
:103D500008F09CC1813009F42EC6823009F450C6A7
:103D60008091A4029091A502A091A602B091A70211
:103D7000A5019401281B390B4A0B5B0BDA01C90121
:103D8000803D9740A105B10508F4E5C08092A402EA
:103D90009092A502A092A602B092A70288E0D80154
:103DA0001D928A95E9F7B80183EE93E00E945209CB
:103DB00088E493E09093F4038093F3031092170444
:103DC000109218042091BE063091BF061C8A1B8AEF
:103DD0001E8A1D8A188E1F8A4AE0B80180E098E08A
:103DE000821B930B0E944828F80101900020E9F7FC
:103DF0003197AF01401B510BB801CE0143960E9491
:103E00002F1464EF71E0C8010E94E616BE016D5EDA
:103E10007F4FC8010E941C140E944008C8010E94E4
:103E2000C013CE0143960E94C0131092170484E081
:103E3000809318040E944F0E0E94B42A20E030E5BF
:103E400043EC57E40E944C2EAB01BC01C8010E9418
:103E500050146AEF71E0CE0143960E94E616B80155
:103E6000CE0143960E941C147C0143E050E061E0C7
:103E700072E00E94F013811103C0C7010E94AE13CB
:103E8000C7010E944008CE0143960E94C013C8019A
:103E90000E94C0131092170485E0809318040E94BA
:103EA0004F0E0E94B42A20E836EE45EC57E40E94FB
:103EB0004C2E25E534ED42E45EE30E94ED2E9B019D
:103EC000AC0160E070E080E89FE30E94DF2D2BE40E
:103ED0003AE34DEB57E30E944C2EAB01BC01C80105
:103EE0000E94501465E072E0CE0143960E94E616EF
:103EF000B801CE0143960E941C147C0141E050E0C1
:103F00006BE072E00E94F013811103C0C7010E94B0
:103F1000AE13C7010E944008CE0143960E94C01311
:103F2000C8010E94C0138091A2029091A302019641
:103F300064E070E00E94652C9093A3028093A2023B
:103F4000E091E703F091E80330E020E040E060E139
:103F500083EE93E0099580918706882309F489C050
:103F60001092170485E0809318046DE072E08FEDE5
:103F700093E00E949E108091B806882381F00E94F1
:103F8000F91081110CC08091B706811108C0109200
:103F9000AB061092AC061092AD061092AE0670926F
:103FA000B8066091AB067091AC068091AD06909119
:103FB000AE060E94BE2E70930901609308018091A5
:103FC000BA06882381F00E94F91081110CC08091FB
:103FD000B706811108C01092AF061092B006109279
:103FE000B1061092B2067092BA068091AF06909117
:103FF000B006A091B106B091B206809304019093EF
:104000000501A0930601B09307018091B9068823AA
:1040100081F00E94F91081110CC08091B7068111C6
:1040200008C01092B3061092B4061092B506109212
:10403000B6067092B9068091B3069091B406A0912D
:10404000B506B091B6068093000190930101A0934C
:104050000201B09303010E944F0E0E94B42A6093A4
:104060009E0270939F028093A0029093A10270928F
:10407000880680E090E0892B09F4F1CD0E942607A4
:10408000882309F4EACD0E940000E7CD853009F4C9
:10409000A0C508F473C5863009F062CE88E093E0CD
:1040A0000E942906892B09F45BCE8091880688231B
:1040B00009F456CE109288061092870669E08EC5E4
:1040C00080916506909166060E94801390E080E0E2
:1040D0001FCE0E94C9078091830690918406A0910B
:1040E0008506B09186060196A11DB11D80938306B9
:1040F00090938406A0938506B09386060E94CA0515
:1041000060935F06709360068093610690936206E9
:1041100080917F0690918006A0918106B0918206E1
:104120000196A11DB11D80937F0690938006A093F8
:104130008106B093820699CDE0912F04E0937D062D
:104140002090300430903104409032045090330479
:10415000EA30F0F6F0E0E155FF4D0C94792CB920EF
:10416000152109220C224E22DA22DE22B823D9237D
:10417000FC238091930690919406A0919506B091AE
:104180009606B7FF13C00E94E5046115710581050D
:10419000910511F00E943F280E94F0276093890644
:1041A00070938A0680938B0690938C068091930679
:1041B00090919406A0919506B0919606B7FD0EC019
:1041C0004091340450913504609136047091370465
:1041D00084179507A607B70709F49ACF809138048A
:1041E00090913904909366068093650670926306F9
:1041F00010926E0610926D06109275061092760659
:1042000010927706109278061092790610927A062C
:1042100010927C0620928D0630928E0640928F0678
:104220005092900670927E0673CF809134049091E4
:104230003504A0913604B09137048093970690938B
:104240009806A0939906B0939A06409189065091DA
:104250008A0660918B0670918C06481759076A0789
:104260007B0709F055CF80916D0690916E06C09046
:104270007306D0907406F60130E020E0009709F054
:1042800044C02091670630916806309370062093F1
:104290006F0620916706309168062F5F3F4F30937D
:1042A00068062093670601968115E0E29E0708F0F4
:1042B00042C0880F991F880F991F0E947F269093F4
:1042C000740680937306D60180916D0690916E06F8
:1042D000E816F90698F5CD018C199D09E091730651
:1042E000F0917406E80FF91F4D915D916D917D91EC
:1042F0004083518362837383FFEFEF1AFF0AE4CF99
:104300002F5F3F4F8217930721F2419151916191A5
:104310007191421553056405750591F780916F06FB
:1043200090917006280F391F30936A062093690612
:1043300070927806EDCE8FEF9FEFBFCFC114D104FE
:1043400019F0C6010E941B2780916D0690916E06A0
:10435000880F991F880F991FE0917306F0917406DA
:10436000E80FF91F208231824282538280916D06CC
:1043700090916E06019690936E0680936D067092F2
:1043800078068BE090E040918D0650918E0660910A
:104390008F0670919006421553056405750509F066
:1043A000B7CEFC01E35DFB4F408151816281738197
:1043B00040939706509398066093990670939A06D7
:1043C000C0908906D0908A06E0908B06F0908C060B
:1043D000C416D506E606F70609F09ACEFC01EF5C96
:1043E000FB4F2081318130939206209391068D5CA2
:1043F0009B4FFC0180819181A281B38180939306C0
:1044000090939406A0939506B093960670926406D6
:1044100009CF87E090E0B7CF80918D0690918E060E
:10442000A0918F06B091900682159305A405B5055D
:1044300009F06ECE8091340490913504A091360439
:10444000B09137048093970690939806A0939906AD
:10445000B0939A064091890650918A0660918B0626
:1044600070918C06481759076A077B0709F050CEF0
:104470008091380490913904909368068093670680
:1044800090936C0680936B0690936A0680936906FE
:1044900070927506F2E0F0937E063ACE8091340475
:1044A00090913504A0913604B0913704809397061B
:1044B00090939806A0939906B0939A064091890626
:1044C00050918A0660918B0670918C0648175907A7
:1044D0006A077B0709F01CCE4090380450903904DD
:1044E00070927A064114510409F412CE8091670645
:1044F00090916806840D951D9093680680936706D9
:10450000C0907106D090720680916D0690916E06F3
:10451000840D951D811520E4920710F5880F991FD1
:104520000E947F269093720680937106F60190E0B8
:1045300080E020916D0630916E068217930798F403
:1045400061917191AC01440F551F2091710630911A
:104550007206240F351FD9016D937C930196E9CF24
:104560008FEF9FEFDDCFC114D10419F0C6010E9477
:104570001B27EAE3F4E080916D0690916E068E0DA4
:104580009F1DE414F50489F021913191880F991F42
:104590004091710650917206840F951FDC012D9396
:1045A0003C93BFEFEB1AFB0AE6CF90936E06809325
:1045B0006D06AECDE5E0E0937E06AACD8091340491
:1045C00090913504A0913604B091370480939706FA
:1045D00090939806A0939906B0939A068091380418
:1045E0009091390490939E0680939D0618161906A3
:1045F0000CF08ECD8091550690915606009711F0E3
:104600000E941B27E0905706F0905806E114F10431
:10461000E9F0F701329720813181629EC001639EEB
:10462000900D1124E80EF91E970180915706909184
:104630005806F6E0EF1AF1088217930721F0C70138
:104640000E94C013F1CF02970E941B278091590648
:1046500090915A06009711F00E941B2740909D06EA
:1046600050909E06C201880F991F411420E4520603
:1046700010F08FEF9FEF0E947F2690935606809355
:1046800055068FEF9FEF36E5431635E1530630F4BC
:10469000649CC001659C900D112402960E947F26A7
:1046A000DC014D925D927D016D01B1E04B1A510824
:1046B00057FC09C06FEB71E0C6010E94E616E6E008
:1046C000CE0ED11CF2CFF0925806E09257068091A0
:1046D0009D0690919E060E947F2690935A06809395
:1046E000590690E080E020919D0630919E06821749
:1046F00093076CF49C01220F331FE0915506F09153
:104700005606E20FF31F118210820196ECCFD12CD6
:10471000C12CF12CE12C8DE090E020919D06309190
:104720009E06E216F3060CF0F3CCFC01E35DFB4FB2
:104730002081E0915906F0915A06EE0DFF1D20836D
:104740002C01FFEF4F1A5F0A40915706509158060F
:104750004C0D5D1DB2018DE294E00E94FB16840DAC
:10476000951D2FEFE21AF20A36E0C30ED11CD5CF09
:104770008091340490913504A0913604B0913704AF
:104780008093970690939806A0939906B0939A0603
:104790004091890650918A0660918B0670918C0633
:1047A000481759076A077B0709F0B2CC70927C065C
:1047B000AFCC8091340490913504A0913604B0912F
:1047C00037048093970690939806A0939906B09328
:1047D0009A064091890650918A0660918B067091E5
:1047E0008C06481759076A077B0709F091CC70922D
:1047F000870660927E068CCC8091340490913504BB
:10480000A0913604B0913704809397069093980650
:10481000A0939906B0939A0680912405909125055E
:104820000C970CF475CC312C212CABE0CA2ED12C7A
:1048300080919D0690919E06281639060CF0B8C00E
:1048400080915506909156062101440C551C480E46
:10485000591EE0915906F0915A06E20DF31DE081D0
:10486000E15090E080E0E93038F5F0E0E35CFB4DAA
:10487000D201ED90FC900C94792C46246224712492
:10488000712489248924A524A524BC24E114F104DD
:1048900019F0C7010E941B2781E090E00E947F264B
:1048A000F601E35DFB4F20812983FC012083D201C7
:1048B0008D939C9381E090E0C80ED91EFFEF2F1AD4
:1048C0003F0AB6CFE114F10419F0C7010E941B277B
:1048D00081E090E00E947F26F601E35DFB4F20819E
:1048E000E4CFE114F10419F0C7010E941B2782E014
:1048F00090E00E947F26F601E35DFB4F208131812D
:10490000FC0131832083D2018D939C9382E090E05F
:10491000D3CFE114F10419F0C7010E941B2784E0F2
:1049200090E00E947F26F601E35DFB4F40815181BC
:1049300062817381FC014083518362837383D2015E
:104940008D939C9384E090E0B7CFE114F10419F0CB
:10495000C7010E941B2784E090E00E947F26F60199
:10496000E35DFB4F4081518162817381FC01408393
:10497000518362837383E3CFE114F10431F0C70103
:104980000E94C013C7010E941B2786E090E00E948E
:104990007F267C016FEB71E00E94E616A701B6014D
:1049A0008DE294E00E94FB16F201F182E08284CF56
:1049B00070928806ADCB80916306882351F01092E7
:1049C000630661E080916506909166060E94241559
:1049D00014C080916406882381F01092640680914F
:1049E00091069091920680932F06909330069093B3
:1049F0004406809345060E94B80610927E06B0C910
:104A000080917506882331F01092750683E08093BB
:104A10007E06A6C964E0D6CF80917606811108C0D3
:104A20007092760660E08FEF9FEF0E94241598C980
:104A300080917806882309F43FC00E94CA05C0907F
:104A40005F06D0906006E0906106F0906206AB01D0
:104A5000BC014C195D096E097F0980915B0690913C
:104A60005C06A0915D06B0915E06B695A7959795F8
:104A70008795481759076A077B0708F471C9109290
:104A80007806E0906906F0906A068091670690913A
:104A90006806E816F90668F462E08FEF9FEF0E945F
:104AA00024152FEFE21AF20AF0926A06E0926906E4
:104AB000ECCF1092760654C90E94CA05C0905F06DA
:104AC000D0906006E0906106F09062066C197D0956
:104AD0008E099F09C0905B06D0905C06E0905D0651
:104AE000F0905E06C616D706E806F90608F038C943
:104AF0001092760680917706811103C07092770636
:104B00002FC98091710690917206009711F00E9452
:104B10001B2780916D0690916E06009759F18115C3
:104B200030E4930710F5880F991F0E947F26909319
:104B300072068093710690E080E020916D063091BE
:104B40006E0682179307A0F4209191063091920689
:104B5000AC01440F551FE0917106F0917206E40F0D
:104B6000F51F318320830196E8CF8FEF9FEFDDCFD4
:104B700084E04DCF1092750682E049CF909179067E
:104B800091111BC020916B0630916C064091690613
:104B900050916A062417350780F47092790663E015
:104BA000C9010E94241580916B0690916C060196B4
:104BB00090936C0680936B06D3C880917A06882305
:104BC00029F010927A0610927906CAC89923A1F2A8
:104BD000C7C880917C0666E081110FCF90E080E02D
:104BE000F5CECF93DF9385E294E00E94C0138091CD
:104BF0004F0690915006009711F00E941B27C0911C
:104C00005106D09152062097E1F0FE0132972081A3
:104C1000318146E0429FC001439F900D1124C80F8F
:104C2000D91F9E01809151069091520626978217B6
:104C3000930721F0CE010E94C013F3CF02970E9488
:104C40001B278091530690915406009711F00E9403
:104C50001B278091550690915606009711F00E94EF
:104C60001B27C0915706D09158062097E1F0FE010E
:104C700032972081318146E0429FC001439F900DD1
:104C80001124C80FD91F9E01809157069091580694
:104C900026978217930721F0CE010E94C013F3CF0D
:104CA00002970E941B278091590690915A060097FF
:104CB00011F00E941B278FE996E0DF91CF910C94B1
:104CC000C013EF920F931F93CF93DF93E80134E06B
:104CD00047FD34E1042E000C550B57FF03C05195DE
:104CE00041955109E32E022F242FAE010E946D2819
:104CF000CE01DF91CF911F910F91EF9008950F9307
:104D00001F93CF93DF938230910510F482E090E0FF
:104D1000E091C006F091C10630E020E0B0E0A0E0F4
:104D2000309799F42115310509F44AC0281B390B35
:104D300024303105D8F58A819B816115710589F18F
:104D4000FB0193838283FE0111C040815181028166
:104D5000138148175907E0F04817590799F410973D
:104D600061F012960C93129713961C933296CF0112
:104D7000DF91CF911F910F9108950093C00610937A
:104D8000C106F4CF2115310551F04217530738F011
:104D9000A901DB019A01BD01DF01F801C1CFEF01DB
:104DA000F9CF9093C1068093C006CDCFFE01E20FEC
:104DB000F31F819391932250310939832883D7CFF0
:104DC0002091BE063091BF06232B41F420910C01A7
:104DD00030910D013093BF062093BE0620910A0149
:104DE00030910B012115310541F42DB73EB74091AB
:104DF0000E0150910F01241B350BE091BE06F0917E
:104E0000BF06E217F307A0F42E1B3F0B2817390744
:104E100078F0AC014E5F5F4F2417350748F04E0F16
:104E20005F1F5093BF064093BE06819391939FCF1F
:104E3000F0E0E0E09CCFCF93DF930097E9F0FC0136
:104E4000329713821282A091C006B091C106ED0183
:104E500030E020E01097A1F420813181820F931F70
:104E60002091BE063091BF062817390709F061C0AE
:104E7000F093BF06E093BE06DF91CF910895EA015B
:104E8000CE17DF07E8F54A815B819E014115510588
:104E9000B1F7E901FB83EA8349915991C40FD51F0A
:104EA000EC17FD0761F4808191810296840F951FB4
:104EB000E90199838883828193819B838A83F0E0CF
:104EC000E0E012968D919C9113970097B9F52D9182
:104ED0003C911197CD010296820F931F2091BE063F
:104EE0003091BF062817390739F6309751F51092DF
:104EF000C1061092C006B093BF06A093BE06BCCFF9
:104F0000D383C28340815181840F951FC817D9076D
:104F100061F44E5F5F4F88819981480F591F51831B
:104F200040838A819B81938382832115310509F017
:104F3000B0CFF093C106E093C0069ECFFD01DC0127
:104F4000C0CF13821282D7CF8F929F92AF92BF921F
:104F5000CF92DF92EF92FF92CF93DF93EC016881C3
:104F600079818A819B81611571058105910521F403
:104F700064E279ED8BE597E02DE133EF41E050E01D
:104F80000E94AF2B49015A019B01AC01A7EAB1E491
:104F90000E94CE2B6B017C01ACEEB4EFA501940115
:104FA0000E94DC2BC60ED71EE81EF91EF7FE06C0B7
:104FB00081E0C81AD108E10880E8F80AC882D982DD
:104FC000EA82FB82C701B6019F77DF91CF91FF9004
:104FD000EF90DF90CF90BF90AF909F908F9008950B
:104FE0008F929F92AF92BF92CF92DF92EF92FF92F9
:104FF0006091100170911101809112019091130143
:10500000611571058105910521F464E279ED8BE567
:1050100097E02DE133EF41E050E00E94AF2B4901D2
:105020005A019B01AC01A7EAB1E40E94CE2B6B01AF
:105030007C01ACEEB4EFA50194010E94DC2BC60EFE
:10504000D71EE81EF91EF7FE06C081E0C81AD10877
:10505000E10880E8F80AC0921001D0921101E092B4
:105060001201F0921301C701B6019F77FF90EF90F4
:10507000DF90CF90BF90AF909F908F9008956093F6
:105080001001709311018093120190931301089500
:10509000BB274A3031F4992322F4BDE290958195E3
:1050A0009F4F0C945428BB27FB015527AA27880F34
:1050B000991FAA1FA41710F0A41B83955051B9F78C
:1050C000A05DAA3308F0A95DA193009779F7B1110B
:1050D000B1931192CB010C94A42AA9E0B0E0E3E7CC
:1050E000F8E20C94E72B6A01F22EB02E102FFBE3AE
:1050F000AF2EA01608F41BE31F5F012F27E0AE01BF
:105100004F5F5F4F0E94CC29BC018981982F997015
:10511000913009F43FC09BE2E1FC04C09E2D9170E8
:10512000E0FC3AC05E2D5071E82FE87083FF46C066
:1051300084E0911101C083E0EF2DE81B8F1508F08A
:10514000E0E0D6018E2F20E2552351F1992329F07A
:10515000D6019C93C60101966C0196012D5F3F4FCD
:10516000E2FE24C08EE4D6018C9391E411969C93C8
:10517000119712968C93D9018E2F90E281111BC04A
:10518000E20FF32FF11D10828EEF9FEF2996ECE0D6
:105190000C94032C9DE2C6CF90E2C4CF2D93815096
:1051A0008111FCCFCE0ED11CE0E0D0CF8EE6D6012F
:1051B0008C9391E6DBCF9D938150E0CF482F4470D4
:1051C00082FF3DC084E0911101C083E08F1510F48F
:1051D000EF2DE81BD6018E2F20E2552309F19923EC
:1051E00029F0D6019C93C60101966C0196012D5FB2
:1051F0003F4FE2FE1BC089E4D6018C938EE41196EA
:105200008C93119786E412968C93D9018E2F90E29D
:10521000882309F4B5CF9D938150FACF2D93815007
:105220008111FCCFCE0ED11CE0E0D9CF89E6D601AA
:105230008C938EE611968C93119786E6E4CF9B01B2
:1052400077FF02C030E020E0A1E0B0E0911102C0A1
:10525000B0E0A0E0F9013196AE0FBF1F8B2C912C6E
:10526000BB2009F461C05401EFEFAE1ABE0AAA0DCB
:10527000BB1DFA161B0619F014F04F2D4A1B5111D5
:1052800088C0E3FC59C07601A42FB0E2A1114FC041
:10529000C40ED11C992309F45BC040E0D6011196DD
:1052A000F60190836D01552309F448C0012F060FC4
:1052B0009A81582F507184FF03C0913309F4015033
:1052C00010160CF047C0093008F008E0EEE2FE2EA0
:1052D0005B01A01AB10885019194819491082F3F38
:1052E000320729F4D601FC92F60131966F0162175C
:1052F000730794F1021713077CF5DB01A21BB30BB4
:10530000AA24A394B12CAC0EBD1EAA0DBB1D1196F0
:105310008C9121503109D601119628153905F4F0E8
:10532000F60180836D01DBCFB12CA12CA0CFF7015A
:10533000B1937F01A150AACF9111B0CFD601942F84
:1053400050E302C05D9391509111FCCFC40ED11C6B
:1053500040E0ACCF01E0BACF80E3DBCF6217730748
:1053600031F4963388F4953311F4552369F0F6013E
:105370008083FD01842F90E2811108C0A40FB11D2C
:105380001C9290E080E002CF81E3F1CF91938150B5
:10539000F3CF911183CF8ACF283008F027E033274D
:1053A000DA01990F311D87FD916000966105710545
:1053B00039F432602E5F3D9330E32A95E1F708958A
:1053C0009F3F30F080387105610509F03C5F3C5F1C
:1053D0003D93913008F08068911DDF93CF931F9328
:1053E0000F93FF92EF92192F987F9695E92F96953C
:1053F0009695E90FFF27EC5BFE4F99273327EE24A4
:10540000FF24A701E70105900894079428F4360FBC
:10541000E71EF81E491F511D660F771F881F991F31
:105420000694A1F70590079428F4E70EF81E491F8B
:10543000561FC11D770F881F991F661F0694A1F77D
:105440000590079428F4F80E491F561FC71FD11D59
:10545000880F991F661F771F0694A1F70590079480
:1054600020F4490F561FC71FD81F990F661F771FBB
:10547000881F0694A9F784911095177041F0D6956E
:10548000C79557954795F794E7941A95C1F7EAEEB3
:10549000F0E068941590159135916591959105907E
:1054A0007FE27395E118F10A430B560BC90BD00943
:1054B000C0F7E10CF11E431F561FC91FD01D7EF41B
:1054C000703311F48A95E6CFE894015030F0080F5C
:1054D0000AF40027021708F4202F2395022F7A33AD
:1054E00028F079E37D932A95E9F710C07D932A95FA
:1054F00089F6069497956795379517951794E1184F
:10550000F10A430B560BC90BD00998F023957E91F5
:1055100073957A3308F070E37C932013B8F77E918B
:1055200070617D9330F0839571E37D9370E32A95EC
:10553000E1F71124EF90FF900F911F91CF91DF9130
:10554000992787FD90950895DC01FC01672F7191E3
:105550007723E1F7329704C07C916D937083629159
:10556000AE17BF07C8F30895E89409C097FB3EF44F
:1055700090958095709561957F4F8F4F9F4F9923A0
:10558000A9F0F92F96E9BB279395F695879577951E
:105590006795B795F111F8CFFAF4BB0F11F460FFDE
:1055A0001BC06F5F7F4F8F4F9F4F16C0882311F036
:1055B00096E911C0772321F09EE8872F762F05C04A
:1055C000662371F096E8862F70E060E02AF09A95E5
:1055D000660F771F881FDAF7880F9695879597F9DA
:1055E00008950E94042B0C94752B0E94672B38F0B1
:1055F0000E946E2B20F0952311F00C945E2B0C94DE
:10560000642B11240C94A92B0E94862B70F3959F78
:10561000C1F3950F50E0551F629FF001729FBB27A9
:10562000F00DB11D639FAA27F00DB11DAA1F649F45
:105630006627B00DA11D661F829F2227B00DA11DF8
:10564000621F739FB00DA11D621F839FA00D611D7E
:10565000221F749F3327A00D611D231F849F600D9F
:10566000211D822F762F6A2F11249F5750409AF0C8
:10567000F1F088234AF0EE0FFF1FBB1F661F771F54
:10568000881F91505040A9F79E3F510580F00C941F
:105690005E2B0C94A92B5F3FE4F3983ED4F38695E0
:1056A00077956795B795F795E7959F5FC1F7FE2BBF
:1056B000880F911D9695879597F9089597F99F679B
:1056C00080E870E060E008959FEF80EC089500248A
:1056D0000A941616170618060906089500240A9457
:1056E00012161306140605060895092E0394000CDD
:1056F00011F4882352F0BB0F40F4BF2B11F460FF6C
:1057000004C06F5F7F4F8F4F9F4F089557FD905894
:10571000440F551F59F05F3F71F04795880F97FB75
:10572000991F61F09F3F79F087950895121613062F
:105730001406551FF2CF4695F1DF08C0161617065E
:105740001806991FF1CF8695710561050894089593
:10575000E894BB2766277727CB0197F90895052E94
:1057600097FB1EF400940E94C62B57FD07D00E94A1
:10577000182C07FC03D04EF40C94C62B5095409582
:10578000309521953F4F4F4F5F4F089590958095ED
:10579000709561957F4F8F4F9F4F08950E943A2CCF
:1057A000A59F900DB49F900DA49F800D911D112475
:1057B0000895B7FF0C94CE2B0E94CE2B821B930B27
:1057C00008952F923F924F925F926F927F928F92A5
:1057D0009F92AF92BF92CF92DF92EF92FF920F9380
:1057E0001F93CF93DF93CDB7DEB7CA1BDB0B0FB68A
:1057F000F894DEBF0FBECDBF09942A883988488847
:105800005F846E847D848C849B84AA84B984C884DC
:10581000DF80EE80FD800C811B81AA81B981CE0FD3
:10582000D11D0FB6F894DEBF0FBECDBFED010895B8
:10583000A1E21A2EAA1BBB1BFD010DC0AA1FBB1F94
:10584000EE1FFF1FA217B307E407F50720F0A21B06
:10585000B30BE40BF50B661F771F881F991F1A9473
:1058600069F760957095809590959B01AC01BD019D
:10587000CF010895A29FB001B39FC001A39F700DF7
:10588000811D1124911DB29F700D811D1124911D48
:105890000895DB018F939F930E94CE2BBF91AF9110
:1058A000A29F800D911DA39F900DB29F900D11247A
:1058B0000895991B79E004C0991F961708F0961B6C
:1058C000881F7A95C9F78095089597FB072E16F4DF
:1058D000009407D077FD09D00E94CB2D07FC05D09E
:1058E0003EF4909581959F4F0895709561957F4FF7
:1058F0000895EE0FFF1F0590F491E02D0994DF93BA
:10590000CF931F930F939A9DF02D219FF00D8B9DA8
:10591000F00D8A9DE02DF10D039FF00D029FE00D2B
:10592000F11D4E9DE00DF11D5E9DF00D4F9DF00DA2
:105930007F936F93BF92AF925F934F93D5010E9475
:105940003A2C8B01AC01D7010E943A2CEB01E80FF5
:10595000F91FD6010E94CE2C2F913F91D6010E94B3
:105960003A2CC60FD71FE81FF91FAF91BF910E94B5
:10597000CE2C2F913F910E943A2CC60FD71FE81FC3
:10598000F91FD6010E943A2CE60FF71F9801BE01BD
:10599000CF010F911F91CF91DF9108950E943A2C72
:1059A000460F571FC81FD91F08F4319608956894F1
:1059B00001C0E894F92FF12B12F00C940B2DA0E00C
:1059C000B0E0E5EEFCE20C94E72B092E059422F4FE
:1059D0000E94672D112392F4F0E80F26FFEFE09468
:1059E000F09400951095B094C094D094A194BF0AFF
:1059F000CF0ADF0AEF0AFF0A0F0B1F0B0E94162DBA
:105A000007FC0E94672DCDB7DEB7ECE00C94032CA9
:105A1000689401C0E8948F929F92CF93DF930E9485
:105A2000162DDF91CF919F908F900895882499240F
:105A3000F401E401B0E49F93AA279A158B049C0417
:105A4000ED05FE05CF05D007A10798F4AD2FDC2F9B
:105A5000CF2FFE2FE92D982C892E982F872F762F68
:105A6000652F542F432F322F2227B85031F7BF9183
:105A700027C01B2EBF91BB27220F331F441F551F6A
:105A8000661F771F881F991F881C991CEE1FFF1F18
:105A9000CC1FDD1FAA1FBB1F8A149B04EC05FD054C
:105AA000CE05DF05A007B10748F08A189B08EC096E
:105AB000FD09CE09DF09A00BB10B21601A94E1F6B4
:105AC0002EF49401AF01BE01CD01000C0895609544
:105AD00070958095909530954095509521953F4FC4
