:100000000C9462020C948A020C948A020C948A0268
:100010000C948A020C948A020C948A020C948A0230
:100020000C948A020C948A020C948A020C948A0220
:100030000C948A020C948A020C948A020C948A0210
:100040000C94BE140C948A020C942E150C94081572
:100050000C948A020C948A020C948A020C948A02F0
:100060000C9460150C948A0200407A10F35A00A098
:10007000724E18090010A5D4E80000E87648170071
:1000800000E40B54020000CA9A3B000000E1F505B1
:10009000000080969800000040420F000000A086FB
:1000A00001000000102700000000E803000000002D
:1000B0006400000000000A000000000001000000D1
:1000C00000002C76D888DC674F0823DFC1DFAE59EB
:1000D000E1B1B796E5E3E453C63AE651997696E87E
:1000E000E6C28426EB898C9B62ED407C6FFCEFBC02
:1000F0009C9F40F2BAA56FA5F490055A2AF75C932D
:100100006B6CF9676DC11BFCE0E40D47FEF520E662
:10011000B500D0ED902E0300943577050080841E45
:10012000080000204E0A000000C80C333333330FA0
:10013000986E12831141EF8D2114893BE65516CF3D
:10014000FEE6DB18D1844B381BF77C1D901DA4BB49
:10015000E424203284725E228100C9F124ECA1E5FE
:100160003D27207F0101000000000000000000008A
:10017000005E0000000000000600000600000024F1
:100180007E24247E240000246B2A2A6B1200004661
:1001900026100864620000344A4A542050000000CF
:1001A0000000060000000000003C420000000000CB
:1001B00000423C000000002A1C3E1C2A00000008EF
:1001C000083E080800000000403000000000000861
:1001D0000808080808000000004000000000004077
:1001E000201008040200003C62524A463C000040D5
:1001F000447E404000000064525252524C000024A1
:10020000424A4A4A340000382422227E2000002E2E
:100210004A4A4A4A3200003C4A4A4A4A30000002EE
:100220000262120A060000344A4A4A4A3400000CAC
:10023000525252523C000000002400000000000016
:1002400040240000000000000814220000000014F8
:1002500014141414140000000022140800000004F8
:1002600002520A0400000018245A5A241800007C84
:10027000121212127C00007E4A4A4A4A3400003CA4
:10028000424242422400007E424242423C00007E02
:100290004A4A4A424200007E0A0A0A020200003C20
:1002A000424252523400007E080808087E000000D6
:1002B000427E420000000020404040403E00007E60
:1002C000080808146200007E404040404000007E64
:1002D000040808047E00007E040810207E00003C14
:1002E000424242423C00007E121212120C00003CBC
:1002F000425262423C00007E121212324C00002434
:100300004A4A4A4A30000002027E02020000003ED1
:10031000404040403E00001E204040201E00007E25
:10032000201010207E0000422418182442000002F1
:10033000047804020000004262524A464200000073
:100340007E4242000000000204081020400000002D
:100350000042427E00000000000402040000808091
:100360008080808080800000000204000000002067
:10037000545454780000007E48484830000000384B
:1003800044444428000000304848487E00000038BB
:100390005454544800000000087C0A020000001871
:1003A000A4A4A47C0000007E0808087000000000DF
:1003B000487A4000000000408080887A0000007E7B
:1003C0001010284400000000427E40000000007C25
:1003D000047804780000007C0404047800000038ED
:1003E00044444438000000FC4444443800000038D1
:1003F000444444FC0000007C08040404000000485D
:100400005454542400000000043E44000000003C0A
:100410004040207C0000001C2040201C0000001CEC
:10042000601C601C00000044281028440000001CD0
:10043000A0A0A07C0000004464544C4400000000D4
:10044000083641000000000000FF0000000000002E
:1004500041360800000008040408101008000000DD
:1004600000000000000000000000240027002A0017
:1004700000000000250028002B00000000002300E1
:100480002600290000000008000201000003040704
:10049000000000000000000004040404040404043C
:1004A000020202020202030303030303010204081F
:1004B00010204080010204081020010204081020CE
:1004C0007F163B2311241FBECFEFD8E0DEBFCDBF88
:1004D00012E0A0E0B1E0E4ECF6E502C005900D9278
:1004E000AA36B107D9F727E0AAE6B2E001C01D920B
:1004F000A734B207E1F712E0C1E6D2E004C02197C9
:10050000FE010E94F229C036D107C9F70E948E1859
:100510000C94552B0C94000080E0089508950895E4
:100520009B01DC011896ED91FC9141E067E1099493
:10053000DC011696ED91FC9130E020E040E069E1AD
:100540000994DC011696ED91FC9130E020E040E04A
:1005500068E109949A01DC011696ED91FC91462F11
:1005600067E10994462FDC011696ED91FC9130E08D
:1005700020E066E10994462FDC011696ED91FC918E
:1005800030E020E065E10994DC011896ED91FC91E2
:1005900030E020E040E069E10994DC011896ED913B
:1005A000FC9130E020E040E068E10994CF93DF93D4
:1005B0001F92CDB7DEB76983BE016F5F7F4F0E9488
:1005C00090020F90DF91CF910895EF92FF921F93C9
:1005D000CF93DF93EC01162F7A010E94CD0260E4E5
:1005E000CE010E94D602E885F9859701412F67E187
:1005F000CE010995CE01DF91CF911F91FF90EF9031
:100600000C94C402EF92FF921F93CF93DF93EC01FF
:10061000142F7901663181F138F4643109F44BC04B
:10062000653179F080E022C06831C9F150F169315B
:10063000C9F780913303882391F1CE010E94C4024F
:100640002EC080913303882319F0CE010E94C4028A
:10065000CE010E94CD0260E0CE010E94D602612F41
:10066000CE010E94D60281E080933303DF91CF91C7
:100670001F91FF90EF900895642F0E94D60281E0B1
:10068000F5CF80913303882319F0CE010E94C40274
:10069000A701193138F4612FCE010E94E5021092B2
:1006A0003303EDCF68E1CE010E94E502185188E1E5
:1006B000E80EF11CEDCF8E898F3F11F488E78E8B09
:1006C000E885F9859701412F64E1CE01DF91CF9153
:1006D0001F91FF90EF900994833081F028F48130CE
:1006E00099F08230A9F008958730A9F08830C9F0D8
:1006F0008430B1F4809180008F7D03C080918000B0
:100700008F7780938000089584B58F7784BD089596
:1007100084B58F7DFBCF8091B0008F778093B00040
:1007200008958091B0008F7DF9CF1F93CF93DF9311
:10073000282F30E0F901EC57FB4F8491F901E45583
:10074000FB4FD491F901E856FB4FC491CC23A9F09B
:10075000162F81110E946C03EC2FF0E0EE0FFF1FAB
:10076000E059FB4FA591B4918FB7F894EC9111111A
:1007700008C0D095DE23DC938FBFDF91CF911F910E
:100780000895DE2BF8CFCF93DF9390E0FC01E45582
:10079000FB4F249188569B4FFC0184918823D1F014
:1007A00090E0880F991FFC01EA59FB4FA591B49185
:1007B000FC01E059FB4FC591D491623071F49FB7B1
:1007C000F8943C91822F809583238C93E8812E2B83
:1007D00028839FBFDF91CF9108958FB7F894EC9154
:1007E0002E2B2C938FBFF6CF3FB7F89480912F0319
:1007F00090913003A0913103B091320326B5A89BAC
:1008000005C02F3F19F00196A11DB11D3FBFBA2FA2
:10081000A92F982F8827BC01CD01620F711D811D62
:10082000911D42E0660F771F881F991F4A95D1F7E7
:1008300008958F929F92AF92BF92CF92DF92EF92E4
:10084000FF926B017C010E94F4034B015C01C11417
:10085000D104E104F104B9F00E94F40368197909A4
:100860008A099B09683E73408105910580F321E068
:10087000C21AD108E108F10888EE880E83E0981EBC
:10088000A11CB11CE4CFFF90EF90DF90CF90BF9000
:10089000AF909F908F9008950F931F93CF93DF9306
:1008A000EC01862F642F8C3208F03AC08A3208F0AF
:1008B00060C0883209F44BC0893209F460C08034CA
:1008C00008F475C0982F9F73FE01E90FF11D868D06
:1008D0008F3F09F44EC0903108F436C0282F30E025
:1008E000F901EC57FB4F8491F901E455FB4F04915A
:1008F000F901E856FB4F1491112379F081110E9400
:100900006C03E12FF0E0EE0FFF1FE658FB4FA591BF
:10091000B491EC910E2381E009F480E0898F29C025
:100920008D3299F108F4CBCF94EB980F923008F008
:10093000C6CF8F73C80FD11D8E8D411134C061E0B9
:100940000E94C30360E08E8D0E94950312C08E0149
:10095000025E1F4FD0E0F80181918F018F3F31F08F
:1009600061E0D03108F062E00E94C303DF5FD6315E
:1009700091F781E0DF91CF911F910F91089570E081
:1009800090E080E00E941904F4CF85E090E04330CD
:1009900010F082E090E0880F991F880F991F05974B
:1009A0000197F1F7E6CF62E00E94C303E2CF80E057
:1009B000E1CF2FB7F89460912B0370912C038091B5
:1009C0002D0390912E032FBF089508950895AF929F
:1009D000BF92CF92DF92EF92FF920F931F93CF932C
:1009E000DF936C017B018B01040F151FEB015E018E
:1009F000AE18BF08C017D10759F06991D601ED9123
:100A0000FC910190F081E02DC6010995892B79F7C1
:100A1000C501DF91CF911F910F91FF90EF90DF9073
:100A2000CF90BF90AF900895FC01538D448D252F3A
:100A300030E0842F90E0821B930B541710F0CF9678
:100A4000089501970895FC01918D828D981761F0AA
:100A5000A28DAE0FBF2FB11D5D968C91928D9F5FC1
:100A60009F73928F90E008958FEF9FEF08958F927C
:100A70009F92AF92BF92CF92DF92EF92FF920F932D
:100A80001F93CF93DF937C018C01060F171FEC019E
:100A90006E01CE18DF080C171D0759F10E94D9040A
:100AA0006093B4037093B5038093B6039093B70338
:100AB0008CEA93E00E94230597FF29C00E94D90485
:100AC0008090B4039090B503A090B603B090B703A4
:100AD000681979098A099B098090B0039090B10345
:100AE000A090B203B090B303681579058A059B0501
:100AF000F8F2C601DF91CF911F910F91FF90EF9017
:100B0000DF90CF90BF90AF909F908F900895899382
:100B1000BFCFFC01918D828D981731F0828DE80F47
:100B2000F11D858D90E008958FEF9FEF0895FC01F2
:100B3000918D228D892F90E0805C9F4F821B9109BF
:100B40008F7399270895CF92DF92EF92FF920F93C0
:100B50001F93CF9360E08091C5040E94950361E0EC
:100B60008091C6040E94950364E670E080E090E006
:100B70000E9419044CE050E06BED76E08CEA93E0C3
:100B80000E94E7040E94D9046B017C010E94D904F1
:100B90006C197D098E099F090091B0031091B10372
:100BA0002091B2033091B303601771078207930756
:100BB000D0F48CEA93E00E949705892B39F3C1E0C9
:100BC00064E670E080E090E00E941904CC2391F28A
:100BD0008CEA93E00E949705892B39F08CEA93E028
:100BE0000E942305F5CFC0E0EBCF8091C504909122
:100BF000C10661E0911101C060E00E94950360E0D0
:100C00008091C6040E94950364E670E080E090E065
:100C1000CF911F910F91FF90EF90DF90CF900C94A8
:100C200019048CEA93E00E94970521E0892B09F4CE
:100C300020E0822F089580E090E0892B29F00E9427
:100C4000110681110C9400000895FC01A48DA80FD9
:100C5000B92FB11DA35ABF4F2C91848D90E00196FE
:100C60008F739927848FA689B7892C93A089B1891E
:100C70008C91837080648C93938D848D981306C0BF
:100C80000288F389E02D80818F7D80830895EF9223
:100C9000FF920F931F93CF93DF93EC0181E0888F36
:100CA0009B8D8C8D98131AC0E889F989808185FF06
:100CB00015C09FB7F894EE89FF896083E889F989A8
:100CC00080818370806480839FBF81E090E0DF91AA
:100CD000CF911F910F91FF90EF900895F62E0B8DFD
:100CE00010E00F5F1F4F0F731127E02E8C8D8E11B8
:100CF0000CC00FB607FCFACFE889F989808185FF1F
:100D0000F5CFCE010E942506F1CFEB8DEC0FFD2F24
:100D1000F11DE35AFF4FF0829FB7F8940B8FEA89D9
:100D2000FB8980818062CFCFCF93DF93EC01888DE8
:100D30008823B9F0AA89BB89E889F9898C9185FD56
:100D400003C0808186FD0DC00FB607FCF7CF8C91E4
:100D500085FFF2CF808185FFEDCFCE010E94250671
:100D6000E9CFDF91CF9108950F931F93E091B906DA
:100D7000F091BA06ED53FA4F8091BB0680838CEA5E
:100D800093E00E9494060E94D9040091BD06109140
:100D9000BE062091BF063091C0066017710782071A
:100DA000930788F34091B9065091BA068091BB062B
:100DB0009091BC06480F591F64EC75E08CEA93E0F3
:100DC0000E94E7040E94D9042091B9063091BA0626
:100DD0004091BB065091BC06240F351FE8E2E29F0C
:100DE000A001E39F500D1124640F751F811D911DFB
:100DF0006093BD067093BE068093BF069093C006B5
:100E00001F910F910895CF92DF92EF92FF920F936F
:100E10001F93CF93DF936C01EB017B01E40EF51E72
:100E200010E000E0CE15DF0561F06991D601ED918B
:100E3000FC910190F081E02DC6010995080F191F62
:100E4000F1CFC801DF91CF911F910F91FF90EF90EB
:100E5000DF90CF900895FC014481558160817181BC
:100E600087E694E00C940307DC011A96ED91FC915F
:100E700030E020E00994EF92FF920F931F93CF93FD
:100E8000DF931F92CDB7DEB77C018B01D8016C9147
:100E9000673129F150F46531A0F40F90DF91CF91C3
:100EA0001F910F91FF90EF9008956A3118F16E3FF6
:100EB000A1F7F8014181498369E2C7010E94340723
:100EC0000BC0F80141814983D7011696ED91FC9141
:100ED00030E020E0C70109950E5F1F4FD7CFF80122
:100EE00081818983AE014F5F5F4F61E0C7010E943E
:100EF000AA02F2CF0F5F1F4FD7011696ED91FC911A
:100F000030E020E040E0C7010995C0CFEF92FF92AA
:100F10000F931F93CF93DF93EC01042F79016D3072
:100F200009F446C050F46B30C9F1693009F49FC030
:100F30006A3009F465C080E046C06E3009F452C0E2
:100F40006F3099F70E94A102F7011381110F110F61
:100F5000110F6C89160F60E4CE010E94BB02612F55
:100F600062956F706061CE010E94BB02612F6F704D
:100F7000CE010E94B202F7016481606BCE010E9433
:100F8000B202F701408151816281660F660F660FE0
:100F9000CE010E94AA020150A1F72EC06CE371E0BD
:100FA000442311F067E371E0CE010E943B070AC0C1
:100FB000411110C060E371E00E943B07E881F981B4
:100FC00082898C8B81E0DF91CF911F910F91FF90EF
:100FD000EF90089569E271E00E943B07E881F98192
:100FE0008389EFCF0E94A10261E8CE010E94BB027B
:100FF000602FCE010E94B202CE010E949802E2CF81
:10100000EA85FB8530E020E040E068E2CE0109950A
:10101000EE81FF8130E020E040E064E1CE010995FF
:1010200041E06BE4CE010E943407E881F9814481FC
:1010300069E2CE010E94340740E06BE4CE010E94D9
:101040003407E881F981448169E2CE010E943407C6
:1010500041E06BE4CE010E943407E881F9814581CB
:1010600069E2CE010E94340761E471E09DCF86E71A
:1010700091E0998388831C8AA5CFCF92DF92FF925B
:101080000F931F93CF93DF9300D000D01F92CDB763
:10109000DEB78C011C8281E08B837A836983D8015F
:1010A000ED91FC91F1881D82F801A081B181C4808D
:1010B000D5809E012F5F3F4F50964C916FE0C80145
:1010C000F60109958D818F5F8D838F1568F30F90E1
:1010D0000F900F900F900F90DF91CF911F910F9174
:1010E000FF90DF90CF900895CF93DF93EC01A88914
:1010F000B989FD013491319694913196849113967A
:10110000FD01A4916317A8F1961798F1631B770B63
:101110008A9FE02D1124E69FC001E79F900D1124C6
:10112000280F392F311D83E0220F331F8A95E1F7F5
:10113000C9010496DA01245F3F4FE889F989E80F75
:10114000F91FE491ED93019682179307B1F78D890A
:10115000882361F0FA019A01285F3F4F8191DF01F6
:10116000119780958C932E173F07C1F7DF91CF9190
:101170000895FA01CA0108961192E817F907E1F7F4
:10118000E6CF2F923F924F925F926F927F928F9213
:101190009F92AF92BF92CF92DF92EF92FF920F9306
:1011A0001F93CF93DF93CDB7DEB72D970FB6F8948B
:1011B000DEBF0FBECDBFDC015496ED91FC9155977B
:1011C000D996DC90D997CF0103966A3019F5FC01C6
:1011D0008491D80ED996DC92D997D8961C9281E04A
:1011E00090E02D960FB6F894DEBF0FBECDBFDF9115
:1011F000CF911F910F91FF90EF90DF90CF90BF9014
:10120000AF909F908F907F906F905F904F903F90A6
:101210002F90089532962490D8965C90D8975D01CF
:1012200024E0A20EB11CF490FC01E490352C3F0C9C
:10123000ED0C81E0850D381610F4FF24F394C62ED2
:101240008D01612CCE0101964C01462C752C242D6C
:10125000A4016C2DC5010E9474087C86DD8691E096
:101260009B879A868986D8011896ED91FC919E01FC
:10127000275F3F4F41E06FE0C501099543947394A8
:10128000731428F3D3946F0CDE14F8F2F80180ADD8
:10129000820D80AFA4CF089508952091AF02260F4C
:1012A0003327331F21323105ECF420918003FC01F8
:1012B00090E080E0243069F082E00895A091AF02D0
:1012C0002191AC0141575D4FA40FB52FB11D2C9357
:1012D0000196861798F38091AF02680F6093AF0272
:1012E00080E0089581E008951092800381E080936A
:1012F0007F0310925A0361E082E10E94950361E04E
:1013000083E10E949503E9EBF0E080818E7F80838A
:1013100080818D7F808388E48093B80085E480930A
:10132000BC0008951092390310923803109287037D
:101330001092A9030E9474098EE892E090933703FB
:10134000809336038FE892E09093350380933403C3
:101350000895CF93DF9391E090938E028823B9F0A4
:10136000C091B800D091BA008091BC008A7B809374
:10137000BC0060E082E10E94950360E083E10E948E
:1013800095030E947409D093BA00C093B800DF910E
:10139000CF9108958F929F92AF92BF92CF92DF929A
:1013A000EF92FF920F931F93CF93DF93D091A903F6
:1013B000D13208F0D7C0182FC091A8030E94F403BF
:1013C0006B017C018091800381116BC082E080936E
:1013D000800310937F038FEF80937E0310927D0331
:1013E000D0937C03A8E8B3E0ECE5F3E080E0D81309
:1013F00091C010925B0380915B03CC0FC82BC0930C
:101400005B0380915A03813009F088C010925A031F
:101410000E94F4036B017C0180915B038093BB000D
:101420008091820390918303A0918403B0918503FE
:10143000892B8A2B8B2BA1F00E94F403009182034D
:101440001091830320918403309185036C197D09E9
:101450008E099F09061717072807390708F442C0A5
:101460008091BC0083FDD8CF85EC8093BC000E94A6
:10147000F4036B017C0180918003823009F450C039
:1014800080917E038F3F09F46FC080917E0380328C
:1014900009F46CC080917E03803309F469C084E054
:1014A00026C08091820390918303A0918403B09120
:1014B0008503892B8A2B8B2B09F484CF0E94F4039C
:1014C0008090820390908303A0908403B090850362
:1014D0006C197D098E099F0986169706A806B9061C
:1014E00008F070CF809181030E94A90985E01092D5
:1014F00087031092A90310928603DF91CF911F9169
:101500000F91FF90EF90DF90CF90BF90AF909F90A2
:101510008F9008959D9191938F5F69CF85EEA5CFB0
:101520008091820390918303A0918403B0918503FD
:10153000892B8A2B8B2B09F49ECF0E94F4030091F8
:1015400082031091830320918403309185036C19E9
:101550007D098E099F09061717072807390708F024
:101560008ACFC0CF81E0C3CF80E0C1CF82E0BFCFC0
:1015700083E0BDCFCF93DF93EA01DC0111968D911B
:101580009C91DC01ED91FC910280F381E02D0995A5
:10159000C817D90729F481E00E94CA0991E0811196
:1015A00090E0892FDF91CF910895CF93DF93EC01E5
:1015B0008B818823A1F0888191E0909386038093AA
:1015C000A803109287031092A90381E00E94CA0920
:1015D00091E0811190E0892FDF91CF9108950E94D1
:1015E000920981E08B83CE010E94D50A982F811148
:1015F000E2CFF1CFE091390380913803E81730F45E
:10160000F0E0E65CFC4F808190E008958FEF9FEF63
:10161000089590913903809138032FEF3FEF981789
:1016200048F4E92FF0E0E65CFC4F208130E09F5F5A
:1016300090933903C901089580913803909139033B
:10164000891B990B0895CF92DF92EF92FF920F932F
:101650001F93CF93DF937C01CB018A0120918603F6
:10166000222389F0EB016B01C40ED51ECC15DD05DC
:1016700069F06991D701ED91FC910190F081E02D25
:10168000C7010995F3CF642F0E944D09C801DF916E
:10169000CF911F910F91FF90EF90DF90CF90089521
:1016A000CF93DF93EC01962F683189F1B90199311D
:1016B00030F4943199F0973159F080E006C09931B7
:1016C00009F447C09032C9F781E0DF91CF910895C6
:1016D00050E081EA94E00E94230BF6CF8C859D8533
:1016E000AE85BF85892B8A2B8B2B71F4E881F9811C
:1016F000A585B0E020EA36E841E050E00E94632989
:101700006C877D878E879F870E949209DDCF2C850D
:101710003D854E855F8560E074E284EF90E00E9435
:10172000AD29205131094109510956954795379501
:1017300027952093B8008E8990E09595879591E044
:10174000909386038093A803109287031092A903B5
:10175000BBCF81E00E94CA09B7CFCF93DF931F921E
:10176000CDB7DEB76983209186032223F9F020915B
:10177000A903203258F021E030E0FC0133832283BA
:1017800090E080E00F90DF91CF91089580918703E2
:10179000E82FF0E0E857FC4F998190838F5F8093AA
:1017A00087038093A90381E090E0ECCF61E0CE0154
:1017B00001960E944D09F7CF90E080E008952F92A6
:1017C0003F924F925F926F927F928F929F92AF92D1
:1017D000BF92CF92DF92EF92FF920F931F93CF931E
:1017E000DF935C011B016A01F12CE12CD5011496F9
:1017F0008D919C9186010E191F098017910708F49D
:101800008C01F501D0810E94F4032B013C018091F1
:101810008003811172C0C02F013208F0C0E2F1E0F4
:10182000F093800321E0C601801B910BE816F906B6
:1018300008F420E020937F038FEF80937E031092C3
:101840007D038C0F80937C03A1E0A0935B038091C8
:101850005B03DD0FD82BD0935B0380915A0381305B
:1018600009F090C010925A030E94F4032B013C012E
:1018700080915B038093BB008091820390918303EE
:10188000A0918403B0918503892B8A2B8B2BA1F027
:101890000E94F403209182033091830340918403DA
:1018A000509185036419750986099709261737072A
:1018B0004807590708F442C08091BC0083FDD8CF87
:1018C000B5ECB093BC000E94F4032B013C01809165
:1018D0008003813009F45AC080917D038C1710F485
:1018E000C0917D03ACE5B3E0EAE3F3E080E08C1760
:1018F00051F19D9191938F5FFACF809182039091E6
:101900008303A0918403B0918503892B8A2B8B2BB1
:1019100009F47DCF0E94F403209182033091830368
:1019200040918403509185036419750986099709CC
:10193000261737074807590708F069CF80918103B8
:101940000E94A909C0E010923903C0933803C01760
:10195000110609F057C041018E0C9F1CE401CE0115
:10196000881999098017910798F5D50111968D91DD
:101970009C91DC01ED91FC910284F385E02D0995A9
:101980008993EDCFE5EEE093BC009DCF809182037B
:1019900090918303A0918403B0918503892B8A2BB6
:1019A0008B2B09F494CF0E94F40320918203309191
:1019B0008303409184035091850364197509860956
:1019C0009709261737074807590708F080CFB6CF81
:1019D000E00EF11EEC14FD0408F408CF81E0DF9165
:1019E000CF911F910F91FF90EF90DF90CF90BF901C
:1019F000AF909F908F907F906F905F904F903F90AF
:101A00002F90089580E0EBCFCF93DF931F92CDB757
:101A1000DEB741E050E0BE016F5F7F4FFC0184857F
:101A200095850E94DF0B882329F089810F90DF9133
:101A3000CF9108958FEFFACF8F929F92AF92BF927E
:101A40000F931F93CF93DF93CDB7DEB7A1970FB658
:101A5000F894DEBF0FBECDBF19A2423008F44AE0B1
:101A60008E010F5D1F4F842E912CB12CA12CA5014E
:101A700094010E94AD29E62FB901CA01EA3044F56C
:101A8000E05DD801EE938D01232B242B252B79F7D4
:101A900090E080E0109769F0FD0101900020E9F7E7
:101AA0003197AF014A1B5B0BBD0187E694E00E94B2
:101AB0000307A1960FB6F894DEBF0FBECDBFDF912E
:101AC000CF911F910F91BF90AF909F908F900895ED
:101AD000E95CD7CFCF92DF92EF92FF92CF93DF9363
:101AE00097FF1BC06B017C016DE287E694E00E94CA
:101AF000C108EC0166277727CB016C197D098E0997
:101B00009F094AE00E941C0D8C0F9D1FDF91CF9111
:101B1000FF90EF90DF90CF9008954AE0DF91CF9152
:101B2000FF90EF90DF90CF900C941C0DFC01019082
:101B30000020E9F73197AF01481B590BBC0187E63C
:101B400094E00C940307CF93DF932091BB06309170
:101B5000BC06A901460F571F403F5105B8F4EB01E1
:101B6000BC018091B9069091BA06820F931FAE0115
:101B70008C539A4F0E94362B6091BB067091BC0625
:101B8000C60FD71FD093BC06C093BB06DF91CF9181
:101B900008951616170614F40C94A30D0895CF9308
:101BA000DF9300D0CDB7DEB79A83898362E070E01F
:101BB000CE0101960E94C90D0F900F90DF91CF9139
:101BC0000895AF92BF92CF92DF92EF92FF920F9360
:101BD0001F93CF93DF931F92CDB7DEB75C01FC015B
:101BE0008481898361E070E0CE0101960E94A30D9B
:101BF000C980D12CC60101960E94E3237C01009785
:101C0000B1F0F50104811581FC010115110571F098
:101C1000C016D10608F48601F50160817181A80122
:101C2000C7010E94462BF701E00FF11F1082B60199
:101C3000C7010E94C90DE114F10471F0C7010F90B2
:101C4000DF91CF911F910F91FF90EF90DF90CF9098
:101C5000BF90AF900C947F240F90DF91CF911F9194
:101C60000F91FF90EF90DF90CF90BF90AF900895CD
:101C70000F931F93CF93DF93182F092F1092BC0659
:101C80001092BB061092BA061092B90683E090E05B
:101C90000E94E323EC01088319831A8263E070E059
:101CA0000E94A30D209719F0CE010E947F2410926C
:101CB000BC061092BB0684E090E09093BA06809335
:101CC000B906DF91CF911F910F910895CF93DF93C4
:101CD000EC0188819981009711F00E947F2419827C
:101CE00018821D821C821B821A82DF91CF91089577
:101CF000FC0180819181009711F00C947F2408955C
:101D00000C947F240C947F240F931F93CF93DF9325
:101D1000EC0188819981009759F02A813B8126172F
:101D2000370730F081E0DF91CF911F910F91089537
:101D30008B016F5F7F4F0E94792A009759F099833A
:101D400088831B830A832C813D81232B59F7FC0157
:101D50001082E8CF80E0E7CFEF92FF920F931F93BE
:101D6000CF93DF936115710541F480E0DF91CF914E
:101D70001F910F91FF90EF90089541155105B1F01B
:101D80007B01EC010C811D81040F151FB8010E941D
:101D9000840E882351F3288139818C819D81B7017C
:101DA000820F931F0E943F2B1D830C8381E0DECFA7
:101DB000CF93DF93EC01FB0101900020E9F731970D
:101DC000AF01461B570B0E94AC0E811103C0CE0120
:101DD0000E94660ECE01DF91CF910895CF93DF93DD
:101DE000EC01FB0144815581608171810E94AC0E40
:101DF000811103C0CE010E94660ECE01DF91CF910A
:101E00000895EF92FF920F931F93CF93DF93CDB777
:101E1000DEB764970FB6F894DEBF0FBECDBF7C016E
:101E2000CB01BA018E010F5F1F4F22E044E00E94F8
:101E3000C523FC0101900020E9F73197AF01481B51
:101E4000590BBC01C7010E94AC0E64960FB6F89402
:101E5000DEBF0FBECDBFDF91CF911F910F91FF90DD
:101E6000EF900895EF92FF920F931F93CF93DF931C
:101E7000CDB7DEB728970FB6F894DEBF0FBECDBF43
:101E80007C01CB014AE08E010F5F1F4FB8010E9419
:101E9000AC25F80101900020E9F73197AF01401B14
:101EA000510BB801C7010E94AC0E28960FB6F894EA
:101EB000DEBF0FBECDBFDF91CF911F910F91FF907D
:101EC000EF900895EF92FF920F931F93CF93DF93BC
:101ED000EC017B018A01BA010E94840E81110BC0C2
:101EE000CE010E94660ECE01DF91CF911F910F911E
:101EF000FF90EF9008951D830C83B701888199812D
:101F00000E943F2BF0CFEF92FF920F931F93CF933E
:101F1000DF93CDB7DEB762970FB6F894DEBF0FBE82
:101F2000CDBF8C01CB01F801118210821382128285
:101F3000158214824AE09E012F5F3F4F7901B9015B
:101F40000E94AC25F70101900020E9F73197AF011D
:101F50004E195F09B701C8010E94620F62960FB661
:101F6000F894DEBF0FBECDBFDF91CF911F910F91CF
:101F7000FF90EF900895CF93DF93EC01FB0186175C
:101F8000970749F0608171816115710541F04481C5
:101F900055810E94620FCE01DF91CF9108950E947A
:101FA000660EF9CF20913507309136074091E7064C
:101FB0005091E80624173507ACF5BC01220F331FFA
:101FC0008091E9069091EA06280F391F8AEA93E08A
:101FD000F90191838083209135073091360746E0DF
:101FE000429FC001439F900D11242091EB06309138
:101FF000EC06820F931F0E94BB0FE091ED06F0915B
:10200000EE068091350790913607E80FF91F84E0BE
:10201000808380913507909136070196909336071B
:102020008093350708952091350730913607409108
:10203000E7065091E8062417350794F5220F331F61
:102040004091E9065091EA06240F351FF90191836A
:102050008083209135073091360746E0429FC001CA
:10206000439F900D11242091EB063091EC06820FD6
:10207000931F0E94BB0FE091ED06F091EE06809158
:10208000350790913607E80FF91F87E0808380912C
:102090003507909136070196909336078093350760
:1020A0000895FC011182108213821282158214821B
:1020B0000C94BB0FEF92FF920F931F93CF93DF937C
:1020C000CDB7DEB7A2970FB6F894DEBF0FBECDBF77
:1020D000162F009709F03AC08091FF0690910007F3
:1020E0000E94380E81E090E00E94CF0D90E080E0E9
:1020F0000E94CF0D1AA361E070E0CE0182960E948B
:10210000C90D8091230790912407A0912507B091D4
:1021100026078B8F9C8FAD8FBE8F64E070E0CE0161
:102120004B960E94C90D1A3008F03EC0E12FF0E036
:10213000E456FF4E0C94F229A910C21000113A1176
:102140006211D4109411D410D410D2110E94380E00
:10215000CDCF80912D0790912E07A0912F07B091A0
:1021600030078F8B988FA98FBA8F64E070E0CE0113
:1021700047960E94C90D80912B0790912C070E94D1
:10218000CF0D12C08091270790912807A0912907B1
:10219000B0912A078B8B9C8BAD8BBE8B64E070E07B
:1021A000CE0143960E94C90D0E94B40680911D077E
:1021B00090911E07A0911F07B09120070196A11DC5
:1021C000B11D80931D0790931E07A0931F07B09326
:1021D00020070E94D9046093F9067093FA06809351
:1021E000FB069093FC06A2960FB6F894DEBF0FBED6
:1021F000CDBFDF91CF911F910F91FF90EF90089588
:1022000080910307909104072091090730910A07F4
:10221000821B930B880F991F880F991F20910D0720
:1022200030910E07820F931FFC0180819181A28162
:10223000B3818B879C87AD87BE8764E070E0CE0159
:102240000B960E94C90D80910307909104070E948C
:10225000CF0D80912D0790912E07A0912F07B0915F
:1022600030078F87988BA98BBA8B64E070E0CE0122
:102270000F9698CF80910507909106072091090746
:1022800030910A07821B930B880F991F880F991FA3
:1022900020910D0730910E07820F931FFC01808162
:1022A0009181A281B3818F839887A987BA8764E0DF
:1022B00070E0CE0107960E94C90D809101079091B0
:1022C00002075DCF8091270790912807A0912907E9
:1022D000B0912A0789839A83AB83BC8364E070E062
:1022E000CE0101960E94C90D8091070790910807C1
:1022F0000E94CF0D10E000E0809107079091080741
:102300000817190708F050CFC801880F991FE091EE
:102310000B07F0910C07E80FF91F808191810E9453
:10232000CF0D0F5F1F4FE8CF809135079091360793
:1023300098A38F8F62E070E0CE014F960E94C90D86
:10234000F12CE12C10E000E08091350790913607E8
:10235000081719070CF028CFE091ED06F091EE0672
:10236000E00FF11F808189A361E070E0CE018196CA
:102370000E94C90D6091EB067091EC066E0D7F1DF9
:10238000CE0101960E945110CE0101960E94E10DEE
:10239000CE0101960E94780E0F5F1F4FF6E0EF0E00
:1023A000F11CD2CF10E000E0809135079091360704
:1023B000081719070CF0F8CEE091ED06F091EE0643
:1023C000E00FF11FE081EE23D1F0A091E906B0917A
:1023D000EA06C801880F991FA80FB91F8D919C911B
:1023E000E93081F4BC01CE0101960E945110CE016A
:1023F00001960E94E10DCE0101960E94780E0F5FBA
:102400001F4FD2CF70E060E0EA3038F4F0E0EE0F1A
:10241000FF1FE257FE4F608171810E94C90DEFCF0F
:10242000FC011182108213821282158214826115BE
:10243000710551F0FB0101900020E9F73197AF01E0
:10244000461B570B0C94620F0895AF92BF92CF9228
:10245000DF92EF92FF920F931F93CF93DF9300D001
:1024600000D000D0CDB7DEB77A018C01060F171F60
:10247000F801C080D12CC6010E94E3235C01F80161
:10248000DC013196CD018A199B098C159D051CF440
:1024900080818D93F6CFB501CE0101960E94101276
:1024A000F701808191810097A1F169817A8161159D
:1024B000710569F1428153812D813E814217530795
:1024C00030F10E943F2B8D819E81F701958384839B
:1024D0001E821D82CE0101960E94780EA114B104C5
:1024E00019F0C5010E947F24C601019626960FB6F9
:1024F000F894DEBF0FBECDBFDF91CF911F910F913A
:10250000FF90EF90DF90CF90BF90AF9008950E9422
:102510007F2489819A81F701918380838B819C81BB
:10252000938382838D819E81958384831A8219820D
:102530001C821B82CDCF0F931F93CF93DF938C010F
:10254000EB0188E2FB0111928A95E9F74BE050E03C
:1025500062ED71E0CE010E94462B1B8681E090E087
:10256000A0E0B0E08C879D87AE87BF87F8018381AC
:102570009481092E000CAA0BBB0B888B998BAA8B1C
:10258000BB8B8DE090E0A0E0B0E08C8B9D8BAE8BA0
:10259000BF8B1CA21DA21EA21FA280E090E0A0E2A1
:1025A000B2EC8C8F9D8FAE8FBF8F80E090E0AAEA57
:1025B000B2E4888F998FAA8FBB8F8AE999E9A9E93C
:1025C000BEE388A399A3AAA3BBA3DF91CF911F91D8
:1025D0000F9108950F931F93CF93DF938C01EB011D
:1025E00088E2FB0111928A95E9F74BE050E06AED31
:1025F00071E0CE010E94462B1B8681E090E0A0E0B6
:10260000B0E08C879D87AE87BF87F8018381948176
:10261000092E000CAA0BBB0B888B998BAA8BBB8B4A
:102620008CE090E0A0E0B0E08C8B9D8BAE8BBF8BFC
:102630001CA21DA21EA21FA21C8E1D8E1E8E1F8EEE
:1026400080E090E0A8ECB2E4888F998FAA8FBB8FCE
:1026500080E090E0A0E0B0E488A399A3AAA3BBA384
:10266000DF91CF911F910F9108954F925F926F92DA
:102670007F92AF92BF92CF92DF92EF92FF920F9331
:102680001F93CF93DF93CDB7DEB729970FB6F8949A
:10269000DEBF0FBECDBF8C017B016A010E94D90451
:1026A0002B013C0180910A0190910B01A0910C013A
:1026B0008F839887A987D8011C968D919C91FC01E6
:1026C0002481358123303105B8F4B12C8B2D299626
:1026D0000FB6F894DEBF0FBECDBFDF91CF911F9133
:1026E0000F91FF90EF90DF90CF90BF90AF907F90D1
:1026F0006F905F904F900895208131E03093860372
:102700002093A803109287031092A90343E050E09E
:10271000BE01695F7F4F0E94BA0A8823B1F2C801E7
:102720000E94040D87FF07C06AE070E080E090E03F
:102730000E941904F4CF46E050E0BE016F5F7F4F66
:10274000F801848595850E94DF0BB82E882309F453
:10275000BCCF6A817B81762767277627CB01B0E0E3
:10276000A0E09C01AD0184E0220F331F441F551FE0
:102770008A95D1F7AC808A2D90E064E09595879595
:102780006A95E1F7092E000CAA0BBB0BBC01CD0129
:10279000622B732B842B952B0E94492820E030E07C
:1027A00048EC52E40E94862820E030E040E855E3FF
:1027B0000E948628D80114966D937D938D939C93E7
:1027C00017976A2D6F7070E090E080E0982F872F48
:1027D000762F66272D81622B982F872F762F6627DD
:1027E0002E81622B0E94492820E030E048E453E427
:1027F0000E94862820E030E040E855E30E948628C9
:1028000020E030E048E452E40E940C2AF8016083A2
:10281000718382839383C114D10481F1F6013496CC
:1028200080E2DF011D928A95E9F784E290E0A0E062
:10283000B0E0F60180839183A283B383D8011A9616
:102840008D919C91B0E0A0E084839583A683B783AB
:102850008DE090E0A0E0B0E080879187A287B38709
:10286000408A518A628A738AF80180819181A281AB
:10287000B381F601848B958BA68BB78BE114F104A1
:1028800009F424CFF701349680E2DF011D928A9586
:10289000E9F784E290E0A0E0B0E0F7018083918363
:1028A000A283B383D80118968D919C91B0E0A0E0EB
:1028B00084839583A683B7838DE090E0A0E0B0E0A9
:1028C00080879187A287B387408A518A628A738AF8
:1028D000F80184819581A681B781F701848B958B5E
:1028E000A68BB78BF3CEAB0170E060E0FC01858175
:1028F00096810E94351381E0089550E040E0FC018C
:10290000858196810E94351381E0089585ED80933D
:10291000BC008091820390918303A0918403B091C5
:1029200085030796A11DB11D23E0B695A795979540
:1029300087952A95D1F72091BC0024FD03C0109201
:102940008003089540918203509183036091840332
:1029500070918503452B462B472B69F30097A10502
:10296000B10541F025E32A95F1F700000197A1098F
:10297000B109E1CF809181030C94A9091F920F92B4
:102980000FB60F9211242F933F938F939F93AF9382
:10299000BF9380912B0390912C03A0912D03B091B4
:1029A0002E0330912A0323E0230F2D3758F501968B
:1029B000A11DB11D20932A0380932B0390932C0318
:1029C000A0932D03B0932E0380912F039091300399
:1029D000A0913103B09132030196A11DB11D8093E6
:1029E0002F0390933003A0933103B0933203BF9130
:1029F000AF919F918F913F912F910F900FBE0F90AC
:102A00001F90189526E8230F0296A11DB11DD2CF65
:102A10001F920F920FB60F9211242F933F934F9353
:102A20005F936F937F938F939F93AF93BF93EF9336
:102A3000FF938CEA93E00E942506FF91EF91BF91EE
:102A4000AF919F918F917F916F915F914F913F9146
:102A50002F910F900FBE0F901F9018951F920F92FD
:102A60000FB60F9211242F938F939F93EF93FF93A1
:102A7000E091BC03F091BD038081E091C203F0912D
:102A8000C30382FD1BC090818091C5038F5F8F734C
:102A90002091C603821741F0E091C503F0E0E455B0
:102AA000FC4F958F8093C503FF91EF919F918F917C
:102AB0002F910F900FBE0F901F9018958081F4CF2B
:102AC0001F920F920FB60F9211242F933F934F93A3
:102AD0005F936F937F938F939F93AF93BF93EF9386
:102AE000FF938091B900887F803609F44AC0F0F5E1
:102AF000883209F4A7C018F5803109F49BC0B8F4F6
:102B0000882309F4F9C0883009F494C0FF91EF914B
:102B1000BF91AF919F918F917F916F915F914F91F5
:102B20003F912F910F900FBE0F901F9018958831F5
:102B300009F488C0803251F780937E0314C080343A
:102B400009F49DC040F48033B9F38833F9F68093DB
:102B50007E0385ECB0C0803509F485C0883509F462
:102B600096C0883499F60E948614D0CF883909F42B
:102B70008CC038F5883729F050F4883611F080374A
:102B800029F683E0809380031092D10257C08838E1
:102B900009F47BC0803919F0803809F0B7CF8091F3
:102BA000D102803208F071C0E091D10281E08E0F35
:102BB0008093D1028091BB00F0E0EF54FD4F808301
:102BC0003DC0803B39F0E0F4803A09F479C0883A9E
:102BD00009F09CCF84E0809380031092B0021092A1
:102BE000AF02E0913603F091370309958091AF026F
:102BF00081110FC081E08093AF0210928F0209C053
:102C0000803C09F4A6CF883C09F4A3CF883B09F0A7
:102C10007DCFE091B00281E08E0F8093B002F0E0B2
:102C2000E157FD4F80818093BB009091B00280916D
:102C3000AF0229C080915B038093BB0085EC809339
:102C4000BC0064CF90917D0380917C03981758F568
:102C5000E0917D0381E08E0F80937D03F0E0E45AE4
:102C6000FC4F8081E9CFE0917D0381E08E0F80935E
:102C70007D038091BB00F0E0E45AFC4F808390918B
:102C80007D0380917C039817C8F285E8D8CFE09146
:102C90007D0381E08E0F80937D038091BB00F0E087
:102CA000E45AFC4F808380917F0381115CCF81E0E7
:102CB00080935A0384EA8093BC001092800326CF4D
:102CC00085EC8093BC00109280038091D102803209
:102CD00030F4E091D102F0E0EF54FD4F10826091AA
:102CE000D10270E0E0913403F091350381EB92E082
:102CF00009951092D1020ACF10927E0334CF0F9320
:102D00001F93CF931092AF031092AE0388EE93E01F
:102D1000A0E0B0E08093B0039093B103A093B2031E
:102D2000B093B30386EA91E09093AD038093AC0334
:102D300085EC90E09093B9038093B80384EC90E025
:102D40009093BB038093BA0380EC90E09093BD0313
:102D50008093BC0381EC90E09093BF038093BE030B
:102D600082EC90E09093C1038093C00386EC90E0E6
:102D70009093C3038093C2031092C5031092C603BD
:102D80001092C7031092C80310926A04109269044B
:102D900010929F041092A00488EB91E09093680435
:102DA0008093670410926C0410926B04109280045C
:102DB0001092830410927704109278041092790490
:102DC00010927A048FEF8093810480938504E9E860
:102DD000F4E08FE994E0CFEFC1938E179F07E1F7FE
:102DE00086E897E09093700480936F0482E093E00C
:102DF000909372048093710480E59BE09093740437
:102E0000809373048CE494E090937604809375042B
:102E100030E020E040E069E08BE694E00E94860725
:102E2000C0939404C0939504C093960483E0809368
:102E300059049BE090935A04EFEAF4E0E491E093A4
:102E40005B04EBE9F4E0E491E0935C0440E85EE3CA
:102E500060E070E040936104509362046093630407
:102E60007093640490E59093500410925104109272
:102E7000A4041092A30448EE53E060E070E0409395
:102E8000A5045093A6046093A7047093A80424ECAF
:102E900031E03093A2042093A1041092BB0510925C
:102EA000BA051092BF051092BE051092B806109296
:102EB000B7061092BC061092BB0690EC9093DB060E
:102EC0001092DC0699E09093DD061092CA061092EB
:102ED000C9061092DE061092DF061092CB06109201
:102EE000E0068093CC061092CD0622E02093CE0619
:102EF00092E69093E1061092CF069091E20610922E
:102F0000D0061092D1069C719093E2061092D206E0
:102F10001092E3061092D3061092D4061092D506B2
:102F20001092D6061092D7061092D8061092E40698
:102F30001092DA061092D9061092E5061092E60673
:102F40002093C5048093C60401E010E01093BD05F2
:102F50000093BC0562EE71E089E397E00E941012D5
:102F600010923F07109241071092400791E0909312
:102F7000420710921807C09317071092210710926A
:102F8000220740E157E260E070E04093F50650937D
:102F9000F6066093F7067093F8064FEF5FEFBA01FD
:102FA00040932307509324076093250770932607C7
:102FB00040932707509328076093290770932A07A7
:102FC00040932D0750932E0760932F07709330077F
:102FD0001092FD061092FE06109200071092FF0656
:102FE0002EEF3FEF30932C0720932B071092020710
:102FF000109201071092060710920507109204071D
:1030000010920307109208071092070710930A07FF
:103010000093090710920E0710920D0710920C07EB
:1030200010920B0710920F071092100710921107C1
:10303000109212071092130710921407109215079E
:10304000109216071092EA061092E9061092EC060A
:103050001092EB061092EE061092ED061092F0061A
:103060001092EF061092F2061092F1061092F406FA
:103070001092F3063093CA062093C906C093DE0669
:103080008EEF8093DF061092D2061092E306109224
:10309000CB061092E0069093D3068091E4069093BD
:1030A000D0062091E20620622093E2069093D60695
:1030B0009093D4061092CE069091E106987F90935B
:1030C000E1061092D7061092D8068072806D809328
:1030D000E4061092190710921A0710921B0710921B
:1030E0001C0710921D0710921E0710921F071092C6
:1030F00020071092C0041092BF041092C2041092D4
:10310000C1041092C4041092C3046FE472E08DEA0B
:1031100094E0CF911F910F910C941012CF93DF93F5
:10312000CDB7DEB7A1970FB6F894DEBF0FBECDBF07
:10313000789484B5826084BD84B5816084BD85B592
:10314000826085BD85B5816085BD80916E0081609E
:1031500080936E0010928100809181008260809344
:103160008100809181008160809381008091800046
:103170008160809380008091B10084608093B10071
:103180008091B00081608093B00080917A0084606B
:1031900080937A0080917A00826080937A00809197
:1031A0007A00816080937A0080917A0080688093B1
:1031B0007A001092C100E091BC03F091BD0382E05F
:1031C0008083E091B803F091B9031082E091BA03D3
:1031D000F091BB038FEC80831092C403E091C00395
:1031E000F091C10386E08083E091BE03F091BF03BC
:1031F000808180618083E091BE03F091BF03808174
:1032000088608083E091BE03F091BF038081806875
:103210008083E091BE03F091BF0380818F7D808326
:10322000E0916F04F091700430E020E040E06AE04B
:103230008BE694E009958E010F5F1F4F88E0D8015F
:103240001D928A95E9F7B8018BE694E00E943D084B
:10325000E0916F04F091700430E020E040E06BE01A
:103260008BE694E0099564E170E080E090E00E94D4
:1032700019048091BF049091C004009711F00E943E
:103280007F2486E090E00E94E3237C0188E3F7013D
:10329000808381EA94E092838183138280E290E0CC
:1032A00095838483F092C004E092BF040E94920947
:1032B000DD24D394D7011396DC92C7010E94D50A6E
:1032C000882309F49DC08AEB89838091BF04909183
:1032D000C004FC0124813581232B09F491C0208195
:1032E000D09286032093A803109287031092A9031B
:1032F00041E050E0B8010E94BA0A882309F480C076
:1033000064E170E080E090E00E94190481EE89831E
:1033100088E08A831B828091BF049091C004DC0105
:1033200014962D913C9115972330310508F468C00F
:103330002C91D09286032093A803109287031092B9
:10334000A90343E050E0B8010E94BA0A882309F4B7
:1033500057C083EB94E00E94040D87FF07C06AE02A
:1033600070E080E090E00E941904F3CF83EB94E0DA
:103370000E94040D83FF44C08091C3049091C40453
:10338000009739F0DC01ED91FC910280F381E02D92
:1033900009958091C1049091C204009739F0DC0135
:1033A000ED91FC910280F381E02D099587E090E09A
:1033B0000E94E323FC018FE191E09183808380E20E
:1033C00090E19483838363EBE62E64E0F62EF6822D
:1033D000E582F093C404E093C30487E090E00E9488
:1033E000E323FC0181E191E09183808381E290E11C
:1033F00094838383F682E582F093C204E093C10450
:10340000E0916F04F091700430E020E041E06DE065
:103410008BE694E00995109236071092350753E039
:10342000A52EB12CB092E806A092E70684E190E0C8
:103430000E94E3236C01F601A192B1927F016FE437
:1034400072E0CF010E9410126FE472E0C60108968C
:103450000E9410126FE472E0C6010E960E941012D4
:10346000F092EC06E092EB0683E090E00E94E3230A
:103470009093EE068093ED0686E090E00E94E323B1
:10348000FC019093EA068093E90611821082138270
:103490001282158214821092C10661E08091C504E7
:1034A0000E94C30361E08091C6040E94C30360E0F0
:1034B0008091C5040E94950360E08091C6040E943B
:1034C00095030E94A30560EF71E0C8010E941012ED
:1034D000B80186ED92E00E941310C8010E94780E98
:1034E00062E072E0C8010E941012B80182ED92E021
:1034F0000E941310C8010E94780E6EE072E0C801AD
:103500000E941012C8010E94D20FC8010E94780EBA
:103510000E94D9042B013C013324339446E0242E2D
:103520008CEA93E00E949705892B09F467C0F0901C
:10353000D3066091BC057091BD0587EC94E00E94B4
:1035400037058091C70490E0F11056C09093BF05F5
:103550008093BE056091BE057091BF0587EC94E035
:103560000E943705FF20A1F08091BE059091BF0514
:1035700001979093BF058093BE058B539B4FDC0151
:1035800012968C9190E09A959093BB058093BA0522
:10359000E090C704F090C804E114F10409F44BC2B0
:1035A0008091C9049091CA04C090BE05D090BF0517
:1035B000009709F404C20E94380EC70101970E94C7
:1035C000CF0D84E090E0FC01EB53FB4F7F01C7017E
:1035D000855C94408C159D0508F0FAC1D7011296C0
:1035E0008C9189A361E070E0CE0181960E94C90DA3
:1035F000BFEFEB1AFB0AEBCF0196A8CF809118071B
:10360000833009F488C608F0C0C1813009F452C67D
:10361000823009F474C68091260390912703A0910B
:103620002803B0912903A3019201281B390B4A0BEF
:103630005B0BDA01C901883E9340A105B10508F48E
:103640004FC1209143073091440780E098E0821BEE
:10365000930B45973CF081E090E00E94E3232EEF2E
:10366000DC012C934092260350922703609228039A
:10367000709229038091170790E09093250380931F
:10368000240388E0F80111928A95E9F7B8018BE6E6
:1036900094E00E943D0882E691E090937C04809340
:1036A0007B0410929F041092A00480914307909194
:1036B000440760E078E0681B790BC8010E94830F23
:1036C00063E172E0CE010F960E941012B801CE01A4
:1036D0000F960E94EE0E0E942B07CE010F960E94BD
:1036E000780EC8010E94780E10929F0481E08093AA
:1036F000A00489E192E00E94960D609119077091F3
:103700001A0780911B0790911C074AE00E941C0D2C
:103710008EE192E00E94960D60911D0770911E0748
:1037200080911F07909120074AE00E941C0D109283
:103730009F0482E08093A00485E292E00E94960DAF
:1037400060912B0770912C0790E080E04AE00E9486
:103750001C0DC0902203D090230360913507709117
:103760003607C616D7060CF4BEC661507109CE01E5
:1037700045960E94830FB601CE010F960E94830FDB
:103780006EE272E0C8010E941012BE01615F7F4FBD
:10379000C8010E94EE0E66E372E00E94D80EBE01E0
:1037A0006B5E7F4F0E94EE0EBC01CE014B960E94D5
:1037B0005110C8010E94780ECE010F960E94780E1B
:1037C000CE0145960E94780E10929F0483E080936C
:1037D000A00488E492E00E94960D6091180770E0C2
:1037E00090E080E00E946A0D10929F0484E0809334
:1037F000A00489E192E00E94960D609131077091DA
:10380000320780913307909134070E946A0D10921D
:103810009F0485E08093A00480E292E00E94960DD0
:1038200060912307709124078091250790912607C6
:103830000E946A0D10929F0486E08093A00480E5A8
:1038400092E00E94960D6091240370912503072E4B
:10385000000C880B990B0E946A0D10929F0487E060
:103860008093A00487E592E00E94960D6091BE05CA
:103870007091BF05C8010E94830FC8010E942B07E9
:10388000C8010E94780E8EE592E00E94960D60912C
:10389000BB067091BC06C8010E94830FC8010E943C
:1038A0002B07C8010E94780E809122039091230378
:1038B000019663E070E00E94DE29909323038093D9
:1038C0002203E0916F04F091700430E020E040E0CA
:1038D00060E18BE694E00995CE014B960E94780E4C
:1038E00080912107882309F443C010929F0485E04A
:1038F0008093A00480E692E00E94960D4AED52E08B
:103900006EEF72E083EB94E00E943513882381F11F
:1039100081E0809322078091AA039091AB036AE033
:1039200070E00E94DE2901969093AB038093AA0376
:103930008091120390911303A0911403B091150389
:103940008093D6029093D702A093D802B093D90265
:103950008091EE029091EF02A091F002B091F102FD
:103960008093D2029093D302A093D402B093D50255
:1039700080E090E0892B09F4CBCD0E9411068823CA
:1039800009F4C6CD0E940000C3CD853009F4A3C55B
:1039900008F475C5863009F03ECE8CEA93E00E94AB
:1039A0001405892B09F437CE80912207882309F466
:1039B00032CE109222071092210769E091C58091C2
:1039C000FF06909100070E94380E90E080E0FBCD4A
:1039D0000E94B40680911D0790911E07A0911F07B9
:1039E000B09120070196A11DB11D80931D079093F2
:1039F0001E07A0931F07B09320070E94D90460936D
:103A0000F9067093FA068093FB069093FC0680916A
:103A1000190790911A07A0911B07B0911C070196F6
:103A2000A11DB11D8093190790931A07A0931B073E
:103A3000B0931C0775CDE091C904E09317078090FF
:103A4000CA049090CB04A090CC04B090CD04EA308E
:103A5000F0F6F0E0E25DF24E0C94F229381D941D70
:103A6000881E8B1ECD1E591F5D1F372058207B20BE
:103A700080912D0790912E07A0912F07B0913007CC
:103A8000B7FF13C00E94F40361157105810591050C
:103A900011F00E94A3250E94542560932307709380
:103AA0002407809325079093260780912D079091F6
:103AB0002E07A0912F07B0913007B7FD0EC040919F
:103AC000CE045091CF046091D0047091D10484173A
:103AD0009507A607B70709F49ACF8091D204909171
:103AE000D304909300078093FF063092FD06109256
:103AF00008071092070710920F07109210071092F4
:103B000011071092120710921307109214071092C7
:103B100016078092270790922807A0922907B09253
:103B20002A073092180773CF8091CE049091CF046A
:103B3000A091D004B091D1048093310790933207C3
:103B4000A0933307B0933407409123075091240783
:103B50006091250770912607481759076A077B0768
:103B600009F055CF8091070790910807C0900D0785
:103B7000D0900E07F60130E020E0009709F044C035
:103B8000209101073091020730930A07209309071B
:103B900020910107309102072F5F3F4F30930207BA
:103BA0002093010701968115E0E29E0708F042C0CC
:103BB000880F991F880F991F0E94E32390930E0787
:103BC00080930D07D6018091070790910807E816AA
:103BD000F90698F5CD018C199D09E0910D07F0913A
:103BE0000E07E80FF91F4D915D916D917D91408316
:103BF000518362837383FFEFEF1AFF0AE4CF2F5FD5
:103C00003F4F8217930721F2419151916191719138
:103C1000481559056A057B0591F780910907909130
:103C20000A07280F391F30930407209303073092A7
:103C30001207EDCE8FEF9FEFBFCFC114D10419F063
:103C4000C6010E947F248091070790910807880F82
:103C5000991F880F991FE0910D07F0910E07E80F4B
:103C6000F91F80829182A282B3828091070790918E
:103C70000807019690930807809307073092120770
:103C80008BE090E040912707509128076091290729
:103C900070912A07481559056A057B0509F0B7CECA
:103CA000FC01E953FB4F4081518162817381409354
:103CB0003107509332076093330770933407C090F5
:103CC0002307D0902407E0902507F0902607C4161C
:103CD000D506E606F70609F09ACEFC01E553FB4F40
:103CE0002081318130932C0720932B0783539B4FE6
:103CF000FC0180819181A281B38180932D079093F3
:103D00002E07A0932F07B09330073092FE0609CFFD
:103D100087E090E0B7CF8091270790912807A09186
:103D20002907B0912A0788159905AA05BB0509F04E
:103D30006ECE8091CE049091CF04A091D004B0912A
:103D4000D1048093310790933207A0933307B09347
:103D50003407409123075091240760912507709103
:103D60002607481759076A077B0709F050CE80914C
:103D7000D2049091D304909302078093010790930B
:103D800006078093050790930407809303073092FA
:103D90000F07F2E0F09318073ACE8091CE0490918D
:103DA000CF04A091D004B091D104809331079093B7
:103DB0003207A0933307B093340740912307509103
:103DC00024076091250770912607481759076A074D
:103DD0007B0709F01CCEA090D204B090D30430929F
:103DE0001407A114B10409F412CE80910107909137
:103DF00002078A0D9B1D9093020780930107C090D4
:103E00000B07D0900C0780910707909108078A0D47
:103E10009B1D811520E4920710F5880F991F0E94C1
:103E2000E32390930C0780930B07F60190E080E06A
:103E300020910707309108078217930798F4619142
:103E40007191AC01440F551F20910B0730910C0765
:103E5000240F351FD9016D937C930196E9CF8FEF25
:103E60009FEFDDCFC114D10419F0C6010E947F2459
:103E7000E4EDF4E080910707909108078E0D9F1DF7
:103E8000EA14FB0489F021913191880F991F409128
:103E90000B0750910C07840F951FDC012D933C9369
:103EA000BFEFEB1AFB0AE6CF909308078093070752
:103EB000AECDE5E0E0931807AACD8091CE049091B5
:103EC000CF04A091D004B091D10480933107909396
:103ED0003207A0933307B09334078091D2049091B6
:103EE000D3049093380780933707181619060CF0FF
:103EF0008ECD8091EF069091F006009711F00E9410
:103F00007F24E090F106F090F206E114F104E9F06C
:103F1000F701329720813181229EC001239E900DAE
:103F20001124E80EF91E97018091F1069091F20696
:103F3000F6E0EF1AF1088217930721F0C7010E94FB
:103F4000780EF1CF02970E947F248091F306909122
:103F5000F406009711F00E947F24E0903707F0905C
:103F60003807C701880F991FE11420E4F20610F00A
:103F70008FEF9FEF0E94E3239093F0068093EF066C
:103F80008FEF9FEF36E5E31635E1F30630F42E9C14
:103F9000C0012F9C900D112402960E94E323DC01A6
:103FA000ED92FD926D015D01B1E0EB1AF108F7FCB5
:103FB00009C06FE472E0C5010E941012E6E0AE0E87
:103FC000B11CF2CFD092F206C092F1068091370771
:103FD000909138070E94E3239093F4068093F306B0
:103FE00090E080E0209137073091380782179307DF
:103FF0006CF49C01220F331FE091EF06F091F00664
:10400000E20FF31F118210820196ECCFD12CC12C4C
:10401000F12CE12C8DE090E02091370730913807AA
:10402000E216F3060CF0F3CCFC01E953FB4F2081C0
:10403000E091F306F091F406EE0DFF1D20835C0184
:10404000FFEFAF1ABF0A4091F1065091F2064C0DF6
:104050005D1DB50187EC94E00E9425128A0D9B1D21
:104060002FEFE21AF20A36E0C30ED11CD5CF8091B1
:10407000CE049091CF04A091D004B091D10480934C
:10408000310790933207A0933307B09334074091E0
:104090002307509124076091250770912607481740
:1040A00059076A077B0709F0B2CC30921607AFCCEC
:1040B0008091CE049091CF04A091D004B091D1040E
:1040C0008093310790933207A0933307B09334075E
:1040D000409123075091240760912507709126078E
:1040E000481759076A077B0709F091CC30922107DE
:1040F000209218078CCC8091CE049091CF04A0918F
:10410000D004B091D1048093310790933207A093EB
:104110003307B09334078091BE059091BF050C978B
:104120000CF475CC912C812CABE0EA2EF12C809113
:10413000370790913807881699060CF0B8C080911F
:10414000EF069091F0065401AA0CBB1CA80EB91EF4
:10415000E091F306F091F406E80DF91DE081E150DD
:1041600090E080E0E93038F5F0E0E454FF4DD5010F
:10417000CD90DC900C94F229C520E120F020F020B5
:1041800008210821242124213B21C114D10419F044
:10419000C6010E947F2481E090E00E94E323F701A2
:1041A000E953FB4F20812983FC012083D5018D93A6
:1041B0009C9381E090E0E80EF91EFFEF8F1A9F0AB2
:1041C000B6CFC114D10419F0C6010E947F2481E04A
:1041D00090E00E94E323F701E953FB4F2081E4CFF5
:1041E000C114D10419F0C6010E947F2482E090E03E
:1041F0000E94E323F701E953FB4F20813181FC0149
:1042000031832083D5018D939C9382E090E0D3CFBE
:10421000C114D10419F0C6010E947F2484E090E00B
:104220000E94E323F701E953FB4F408151816281F2
:104230007381FC014083518362837383D5018D9325
:104240009C9384E090E0B7CFC114D10419F0C6016B
:104250000E947F2484E090E00E94E323F701E95369
:10426000FB4F4081518162817381FC014083518306
:1042700062837383E3CFC114D10431F0C6010E947D
:10428000780EC6010E947F2486E090E00E94E3231E
:104290006C016FE472E00E941012A601B70187EC76
:1042A00094E00E942512F501D182C08284CF309221
:1042B0002207ADCB8091FD06882351F01092FD06B8
:1042C00061E08091FF06909100070E945A1014C08F
:1042D0008091FE06882381F01092FE0680912B07C4
:1042E00090912C078093C9069093CA069093DE069E
:1042F0008093DF060E94A305109218078CC9809155
:104300000F07882331F010920F0783E0809318077E
:1043100082C964E0D6CF80911007811109C081E085
:104320008093100760E08FEF9FEF0E945A1073C9CF
:1043300080911207882309F43FC00E94D904C090DD
:10434000F906D090FA06E090FB06F090FC06AB016F
:10435000BC014C195D096E097F098091F5069091A9
:10436000F606A091F706B091F806B695A795979531
:104370008795481759076A077B0708F44CC91092BC
:104380001207E0900307F0900407809101079091D5
:104390000207E816F90668F462E08FEF9FEF0E94CB
:1043A0005A102FEFE21AF20AF0920407E092030784
:1043B000ECCF109210072FC90E94D904C090F906C3
:1043C000D090FA06E090FB06F090FC066C197D098F
:1043D0008E099F09C090F506D090F606E090F7068A
:1043E000F090F806C616D706E806F90608F013C9D5
:1043F0001092100780911107811104C081E0809311
:10440000110709C980910B0790910C07009711F0D3
:104410000E947F248091070790910807009759F127
:10442000811530E4930710F5880F991F0E94E3234C
:1044300090930C0780930B0790E080E02091070792
:104440003091080782179307A0F420912B07309131
:104450002C07AC01440F551FE0910B07F0910C079E
:10446000E40FF51F318320830196E8CF8FEF9FEF94
:10447000DDCF84E04BCF10920F0782E047CF9091C1
:10448000130791111CC02091050730910607409138
:104490000307509104072417350788F481E08093BF
:1044A000130763E0C9010E945A108091050790919B
:1044B000060701969093060780930507ACC8809184
:1044C0001407882329F01092140710921307A3C829
:1044D000992399F2A0C88091160766E081110CCF4C
:1044E00090E080E0F2CE26E02C9DC0012D9D900D45
:1044F00011246091EB067091EC06680F791FCE01D4
:1045000045960E945110E091ED06F091EE06EC0DFB
:10451000FD1DF080CC0CDD1C8091E9069091EA062F
:10452000C80ED91ED601CD90DC90BE016B5E7F4FC8
:10453000C8010E9451106EE472E0C8010E94D80EBA
:104540005C016F2D70E00E94320F811103C0C50124
:104550000E94660E6EE472E0C5010E94D80EBC0196
:10456000CE010F960E945110C8010E94780EEFEF05
:10457000EF0DE93008F07AC0F0E0EF53FD4D0C94F8
:10458000F229CA223623E522FA22FE220823122328
:104590001C232623F6016081698370E0CE010F960B
:1045A0000E94320F8F8598899C8F8B8F89899A8979
:1045B0009E8F8D8F8B899C8998A38F8F188A1F86D9
:1045C0001A8A198A1C8A1B8AF7C84AE0B801D601E0
:1045D0008D919C910E94E825F80101900020E9F757
:1045E0003197AF01401B510BB801CE010F960E94CD
:1045F000AC0ED8CFF60160817181D0CFD6016D911C
:104600007D918D919C912AE0A8010E94C625E4CF5E
:10461000F60160817181828193812AE0A8010E9464
:10462000B725DACFD6014D915D916D917C91CE0188
:104630000F960E94010FB6CFF60140815181628131
:104640007381CE010F960E94010FACCFB601C80155
:104650000E9451104D815E8169817A81CE010F9651
:104660000E94AC0EC8010E94780E9CCF4FE050E033
:1046700068E372E0BACFCF93DF938DEA94E00E94B3
:10468000780E8091C1049091C204009739F0DC014A
:10469000ED91FC910280F381E02D09958091C30496
:1046A0009091C404009739F0DC01ED91FC910280F7
:1046B000F381E02D09958091E9069091EA06009733
:1046C00011F00E947F24C091EB06D091EC06209758
:1046D000E1F0FE0132972081318146E0429FC00126
:1046E000439F900D1124C80FD91F9E018091EB06A6
:1046F0009091EC0626978217930721F0CE010E9435
:10470000780EF3CF02970E947F248091ED0690915E
:10471000EE06009711F00E947F248091EF069091A1
:10472000F006009711F00E947F24C091F106D0910D
:10473000F2062097E1F0FE0132972081318146E0B8
:10474000429FC001439F900D1124C80FD91F9E01A5
:104750008091F1069091F20626978217930721F037
:10476000CE010E94780EF3CF02970E947F248091A1
:10477000F3069091F406009711F00E947F2489E3DC
:1047800097E0DF91CF910C94780EEF920F931F93E7
:10479000CF93DF93E80134E047FD34E1042E000CB1
:1047A000550B57FF03C0519541955109E32E022F38
:1047B000242FAE010E940226CE01DF91CF911F91DE
:1047C0000F91EF9008950F931F93CF93DF93823053
:1047D000910510F482E090E0E0914507F0914607E2
:1047E00030E020E0B0E0A0E0309799F421153105E9
:1047F00009F44AC0281B390B24303105D8F58A81C9
:104800009B816115710589F1FB0193838283FE0110
:1048100011C0408151810281138148175907E0F08E
:104820004817590799F4109761F012960C93129754
:1048300013961C933296CF01DF91CF911F910F9168
:1048400008950093450710934607F4CF21153105CD
:1048500051F04217530738F0A901DB019A01BD015D
:10486000DF01F801C1CFEF01F9CF909346078093A4
:104870004507CDCFFE01E20FF31F819391932250A4
:10488000310939832883D7CF2091430730914407DA
:10489000232B41F42091020130910301309344070E
:1048A000209343072091000130910101211531052A
:1048B00041F42DB73EB74091040150910501241BEE
:1048C000350BE0914307F0914407E217F307A0F49A
:1048D0002E1B3F0B2817390778F0AC014E5F5F4F56
:1048E0002417350748F04E0F5F1F5093440740933D
:1048F0004307819391939FCFF0E0E0E09CCFCF936B
:10490000DF930097E9F0FC01329713821282A091A5
:104910004507B0914607ED0130E020E01097A1F483
:1049200020813181820F931F2091430730914407EA
:104930002817390709F061C0F0934407E093430753
:10494000DF91CF910895EA01CE17DF07E8F54A819C
:104950005B819E0141155105B1F7E901FB83EA83B3
:1049600049915991C40FD51FEC17FD0761F480815F
:1049700091810296840F951FE90199838883828132
:1049800093819B838A83F0E0E0E012968D919C9165
:1049900013970097B9F52D913C911197CD0102968F
:1049A000820F931F2091430730914407281739073E
:1049B00039F6309751F51092460710924507B0939B
:1049C0004407A0934307BCCFD383C2834081518166
:1049D000840F951FC817D90761F44E5F5F4F888118
:1049E0009981480F591F518340838A819B8193830A
:1049F00082832115310509F0B0CFF0934607E0938B
:104A000045079ECFFD01DC01C0CF13821282D7CFB4
:104A10008F929F92AF92BF92CF92DF92EF92FF92CE
:104A2000CF93DF93EC01688179818A819B81611545
:104A300071058105910521F464E279ED8BE597E03C
:104A40002DE133EF41E050E00E94442949015A0131
:104A50009B01AC01A7EAB1E40E9463296B017C01D0
:104A6000ACEEB4EFA50194010E947129C60ED71EC9
:104A7000E81EF91EF7FE06C081E0C81AD108E10859
:104A800080E8F80AC882D982EA82FB82C701B601AF
:104A90009F77DF91CF91FF90EF90DF90CF90BF9005
:104AA000AF909F908F9008958F929F92AF92BF92F8
:104AB000CF92DF92EF92FF92609106017091070111
:104AC0008091080190910901611571058105910599
:104AD00021F464E279ED8BE597E02DE133EF41E0DD
:104AE00050E00E94442949015A019B01AC01A7EA08
:104AF000B1E40E9463296B017C01ACEEB4EFA50127
:104B000094010E947129C60ED71EE81EF91EF7FEF9
:104B100006C081E0C81AD108E10880E8F80AC0920E
:104B20000601D0920701E0920801F0920901C70145
:104B3000B6019F77FF90EF90DF90CF90BF90AF903E
:104B40009F908F9008956093060170930701809362
:104B50000801909309010895BB274A3031F4992345
:104B600022F4BDE2909581959F4F0C94E925BB27D7
:104B70002A3051F4992342F4BDE2909580957095C6
:104B800061957F4F8F4F9F4F0C94C725BB27FA012C
:104B9000A62F6217710581059105330B30FB66F076
:104BA000AA27660F771F881F991FAA1FA21710F048
:104BB000A21B63953850A9F7A05DAA3308F0A95D40
:104BC000A19336F7B111B1931082CA010C94392820
:104BD000BB27FB015527AA27880F991FAA1FA417D7
:104BE00010F0A41B83955051B9F7A05DAA3308F0CB
:104BF000A95DA193009779F7B111B1931192CB01FF
:104C00000C943928A9E0B0E0E8E0F6E20C947C29A5
:104C10006A01F22EB02E102FFBE3AF2EA01608F47F
:104C20001BE31F5F012F27E0AE014F5F5F4F0E9424
:104C30006127BC018981982F9970913009F43FC098
:104C40009BE2E1FC04C09E2D9170E0FC3AC05E2D19
:104C50005071E82FE87083FF46C084E0911101C0D5
:104C600083E0EF2DE81B8F1508F0E0E0D6018E2FD2
:104C700020E2552351F1992329F0D6019C93C601D6
:104C800001966C0196012D5F3F4FE2FE24C08EE439
:104C9000D6018C9391E411969C93119712968C9364
:104CA000D9018E2F90E281111BC0E20FF32FF11D6D
:104CB00010828EEF9FEF2996ECE00C9498299DE2EC
:104CC000C6CF90E2C4CF2D9381508111FCCFCE0E80
:104CD000D11CE0E0D0CF8EE6D6018C9391E6DBCFFD
:104CE0009D938150E0CF482F447082FF3DC084E007
:104CF000911101C083E08F1510F4EF2DE81BD60150
:104D00008E2F20E2552309F1992329F0D6019C9397
:104D1000C60101966C0196012D5F3F4FE2FE1BC05C
:104D200089E4D6018C938EE411968C93119786E4D6
:104D300012968C93D9018E2F90E2882309F4B5CF77
:104D40009D938150FACF2D9381508111FCCFCE0ECF
:104D5000D11CE0E0D9CF89E6D6018C938EE611967E
:104D60008C93119786E6E4CF9B0177FF02C030E079
:104D700020E0A1E0B0E0911102C0B0E0A0E0F901B4
:104D80003196AE0FBF1F8B2C912CBB2009F461C054
:104D90005401EFEFAE1ABE0AAA0DBB1DFA161B0690
:104DA00019F014F04F2D4A1B511188C0E3FC59C073
:104DB0007601A42FB0E2A1114FC0C40ED11C9923DB
:104DC00009F45BC040E0D6011196F60190836D01B5
:104DD000552309F448C0012F060F9A81582F5071AE
:104DE00084FF03C0913309F4015010160CF047C042
:104DF000093008F008E0EEE2FE2E5B01A01AB108CF
:104E000085019194819491082F3F320729F4D601AE
:104E1000FC92F60131966F016217730794F1021745
:104E200013077CF5DB01A21BB30BAA24A394B12CBE
:104E3000AC0EBD1EAA0DBB1D11968C9121503109DF
:104E4000D601119628153905F4F0F60180836D011D
:104E5000DBCFB12CA12CA0CFF701B1937F01A150E2
:104E6000AACF9111B0CFD601942F50E302C05D9329
:104E700091509111FCCFC40ED11C40E0ACCF01E0A9
:104E8000BACF80E3DBCF6217730731F4963388F42F
:104E9000953311F4552369F0F6018083FD01842FC9
:104EA00090E2811108C0A40FB11D1C9290E080E037
:104EB00002CF81E3F1CF91938150F3CF911183CF52
:104EC0008ACF283008F027E03327DA01990F311D07
:104ED00087FD916000966105710539F432602E5F9F
:104EE0003D9330E32A95E1F708959F3F30F08038F5
:104EF0007105610509F03C5F3C5F3D93913008F01E
:104F00008068911DDF93CF931F930F93FF92EF92D1
:104F1000192F987F9695E92F96959695E90FFF277B
:104F2000EE53FF4F99273327EE24FF24A701E70113
:104F300005900894079428F4360FE71EF81E491FC1
:104F4000511D660F771F881F991F0694A1F70590C2
:104F5000079428F4E70EF81E491F561FC11D770F4E
:104F6000881F991F661F0694A1F70590079428F4DF
:104F7000F80E491F561FC71FD11D880F991F661FA6
:104F8000771F0694A1F70590079420F4490F561F48
:104F9000C71FD81F990F661F771F881F0694A9F790
:104FA00084911095177041F0D695C7955795479500
:104FB000F794E7941A95C1F7E8E6F0E06894159045
:104FC000159135916591959105907FE27395E11862
:104FD000F10A430B560BC90BD009C0F7E10CF11EC7
:104FE000431F561FC91FD01D7EF4703311F48A95DC
:104FF000E6CFE894015030F0080F0AF400270217BA
:1050000008F4202F2395022F7A3328F079E37D933B
:105010002A95E9F710C07D932A9589F6069497950D
:105020006795379517951794E118F10A430B560BBE
:10503000C90BD00998F023957E9173957A3308F0C7
:1050400070E37C932013B8F77E9170617D9330F00C
:10505000839571E37D9370E32A95E1F71124EF9036
:10506000FF900F911F91CF91DF91992787FD909528
:105070000895DC01FC01672F71917723E1F73297E6
:1050800004C07C916D9370836291AE17BF07C8F323
:105090000895E89409C097FB3EF49095809570952B
:1050A00061957F4F8F4F9F4F9923A9F0F92F96E974
:1050B000BB279395F695879577956795B795F111E9
:1050C000F8CFFAF4BB0F11F460FF1BC06F5F7F4F86
:1050D0008F4F9F4F16C0882311F096E911C0772398
:1050E00021F09EE8872F762F05C0662371F096E8A1
:1050F000862F70E060E02AF09A95660F771F881F70
:10510000DAF7880F9695879597F908950E94992860
:105110000C940A290E94FC2838F00E94032920F0F0
:10512000952311F00C94F3280C94F92811240C9475
:105130003E290E941B2970F3959FC1F3950F50E003
:10514000551F629FF001729FBB27F00DB11D639F39
:10515000AA27F00DB11DAA1F649F6627B00DA11DDF
:10516000661F829F2227B00DA11D621F739FB00D85
:10517000A11D621F839FA00D611D221F749F3327F5
:10518000A00D611D231F849F600D211D822F762F8E
:105190006A2F11249F5750409AF0F1F088234AF06B
:1051A000EE0FFF1FBB1F661F771F881F91505040D7
:1051B000A9F79E3F510580F00C94F3280C943E29EA
:1051C0005F3FE4F3983ED4F3869577956795B7955E
:1051D000F795E7959F5FC1F7FE2B880F911D969578
:1051E000879597F9089597F99F6780E870E060E0E8
:1051F00008959FEF80EC089500240A941616170670
:1052000018060906089500240A94121613061406B7
:1052100005060895092E0394000C11F4882352F01A
:10522000BB0F40F4BF2B11F460FF04C06F5F7F4FD2
:105230008F4F9F4F089557FD9058440F551F59F0B9
:105240005F3F71F04795880F97FB991F61F09F3F73
:1052500079F087950895121613061406551FF2CF9C
:105260004695F1DF08C0161617061806991FF1CFEC
:1052700086957105610508940895E894BB27662713
:105280007727CB0197F90895052E97FB1EF400941C
:105290000E945B2957FD07D00E94AD2907FC03D06F
:1052A0004EF40C945B2950954095309521953F4FD5
:1052B0004F4F5F4F089590958095709561957F4F02
:1052C0008F4F9F4F08950E94CF29A59F900DB49FA7
:1052D000900DA49F800D911D11240895B7FF0C948B
:1052E00063290E946329821B930B08952F923F929A
:1052F0004F925F926F927F928F929F92AF92BF92E6
:10530000CF92DF92EF92FF920F931F93CF93DF9391
:10531000CDB7DEB7CA1BDB0B0FB6F894DEBF0FBEEE
:10532000CDBF09942A88398848885F846E847D843B
:105330008C849B84AA84B984C884DF80EE80FD803D
:105340000C811B81AA81B981CE0FD11D0FB6F894B3
:10535000DEBF0FBECDBFED010895A1E21A2EAA1B3C
:10536000BB1BFD010DC0AA1FBB1FEE1FFF1FA21715
:10537000B307E407F50720F0A21BB30BE40BF50B12
:10538000661F771F881F991F1A9469F7609570959B
:10539000809590959B01AC01BD01CF010895A29F1E
:1053A000B001B39FC001A39F700D811D1124911DF9
:1053B000B29F700D811D1124911D089597FB072E3A
:1053C00016F4009407D077FD09D00E94F82907FC55
:1053D00005D03EF4909581959F4F08957095619505
:1053E0007F4F0895EE0FFF1F0590F491E02D099473
:1053F000AA1BBB1B51E107C0AA1FBB1FA617B707FB
:1054000010F0A61BB70B881F991F5A95A9F7809516
:105410009095BC01CD0108955058BB27AA270E9442
:10542000242A0C940A290E94FC2838F00E9403299F
:1054300020F039F49F3F19F426F40C94F9280EF467
:10544000E095E7FB0C94F328E92F0E941B2958F301
:10545000BA17620773078407950720F079F4A6F559
:105460000C943D290EF4E0950B2EBA2FA02D0B01C4
:10547000B90190010C01CA01A0011124FF27591B99
:1054800099F0593F50F4503E68F11A16F040A22F9F
:10549000232F342F4427585FF3CF46953795279510
:1054A000A795F0405395C9F77EF41F16BA0B620B0F
:1054B000730B840BBAF09150A1F0FF0FBB1F661F56
:1054C000771F881FC2F70EC0BA0F621F731F841F99
:1054D00048F4879577956795B795F7959E3F08F0BF
:1054E000B0CF9395880F08F09927EE0F9795879581
:1054F0000895B0E0A0E0EFE7FAE20C9478298C017F
:10550000009751F4CB010E94E3238C01C801CDB771
:10551000DEB7E0E10C949429FC01E60FF71F9C0133
:1055200022503109E217F30708F49DC0D901CD914B
:10553000DC911197C617D70798F0C530D10530F325
:10554000CE0104978617970708F3C61BD70B22973F
:10555000C193D1936D937C93CF010E947F24D6CFCA
:105560005B01AC1ABD0A4C018C0E9D1EA091450733
:10557000B0914607512C412CF12CE12C109731F5BC
:1055800080914307909144078815990509F05CC004
:105590004616570608F058C080910001909101010D
:1055A000009741F48DB79EB74091040150910501D9
:1055B000841B950BE817F90708F055C0F0934407D2
:1055C000E0934307F90171836083A0CF8D919C9193
:1055D000119712966C90129713967C901397A815BA
:1055E000B90559F56C0142E0C40ED11CCA14DB04A4
:1055F00020F1AC014A195B09DA011296159780F087
:105600006282738251834083D9016D937C93E1144C
:10561000F10471F0D7011396FC93EE93129776CFB5
:1056200022968C0F9D1FF90191838083F301EFCFA8
:10563000F0934607E093450769CF4816590608F4EA
:105640002C017D01D3019ACFCB010E94E3237C0181
:10565000009749F0AE01B8010E94362BC8010E94A4
:105660007F24870153CF10E000E050CFFB01DC0125
:1056700002C001900D9241505040D8F70895FB01AF
:10568000DC0101900D920020E1F70895FB01DC019F
:105690004150504048F001900D920020C9F701C0E0
:1056A0001D9241505040E0F7089512E0C1E6D2E06B
:1056B00004C0FE010E94F2292196C236D107C9F723
:0456C000F894FFCF8C
:1056C40000004707800001000000AC330000000028
:1056D400004B09820E4C0973149B12000000004B0E
:1056E40009800E4C097D14EA121815A015C019FF83
:1056F4001815A115C819FF1815AE19FF1815AF19FB
:10570400FF1815AE15D5168015A8163F15D316002B
:105714001540158D16141520160015A115C815DA97
:105724001612158116CF15D916F115DB1640152E54
:1057340015A415A619FF0001140A6464323200127C
:105744007A00000428961008000080004000000041
:10575400010001000200020004000400040004002F
:105764000000000000004706E704140594069705AE
:105774002305890500000000C1080307DC0BE604CB
:1057840000000000AD0B230BDC0BE5041C0B090B24
:10579400FA0A41485478305F540041485478305FE5
:1057A4004800556E696E697469616C697A65640054
:1057B40052656C61746976652048756D69646974B5
:1057C400790054656D706572617475726500546515
:1057D40073740052616D3A200072656320002C20BE
:1057E40073656E20004164647265737320004572B2
:1057F400726F723A20003E00554E444546494E456C
:10580400442056414C55450053746174653A200058
:10581400456E756D3A200053697A653A20002F0071
:0A582400474F204441544121000089
:00000001FF
