:100000000C9428030C9450030C9450030C9450034C
:100010000C9450030C9450030C9450030C94500314
:100020000C9450030C9450030C9450030C94500304
:100030000C9450030C9450030C9450030C945003F4
:100040000C940A180C9450030C947A180C945418BD
:100050000C9450030C9450030C9450030C945003D4
:100060000C94AC180C94500307634236B79BD8A786
:100070001A39685618AEBAAB558C1D3CB7CC5763CD
:10008000BD6DEDFD753EF6177231BF000000803F7B
:1000900008000000BE922449123EABAAAA2ABECD97
:1000A000CCCC4C3E00000080BEABAAAAAA3E000009
:1000B0000000BF000000803F000000000008417801
:1000C000D3BB4387D1133D190E3CC3BD4282AD2B38
:1000D0003E68EC8276BED98FE1A93E4C80EFFFBE30
:1000E00001C4FF7F3F000000000000407A10F35A77
:1000F00000A0724E18090010A5D4E80000E8764868
:10010000170000E40B54020000CA9A3B000000E113
:10011000F505000080969800000040420F000000A6
:10012000A08601000000102700000000E803000086
:1001300000006400000000000A0000000000010050
:10014000000000002C76D888DC674F0823DFC1DF71
:10015000AE59E1B1B796E5E3E453C63AE651997674
:1001600096E8E6C28426EB898C9B62ED407C6FFCAE
:10017000EFBC9C9F40F2BAA56FA5F490055A2AF7F0
:100180005C936B6CF9676DC11BFCE0E40D47FEF5F9
:1001900020E6B500D0ED902E030094357705008061
:1001A000841E080000204E0A000000C80C333333C0
:1001B000330F986E12831141EF8D2114893BE65560
:1001C00016CFFEE6DB18D1844B381BF77C1D901D43
:1001D000A4BBE424203284725E228100C9F124ECA5
:1001E000A1E53D272C20676F742030780067657487
:1001F00053657474696E6756616C75653A20435235
:1002000043206661696C3A20657870656374656443
:10021000203078004669726D77617265207665726C
:1002200073696F6E20307800000000002400270002
:100230002A0000000000250028002B00000000001C
:10024000230026002900000000080002010000032E
:1002500004070000000000000000726561644D6545
:1002600061737572656D656E743A20656E636F7546
:100270006E7465726564206572726F72207265615A
:1002800064696E6720534344333020646174612E87
:100290000020627974657300726561644D656173F5
:1002A0007572656D656E743A206E6F2053434433EA
:1002B00030206461746120666F756E642066726FB1
:1002C0006D204932432C2069326320636C61696D73
:1002D000732077652073686F756C64207265636541
:1002E00069766520002C20676F74203078002C2000
:1002F0006578706563746564203078007265616448
:100300004D6561737572656D656E743A20666F75C3
:100310006E642043524320696E2062797465200028
:10032000040404040404040402020202020203039B
:1003300003030303010204081020408001020408A3
:100340001020010204081020207F0101000000009D
:10035000000000000000005E000000000000060039
:100360000006000000247E24247E240000246B2A42
:100370002A6B1200004626100864620000344A4AC4
:100380005420500000000000060000000000003C67
:1003900042000000000000423C000000002A1C3E19
:1003A0001C2A00000008083E080800000000403039
:1003B00000000000000808080808080000000040CD
:1003C000000000000040201008040200003C6252BF
:1003D0004A463C000040447E4040000000645252C7
:1003E00052524C000024424A4A4A34000038242227
:1003F000227E2000002E4A4A4A4A3200003C4A4AE5
:100400004A4A300000020262120A060000344A4AD8
:100410004A4A3400000C525252523C000000002460
:10042000000000000000402400000000000008144C
:100430002200000000141414141414000000002200
:1004400014080000000402520A0400000018245A94
:100450005A241800007C121212127C00007E4A4AB4
:100460004A4A3400003C424242422400007E42425A
:1004700042423C00007E4A4A4A424200007E0A0A4A
:100480000A020200003C424252523400007E080838
:1004900008087E000000427E42000000002040402C
:1004A00040403E00007E080808146200007E404084
:1004B00040404000007E040808047E00007E0408DE
:1004C00010207E00003C424242423C00007E12125C
:1004D00012120C00003C425262423C00007E12129A
:1004E00012324C0000244A4A4A4A30000002027E7E
:1004F00002020000003E404040403E00001E2040FE
:1005000040201E00007E201010207E000042241893
:1005100018244200000204780402000000426252E3
:100520004A46420000007E424200000000020408E9
:100530001020400000000042427E00000000000445
:1005400002040000808080808080808000000002A3
:10055000040000000020545454780000007E4848F5
:100560004830000000384444442800000030484827
:10057000487E000000385454544800000000087CB5
:100580000A0200000018A4A4A47C0000007E080851
:10059000087000000000487A4000000000408080A1
:1005A000887A0000007E1010284400000000427E7F
:1005B00040000000007C047804780000007C040403
:1005C00004780000003844444438000000FC4444EF
:1005D000443800000038444444FC0000007C080417
:1005E0000404000000485454542400000000043E59
:1005F00044000000003C4040207C0000001C2040E3
:10060000201C0000001C601C601C0000004428101E
:1006100028440000001CA0A0A07C000000446454FA
:100620004C4400000000083641000000000000FFBC
:100630000000000000004136080000000804040823
:10064000101008000000000000000000CB19BF26B9
:1006500011241FBECFEFD8E0DEBFCDBF12E0A0E077
:10066000B1E0E2E5F4E602C005900D92A832B107D0
:10067000D9F726E0A8E2B2E001C01D92AE3DB20774
:10068000E1F713E0C7E2D3E004C02197FE010E9426
:10069000472DC632D107C9F70E94F11B0C941C32BA
:1006A0000C94000080E0089591E0909321038093E2
:1006B000200310921F0310921E030895FC019081E5
:1006C000909528E081E397FF03C0990F982701C018
:1006D000990F2150C1F78181892798E021E387FF95
:1006E00003C0880F822701C0880F9150C1F7089579
:1006F0008091D0029091D102891B990B08959B01A2
:10070000DC011896ED91FC9141E067E10994DC0170
:100710001696ED91FC9130E020E040E069E109940B
:10072000DC011696ED91FC9130E020E040E068E1BC
:1007300009949A01DC011696ED91FC91462F67E130
:100740000994462FDC011696ED91FC9130E020E0F3
:1007500066E10994462FDC011696ED91FC9130E09C
:1007600020E065E10994DC011896ED91FC9130E000
:1007700020E040E069E10994DC011896ED91FC91DC
:1007800030E020E040E068E10994CF93DF931F92CE
:10079000CDB7DEB76983BE016F5F7F4F0E947F03D5
:1007A0000F90DF91CF910895EF92FF921F93CF9317
:1007B000DF93EC01162F7A010E94BC0360E4CE01A6
:1007C0000E94C503E885F9859701412F67E1CE01B5
:1007D0000995CE01DF91CF911F91FF90EF900C947E
:1007E000B303EF92FF921F93CF93DF93EC01142F8B
:1007F0007901663181F138F4643109F44BC0653117
:1008000079F080E022C06831C9F150F16931C9F74F
:100810008091CF02882391F1CE010E94B3032EC0B4
:100820008091CF02882319F0CE010E94B303CE013C
:100830000E94BC0360E0CE010E94C503612FCE017F
:100840000E94C50381E08093CF02DF91CF911F9179
:10085000FF90EF900895642F0E94C50381E0F5CFCB
:100860008091CF02882319F0CE010E94B303A70123
:10087000193138F4612FCE010E94D4031092CF02B7
:10088000EDCF68E1CE010E94D403185188E1E80E53
:10089000F11CEDCF8E898F3F11F488E78E8BE885B0
:1008A000F9859701412F64E1CE01DF91CF911F912E
:1008B000FF90EF90099408950895833081F028F413
:1008C000813099F08230A9F008958730A9F08830FE
:1008D000C9F08430B1F4809180008F7D03C0809195
:1008E00080008F7780938000089584B58F7784BDD2
:1008F000089584B58F7DFBCF8091B0008F77809372
:10090000B00008958091B0008F7DF9CF1F93CF93F1
:10091000DF93282F30E0F901EA5BFD4F8491F90164
:10092000EC5CFC4FD491F901E05EFC4FC491CC2308
:10093000A9F0162F81110E945D04EC2FF0E0EE0F5C
:10094000FF1FEE5CFD4FA591B4918FB7F894EC9129
:10095000111108C0D095DE23DC938FBFDF91CF91BA
:100960001F910895DE2BF8CFCF93DF9390E0FC0129
:10097000EC5CFC4F2491805E9C4FFC0184918823A9
:10098000D1F090E0880F991FFC01E85DFD4FA59123
:10099000B491FC01EE5CFD4FC591D491623071F4CD
:1009A0009FB7F8943C91822F809583238C93E881A4
:1009B0002E2B28839FBFDF91CF9108958FB7F89496
:1009C000EC912E2B2C938FBFF6CF3FB7F8948091EC
:1009D000C7029091C802A091C902B091CA0226B57F
:1009E000A89B05C02F3F19F00196A11DB11D3FBF67
:1009F000BA2FA92F982F8827BC01CD01620F711D36
:100A0000811D911D42E0660F771F881F991F4A952F
:100A1000D1F708958F929F92AF92BF92CF92DF92BB
:100A2000EF92FF926B017C010E94E5044B015C0197
:100A3000C114D104E104F104B9F00E94E50468197D
:100A400079098A099B09683E73408105910580F305
:100A500021E0C21AD108E108F10888EE880E83E08F
:100A6000981EA11CB11CE4CFFF90EF90DF90CF90B7
:100A7000BF90AF909F908F9008950F931F93CF9347
:100A8000DF93EC01862F642F8C3208F03AC08A3253
:100A900008F060C0883209F44BC0893209F460C0A4
:100AA000803408F475C0982F9F73FE01E90FF11D83
:100AB000868D8F3F09F44EC0903108F436C0282F40
:100AC00030E0F901EA5BFD4F8491F901EC5CFC4FE9
:100AD0000491F901E05EFC4F1491112379F081112A
:100AE0000E945D04E12FF0E0EE0FFF1FE45CFD4F7C
:100AF000A591B491EC910E2381E009F480E0898FF7
:100B000029C08D3299F108F4CBCF94EB980F923035
:100B100008F0C6CF8F73C80FD11D8E8D411134C020
:100B200061E00E94B40460E08E8D0E94860412C0D1
:100B30008E01025E1F4FD0E0F80181918F018F3F3F
:100B400031F061E0D03108F062E00E94B404DF5F70
:100B5000D63191F781E0DF91CF911F910F910895E8
:100B600070E090E080E00E940A05F4CF85E090E01C
:100B7000433010F082E090E0880F991F880F991F92
:100B800005970197F1F7E6CF62E00E94B404E2CF47
:100B900080E0E1CF2FB7F8946091C3027091C40256
:100BA0008091C5029091C6022FBF089508950895BF
:100BB000EF92FF920F931F93CF93DF938C017B01F2
:100BC000D0E0C0E0F701EC0FFD1F6491662361F0F7
:100BD000D801ED91FC910190F081E02DC8010995BB
:100BE000892B11F02196EECFCE01DF91CF911F918D
:100BF0000F91FF90EF900895AF92BF92CF92DF9246
:100C0000EF92FF920F931F93CF93DF936C017B01C1
:100C10008B01040F151FEB015E01AE18BF08C01752
:100C2000D10759F06991D601ED91FC910190F081C5
:100C3000E02DC6010995892B79F7C501DF91CF9188
:100C40001F910F91FF90EF90DF90CF90BF90AF90EA
:100C50000895FC01538D448D252F30E0842F90E0C2
:100C6000821B930B541710F0CF96089501970895A7
:100C7000FC01918D828D981761F0A28DAE0FBF2F70
:100C8000B11D5D968C91928D9F5F9F73928F90E0C6
:100C900008958FEF9FEF08958F929F92AF92BF922A
:100CA000CF92DF92EF92FF920F931F93CF93DF9338
:100CB0007C018C01060F171FEC016E01CE18DF08B6
:100CC0000C171D0759F10E94CA0560932C037093FD
:100CD0002D0380932E0390932F0384E293E00E94D0
:100CE000380697FF29C00E94CA0580902C03909077
:100CF0002D03A0902E03B0902F03681979098A095B
:100D00009B098090280390902903A0902A03B0901B
:100D10002B03681579058A059B05F8F2C601DF915A
:100D2000CF911F910F91FF90EF90DF90CF90BF90E8
:100D3000AF909F908F9008958993BFCFFC01918DC4
:100D4000828D981731F0828DE80FF11D858D90E02E
:100D500008958FEF9FEF0895FC01918D228D892FCB
:100D600090E0805C9F4F821B91098F7399270895B3
:100D7000CF92DF92EF92FF920F931F93CF9360E099
:100D8000809147040E94860461E0809148040E949B
:100D9000860464E670E080E090E00E940A054CE082
:100DA00050E06DE576E084E293E00E94FC050E944D
:100DB000CA056B017C010E94CA056C197D098E0968
:100DC0009F09009128031091290320912A03309153
:100DD0002B036017710782079307D0F484E293E036
:100DE0000E94AC06892B39F3C1E064E670E080E034
:100DF00090E00E940A05CC2391F284E293E00E94E5
:100E0000AC06892B39F084E293E00E943806F5CFD6
:100E1000C0E0EBCF809147049091430661E09111CF
:100E200001C060E00E94860460E0809148040E9456
:100E3000860464E670E080E090E0CF911F910F910E
:100E4000FF90EF90DF90CF900C940A0584E293E03E
:100E50000E94AC0621E0892B09F420E0822F08953E
:100E600080E090E0892B29F00E94260781110C94E4
:100E700000000895FC01A48DA80FB92FB11DA35A3D
:100E8000BF4F2C91848D90E001968F739927848FAA
:100E9000A689B7892C93A089B1898C9183708064CD
:100EA0008C93938D848D981306C00288F389E02D6E
:100EB00080818F7D80830895EF92FF920F931F931F
:100EC000CF93DF93EC0181E0888F9B8D8C8D9813FD
:100ED0001AC0E889F989808185FF15C09FB7F89409
:100EE000EE89FF896083E889F98980818370806455
:100EF00080839FBF81E090E0DF91CF911F910F91A0
:100F0000FF90EF900895F62E0B8D10E00F5F1F4FAE
:100F10000F731127E02E8C8D8E110CC00FB607FCBD
:100F2000FACFE889F989808185FFF5CFCE010E944B
:100F30003A07F1CFEB8DEC0FFD2FF11DE35AFF4F78
:100F4000F0829FB7F8940B8FEA89FB8980818062D9
:100F5000CFCFCF93DF93EC01888D8823B9F0AA8996
:100F6000BB89E889F9898C9185FD03C0808186FD64
:100F70000DC00FB607FCF7CF8C9185FFF2CF8081B3
:100F800085FFEDCFCE010E943A07E9CFDF91CF91E7
:100F900008950F931F93E0913B06F0913C06EB5BA5
:100FA000FA4F80913D06808384E293E00E94A90776
:100FB0000E94CA0500913F0610914006209141060B
:100FC00030914206601771078207930788F34091BA
:100FD0003B0650913C0680913D0690913E06480F9D
:100FE000591F66E475E084E293E00E94FC050E94CC
:100FF000CA0520913B0630913C0640913D06509138
:101000003E06240F351FE8E2E29FA001E39F500D4A
:101010001124640F751F811D911D60933F0670930D
:10102000400680934106909342061F910F910895C8
:10103000CF92DF92EF92FF920F931F93CF93DF93A4
:101040006C01EB017B01E40EF51E10E000E0CE1513
:10105000DF0561F06991D601ED91FC910190F0817D
:10106000E02DC6010995080F191FF1CFC801DF91C6
:10107000CF911F910F91FF90EF90DF90CF90089547
:10108000FC0144815581608171818BEF93E00C9468
:101090001808DC011A96ED91FC9130E020E00994EB
:1010A000EF92FF920F931F93CF93DF931F92CDB7D1
:1010B000DEB77C018B01D8016C91673129F150F4C6
:1010C0006531A0F40F90DF91CF911F910F91FF90A8
:1010D000EF9008956A3118F16E3FA1F7F801418150
:1010E000498369E2C7010E9449080BC0F8014181A8
:1010F0004983D7011696ED91FC9130E020E0C701BD
:1011000009950E5F1F4FD7CFF80181818983AE010A
:101110004F5F5F4F61E0C7010E949903F2CF0F5FFD
:101120001F4FD7011696ED91FC9130E020E040E092
:10113000C7010995C0CFEF92FF920F931F93CF93F2
:10114000DF93EC01042F79016D3009F446C050F4AF
:101150006B30C9F1693009F49FC06A3009F465C089
:1011600080E046C06E3009F452C06F3099F70E949B
:101170009003F7011381110F110F110F6C89160FD6
:1011800060E4CE010E94AA03612F62956F706061D6
:10119000CE010E94AA03612F6F70CE010E94A103AD
:1011A000F7016481606BCE010E94A103F7014081C9
:1011B00051816281660F660F660FCE010E9499030E
:1011C0000150A1F72EC06DE171E0442311F068E1F8
:1011D00071E0CE010E9450080AC0411110C061E1C7
:1011E00071E00E945008E881F98182898C8B81E04E
:1011F000DF91CF911F910F91FF90EF9008956AE0DA
:1012000071E00E945008E881F9818389EFCF0E9444
:10121000900361E8CE010E94AA03602FCE010E94D4
:10122000A103CE010E948703E2CFEA85FB8530E06F
:1012300020E040E068E2CE010995EE81FF8130E0D8
:1012400020E040E064E1CE01099541E06BE4CE018D
:101250000E944908E881F981448169E2CE010E9437
:10126000490840E06BE4CE010E944908E881F98119
:10127000448169E2CE010E94490841E06BE4CE015D
:101280000E944908E881F981458169E2CE010E9406
:10129000490862E271E09DCF87E591E099838883F8
:1012A0001C8AA5CFCF92DF92FF920F931F93CF930B
:1012B000DF9300D000D01F92CDB7DEB78C011C8227
:1012C00081E08B837A836983D801ED91FC91F18869
:1012D0001D82F801A081B181C480D5809E012F5F5D
:1012E0003F4F50964C916FE0C801F60109958D81F2
:1012F0008F5F8D838F1568F30F900F900F900F9075
:101300000F90DF91CF911F910F91FF90DF90CF90C1
:101310000895CF93DF93EC01A889B989FD01349139
:1013200031969491319684911396FD01A49163179F
:10133000A8F1961798F1631B770B8A9FE02D112473
:10134000E69FC001E79F900D1124280F392F311D12
:1013500083E0220F331F8A95E1F7C9010496DA0171
:10136000245F3F4FE889F989E80FF91FE491ED9375
:10137000019682179307B1F78D89882361F0FA01EE
:101380009A01285F3F4F8191DF01119780958C93DF
:101390002E173F07C1F7DF91CF910895FA01CA01D7
:1013A00008961192E817F907E1F7E6CF2F923F92DE
:1013B0004F925F926F927F928F929F92AF92BF9265
:1013C000CF92DF92EF92FF920F931F93CF93DF9311
:1013D000CDB7DEB72D970FB6F894DEBF0FBECDBFE9
:1013E000DC015496ED91FC915597D996DC90D997F4
:1013F000CF0103966A3019F5FC018491D80ED99675
:10140000DC92D997D8961C9281E090E02D960FB689
:10141000F894DEBF0FBECDBFDF91CF911F910F912A
:10142000FF90EF90DF90CF90BF90AF909F908F9004
:101430007F906F905F904F903F902F9008953296DD
:101440002490D8965C90D8975D0124E0A20EB11C40
:10145000F490FC01E490352C3F0CED0C81E0850DFF
:10146000381610F4FF24F394C62E8D01612CCE01A2
:1014700001964C01462C752C242DA4016C2DC50120
:101480000E9489097C86DD8691E09B879A86898601
:10149000D8011896ED91FC919E01275F3F4F41E0E6
:1014A0006FE0C501099543947394731428F3D394A2
:1014B0006F0CDE14F8F2F80180AD820D80AFA4CF7E
:1014C000DC01ED91FC910190F081E02D09942091D7
:1014D0008D02260F3327331F21323105ECF4209182
:1014E0001803FC0190E080E0243069F082E0089568
:1014F000A0918D022191AC0143595D4FA40FB52FEE
:10150000B11D2C930196861798F380918D02680F78
:1015100060938D0280E0089581E008951092180391
:1015200081E08093F7021092F20261E082E10E9472
:10153000860461E083E10E948604E9EBF0E08081AB
:101540008E7F808380818D7F808388E48093B80044
:1015500085E48093BC000895CF93DF9391E090934E
:101560006C028823B9F0C091B800D091BA00809184
:10157000BC008A7B8093BC0060E082E10E9486040C
:1015800060E083E10E9486040E948E0AD093BA0034
:10159000C093B800DF91CF910895CF92DF92EF9280
:1015A000FF920F931F93CF93DF93D82FC62F6132F3
:1015B00008F098C00E94E5046B017C01809118033B
:1015C00081116BC081E0809318038093F7029FEF35
:1015D0009093F6021092F5029C0F9093F402809380
:1015E000F3028091F302DD0FD82BD093F3028091A8
:1015F000F202813009F078C01092F2020E94E504F4
:101600006B017C018091F3028093BB0080911A03EF
:1016100090911B03A0911C03B0911D03892B8A2B71
:101620008B2BA1F00E94E50400911A0310911B037B
:1016300020911C0330911D036C197D098E099F09AF
:10164000061717072807390708F448C08091BC001F
:1016500083FDD8CF85EC8093BC000E94E5046B012C
:101660007C0180911803813009F440C08091F5021B
:101670008C1710F4C091F502E2EDF2E0A8EFB2E0B1
:1016800080E08C1355C08C2FDF91CF911F910F916B
:10169000FF90EF90DF90CF90089580911A03909182
:1016A0001B03A0911C03B0911D03892B8A2B8B2B4C
:1016B00009F484CF0E94E50400911A0310911B03E2
:1016C00020911C0330911D036C197D098E099F091F
:1016D000061717072807390708F070CF80911903FC
:1016E0000E94AC0AC0E0CFCF85EEB5CF80911A033F
:1016F00090911B03A0911C03B0911D03892B8A2B91
:101700008B2B09F4AECF0E94E50400911A031091CF
:101710001B0320911C0330911D036C197D098E0958
:101720009F09061717072807390708F09ACFD6CF61
:1017300091919D938F5FA5CFE091D1028091D002CE
:10174000E81730F4F0E0E850FD4F808190E0089514
:101750008FEF9FEF08959091D1028091D0022FEFEB
:101760003FEF981748F4E92FF0E0E850FD4F208153
:1017700030E09F5F9093D102C9010895CF92DF922C
:10178000EF92FF920F931F93CF93DF937C01CB01D6
:101790008A0120912103222389F0EB016B01C40E01
:1017A000D51ECC15DD0569F06991D701ED91FC914D
:1017B0000190F081E02DC7010995F3CF642F0E94BD
:1017C000670AC801DF91CF911F910F91FF90EF90B1
:1017D000DF90CF900895CF93DF931F92CDB7DEB700
:1017E0006983209121032223F9F020911E032032E6
:1017F00058F021E030E0FC013383228390E080E068
:101800000F90DF91CF91089580911F03E82FF0E0B2
:10181000E45BFD4F998190838F5F80931F038093DA
:101820001E0381E090E0ECCF61E0CE0101960E94C2
:10183000670AF7CFCF92DF92EF92FF920F931F9339
:10184000CF93DF93D0911E0381E0D13208F09CC08A
:10185000C09120030E94E5046B017C018091180374
:1018600081116CC082E08093180381E08093F702BD
:101870008FEF8093F6021092F502D093F402ACE45D
:10188000B2E0E2EDF2E080E0D8138DC01092F302F6
:101890008091F302CC0FC82BC093F3028091F20227
:1018A000813009F084C01092F2020E94E5046B01BD
:1018B0007C018091F3028093BB0080911A03909188
:1018C0001B03A0911C03B0911D03892B8A2B8B2B2A
:1018D000A1F00E94E50400911A0310911B032091CE
:1018E0001C0330911D036C197D098E099F09061791
:1018F00017072807390708F442C08091BC0083FD10
:10190000D8CF85EC8093BC000E94E5046B017C017C
:1019100080911803823009F44CC08091F6028F3F09
:1019200009F469C08091F602803209F466C08091A2
:10193000F602803309F463C084E026C080911A0364
:1019400090911B03A0911C03B0911D03892B8A2B3E
:101950008B2B09F483CF0E94E50400911A031091A8
:101960001B0320911C0330911D036C197D098E0906
:101970009F09061717072807390708F06FCF8091CE
:1019800019030E94AC0A85E010921F0310921E03F7
:1019900010922103DF91CF911F910F91FF90EF9053
:1019A000DF90CF9008959D9191938F5F6DCF85EEDD
:1019B000A9CF80911A0390911B03A0911C03B091B1
:1019C0001D03892B8A2B8B2B09F4A2CF0E94E504DF
:1019D00000911A0310911B0320911C0330911D03E9
:1019E0006C197D098E099F09061717072807390703
:1019F00008F08ECFC4CF80E0C7CF82E0C5CF83E0B0
:101A0000C3CFCF93DF93EC01683109F444C030F4C5
:101A10006431A1F0673159F080E006C0693109F402
:101A200053C06032C9F781E0DF91CF91089550E053
:101A3000B90185E394E00E94BE0BF5CF8C859D85AE
:101A4000AE85BF85892B8A2B8B2B71F4E881F981B8
:101A5000A585B0E020EA36E841E050E00E949C2CE9
:101A60006C877D878E879F871092D1021092D0025B
:101A700010921F0310921E030E948E0A8BE594E0C1
:101A80009093CE028093CD028CE594E09093CC02AB
:101A90008093CB02C8CF2C853D854E855F8560E065
:101AA00074E284EF90E00E94E62C20513109410954
:101AB000510956954795379527952093B8008E89FB
:101AC00086950E945403AFCF85E394E00E941A0CE0
:101AD000AACFDF92EF92FF920F931F93CF93DF93E2
:101AE00000D0CDB7DEB77C018B0119836A83CE01AC
:101AF00001960E945E03D82E81E60E9454036F2D4A
:101B000070E08091C5069091C6060E94600AB701F8
:101B100077278091C5069091C6060E94600A612FC2
:101B200070E08091C5069091C6060E94600AB801D7
:101B300077278091C5069091C6060E94600A809121
:101B4000C5069091C606DC01ED91FC910190F081F3
:101B5000E02D6D2D09958091C5069091C6060E94D5
:101B60001A0C91E0811190E0892F0F900F90DF9176
:101B7000CF911F910F91FF90EF90DF90089590E02B
:101B800080E00895682F87E70E94CD0A1092D10265
:101B90008093D0020895CF93C82F87E70E94540303
:101BA0006C2F85E394E00E94EB0B85E394E00E94A8
:101BB0001A0C82E090E00E94C20D8091D0029091B8
:101BC000D102891B990B82309105ECF385E394E0F7
:101BD0000E94AB0BC82F85E394E00E94AB0B20E082
:101BE0003C2FA901482BCA01982789279827CF9114
:101BF00008958F929F92AF92BF92CF92DF92EF9211
:101C0000FF92F82E87E70E9454036F2D85E394E03E
:101C10000E94EB0B85E394E00E941A0C83E090E0B5
:101C20000E94C20D8091D0029091D102891B990B24
:101C300083309105ECF385E394E00E94AB0B092E11
:101C4000000CAA0BBB0B8824982EA92EBA2E85E374
:101C500094E00E94AB0B092E000CAA0BBB0B6C018D
:101C60007D01C828D928EA28FB28FE2CED2CDC2C85
:101C7000CC2485E394E00E94AB0BBC01990F880B48
:101C8000990B6C297D298E299F29FF90EF90DF9079
:101C9000CF90BF90AF909F908F9008952F923F92DA
:101CA0004F925F926F927F928F929F92AF92BF926C
:101CB000CF92DF92EF92FF920F931F93CF93DF9318
:101CC000CDB7DEB76B970FB6F894DEBF0FBECDBFB2
:101CD0008AEF0E94F90D2091C1033091C203C72EF3
:101CE000D82EE92EFF24E7FCFA94C21AD30AE108A1
:101CF000F10817E095958795779567951A95D1F72F
:101D0000220F331F4B015C01821A930AA108B1080C
:101D1000A5019401A091C303B091C4030E94A72C14
:101D20004B015C018BE0B594A794979487948A95B6
:101D3000D1F7A7019601C701B6010E94172D9B019B
:101D4000AC019CE055954795379527959A95D1F725
:101D5000A091C503B091C6030E94A72C2EE09595D3
:101D60008795779567952A95D1F7860E971EA81EB9
:101D7000B91E8092D9039092DA03A092DB03B0924D
:101D8000DC0387EF0E94F90D6E8B7F8B888F998F14
:101D90008091D9039091DA03A091DB03B091DC0329
:101DA0006C017D01FF0CCC08DC2C76019C01AD019F
:101DB0006C2D7C2D8C2D9C2D345F41405109610987
:101DC00071098109910929873A874B87652E762EFB
:101DD000872E982E9B8F5901C42ED52EE62EF72ED6
:101DE000082F192F0E944D2D322E232E488B598BF0
:101DF0006A8B7B8B8C8B9D8B3091CA032091C9039E
:101E0000932F990F990B492F592F692F792F892FCC
:101E10000E944D2D0CE00E94452E29833C874A8F5D
:101E20005D876E877F87582E492E3091CC03209195
:101E3000CB03932F990F990BA32CB22CC888D98868
:101E4000EA88FB880C891D89492F592F692F792F22
:101E5000892F0E944D2D08E00E945E2EA980BC842F
:101E6000CA8CDD84EE84FF84052D142D0E947B2E08
:101E700070588F4F9F4FE091C703F091C8035F01E7
:101E8000D12CC12CE12CF12C8701E983BA82CB82C1
:101E9000DC82ED82FE820F831887C12CD12CE12CCD
:101EA000F12C00E010E00E944D2D01E20E945E2E18
:101EB0002A8F532E49835C876D877E878F87492EB3
:101EC000A0E00E948D2E09F434C13091D2032091FC
:101ED000D103932F990F990BA32CB22CC888D988C2
:101EE000EA88FB880C891D89492F592F692F792F82
:101EF000892F0E944D2D1901488B598B6A8B7B8B42
:101F00008C8B9D8B3091D0032091CF03932F990F11
:101F1000990BA984BA84CB84D62CE72CF82C092DF4
:101F20001B8D492F592F692F792F892F0E944D2DF5
:101F300001E10E94452E5101C888D988EA88FB88B2
:101F40000C891D890E947B2E59016A017B01382E64
:101F5000192F4E895F89688D798D84E07595679515
:101F6000579547958A95D1F780E090E0A0E1B0E0E1
:101F7000841B950BA60BB70B3C014D01990C660811
:101F8000762C43019C01AD01662D762D862D962D74
:101F90000FE10E94452E722E832E942E5987B62F64
:101FA000A72FF82FE92F3091CE032091CD03932F47
:101FB000990F990B492F592F692F792F892F03E2F8
:101FC0000E94452E032D0E947B2E59016A017B0140
:101FD0008C01272D382D492D59856B2F7A2F8F2F66
:101FE0009E2F0E94842EE5E3AE2EFCE0BF2EC12C76
:101FF000D12CE12CF12C00E010E00E944D2DAA8C98
:10200000B52CC980DC84ED84FE840F85142D0E94DC
:10201000A72D2F873E8749875A876B8779838C87BF
:102020009D870DE00E945E2E922E832E742E652ECB
:10203000562E472E382E292E3091D8032091D703C3
:10204000932F990F990BA92CB82CC72CD62CE52CC3
:10205000F42C032D122D492F592F692F792F892FF9
:102060000E944D2D0E944D2D09E10E945E2EAF84ED
:10207000BE84C984DA84EB84F9800C851D850E94B6
:102080007B2E19012A013B014C013091D60320918E
:10209000D503932F990F990B492F592F692F792F1A
:1020A000892F0E944D2D03E10E945E2E59016A0185
:1020B0007B018C019101A201B301C4010E947B2E1E
:1020C00008E00E945E2E59016A017B01E82F192F5A
:1020D0003091D4032091D303932F990F990B492F5B
:1020E000592F692F792F892F04E00E94452E0E2F3A
:1020F0000E947B2E49015A0199278B2D7A2D692D3B
:102100006B960FB6F894DEBF0FBECDBFDF91CF91B7
:102110001F910F91FF90EF90DF90CF90BF90AF9005
:102120009F908F907F906F905F904F903F902F90F7
:10213000089560E070E0CB01E3CFCF9381E60E9489
:10214000540362E070E08091C5069091C6060E943B
:10215000600A62E070E08091C5069091C6060E9418
:10216000600A8091C5069091C6060E941A0C8823C9
:1021700021F090E080E0CF91089563E070E080E08E
:1021800090E00E940A0562E081E60E94CD0A10926A
:10219000D1028093D0028091C5069091C606DC01E1
:1021A000ED91FC910084F185E02D0995892B09F3CF
:1021B0008091C5069091C606DC01ED91FC910284E8
:1021C000F385E02D0995C82F8091C5069091C6062C
:1021D000DC01ED91FC910284F385E02D099520E06E
:1021E0003C2FA901482BCA01C6CF0E944E0E0E9467
:1021F000822B20E836EE45EC57E40E941A2F25E5A5
:1022000034ED42E45EE30E94BB2F9B01AC0160E031
:1022100070E080E89FE30E94AD2E2BE43AE34DEBA3
:1022200057E30E941A2F0895CF93DF9320913D0624
:1022300030913E06A901460F571F403F5105B8F4A3
:10224000EB01BC0180913B0690913C06820F931FED
:10225000AE018A5B9A4F0E94FD3160913D067091FC
:102260003E06C60FD71FD0933E06C0933D06DF91B2
:10227000CF9108951616170614F40C9414110895AE
:10228000CF93DF9300D0CDB7DEB79A83898362E026
:1022900070E0CE0101960E943A110F900F90DF91ED
:1022A000CF910895AF92BF92CF92DF92EF92FF92BB
:1022B0000F931F93CF93DF931F92CDB7DEB75C01CF
:1022C000FC018481898361E070E0CE0101960E9467
:1022D0001411C980D12CC60101960E944D277C01A2
:1022E0000097B1F0F50104811581FC01011511057C
:1022F00071F0C016D10608F48601F5016081718184
:10230000A801C7010E940D32F701E00FF11F1082F2
:10231000B601C7010E943A11E114F10471F0C7013E
:102320000F90DF91CF911F910F91FF90EF90DF9071
:10233000CF90BF90AF900C94E9270F90DF91CF9191
:102340001F910F91FF90EF90DF90CF90BF90AF90D3
:1023500008950F931F93CF93DF93182F092F109297
:102360003E0610923D0610923C0610923B0683E01A
:1023700090E00E944D27EC01088319831A8263E0E4
:1023800070E00E941411209719F0CE010E94E927F5
:1023900010923E0610923D0684E090E090933C0639
:1023A00080933B06DF91CF911F910F910895CF93BA
:1023B000DF93EC0188819981009711F00E94E92751
:1023C000198218821D821C821B821A82DF91CF9192
:1023D0000895FC0180819181009711F00C94E92708
:1023E0000895FB0101900020E9F73197AF01461BEA
:1023F000570BDC01ED91FC910280F381E02D0994F3
:102400008F929F92AF92BF92EF92FF920F931F9382
:10241000CF93DF93CDB7DEB7A1970FB6F894DEBFA9
:102420000FBECDBF7C01FA01CB0119A2223008F406
:102430002AE08E010F5D1F4F822E912CB12CA12C12
:10244000BF01A50194010E94E62CF901CA016A307E
:102450000CF5605DD8016E938D01232B242B252B69
:1024600079F790E080E0109721F0BD01C7010E944C
:10247000F111A1960FB6F894DEBF0FBECDBFDF916C
:10248000CF911F910F91FF90EF90BF90AF909F90D1
:102490008F900895695CDECF2F923F924F925F92AA
:1024A0006F927F928F929F92AF92BF92CF92DF9264
:1024B000EF92FF920F931F93CF93DF93CDB7DEB7C9
:1024C0002E970FB6F894DEBF0FBECDBF0E949D10B1
:1024D000019779F519861A861B861C861D821E8235
:1024E0001F82188619821A821B821C8281E60E9432
:1024F00054038091C5069091C606DC01ED91FC91D4
:102500000190F081E02D63E009958091C5069091DE
:10251000C606DC01ED91FC910190F081E02D60E0B8
:1025200009958091C5069091C6060E941A0C8823D1
:1025300011F080E0A6C063E070E080E090E00E94CF
:102540000A0562E181E60E94CD0A182F1092D1029D
:102550008093D0028091C5069091C606DC01ED9172
:10256000FC910084F185E02D0995892B09F403C1C4
:10257000412C512C3201212C8AE0E82EF12C99E0DB
:10258000C92ED12C24E0A22EB12C33E0832E912C25
:10259000142D8091C5069091C606DC01ED91FC9149
:1025A0000284F385E02D0995382E113108F096C08C
:1025B000E42DF0E0E252FD4E0C94472DEF12EF12A5
:1025C0006E13EF12EF126E135A135A136E135A133F
:1025D0005A136E13631363136E1363136313C401EF
:1025E000133008F0C50184199509E9E0F0E0EC0F1B
:1025F000FD1F8E0F9F1FDC013C92812F63E00E9424
:10260000272DEDE0F0E0EC0FFD1FE90FF11D30820A
:10261000BFEF4B1A5B0A6B0A7B0AE2E14E165104CC
:102620006104710409F0B4CF2110CCC089859A856A
:10263000AB85BC858093C7069093C806A093C90656
:10264000B093CA0689819A81AB81BC818093CB0605
:102650009093CC06A093CD06B093CE068D819E813B
:10266000AF81B8858093CF069093D006A093D10612
:10267000B093D2061092D4061092D5061092D606C8
:1026800081E02E960FB6F894DEBF0FBECDBFDF916E
:10269000CF911F910F91FF90EF90DF90CF90BF905F
:1026A000AF909F908F907F906F905F904F903F90F2
:1026B0002F900895C601193008F0C70184199509B3
:1026C000E1E0F0E094CF8FE090E01F3010F080E187
:1026D00090E084199509E5E0F0E089CFCE010D96F0
:1026E0000E945E03182F381609F492CF2090D90665
:1026F0002220F1F16CEF72E08091D7069091D8061C
:102700000E94D8052AE0B301A2018091D7069091DA
:10271000D8060E9400126EEE72E08091D70690916A
:10272000D8060E94D805412F50E070E060E020E11B
:102730008091D7069091D8060E94001265EE72E053
:102740008091D7069091D8060E94D8050091D706AF
:102750001091D806432D50E070E060E020E1C80100
:102760000E94001263EB71E0C8010E94F11150CF8A
:10277000222423944DCF8091D906882309F4D9CE01
:1027800068E972E08091D7069091D8060E94D8053A
:10279000412F50E070E060E02AE08091D7069091F0
:1027A000D8060E9400120091D7061091D80661E960
:1027B00072E0C8010E94D80563EB71E0C8010E9475
:1027C000F111B7CE8091D906882309F4B2CE0091D9
:1027D000D7061091D8066AE572E0EBCF8091D40657
:1027E000882381F00E944C1281110CC08091D30685
:1027F000811108C01092C7061092C8061092C9062F
:102800001092CA0681E08093D4066091C706709149
:10281000C8068091C9069091CA060E948C2FCB01F0
:1028200008950F931F93CF93DF93EC0188819981D3
:10283000009759F02A813B812617370730F081E055
:10284000DF91CF911F910F9108958B016F5F7F4FA3
:102850000E944031009759F0998388831B830A8333
:102860002C813D81232B59F7FC011082E8CF80E0B9
:10287000E7CFEF92FF920F931F93CF93DF936115F2
:10288000710541F480E0DF91CF911F910F91FF908E
:10289000EF90089541155105B1F07B01EC010C81D9
:1028A0001D81040F151FB8010E941114882351F3D4
:1028B000288139818C819D81B701820F931F0E94ED
:1028C00006321D830C8381E0DECFCF93DF93EC01D2
:1028D000FB0101900020E9F73197AF01461B570B30
:1028E0000E943914811103C0CE010E94D711CE017C
:1028F000DF91CF910895CF93DF93EC01FB014481E9
:102900005581608171810E943914811103C0CE010B
:102910000E94D711CE01DF91CF910895EF92FF92DF
:102920000F931F93CF93DF93EC017B018A01BA01D0
:102930000E94111481110BC0CE010E94D711CE014B
:10294000DF91CF911F910F91FF90EF9008951D831C
:102950000C83B701888199810E940632F0CFFB0178
:1029600001900020E9F73197AF01461B570B0C94FB
:102970008E14EF92FF920F931F93CF93DF93CDB7F7
:10298000DEB7A1970FB6F894DEBF0FBECDBF7C01B6
:10299000CB01BA01F70111821082138212821582D3
:1029A00014828E010F5F1F4F22E044E00E942F2708
:1029B000009789F0BC01C7010E94AF14A1960FB621
:1029C000F894DEBF0FBECDBFDF91CF911F910F9165
:1029D000FF90EF900895C7010E94D711EFCFCF93DA
:1029E000DF93EC01FB018617970749F06081718145
:1029F0006115710541F0448155810E948E14CE010C
:102A0000DF91CF9108950E94D711F9CF2091B70699
:102A10003091B8064091690650916A06241735072F
:102A200094F5220F331F40916B0650916C06240FD2
:102A3000351FF901918380832091B7063091B80644
:102A400046E0429FC001439F900D112420916D06E6
:102A500030916E06820F931F0E94EF14E0916F0673
:102A6000F09170068091B7069091B806E80FF91FB3
:102A700087E080838091B7069091B8060196909385
:102A8000B8068093B70608952091B7063091B8062E
:102A90004091690650916A0624173507ACF5BC01D0
:102AA000220F331F80916B0690916C06280F391FFF
:102AB00082E293E0F901918380832091B7063091FF
:102AC000B80646E0429FC001439F900D112420911B
:102AD0006D0630916E06820F931F0E94EF14E091F5
:102AE0006F06F09170068091B7069091B806E80FD6
:102AF000F91F83E080838091B7069091B806019614
:102B00009093B8068093B7060895EF92FF920F93C3
:102B10001F93CF93DF93CDB7DEB7A2970FB6F8948C
:102B2000DEBF0FBECDBF162F009709F03AC08091CF
:102B30008106909182060E94A91181E090E00E9496
:102B4000401190E080E00E9440111AA361E070E023
:102B5000CE0182960E943A118091A5069091A60618
:102B6000A091A706B091A8068B8F9C8FAD8FBE8FCA
:102B700064E070E0CE014B960E943A111A3008F0E2
:102B80003EC0E12FF0E0E953FA4E0C94472DD415E6
:102B9000ED152B1665168D16FF15BF16FF15FF15C3
:102BA00003170E94A911CDCF8091AF069091B00676
:102BB000A091B106B091B2068F8B988FA98FBA8F72
:102BC00064E070E0CE0147960E943A118091AD0614
:102BD0009091AE060E94401112C08091A90690917A
:102BE000AA06A091AB06B091AC068B8B9C8BAD8BEB
:102BF000BE8B64E070E0CE0143960E943A110E94C1
:102C0000C90780919F069091A006A091A106B0915E
:102C1000A2060196A11DB11D80939F069093A00668
:102C2000A093A106B093A2060E94CA0560937B06FA
:102C300070937C0680937D0690937E06A2960FB6D5
:102C4000F894DEBF0FBECDBFDF91CF911F910F91E2
:102C5000FF90EF90089580918506909186062091CF
:102C60008B0630918C06821B930B880F991F880F5F
:102C7000991F20918F0630919006820F931FFC01BF
:102C800080819181A281B3818B879C87AD87BE872C
:102C900064E070E0CE010B960E943A1180918506A7
:102CA000909186060E9440118091AF069091B006E7
:102CB000A091B106B091B2068F87988BA98BBA8B81
:102CC00064E070E0CE010F9698CF809187069091D6
:102CD000880620918B0630918C06821B930B880FFF
:102CE000991F880F991F20918F0630919006820FAF
:102CF000931FFC0180819181A281B3818F8398878A
:102D0000A987BA8764E070E0CE0107960E943A1165
:102D100080918306909184065DCF8091A906909161
:102D2000AA06A091AB06B091AC0689839A83AB83C7
:102D3000BC8364E070E0CE0101960E943A1180915C
:102D4000890690918A060E94401110E000E080916F
:102D5000890690918A060817190708F050CFC80114
:102D6000880F991FE0918D06F0918E06E80FF91FEC
:102D7000808191810E9440110F5F1F4FE8CF8091A9
:102D8000B7069091B80698A38F8F62E070E0CE01ED
:102D90004F960E943A11F12CE12C10E000E0809156
:102DA000B7069091B806081719070CF028CFE091E4
:102DB0006F06F0917006E00FF11F808189A361E03A
:102DC00070E0CE0181960E943A1160916D0670917B
:102DD0006E066E0D7F1D1A8219821C821B821E8256
:102DE0001D82CE0101960E94EF14CE0101960E9431
:102DF0005211CE0101960E94E9110F5F1F4FF6E0BC
:102E0000EF0EF11CCCCF10E000E08091B70690915E
:102E1000B806081719070CF0F2CEE0916F06F09192
:102E20007006E00FF11FE081EE2301F1A0916B0627
:102E3000B0916C06C801880F991FA80FB91F8D911A
:102E40009C91E930B1F41A8219821C821B821E8285
:102E50001D82BC01CE0101960E94EF14CE010196A5
:102E60000E945211CE0101960E94E9110F5F1F4F7F
:102E7000CCCF70E060E0EA3038F4F0E0EE0FFF1FF6
:102E8000E159FE4F608171810E943A11EFCFFC0140
:102E900011821082138212821582148261157105CB
:102EA00051F0FB0101900020E9F73197AF01461B7B
:102EB000570B0C948E140895AF92BF92CF92DF926D
:102EC000EF92FF920F931F93CF93DF9300D000D028
:102ED00000D0CDB7DEB77A018C01060F171FF801BD
:102EE000C080D12CC6010E944D275C01F801DC0195
:102EF0003196CD018A199B098C159D051CF48081A2
:102F00008D93F6CFB501CE0101960E944717F701C8
:102F1000808191810097A1F169817A8161157105A4
:102F200069F1428153812D813E814217530730F16F
:102F30000E9406328D819E81F701958384831E82D3
:102F40001D82CE0101960E94E911A114B10419F06D
:102F5000C5010E94E927C601019626960FB6F8948E
:102F6000DEBF0FBECDBFDF91CF911F910F91FF90BC
:102F7000EF90DF90CF90BF90AF9008950E94E92727
:102F800089819A81F701918380838B819C819383CE
:102F900082838D819E81958384831A8219821C820B
:102FA0001B82CDCF85ED8093BC0080911A03909158
:102FB0001B03A0911C03B0911D030796A11DB11D19
:102FC00023E0B695A795979587952A95D1F72091F7
:102FD000BC0024FD03C010921803089540911A0309
:102FE00050911B0360911C0370911D03452B462BD0
:102FF000472B69F30097A105B10541F025E32A9518
:10300000F1F700000197A109B109E1CF80911903FF
:103010000C94AC0A1F920F920FB60F9211242F93AB
:103020003F938F939F93AF93BF938091C3029091EF
:10303000C402A091C502B091C6023091C20223E041
:10304000230F2D3758F50196A11DB11D2093C20203
:103050008093C3029093C402A093C502B093C602AA
:103060008091C7029091C802A091C902B091CA0292
:103070000196A11DB11D8093C7029093C802A09331
:10308000C902B093CA02BF91AF919F918F913F91B6
:103090002F910F900FBE0F901F90189526E8230FC9
:1030A0000296A11DB11DD2CF1F920F920FB60F92A3
:1030B00011242F933F934F935F936F937F938F933D
:1030C0009F93AF93BF93EF93FF9384E293E00E94AB
:1030D0003A07FF91EF91BF91AF919F918F917F91AF
:1030E0006F915F914F913F912F910F900FBE0F9075
:1030F0001F9018951F920F920FB60F9211242F93C5
:103100008F939F93EF93FF93E0913403F0913503F6
:103110008081E0913A03F0913B0382FD1BC09081D6
:1031200080913D038F5F8F7320913E03821741F0A2
:10313000E0913D03F0E0EC5DFC4F958F80933D0303
:10314000FF91EF919F918F912F910F900FBE0F9054
:103150001F9018958081F4CF1F920F920FB60F9297
:1031600011242F933F934F935F936F937F938F938C
:103170009F93AF93BF93EF93FF938091B900887FA4
:10318000803609F44AC0F0F5883209F4A7C018F572
:10319000803109F49BC0B8F4882309F4F9C0883061
:1031A00009F494C0FF91EF91BF91AF919F918F91DE
:1031B0007F916F915F914F913F912F910F900FBE33
:1031C0000F901F901895883109F488C0803251F70C
:1031D0008093F60214C0803409F49DC040F480331B
:1031E000B9F38833F9F68093F60285ECB0C08035E8
:1031F00009F485C0883509F496C0883499F60E9490
:10320000D217D0CF883909F48CC038F5883729F027
:1032100050F4883611F0803729F683E08093180344
:103220001092AF0257C0883809F47BC0803919F07A
:10323000803809F0B7CF8091AF02803208F071C0BA
:10324000E091AF0281E08E0F8093AF028091BB00CE
:10325000F0E0E157FD4F80833DC0803B39F0E0F462
:10326000803A09F479C0883A09F09CCF84E08093D1
:10327000180310928E0210928D02E091CD02F0910F
:10328000CE02099580918D0281110FC081E080935B
:103290008D0210926D0209C0803C09F4A6CF883CD3
:1032A00009F4A3CF883B09F07DCFE0918E0281E045
:1032B0008E0F80938E02F0E0E359FD4F8081809362
:1032C000BB0090918E0280918D0229C08091F30203
:1032D0008093BB0085EC8093BC0064CF9091F50295
:1032E0008091F402981758F5E091F50281E08E0F75
:1032F0008093F502F0E0EE52FD4F8081E9CFE0913E
:10330000F50281E08E0F8093F5028091BB00F0E022
:10331000EE52FD4F80839091F5028091F402981750
:10332000C8F285E8D8CFE091F50281E08E0F809356
:10333000F5028091BB00F0E0EE52FD4F808380915A
:10334000F70281115CCF81E08093F20284EA8093DE
:10335000BC001092180326CF85EC8093BC0010921D
:1033600018038091AF02803230F4E091AF02F0E0B8
:10337000E157FD4F10826091AF0270E0E091CB0207
:10338000F091CC028FE892E009951092AF020ACF3B
:103390001092F60234CF0F931F93CF93DF931092C6
:1033A00027031092260388EE93E0A0E0B0E080931C
:1033B000280390932903A0932A03B0932B0387E853
:1033C00091E0909325038093240385EC90E0909303
:1033D00031038093300384EC90E090933303809327
:1033E000320380EC90E0909335038093340381ECBA
:1033F00090E0909337038093360382EC90E09093B3
:1034000039038093380386EC90E090933B038093DC
:103410003A0310923D0310923E0310923F03109224
:1034200040031092FE031092FD0310923304109299
:10343000340489E991E09093FC038093FB0310929C
:1034400000041092FF0310921404109217041092BB
:103450000B0410920C0410920D0410920E048FEFC6
:103460008093150480931904EDE1F4E083E394E084
:10347000DFEFD1938E179F07E1F78BE998E09093E8
:1034800004048093030481EF93E0909306048093F7
:10349000050481E09DE090930804809307048DE388
:1034A00095E090930A048093090430E020E040E026
:1034B00069E08FEF93E00E949B08D0932804D0939B
:1034C0002904D0932A0483E08093ED039BE090933A
:1034D000EE03E7E3F3E0E491E093EF03E3E2F3E0EC
:1034E000E491E093F00340E85EE360E070E0409335
:1034F000F5035093F6036093F7037093F80390E598
:103500009093E4031092E50310923804109237046C
:1035100048EE53E060E070E04093390450933A0481
:1035200060933B0470933C0425EA31E03093360409
:10353000209335041092C7061092C8061092C9064F
:103540001092CA061092CB061092CC061092CD06AD
:103550001092CE061092CF061092D0061092D1068D
:103560001092D2061092D306C1E0C093D406C09345
:10357000D506C093D6061092D90610923D0510923A
:103580003C05109241051092400510923A061092A7
:10359000390610923E0610923D0690EC90935D061F
:1035A00010925E0699E090935F0610924C0610927E
:1035B0004B06109260061092610610924D06109212
:1035C000620680934E0610924F0622E0209350062A
:1035D00092E69093630610925106909164061092C1
:1035E0005206109253069C719093640610925406F2
:1035F00010926506109255061092560610925706C4
:10360000109258061092590610925A0610926606A9
:1036100010925C0610925B06109267061092680684
:10362000209347048093480401E010E010933F0585
:1036300000933E0566EB71E08BEB96E00E94471726
:103640001092C1061092C3061092C206C093C4061F
:1036500010929A06D09399061092A3061092A4068F
:1036600080E197E2A0E0B0E080937706909378063F
:10367000A0937906B0937A068FEF9FEFDC018093D9
:10368000A5069093A606A093A706B093A8068093DC
:10369000A9069093AA06A093AB06B093AC068093BC
:1036A000AF069093B006A093B106B093B206109205
:1036B0007F061092800610928206109281068EEF8D
:1036C0009FEF9093AE068093AD0610928406109201
:1036D0008306109288061092870610928606109232
:1036E000850610928A061092890610938C06009324
:1036F0008B061092900610928F0610928E061092F2
:103700008D061092910610929206109293061092D6
:1037100094061092950610929606109297061092B3
:10372000980610926C0610926B0610926E0610921C
:103730006D061092700610926F061092720610922B
:10374000710610927406109273061092760610920B
:10375000750690934C0680934B06D0936006809339
:103760006106109254061092650610924D06109252
:103770006206C093550680916606C09352069091EA
:103780006406906290936406C0935806C0935606F0
:103790001092500690916306987F90936306109262
:1037A000590610925A068072806D809366061092B8
:1037B0009B0610929C0610929D0610929E061092F7
:1037C0009F061092A0061092A1061092A20665EB29
:1037D00071E081E494E0DF91CF911F910F910C94FF
:1037E0004717CF93DF93CDB7DEB769970FB6F8943D
:1037F000DEBF0FBECDBF789484B5826084BD84B532
:10380000816084BD85B5826085BD85B5816085BDDB
:1038100080916E00816080936E0010928100809193
:10382000810082608093810080918100816080931B
:103830008100809180008160809380008091B10040
:1038400084608093B1008091B00081608093B0006B
:1038500080917A00846080937A0080917A008260FF
:1038600080937A0080917A00816080937A008091C1
:103870007A00806880937A001092C100E09134034E
:10388000F091350382E08083E0913003F0913103C1
:103890001082E0913203F09133038FEC8083109219
:1038A0003C03E0913803F091390386E08083E09196
:1038B0003603F0913703808180618083E091360385
:1038C000F0913703808188608083E0913603F09126
:1038D0003703808180688083E0913603F09137035D
:1038E00080818F7D8083E0910304F091040430E0B7
:1038F00020E040E06AE08FEF93E009958E010F5FD2
:103900001F4F88E0D8011D928A95E9F7B8018FEF23
:1039100093E00E945209E0910304F091040430E026
:1039200020E040E06BE08FEF93E009951092D10228
:103930001092D00210921F0310921E030E948E0A52
:103940008BE594E09093CE028093CD028CE594E0D9
:103950009093CC028093CB0287E70E94540360EDE2
:1039600085E394E00E94EB0B85E394E00E941A0C3F
:1039700081E090E00E94C20D9091D0028091D1022E
:103980009817F1F385E394E00E94AB0B883509F0BA
:1039900065C088E80E94CB0D9093C2038093C10359
:1039A0008AE80E94CB0D9093C4038093C3038CE8F4
:1039B0000E94CB0D9093C6038093C5038EE80E94AE
:1039C000CB0D9093C8038093C70380E90E94CB0D71
:1039D0009093CA038093C90382E90E94CB0D909310
:1039E000CC038093CB0384E90E94CB0D9093CE034C
:1039F0008093CD0386E90E94CB0D9093D0038093F2
:103A0000CF0388E90E94CB0D9093D2038093D1031A
:103A10008AE90E94CB0D9093D4038093D3038CE961
:103A20000E94CB0D9093D6038093D5038EE90E941C
:103A3000CB0D9093D8038093D70387E70E9454035C
:103A400064EF85E394E00E94EB0B6FE385E394E081
:103A50000E94EB0B85E394E00E941A0C85E394E04E
:103A60009093C6068093C50681E60E94540361EDDB
:103A700070E08091C5069091C6060E94600A70E0D1
:103A800060E08091C5069091C6060E94600A809110
:103A9000C5069091C6060E941A0C8111AAC063E067
:103AA00070E080E090E00E940A0563E081E60E94F9
:103AB000CD0A1092D1028093D0028091C5069091D8
:103AC000C606DC01ED91FC910084F185E02D09959D
:103AD000892B09F48EC08091C5069091C606DC0141
:103AE000ED91FC910284F385E02D09958983809105
:103AF000C5069091C606DC01ED91FC910284F38528
:103B0000E02D09958A838091C5069091C606DC0157
:103B1000ED91FC910284F385E02D0995D82EE98082
:103B2000FA80FE24EF24FE24C8010E945E03C82E02
:103B30008091D906DC102FC08823C1F064E172E0C7
:103B40008091D7069091D8060E94D805C090D706DC
:103B5000D090D806A70170E060E020E1C6010E9485
:103B6000001263EB71E0C6010E94F11170E060E0A9
:103B700080E190E00E94690D8823D9F162E070E055
:103B800080E096E40E94690D70E060E086E093E5D5
:103B90000E94690D2EC0882361F16DEE71E0809165
:103BA000D7069091D8060E94D8054C2D50E070E0C1
:103BB00060E020E18091D7069091D8060E94001223
:103BC00064EE71E08091D7069091D8060E94D805E6
:103BD000E090D706F090D8064D2D50E070E060E000
:103BE00020E1C7010E94001263EB71E0C7010E944F
:103BF000F11170E060E083E094E50E94690DE091CE
:103C00000304F091040430E020E041E06DE08FEF28
:103C100093E009951092B8061092B70653E0A52ECE
:103C2000B12CB0926A06A092690684E190E00E94ED
:103C30004D276C01F601A192B1927F0165EB71E015
:103C4000CF010E94471765EB71E0C60108960E94FC
:103C5000471765EB71E0C6010E960E944717F09278
:103C60006E06E0926D0683E090E00E944D279093EF
:103C7000700680936F0686E090E00E944D27FC015D
:103C800090936C0680936B061182108213821282CD
:103C9000158214821092430661E0809147040E94CD
:103CA000B40461E0809148040E94B40460E0809113
:103CB00047040E94860460E0809148040E948604C4
:103CC0000E94B80664EC71E0C8010E944717B80171
:103CD00080EB92E00E940615C8010E94E9116EEC8B
:103CE00071E0C8010E944717C8010E944415C8012D
:103CF0000E94E91162ED71E0C8010E944717B80106
:103D000088EB92E00E940615C8010E94E9116DED52
:103D100071E0C8010E944717B80184EB92E00E944D
:103D20000615C8010E94E911772473940E94CA0500
:103D30004B015C0146E0642E84E293E00E94AC06F5
:103D4000892B09F467C0F090550660913E0570918B
:103D50003F0589E494E00E944C068091490490E07C
:103D6000F11056C090934105809340056091400545
:103D70007091410589E494E00E944C06FF20A1F077
:103D80008091400590914105019790934105809362
:103D90004005895B9B4FDC0112968C9190E09A95CF
:103DA00090933D0580933C05E0904904F0904A04CF
:103DB000E114F10409F48EC280914B0490914C04FB
:103DC000C0904005D0904105009709F447C20E9479
:103DD000A911C70101970E94401184E090E0FC0105
:103DE000E95BFB4F7F01C701875494408C159D050B
:103DF00008F03DC2D70112968C91898F61E070E086
:103E0000CE0149960E943A11BFEFEB1AFB0AEBCFA5
:103E10000196A8CF80919A06833009F4CBC608F0AA
:103E200003C2813009F495C6823009F4B7C6809187
:103E3000BE029091BF02A091C002B091C102A50143
:103E40009401281B390B4A0B5B0BDA01C901803D39
:103E50009740A105B10508F465C18092BE02909219
:103E6000BF02A092C002B092C10288E0D8011D92A8
:103E70008A95E9F7B8018FEF93E00E94520988E430
:103E800093E09093100480930F04109233041092E7
:103E900034042091DA063091DB061C8A1B8A1E8AC4
:103EA0001D8A188E1F8A4AE0B80180E098E0821BC4
:103EB000930B0E941629B801CE0143960E94AF14BD
:103EC0006AEE71E0C8010E944717BE016D5E7F4F28
:103ED000C8010E947B140E944008C8010E94E91199
:103EE000CE0143960E94E9110E949D10019709F0AE
:103EF000B1C00E94F5100E948C2F82E091E50E94D3
:103F0000690D10923304709234040E94EE131C8ADF
:103F10001B8A1E8A1D8A188E1F8A4AE0B8010E94D9
:103F20002129B801CE0143960E94AF1460EF71E0E1
:103F3000C8010E944717BE016D5E7F4FC8010E94F5
:103F40007B1466EF71E00E9465140E944008C8016E
:103F50000E94E911CE0143960E94E91110923304A8
:103F600082E0809334048091D606882381F00E94F9
:103F70004C1281110CC08091D306811108C010929F
:103F8000CB061092CC061092CD061092CE067092FF
:103F9000D6064091CB065091CC066091CD0670912B
:103FA000CE06C8010E94B9146AEF71E0CE014396B3
:103FB0000E944717B801CE0143960E947B1461E02E
:103FC00072E00E9465140E944008CE0143960E9450
:103FD000E911C8010E94E9111092330483E0809333
:103FE00034048091D506882381F00E944C128111FF
:103FF0000CC08091D306811108C01092CF06109298
:10400000D0061092D1061092D2067092D506409139
:10401000CF065091D0066091D1067091D206C801AA
:104020000E94B91465E072E0CE0143960E944717E2
:10403000B801CE0143960E947B146BE072E00E94AF
:1040400065140E944008CE0143960E94E911C80100
:104050000E94E9111092330484E0809334040E949A
:104060004E0E0E94822B20E030E543EC57E40E9484
:104070001A2FAB01BC01C8010E94B9146DE072E0B7
:10408000CE0143960E944717B801CE0143960E9485
:104090007B1464E172E00E9465140E944008CE0126
:1040A00043960E94E911C8010E94E911109233045D
:1040B00085E0809334040E94F510AB01BC01C80177
:1040C0000E94B91468E172E0CE0143960E9447173E
:1040D000B801CE0143960E947B1468EF71E00E9404
:1040E00065140E944008CE0143960E94E911C80160
:1040F0000E94E9118091BC029091BD02019663E09B
:1041000070E00E94332D9093BD028093BC02E09139
:104110000304F091040430E020E040E060E18FEF20
:1041200093E009958091A306882309F470C00E944A
:104130009D10019709F06BC01092330485E08093C5
:1041400034046EE172E08BEF93E00E94F1110E9463
:10415000EE1390932303809322038091D606882345
:1041600081F00E944C1281110CC08091D306811104
:1041700008C01092CB061092CC061092CD06109279
:10418000CE067092D6068091CB069091CC06A09177
:10419000CD06B091CE068093B8029093B902A09359
:1041A000BA02B093BB028091D506882381F00E94A9
:1041B0004C1281110CC08091D306811108C010925D
:1041C000CF061092D0061092D1061092D2067092AD
:1041D000D5068091CF069091D006A091D106B091DE
:1041E000D2068093B4029093B502A093B602B09326
:1041F000B7020E944E0E0E94822B6093B002709311
:10420000B1028093B2029093B3027092A40680E050
:1042100090E0892B09F48ACD0E942607882309F4AF
:1042200083CD0E94000080CD853009F4A0C508F43C
:1042300073C5863009F0FBCD84E293E00E94290625
:10424000892B09F4F4CD8091A406882309F4EFCDDD
:104250001092A4061092A30669E08EC58091810693
:10426000909182060E94A91190E080E0B8CD0E9452
:10427000C90780919F069091A006A091A106B091D8
:10428000A2060196A11DB11D80939F069093A006E2
:10429000A093A106B093A2060E94CA0560937B0674
:1042A00070937C0680937D0690937E0680919B069A
:1042B00090919C06A0919D06B0919E060196A11D2D
:1042C000B11D80939B0690939C06A0939D06B0938E
:1042D0009E0632CDE0914B04E093990620904C0469
:1042E00030904D0440904E0450904F04EA30F0F668
:1042F000F0E0E358FE4D0C94472D8721E321D722AF
:10430000DA221C23A823AC238624A724CA24809164
:10431000AF069091B006A091B106B091B206B7FF7A
:1043200013C00E94E504611571058105910511F026
:104330000E940D290E94BE286093A5067093A606D0
:104340008093A7069093A8068091AF069091B0063F
:10435000A091B106B091B206B7FD0EC040915004D5
:104360005091510460915204709153048417950741
:10437000A607B70709F49ACF809154049091550489
:10438000909382068093810670927F0610928A062F
:10439000109289061092910610929206109293063E
:1043A0001092940610929506109296061092980616
:1043B0002092A9063092AA064092AB065092AC0613
:1043C00070929A0673CF8091500490915104A091FD
:1043D0005204B09153048093B3069093B406A09313
:1043E000B506B093B6064091A5065091A606609119
:1043F000A7067091A806481759076A077B0709F0B6
:1044000055CF8091890690918A06C0908F06D090F2
:104410009006F60130E020E0009709F044C02091BA
:1044200083063091840630938C0620938B0620916E
:104430008306309184062F5F3F4F3093840620938C
:10444000830601968115E0E29E0708F042C0880FBE
:10445000991F880F991F0E944D2790939006809373
:104460008F06D6018091890690918A06E816F90692
:1044700098F5CD018C199D09E0918F06F091900679
:10448000E80FF91F4D915D916D917D9140835183AE
:1044900062837383FFEFEF1AFF0AE4CF2F5F3F4F72
:1044A0008217930721F241915191619171914215C7
:1044B00053056405750591F780918B0690918C06E4
:1044C000280F391F30938606209385067092940634
:1044D000EDCE8FEF9FEFBFCFC114D10419F0C6010D
:1044E0000E94E9278091890690918A06880F991F7A
:1044F000880F991FE0918F06F0919006E80FF91F41
:1045000020823182428253828091890690918A066C
:10451000019690938A0680938906709294068BE0A8
:1045200090E04091A9065091AA066091AB06709167
:10453000AC06421553056405750509F0B7CEFC01BC
:10454000E75BFB4F40815181628173814093B306E9
:104550005093B4066093B5067093B606C090A50656
:10456000D090A606E090A706F090A806C416D5063F
:10457000E606F70609F09ACEFC01E35BFB4F2081CB
:1045800031813093AE062093AD06815B9B4FFC01D9
:1045900080819181A281B3818093AF069093B00610
:1045A000A093B106B093B2067092800609CF87E05F
:1045B00090E0B7CF8091A9069091AA06A091AB0692
:1045C000B091AC0682159305A405B50509F06ECE31
:1045D0008091500490915104A0915204B0915304E1
:1045E0008093B3069093B406A093B506B093B60635
:1045F0004091A5065091A6066091A7067091A80665
:10460000481759076A077B0709F050CE8091540478
:104610009091550490938406809383069093880626
:104620008093870690938606809385067092910604
:10463000F2E0F0939A063ACE8091500490915104A2
:10464000A0915204B09153048093B3069093B406A2
:10465000A093B506B093B6064091A5065091A60664
:104660006091A7067091A806481759076A077B074B
:1046700009F01CCE40905404509055047092960658
:104680004114510409F412CE80918306909184065E
:10469000840D951D9093840680938306C0908D06AB
:1046A000D0908E068091890690918A06840D951D82
:1046B000811520E4920710F5880F991F0E944D275D
:1046C00090938E0680938D06F60190E080E0209115
:1046D000890630918A068217930798F46191719147
:1046E000AC01440F551F20918D0630918E06240F8A
:1046F000351FD9016D937C930196E9CF8FEF9FEF22
:10470000DDCFC114D10419F0C6010E94E927E6E506
:10471000F4E08091890690918A068E0D9F1DE41425
:10472000F50489F021913191880F991F40918D06F0
:1047300050918E06840F951FDC012D933C93BFEFA3
:10474000EB1AFB0AE6CF90938A0680938906AECDDA
:10475000E5E0E0939A06AACD80915004909151042F
:10476000A0915204B09153048093B3069093B40681
:10477000A093B506B093B606809154049091550469
:104780009093BA068093B906181619060CF08ECDD0
:104790008091710690917206009711F00E94E927AE
:1047A000E0907306F0907406E114F104E9F0F7016B
:1047B000329720813181629EC001639E900D112449
:1047C000E80EF91E97018091730690917406F6E049
:1047D000EF1AF1088217930721F0C7010E94E9112F
:1047E000F1CF02970E94E927809175069091760695
:1047F000009711F00E94E9274090B9065090BA0640
:10480000C201880F991F411420E4520610F08FEF67
:104810009FEF0E944D2790937206809371068FEF51
:104820009FEF36E5431635E1530630F4649CC00132
:10483000659C900D112402960E944D27DC014D923B
:104840005D927D016D01B1E04B1A510857FC09C022
:1048500065EB71E0C6010E944717E6E0CE0ED11C61
:10486000F2CFF0927406E09273068091B9069091AF
:10487000BA060E944D27909376068093750690E0C5
:1048800080E02091B9063091BA06821793076CF444
:104890009C01220F331FE0917106F0917206E20F26
:1048A000F31F118210820196ECCFD12CC12CF12C78
:1048B000E12C8DE090E02091B9063091BA06E21625
:1048C000F3060CF0F3CCFC01E75BFB4F2081E09199
:1048D0007506F0917606EE0DFF1D20832C01FFEF8B
:1048E0004F1A5F0A40917306509174064C0D5D1D7E
:1048F000B20189E494E00E945C17840D951D2FEFAE
:10490000E21AF20A36E0C30ED11CD5CF80915004D2
:1049100090915104A0915204B09153048093B30636
:104920009093B406A093B506B093B6064091A50641
:104930005091A6066091A7067091A80648175907DE
:104940006A077B0709F0B2CC70929806AFCC8091D1
:10495000500490915104A0915204B091530480935B
:10496000B3069093B406A093B506B093B6064091F3
:10497000A5065091A6066091A7067091A806481753
:1049800059076A077B0709F091CC7092A3066092E1
:104990009A068CCC8091500490915104A0915204BD
:1049A000B09153048093B3069093B406A093B506D8
:1049B000B093B60680914005909141050C970CF498
:1049C00075CC312C212CABE0CA2ED12C8091B906AC
:1049D0009091BA06281639060CF0B8C0809171067D
:1049E000909172062101440C551C480E591EE0910D
:1049F0007506F0917606E20DF31DE081E15090E03E
:104A000080E0E93038F5F0E0E55FFA4DD201ED9055
:104A1000FC900C94472D142530253F253F25572524
:104A20005725732573258A25E114F10419F0C70170
:104A30000E94E92781E090E00E944D27F601E75BA4
:104A4000FB4F20812983FC012083D2018D939C930D
:104A500081E090E0C80ED91EFFEF2F1A3F0AB6CFB3
:104A6000E114F10419F0C7010E94E92781E090E008
:104A70000E944D27F601E75BFB4F2081E4CFE11454
:104A8000F10419F0C7010E94E92782E090E00E943A
:104A90004D27F601E75BFB4F20813181FC0131831B
:104AA0002083D2018D939C9382E090E0D3CFE114D8
:104AB000F10419F0C7010E94E92784E090E00E9408
:104AC0004D27F601E75BFB4F408151816281738185
:104AD000FC014083518362837383D2018D939C9345
:104AE00084E090E0B7CFE114F10419F0C7010E940F
:104AF000E92784E090E00E944D27F601E75BFB4F39
:104B00004081518162817381FC01408351836283C2
:104B10007383E3CFE114F10431F0C7010E94E9117E
:104B2000C7010E94E92786E090E00E944D277C01A2
:104B300065EB71E00E944717A701B60189E494E094
:104B40000E945C17F201F182E08284CF7092A40689
:104B5000ADCB80917F06882351F010927F0661E0F3
:104B600080918106909182060E94851514C08091E3
:104B70008006882381F0109280068091AD06909186
:104B8000AE0680934B0690934C06909360068093FC
:104B900061060E94B80610929A0649C98091910652
:104BA000882331F01092910683E080939A063FC9E2
:104BB00064E0D6CF80919206811108C0709292066F
:104BC00060E08FEF9FEF0E94851531C980919406B8
:104BD000882309F43FC00E94CA05C0907B06D0908C
:104BE0007C06E0907D06F0907E06AB01BC014C197E
:104BF0005D096E097F098091770690917806A091F2
:104C00007906B0917A06B695A79597958795481736
:104C100059076A077B0708F40AC910929406E090C6
:104C20008506F09086068091830690918406E816AA
:104C3000F90668F462E08FEF9FEF0E9485152FEF71
:104C4000E21AF20AF0928606E0928506ECCF109204
:104C50009206EDC80E94CA05C0907B06D0907C06E3
:104C6000E0907D06F0907E066C197D098E099F0903
:104C7000C0907706D0907806E0907906F0907A069A
:104C8000C616D706E806F90608F0D1C810929206B3
:104C900080919306811103C070929306C8C88091D9
:104CA0008D0690918E06009711F00E94E927809161
:104CB000890690918A06009759F1811530E493078F
:104CC00010F5880F991F0E944D2790938E068093B0
:104CD0008D0690E080E02091890630918A06821747
:104CE0009307A0F42091AD063091AE06AC01440FBD
:104CF000551FE0918D06F0918E06E40FF51F31836C
:104D000020830196E8CF8FEF9FEFDDCF84E04DCF7A
:104D10001092910682E049CF9091950691111BC0A7
:104D2000209187063091880640918506509186062D
:104D30002417350780F47092950663E0C9010E943C
:104D40008515809187069091880601969093880634
:104D5000809387066CC880919606882329F010926C
:104D600096061092950663C89923A1F260C88091B7
:104D7000980666E081110FCF90E080E0F5CECF93EA
:104D8000DF9381E494E00E94E91180916B06909199
:104D90006C06009711F00E94E927C0916D06D09132
:104DA0006E062097E1F0FE0132972081318146E0C6
:104DB000429FC001439F900D1124C80FD91F9E012F
:104DC00080916D0690916E0626978217930721F0C9
:104DD000CE010E94E911F3CF02970E94E92780914A
:104DE0006F0690917006009711F00E94E92780915C
:104DF000710690917206009711F00E94E927C09108
:104E00007306D09174062097E1F0FE01329720815D
:104E1000318146E0429FC001439F900D1124C80F8D
:104E2000D91F9E0180917306909174062697821770
:104E3000930721F0CE010E94E911F3CF02970E945F
:104E4000E9278091750690917606009711F00E94EF
:104E5000E9278BEB96E0DF91CF910C94E911EF926B
:104E60000F931F93CF93DF93E80134E047FD34E1C4
:104E7000042E000C550B57FF03C051954195510965
:104E8000E32E022F242FAE010E943B29CE01DF9199
:104E9000CF911F910F91EF9008950F931F93CF9390
:104EA000DF938230910510F482E090E0E091DC061F
:104EB000F091DD0630E020E0B0E0A0E0309799F41A
:104EC0002115310509F44AC0281B390B243031055E
:104ED000D8F58A819B816115710589F1FB01938366
:104EE0008283FE0111C040815181028113814817E4
:104EF0005907E0F04817590799F4109761F0129696
:104F00000C93129713961C933296CF01DF91CF9199
:104F10001F910F9108950093DC061093DD06F4CFE6
:104F20002115310551F04217530738F0A901DB0173
:104F30009A01BD01DF01F801C1CFEF01F9CF9093D4
:104F4000DD068093DC06CDCFFE01E20FF31F8193D7
:104F500091932250310939832883D7CF2091DA06E3
:104F60003091DB06232B41F42091020130910301A3
:104F70003093DB062093DA06209100013091010185
:104F80002115310541F42DB73EB7409104015091F0
:104F90000501241B350BE091DA06F091DB06E217E0
:104FA000F307A0F42E1B3F0B2817390778F0AC014C
:104FB0004E5F5F4F2417350748F04E0F5F1F509329
:104FC000DB064093DA06819391939FCFF0E0E0E017
:104FD0009CCFCF93DF930097E9F0FC0132971382C7
:104FE0001282A091DC06B091DD06ED0130E020E0F8
:104FF0001097A1F420813181820F931F2091DA064E
:105000003091DB062817390709F061C0F093DB0601
:10501000E093DA06DF91CF910895EA01CE17DF071A
:10502000E8F54A815B819E0141155105B1F7E9011F
:10503000FB83EA8349915991C40FD51FEC17FD07F3
:1050400061F4808191810296840F951FE901998313
:105050008883828193819B838A83F0E0E0E01296CB
:105060008D919C9113970097B9F52D913C911197D3
:10507000CD010296820F931F2091DA063091DB0654
:105080002817390739F6309751F51092DD0610923E
:10509000DC06B093DB06A093DA06BCCFD383C283D1
:1050A00040815181840F951FC817D90761F44E5F65
:1050B0005F4F88819981480F591F518340838A81AE
:1050C0009B81938382832115310509F0B0CFF09342
:1050D000DD06E093DC069ECFFD01DC01C0CF13822C
:1050E0001282D7CF8F929F92AF92BF92CF92DF92D0
:1050F000EF92FF92CF93DF93EC01688179818A81EF
:105100009B81611571058105910521F464E279EDBA
:105110008BE597E02DE133EF41E050E00E947D2CDC
:1051200049015A019B01AC01A7EAB1E40E949C2C01
:105130006B017C01ACEEB4EFA50194010E94AA2C96
:10514000C60ED71EE81EF91EF7FE06C081E0C81A7B
:10515000D108E10880E8F80AC882D982EA82FB8295
:10516000C701B6019F77DF91CF91FF90EF90DF905D
:10517000CF90BF90AF909F908F9008958F929F9205
:10518000AF92BF92CF92DF92EF92FF9260910601B1
:1051900070910701809108019091090161157105D5
:1051A0008105910521F464E279ED8BE597E02DE12D
:1051B00033EF41E050E00E947D2C49015A019B01F0
:1051C000AC01A7EAB1E40E949C2C6B017C01ACEE1F
:1051D000B4EFA50194010E94AA2CC60ED71EE81EAA
:1051E000F91EF7FE06C081E0C81AD108E10880E880
:1051F000F80AC0920601D0920701E0920801F092ED
:105200000901C701B6019F77FF90EF90DF90CF9023
:10521000BF90AF909F908F90089560930601709318
:10522000070180930801909309010895BB274A3034
:1052300031F4992322F4BDE2909581959F4F0C940F
:105240002229BB27FB015527AA27880F991FAA1FD0
:10525000A41710F0A41B83955051B9F7A05DAA3391
:1052600008F0A95DA193009779F7B111B19311925C
:10527000CB010C94722BA9E0B0E0E1E4F9E20C94CC
:10528000B52C6A01F22EB02E102FFBE3AF2EA01624
:1052900008F41BE31F5F012F27E0AE014F5F5F4F54
:1052A0000E949A2ABC018981982F9970913009F443
:1052B0003FC09BE2E1FC04C09E2D9170E0FC3AC02F
:1052C0005E2D5071E82FE87083FF46C084E0911195
:1052D00001C083E0EF2DE81B8F1508F0E0E0D60158
:1052E0008E2F20E2552351F1992329F0D6019C936A
:1052F000C60101966C0196012D5F3F4FE2FE24C06E
:105300008EE4D6018C9391E411969C93119712969A
:105310008C93D9018E2F90E281111BC0E20FF32FE5
:10532000F11D10828EEF9FEF2996ECE00C94D12CAA
:105330009DE2C6CF90E2C4CF2D9381508111FCCF66
:10534000CE0ED11CE0E0D0CF8EE6D6018C9391E654
:10535000DBCF9D938150E0CF482F447082FF3DC04A
:1053600084E0911101C083E08F1510F4EF2DE81B4C
:10537000D6018E2F20E2552309F1992329F0D60179
:105380009C93C60101966C0196012D5F3F4FE2FE92
:105390001BC089E4D6018C938EE411968C931197EF
:1053A00086E412968C93D9018E2F90E2882309F41B
:1053B000B5CF9D938150FACF2D9381508111FCCFB1
:1053C000CE0ED11CE0E0D9CF89E6D6018C938EE6D3
:1053D00011968C93119786E6E4CF9B0177FF02C06C
:1053E00030E020E0A1E0B0E0911102C0B0E0A0E028
:1053F000F9013196AE0FBF1F8B2C912CBB2009F405
:1054000061C05401EFEFAE1ABE0AAA0DBB1DFA1619
:105410001B0619F014F04F2D4A1B511188C0E3FCF4
:1054200059C07601A42FB0E2A1114FC0C40ED11C07
:10543000992309F45BC040E0D6011196F6019083F0
:105440006D01552309F448C0012F060F9A81582F8A
:10545000507184FF03C0913309F4015010160CF011
:1054600047C0093008F008E0EEE2FE2E5B01A01A0A
:10547000B10885019194819491082F3F320729F456
:10548000D601FC92F60131966F016217730794F111
:10549000021713077CF5DB01A21BB30BAA24A3940C
:1054A000B12CAC0EBD1EAA0DBB1D11968C912150C6
:1054B0003109D601119628153905F4F0F6018083DB
:1054C0006D01DBCFB12CA12CA0CFF701B1937F01EF
:1054D000A150AACF9111B0CFD601942F50E302C0B2
:1054E0005D9391509111FCCFC40ED11C40E0ACCF24
:1054F00001E0BACF80E3DBCF6217730731F4963354
:1055000088F4953311F4552369F0F6018083FD0189
:10551000842F90E2811108C0A40FB11D1C9290E06D
:1055200080E002CF81E3F1CF91938150F3CF9111CD
:1055300083CF8ACF283008F027E03327DA01990F8C
:10554000311D87FD916000966105710539F4326067
:105550002E5F3D9330E32A95E1F708959F3F30F0A9
:1055600080387105610509F03C5F3C5F3D939130E7
:1055700008F08068911DDF93CF931F930F93FF92E4
:10558000EF92192F987F9695E92F96959695E90FAA
:10559000FF27EC5BFE4F99273327EE24FF24A7015A
:1055A000E70105900894079428F4360FE71EF81ECB
:1055B000491F511D660F771F881F991F0694A1F779
:1055C0000590079428F4E70EF81E491F561FC11DC9
:1055D000770F881F991F661F0694A1F705900794FF
:1055E00028F4F80E491F561FC71FD11D880F991F99
:1055F000661F771F0694A1F70590079420F4490FC2
:10560000561FC71FD81F990F661F771F881F069444
:10561000A9F784911095177041F0D695C7955795C5
:105620004795F794E7941A95C1F7EAEEF0E068948D
:105630001590159135916591959105907FE273953F
:10564000E118F10A430B560BC90BD009C0F7E10C66
:10565000F11E431F561FC91FD01D7EF4703311F475
:105660008A95E6CFE894015030F0080F0AF400273D
:10567000021708F4202F2395022F7A3328F079E3BC
:105680007D932A95E9F710C07D932A9589F60694B3
:1056900097956795379517951794E118F10A430B7D
:1056A000560BC90BD00998F023957E9173957A33E8
:1056B00008F070E37C932013B8F77E9170617D93BE
:1056C00030F0839571E37D9370E32A95E1F711241F
:1056D000EF90FF900F911F91CF91DF91992787FD58
:1056E00090950895DC01FC01672F71917723E1F714
:1056F000329704C07C916D9370836291AE17BF079F
:10570000C8F30895E89409C097FB3EF490958095FE
:10571000709561957F4F8F4F9F4F9923A9F0F92F77
:1057200096E9BB279395F695879577956795B795F5
:10573000F111F8CFFAF4BB0F11F460FF1BC06F5FDB
:105740007F4F8F4F9F4F16C0882311F096E911C0ED
:10575000772321F09EE8872F762F05C0662371F00E
:1057600096E8862F70E060E02AF09A95660F771F22
:10577000881FDAF7880F9695879597F908950E9404
:10578000D22B0C94432C0E94352C38F00E943C2CD8
:1057900020F0952311F00C942C2C0C94322C112415
:1057A0000C94772C0E94542C70F3959FC1F3950FA5
:1057B00050E0551F629FF001729FBB27F00DB11D95
:1057C000639FAA27F00DB11DAA1F649F6627B00D25
:1057D000A11D661F829F2227B00DA11D621F739F0E
:1057E000B00DA11D621F839FA00D611D221F749F1C
:1057F0003327A00D611D231F849F600D211D822F63
:10580000762F6A2F11249F5750409AF0F1F0882389
:105810004AF0EE0FFF1FBB1F661F771F881F9150B6
:105820005040A9F79E3F510580F00C942C2C0C940D
:10583000772C5F3FE4F3983ED4F386957795679590
:10584000B795F795E7959F5FC1F7FE2B880F911DE0
:105850009695879597F9089597F99F6780E870E086
:1058600060E008959FEF80EC089500240A941616D6
:10587000170618060906089500240A94121613063E
:10588000140605060895092E0394000C11F48823CC
:1058900052F0BB0F40F4BF2B11F460FF04C06F5FE8
:1058A0007F4F8F4F9F4F089557FD9058440F551FBE
:1058B00059F05F3F71F04795880F97FB991F61F092
:1058C0009F3F79F087950895121613061406551F09
:1058D000F2CF4695F1DF08C0161617061806991F75
:1058E000F1CF86957105610508940895E894BB276A
:1058F00066277727CB0197F90895052E97FB1EF4AD
:1059000000940E94942C57FD07D00E94E62C07FCBF
:1059100003D04EF40C94942C5095409530952195DD
:105920003F4F4F4F5F4F08959095809570956195CB
:105930007F4F8F4F9F4F08950E94082DA59F900D78
:10594000B49F900DA49F800D911D11240895B7FF61
:105950000C949C2C0E949C2C821B930B08952F92DC
:105960003F924F925F926F927F928F929F92AF92EF
:10597000BF92CF92DF92EF92FF920F931F93CF933C
:10598000DF93CDB7DEB7CA1BDB0B0FB6F894DEBFD3
:105990000FBECDBF09942A88398848885F846E84F9
:1059A0007D848C849B84AA84B984C884DF80EE8043
:1059B000FD800C811B81AA81B981CE0FD11D0FB64C
:1059C000F894DEBF0FBECDBFED010895A1E21A2EFF
:1059D000AA1BBB1BFD010DC0AA1FBB1FEE1FFF1F93
:1059E000A217B307E407F50720F0A21BB30BE40BE3
:1059F000F50B661F771F881F991F1A9469F760952A
:105A00007095809590959B01AC01BD01CF010895E3
:105A1000A29FB001B39FC001A39F700D811D1124EF
:105A2000911DB29F700D811D1124911D0895DB0100
:105A30008F939F930E949C2CBF91AF91A29F800D4A
:105A4000911DA39F900DB29F900D11240895991B55
:105A500079E004C0991F961708F0961B881F7A9565
:105A6000C9F78095089597FB072E16F4009407D088
:105A700077FD09D00E94992E07FC05D03EF4909541
:105A800081959F4F0895709561957F4F0895EE0F12
:105A9000FF1F0590F491E02D0994DF93CF931F939E
:105AA0000F939A9DF02D219FF00D8B9DF00D8A9DF7
:105AB000E02DF10D039FF00D029FE00DF11D4E9DB5
:105AC000E00DF11D5E9DF00D4F9DF00D7F936F93E6
:105AD000BF92AF925F934F93D5010E94082D8B0127
